:020000040800F2
:1000000000000824690A00083105000837050008C7
:100010003D050008430500084905000800000000F0
:100020000000000000000000000000004F05000874
:100030005D050008000000006B0500087905000858
:10004000B90A0008B90A0008B90A0008B90A000884
:10005000B90A0008B90A0008B90A0008B90A000874
:10006000B90A0008B90A0008B90A0008850500089D
:10007000B90A0008B90A0008B90A0008B90A000854
:10008000B90A0008B90A0008B90A0008B90A000844
:10009000B90A0008B90A0008B90A0008B90A000834
:1000A000B90A0008B90A0008B90A0008B90A000824
:1000B000B90A0008B90A0008B90A0008B90A000814
:1000C000B90A0008B90A0008B90A0008B90A000804
:1000D000B90A0008B90A0008B90A0008B90A0008F4
:1000E000B90A0008B90A000800000000B90A0008AF
:1000F000B90A0008B90A0008B90A0008B90A0008D4
:10010000B90A0008B90A0008B90A0008B90A0008C3
:10011000B90A0008B90A0008B90A0008B90A0008B3
:10012000B90A0008B90A0008B90A0008B90A0008A3
:10013000B90A0008B90A0008B90A0008B90A000893
:1001400000000000000000000000000000000000AF
:10015000B90A0008B90A0008B90A0008B90A000873
:10016000B90A0008B90A0008B90A0008B90A000863
:10017000B90A0008B90A0008B90A0008B90A000853
:10018000B90A0008B90A0008B90A0008B90A000843
:10019000B90A0008B90A0008B90A0008B90A000833
:1001A000B90A0008B90A0008B90A0008B90A000823
:1001B000B90A0008B90A0008B90A0008B90A000813
:1001C000B90A0008B90A0008B90A0008B90A000803
:1001D000B90A0008B90A0008B90A0008B90A0008F3
:1001E000B90A0008B90A0008B90A0008B90A0008E3
:1001F000B90A0008B90A0008B90A0008B90A0008D3
:10020000B90A0008B90A0008B90A0008B90A0008C2
:10021000B90A0008B90A0008B90A0008B90A0008B2
:10022000B90A0008B90A0008B90A0008000000006D
:10023000B90A0008B90A000800000000B90A00085D
:10024000B90A0008B90A0008B90A0008B90A000882
:10025000B90A0008B90A0008B90A0008B90A000872
:10026000B90A0008B90A0008B90A0008B90A000862
:10027000B90A0008B90A0008B90A0008000000001D
:10028000B90A0008B90A0008B90A0008000000000D
:0802900000000000B90A00089B
:1002980010B5054C237833B9044B13B10448AFF3B8
:1002A80000800123237010BD3403002400000000E7
:1002B800305A000808B5034B1BB103490348AFF394
:1002C800008008BD0000000038030024305A0008F0
:1002D80080B582B000AF0D4BD3F8D8300B4A43F04D
:1002E8000103C2F8D830094BD3F8D83003F0010322
:1002F8007B607B68002200210B2000F054FD0B205E
:1003080000F06BFD00BF0837BD4680BD00440258B1
:1003180080B483B000AF124BD3F8E030104A43F0FA
:100328008003C2F8E0300E4BD3F8E03003F08003CE
:100338007B607B680A4BD3F8E030094A43F010032E
:10034800C2F8E030064BD3F8E03003F010033B600E
:100358003B6800BF0C37BD465DF8047B704700BFA3
:100368000044025880B500AF00F0A4FB00F040F84C
:10037800FFF7CEFFFFF7ACFF00F092F900F054FA58
:10038800164803F0E9FF0021144804F04DFA002153
:10039800134804F0D9F80421104804F045FA002164
:1003A8000F4804F0D1F808210C4804F03DFA002168
:1003B8000B4804F0C9F80B490B4B1A68C8230B48C3
:1003C80001F082F8064B1B68DA68054B1B6842F49B
:1003D8000072DA60014804F02FF8FEE750030024A9
:1003E8009C0300240000002420030024E8030024C8
:1003F80080B59CB000AF07F124034C2200211846B9
:1004080005F0E6FA3B1D20220021184605F0E0FA27
:10041800022002F085FF00233B60314BDB6A304A43
:1004280023F00103D3622E4BDB6A03F001033B6028
:100438002C4B9B6923F440432A4A43F400439361BD
:10044800284B9B6903F440433B603B6800BF254B46
:100458009B6903F40053B3F5005FF8D101237B6275
:100468004FF48033BB620223BB640223FB64052381
:100478003B6560237B650223BB650223FB65022382
:100488003B6608237B660023BB660023FB6607F1F7
:100498002403184602F07EFF0346002B01D000F02B
:1004A80023F83F237B600323BB600023FB60082302
:1004B8003B6100237B610023BB610023FB610023B8
:1004C8003B623B1D0221184603F0BEFB0346002B8E
:1004D80001D000F009F800BF7037BD4680BD00BFED
:1004E800000400580048025880B400AF72B600BF3C
:1004F800FEE7000080B483B000AF0A4BD3F8F430B5
:10050800084A43F00203C2F8F430064BD3F8F4303B
:1005180003F002037B607B6800BF0C37BD465DF8C3
:10052800047B70470044025880B400AFFEE780B4F3
:1005380000AFFEE780B400AFFEE780B400AFFEE78F
:1005480080B400AFFEE780B400AF00BFBD465DF8E1
:10055800047B704780B400AF00BFBD465DF8047BE4
:10056800704780B400AF00BFBD465DF8047B70479C
:1005780080B500AF00F010FB00BF80BD80B500AFB4
:10058800024801F00BFA00BF80BD00BFE803002459
:1005980080B400AF374BD3F88830364A43F4700341
:1005A800C2F88830344B1B6803F00F03062B07D8BA
:1005B800314B1B6823F00F032F4A43F007031360E6
:1005C8002E4B1B682D4A43F0010313602B4B00226E
:1005D8001A612A4B1A682949294B13400B60264B8C
:1005E8001B6803F00803002B07D0234B1B6823F07C
:1005F8000F03214A43F007031360204B00229A613E
:100608001E4B0022DA611D4B00221A621B4B1D4A49
:100618009A621A4B1C4ADA62184B1C4A1A63174B27
:1006280000225A63154B194A9A63144B0022DA6365
:10063800124B164A1A64114B00225A640F4B1B685E
:100648000E4A23F4802313600C4B00221A66104BC9
:100658001A68104B1340B3F1005F02D20E4B01220F
:100668001A600E4B43F2D2021A6000BFBD465DF815
:10067800047B704700ED00E000200052004402585F
:100688007FEDF6EA000202020000FF01800201018C
:100698000010005C0000FFFF08810051004000527C
:1006A80080B59AB000AF07F1580300221A605A606B
:1006B8009A60DA6007F14C0300221A605A609A6067
:1006C80007F1300300221A605A609A60DA601A61F2
:1006D8005A619A613B1D2C220021184605F078F9D1
:1006E8004F4B504A1A604E4B77225A604C4B0022AF
:1006F8009A604B4B2722DA60494B00221A61484B1B
:1007080000225A61464B80229A61454803F0CCFD8D
:100718000346002B01D0FFF7E7FE4FF48053BB657B
:1007280007F1580319463E4804F01AFB0346002B0C
:1007380001D0FFF7D9FE3A4804F014F80346002B1D
:1007480001D0FFF7D1FE0023FB6400233B650023A3
:100758007B6507F14C031946314805F02DF803462F
:10076800002B01D0FFF7C0FE60233B6300237B63AF
:100778000023BB630023FB6300233B6400237B64EB
:100788000023BB6407F1300300221946244804F013
:10079800D3F90346002B01D0FFF7A6FE07F130037B
:1007A800042219461E4804F0C7F90346002B01D05D
:1007B800FFF79AFE07F1300308221946184804F09B
:1007C800BBF90346002B01D0FFF78EFE00237B60A8
:1007D8000023BB600023FB6000233B6100237B6197
:1007E8004FF40053BB610023FB6100233B624FF0D1
:1007F80000737B620023BB620023FB623B1D19462A
:10080800074805F067F80346002B01D0FFF76CFE98
:10081800034800F0E9F800BF6837BD4680BD00BF57
:10082800500300240000014080B58EB000AF07F1EE
:10083800280300221A605A609A60DA6007F11C03E4
:1008480000221A605A609A603B4600221A605A6079
:100858009A60DA601A615A619A612B4B2B4A1A60C6
:10086800294B00225A60284B00229A60264B6422AA
:10087800DA60254B00221A61234B80229A612248B4
:1008880003F012FD0346002B01D0FFF72DFE4FF4B5
:100898008053BB6207F1280319461B4804F060FA2D
:1008A8000346002B01D0FFF71FFE174803F0EBFDAE
:1008B8000346002B01D0FFF717FE0023FB6100233E
:1008C8007B6207F11C0319460F4804F075FF0346C5
:1008D800002B01D0FFF708FE00233B6000237B605C
:1008E8000023BB6000233B613B46002219460648B3
:1008F80004F0A8F80346002B01D0FFF7F5FD00BF70
:100908003837BD4680BD00BF9C030024000400406A
:1009180080B584B000AF78607B681B682D4A93422D
:100928000FD12D4BD3F8F0302B4A43F00103C2F816
:10093800F030294BD3F8F03003F00103FB60FB687B
:1009480044E07B681B68254A93423FD1224BD3F889
:10095800E830214A43F00203C2F8E8301E4BD3F8CE
:10096800E83003F00203BB60BB681D4B1D4A1A60E8
:100978001B4B17225A601A4B40229A60184B0022D0
:10098800DA60174B4FF480621A61154B4FF48052AE
:100998005A61134B4FF480429A61114B4FF48072A5
:1009A800DA610F4B4FF400321A620D4B00225A6283
:1009B8000B4800F02DFA0346002B01D0FFF794FDF9
:1009C8007B68074A5A62064A7B68936300BF103700
:1009D800BD4680BD000001400044025800040040AC
:1009E800E80300241000024080B588B000AF7860AA
:1009F80007F10C0300221A605A609A60DA601A61E3
:100A08007B681B68134A93421FD1134BD3F8E0301D
:100A1800114A43F01003C2F8E0300F4BD3F8E0302E
:100A280003F01003BB60BB684FF42853FB6002233C
:100A38003B6100237B610023BB610123FB6107F15C
:100A48000C031946054802F0BBFA00BF2037BD4623
:100A580080BD00BF00000140004402580010025849
:100A6800DFF834D0FFF794FD0C480D490D4A0023F8
:100A780002E0D458C4500433C4188C42F9D30A4A4B
:100A88000A4C002301E013600432A242FBD304F0B5
:100A9800A7FFFFF767FC7047000008240000002448
:100AA80034030024685A0008340300246404002432
:100AB800FEE7000080B582B000AF032000F068F9BF
:100AC80003F078FA0246154B9B691B0A03F00F03E3
:100AD8001349CB5C03F01F0322FA03F37B600F4B2F
:100AE8009B6903F00F030E4AD35C03F01F037A6877
:100AF80022FA03F30B4A13600B4A7B6813600F203A
:100B080000F014F80346002B01D0012302E0FFF7A0
:100B1800F1FC002318460837BD4680BD0044025842
:100B2800485A0008280300242403002480B582B012
:100B380000AF7860154B1B78002B01D1012321E011
:100B4800134B1A68114B1B7819464FF47A73B3FB91
:100B5800F1F3B2FBF3F3184600F04DF90346002B0E
:100B680001D001230EE07B680F2B0AD80022796898
:100B78004FF0FF3000F017F9064A7B681360002336
:100B880000E0012318460837BD4680BD3003002425
:100B9800240300242C03002480B400AF064B1B78E8
:100BA8001A46064B1B681344044A136000BFBD462F
:100BB8005DF8047B704700BF300300246004002404
:100BC80080B400AF034B1B681846BD465DF8047B34
:100BD800704700BF6004002480B400AF034B1B685B
:100BE8001B0C1846BD465DF8047B70470010005C7E
:100BF80080B485B000AF78607B6803F00703FB60C2
:100C08000B4BDB68BB60BA684FF6FF031340BB6051
:100C1800FB681A02BB681A43064B1343BB60044ABD
:100C2800BB68D36000BF1437BD465DF8047B7047CE
:100C380000ED00E00000FA0580B400AF044BDB686B
:100C48001B0A03F007031846BD465DF8047B70478E
:100C580000ED00E080B483B000AF0346FB80B7F935
:100C68000630002B0BDBFB8803F01F020749B7F99E
:100C780006305B09012000FA02F241F8232000BF88
:100C88000C37BD465DF8047B704700BF00E100E00B
:100C980080B483B000AF03463960FB80B7F90630F3
:100CA800002B0ADB3B68DAB20C49B7F906301201AF
:100CB800D2B20B4483F800230AE03B68DAB2084951
:100CC800FB8803F00F03043B1201D2B20B441A76DF
:100CD80000BF0C37BD465DF8047B704700E100E0BB
:100CE80000ED00E080B489B000AFF860B9607A60C8
:100CF800FB6803F00703FB61FB69C3F10703042BDF
:100D080028BF0423BB61FB690433062B02D9FB69A6
:100D1800033B00E000237B614FF0FF32BB6902FA1E
:100D280003F3DA43BB681A407B699A404FF0FF31FE
:100D38007B6901FA03F3D9437B680B4013431846D8
:100D48002437BD465DF8047B7047000080B582B04B
:100D580000AF78607B68013BB3F1807F01D301234A
:100D68000FE00A4A7B68013B53600F214FF0FF30C8
:100D7800FFF78EFF054B00229A60044B07221A608A
:100D8800002318460837BD4680BD00BF10E000E0CC
:100D980080B582B000AF78607868FFF729FF00BFA0
:100DA8000837BD4680BD80B586B000AF0346B96040
:100DB8007A60FB81FFF740FF78617A68B9687869E3
:100DC800FFF790FF0246B7F90E3011461846FFF7B5
:100DD8005FFF00BF1837BD4680BD80B582B000AF49
:100DE8000346FB80B7F906301846FFF733FF00BF0C
:100DF8000837BD4680BD80B582B000AF786078689E
:100E0800FFF7A4FF034618460837BD4680BD00001B
:100E180080B586B000AF7860FFF7D2FE38617B6896
:100E2800002B01D1012316E37B681B68664A9342B5
:100E38004AD07B681B68654A934245D07B681B682B
:100E4800634A934240D07B681B68624A93423BD016
:100E58007B681B68604A934236D07B681B685F4A90
:100E6800934231D07B681B685D4A93422CD07B68E3
:100E78001B685C4A934227D07B681B685A4A934296
:100E880022D07B681B68594A93421DD07B681B6837
:100E9800574A934218D07B681B68564A934213D02E
:100EA8007B681B68544A93420ED07B681B68534A80
:100EB800934209D07B681B68514A934204D07B68EF
:100EC8001B68504A934201D1012300E00023002B04
:100ED80000F03B817B68022283F835207B68002282
:100EE80083F834207B681B68374A93424AD07B6872
:100EF8001B68364A934245D07B681B68344A934244
:100F080040D07B681B68334A93423BD07B681B68A0
:100F1800314A934236D07B681B68304A934231D0BD
:100F28007B681B682E4A93422CD07B681B682D4A2D
:100F3800934227D07B681B682B4A934222D07B6858
:100F48001B682A4A93421DD07B681B68284A934233
:100F580018D07B681B68274A934213D07B681B68AC
:100F6800254A93420ED07B681B68244A934209D0D5
:100F78007B681B68224A934204D07B681B68214A1D
:100F8800934208D17B681B681A687B681B6822F04B
:100F980001021A6007E07B681B681A687B681B6897
:100FA80022F001021A602FE0FFF70AFE02463B69B1
:100FB800D31A052B28D97B6820225A657B6803221F
:100FC80083F83520012346E2100002402800024041
:100FD8004000024058000240700002408800024071
:100FE800A0000240B8000240100402402804024059
:100FF8004004024058040240700402408804024041
:10100800A0040240B80402407B681B681B6803F018
:101018000103002BC8D17B681B681B687B617A6958
:10102800834B13407B617B689A687B68DB681A4353
:101038007B681B691A437B685B691A437B689B69F9
:101048001A437B68DB691A437B681B6A13437A6916
:1010580013437B617B685B6A042B07D17B68DA6A80
:101068007B681B6B13437A6913437B61714B1A6866
:10107800714B1340B3F1005F28D37B685B68282B62
:1010880003D97B685B682E2B17D97B685B683E2B7E
:1010980003D97B685B68422B0FD97B685B68462B5A
:1010A80003D97B685B68482B07D97B685B684E2B44
:1010B80005D97B685B68522B01D8012300E0002327
:1010C800002B03D07B6943F480137B617B681B682A
:1010D8007A691A607B681B685B697B617B6923F0AE
:1010E80007037B617B685B6A7A6913437B617B6872
:1010F8005B6A042B17D17B689B6A7A6913437B610F
:101108007B68DB6A002B0ED0786801F0CFFD0346C0
:10111800002B08D07B6840225A657B68012283F83F
:101128003520012397E17B681B687A695A617868E2
:1011380001F00AFD0346BB607B68DB6D03F01F030B
:101148003F229A40BB689A60CDE07B681B683B4AA7
:10115800934222D07B681B68394A93421DD07B6832
:101168001B68384A934218D07B681B68364A9342FA
:1011780013D07B681B68354A93420ED07B681B6886
:10118800334A934209D07B681B68324A934204D0A1
:101198007B681B68304A934201D1012300E0002399
:1011A800002B00F097807B681B68244A934221D06B
:1011B8007B681B68224A93421CD07B681B68214AC3
:1011C800934217D07B681B681F4A934212D07B68F2
:1011D8001B681E4A93420DD07B681B681C4A9342C9
:1011E80008D07B681B681B4A934203D07B681B6846
:1011F800194A93427B68022283F835207B680022D3
:1012080083F834207B681B681B687B617A69134B01
:1012180013407B617B689B68402B21D07B689B686F
:10122800802B02D14FF480431BE0002319E000BF5C
:101238003F8010FE0010005C0000FFFF08540258B9
:101248001C540258305402584454025858540258F6
:101258006C54025880540258945402580F00FEFFF0
:1012680010237A68D268D2081A437B681B69DB08A6
:101278001A437B685B69DB081A437B689B69DB0858
:101288001A437B68DB69DB081A437B681B6A1B0906
:1012980013437A6913437B617B681B687A691A6018
:1012A8007B681B681A466E4B13446E4AA2FB0323E5
:1012B8001B099A007B68DA65786801F045FC0346EB
:1012C800FB607B68DB6D03F01F0301229A40FB681B
:1012D8005A6008E07B6840225A657B68032283F8DD
:1012E80035200123B7E07B681B685F4A934272D0C0
:1012F8007B681B685D4A93426DD07B681B685C4ABB
:10130800934268D07B681B685A4A934263D07B68D3
:101318001B68594A93425ED07B681B68574A9342C0
:1013280059D07B681B68564A934254D07B681B6827
:10133800544A93424FD07B681B68534A93424AD021
:101348007B681B68514A934245D07B681B68504AAA
:10135800934240D07B681B684E4A93423BD07B68DF
:101368001B684D4A934236D07B681B684B4A9342B0
:1013780031D07B681B684A4A93422CD07B681B6833
:10138800484A934227D07B681B68474A934222D039
:101398007B681B68454A93421DD07B681B68444A9A
:1013A800934218D07B681B68424A934213D07B68EB
:1013B8001B68414A93420ED07B681B683F4A9342A0
:1013C80009D07B681B683E4A934204D07B681B683F
:1013D8003C4A934201D1012300E00023002B32D084
:1013E800786801F0DFFC7B689B68802B02D17B6802
:1013F80000225A607B685A687B681B6ED2B21A60FA
:101408007B685B6E7A68926E5A607B685B68002BBB
:1014180010D07B685B68082B0CD8786801F05CFDFD
:101428007B68DB6E00221A607B681B6F7A68526FDC
:101438005A6008E07B680022DA667B6800221A6737
:101448007B6800225A677B6800225A657B68012204
:1014580083F83520002318461837BD4680BD00BFE5
:10146800F8ABFDA7CDCCCCCC100002402800024040
:1014780040000240580002407000024088000240CC
:10148800A0000240B80002401004024028040240B4
:10149800400402405804024070040240880402409C
:1014A800A0040240B8040240085402581C540258D0
:1014B8003054025844540258585402586C54025834
:1014C800805402589454025880B586B000AFF86032
:1014D800B9607A603B600023FB75FB68002B01D183
:1014E800012326E2FB6893F83430012B01D1022353
:1014F8001FE2FB68012283F83420FB6893F835303B
:10150800DBB2012B40F00A82FB68022283F8352007
:10151800FB6800225A65FB681B68684A93424AD0F8
:10152800FB681B68664A934245D0FB681B68654A9E
:10153800934240D0FB681B68634A93423BD0FB68E8
:101548001B68624A934236D0FB681B68604A934224
:1015580031D0FB681B685F4A93422CD0FB681B683C
:101568005D4A934227D0FB681B685C4A934222D0AD
:10157800FB681B685A4A93421DD0FB681B68594A8E
:10158800934218D0FB681B68574A934213D0FB68F4
:101598001B68564A93420ED0FB681B68544A934214
:1015A80009D0FB681B68534A934204D0FB681B6848
:1015B800514A934208D1FB681B681A68FB681B688C
:1015C80022F001021A6007E0FB681B681A68FB68D2
:1015D8001B6822F001021A603B687A68B968F868EB
:1015E80001F006F9FB681B68344A93424AD0FB684D
:1015F8001B68334A934245D0FB681B68314A9342C3
:1016080040D0FB681B68304A93423BD0FB681B689C
:101618002E4A934236D0FB681B682D4A934231D03C
:10162800FB681B682B4A93422CD0FB681B682A4A2C
:10163800934227D0FB681B68284A934222D0FB6854
:101648001B68274A93421DD0FB681B68254A9342B2
:1016580018D0FB681B68244A934213D0FB681B68A8
:10166800224A93420ED0FB681B68214A934209D054
:10167800FB681B681F4A934204D0FB681B681E4A1C
:10168800934201D1012300E00023002B36D0FB68F0
:101698001B681B6823F01E02FB681B6842F01602D9
:1016A8001A60FB681B6C002B3ED0FB681B681A682D
:1016B800FB681B6842F008021A6035E0100002401F
:1016C80028000240400002405800024070000240DA
:1016D80088000240A0000240B80002401004024006
:1016E80028040240400402405804024070040240AA
:1016F80088040240A0040240B8040240FB681B684A
:101708001B6823F00E02FB681B6842F00A021A608D
:10171800FB681B6C002B07D0FB681B681A68FB680A
:101728001B6842F004021A60FB681B68834A9342F4
:1017380072D0FB681B68824A93426DD0FB681B68B5
:10174800804A934268D0FB681B687F4A934263D003
:10175800FB681B687D4A93425ED0FB681B687C4A25
:10176800934259D0FB681B687A4A934254D0FB686D
:101778001B68794A93424FD0FB681B68774A9342AB
:101788004AD0FB681B68764A934245D0FB681B68C1
:10179800744A934240D0FB681B68734A93423BD01B
:1017A800FB681B68714A934236D0FB681B68704A15
:1017B800934231D0FB681B686E4A93422CD0FB6879
:1017C8001B686D4A934227D0FB681B686B4A93429B
:1017D80022D0FB681B686A4A93421DD0FB681B68CD
:1017E800684A934218D0FB681B68674A934213D033
:1017F800FB681B68654A93420ED0FB681B68644A05
:10180800934209D0FB681B68624A934204D0FB6884
:101818001B68614A934201D1012300E00023002B99
:101828001AD0FB681B6E1B6803F48033002B07D0AB
:10183800FB681B6E1A68FB681B6E42F480721A60A4
:10184800FB68DB6E002B07D0FB68DB6E1A68FB6851
:10185800DB6E42F480721A60FB681B68374A934259
:101868004AD0FB681B68364A934245D0FB681B6820
:10187800344A934240D0FB681B68334A93423BD0BA
:10188800FB681B68314A934236D0FB681B68304AB4
:10189800934231D0FB681B682E4A93422CD0FB68D8
:1018A8001B682D4A934227D0FB681B682B4A93423A
:1018B80022D0FB681B682A4A93421DD0FB681B682C
:1018C800284A934218D0FB681B68274A934213D0D2
:1018D800FB681B68254A93420ED0FB681B68244AA4
:1018E800934209D0FB681B68224A934204D0FB68E4
:1018F8001B68214A934208D1FB681B681A68FB6879
:101908001B6842F001021A6012E0FB681B681A6843
:10191800FB681B6842F001021A6009E0FB684FF49B
:1019280000625A65FB68002283F834200123FB75A6
:10193800FB7D18461837BD4680BD00BF1000024029
:101948002800024040000240580002407000024057
:1019580088000240A0000240B80002401004024083
:101968002804024040040240580402407004024027
:1019780088040240A0040240B804024008540258F7
:101988001C540258305402584454025858540258AF
:101998006C540258805402589454025880B58AB046
:1019A80000AF78600023FB60674B1B68674AA2FBA7
:1019B80003239B0A7B627B689B6D3B627B689B6D04
:1019C800FB613B6A1B68BB61FB691B687B617B68C9
:1019D8001B685F4A93424AD07B681B685D4A934202
:1019E80045D07B681B685C4A934240D07B681B6883
:1019F8005A4A93423BD07B681B68594A934236D077
:101A08007B681B68574A934231D07B681B68564AEB
:101A180093422CD07B681B68544A934227D07B683A
:101A28001B68534A934222D07B681B68514A9342F1
:101A38001DD07B681B68504A934218D07B681B688E
:101A48004E4A934213D07B681B684D4A93420ED08E
:101A58007B681B684B4A934209D07B681B684A4ADB
:101A6800934204D07B681B68484A934201D1012302
:101A780000E00023002B00F02B847B68DB6D03F073
:101A88001F0308229A40BB691340002B00F0A28074
:101A98007B681B682E4A93424AD07B681B682D4A94
:101AA800934245D07B681B682B4A934240D07B68A1
:101AB8001B682A4A93423BD07B681B68284A93429A
:101AC80036D07B681B68274A934231D07B681B68F5
:101AD800254A93422CD07B681B68244A934227D01E
:101AE8007B681B68224A934222D07B681B68214A84
:101AF80093421DD07B681B681F4A934218D07B68AD
:101B08001B681E4A934213D07B681B681C4A934289
:101B18000ED07B681B681B4A934209D07B681B6800
:101B2800194A934204D07B681B68184A93422FD104
:101B38007B681B681B6803F00403002B14BF012398
:101B48000023DBB22EE000BF24030024B5814E1B26
:101B580010000240280002404000024058000240A5
:101B68007000024088000240A0000240B800024015
:101B78001004024028040240400402405804024075
:101B88007004024088040240A0040240B8040240E5
:101B98007B681B681B6803F00803002B14BF012334
:101BA8000023DBB2002B15D07B681B681A687B68A2
:101BB8001B6822F004021A607B68DB6D03F01F03C8
:101BC80008229A403B6A9A607B685B6D43F0010289
:101BD8007B685A657B68DB6D03F01F03BA6922FADC
:101BE80003F303F00103002B6ED07B681B68694A7E
:101BF80093424AD07B681B68674A934245D07B680A
:101C08001B68664A934240D07B681B68644A9342CB
:101C18003BD07B681B68634A934236D07B681B685D
:101C2800614A934231D07B681B68604A93422CD04A
:101C38007B681B685E4A934227D07B681B685D4AB5
:101C4800934222D07B681B685B4A93421DD07B6815
:101C58001B685A4A934218D07B681B68584A9342BB
:101C680013D07B681B68574A93420ED07B681B6869
:101C7800554A934209D07B681B68544A934204D062
:101C88007B681B68524A93420AD17B681B685B6970
:101C980003F08003002B14BF01230023DBB203E011
:101CA8007B681B681B680023002B0DD07B68DB6DED
:101CB80003F01F0301229A403B6A9A607B685B6DC0
:101CC80043F002027B685A657B68DB6D03F01F03F3
:101CD80004229A40BB691340002B00F08F807B6878
:101CE8001B682C4A93424AD07B681B682A4A934255
:101CF80045D07B681B68294A934240D07B681B68A3
:101D0800274A93423BD07B681B68264A934236D0C9
:101D18007B681B68244A934231D07B681B68234A3E
:101D280093422CD07B681B68214A934227D07B685A
:101D38001B68204A934222D07B681B681E4A934244
:101D48001DD07B681B681D4A934218D07B681B68AE
:101D58001B4A934213D07B681B681A4A93420ED0E1
:101D68007B681B68184A934209D07B681B68174A2E
:101D7800934204D07B681B68154A93422AD17B683A
:101D88001B681B6803F00203002B14BF0123002308
:101D9800DBB223E01000024028000240400002406D
:101DA800580002407000024088000240A000024033
:101DB800B8000240100402402804024040040240D7
:101DC800580402407004024088040240A004024003
:101DD800B80402407B681B681B680023002B0DD0E9
:101DE8007B68DB6D03F01F0304229A403B6A9A600C
:101DF8007B685B6D43F004027B685A657B68DB6D2A
:101E080003F01F0310229A40BB691340002B00F017
:101E1800A6807B681B68854A93424AD07B681B680A
:101E2800834A934245D07B681B68824A934240D0DC
:101E38007B681B68804A93423BD07B681B687F4A5B
:101E4800934236D07B681B687D4A934231D07B68C9
:101E58001B687C4A93422CD07B681B687A4A934261
:101E680027D07B681B68794A934222D07B681B681D
:101E7800774A93421DD07B681B68764A934218D0F4
:101E88007B681B68744A934213D07B681B68734A4B
:101E980093420ED07B681B68714A934209D07B68D5
:101EA8001B68704A934204D07B681B686E4A934251
:101EB8000AD17B681B681B6803F00803002B14BF5A
:101EC80001230023DBB209E07B681B681B6803F071
:101ED8000403002B14BF01230023DBB2002B3ED0E8
:101EE8007B68DB6D03F01F0310229A403B6A9A60FF
:101EF8007B681B681B6803F48023002B18D07B6861
:101F08001B681B6803F40023002B08D17B681B6C3B
:101F1800002B24D07B681B6C786898471FE07B688F
:101F28009B6C002B1BD07B689B6C7868984716E0ED
:101F38007B681B681B6803F48073002B07D17B68E0
:101F48001B681A687B681B6822F008021A607B68A5
:101F58001B6C002B03D07B681B6C786898477B68E8
:101F6800DB6D03F01F0320229A40BB691340002B4E
:101F780000F010817B681B682C4A93424AD07B682A
:101F88001B682B4A934245D07B681B68294A9342B9
:101F980040D07B681B68284A93423BD07B681B680B
:101FA800264A934236D07B681B68254A934231D033
:101FB8007B681B68234A93422CD07B681B68224AA3
:101FC800934227D07B681B68204A934222D07B68C3
:101FD8001B681F4A93421DD07B681B681D4A9342A9
:101FE80018D07B681B681C4A934213D07B681B6817
:101FF8001A4A93420ED07B681B68194A934209D04B
:102008007B681B68174A934204D07B681B68164A92
:1020180093422BD17B681B681B6803F01003002BCD
:1020280014BF01230023DBB22AE000BF10000240E6
:102038002800024040000240580002407000024060
:1020480088000240A0000240B8000240100402408C
:102058002804024040040240580402407004024030
:1020680088040240A0040240B80402407B681B6850
:102078001B6803F00203002B14BF01230023DBB20B
:10208800002B00F087807B68DB6D03F01F032022A4
:102098009A403B6A9A607B6893F83530DBB2042B30
:1020A80039D17B681B681A687B681B6822F01602A6
:1020B8001A607B681B685A697B681B6822F080027B
:1020C8005A617B681B6C002B03D17B689B6C002BCF
:1020D80007D07B681B681A687B681B6822F00802B7
:1020E8001A607B68DB6D03F01F033F229A403B6A4E
:1020F8009A607B68012283F835207B68002283F888
:1021080034207B681B6D002B00F04A837B681B6DB5
:102118007868984744E37B681B681B6803F480234E
:10212800002B18D07B681B681B6803F40023002B66
:1021380008D17B685B6C002B2CD07B685B6C786863
:10214800984727E07B68DB6B002B23D07B68DB6B31
:10215800786898471EE07B681B681B6803F48073E7
:10216800002B0FD17B681B681A687B681B6822F0FC
:1021780010021A607B68012283F835207B680022F0
:1021880083F834207B68DB6B002B03D07B68DB6B28
:10219800786898477B685B6D002B00F006837B6846
:1021A8005B6D03F00103002B00F088807B6804223C
:1021B80083F835207B681B687A4A93424AD07B684B
:1021C8001B68794A934245D07B681B68774A9342DB
:1021D80040D07B681B68764A93423BD07B681B687B
:1021E800744A934236D07B681B68734A934231D055
:1021F8007B681B68714A93422CD07B681B68704AC5
:10220800934227D07B681B686E4A934222D07B6832
:102218001B686D4A93421DD07B681B686B4A9342CA
:1022280018D07B681B686A4A934213D07B681B6886
:10223800684A93420ED07B681B68674A934209D06C
:102248007B681B68654A934204D07B681B68644AB4
:10225800934208D17B681B681A687B681B6822F068
:1022680001021A6007E07B681B681A687B681B68B4
:1022780022F001021A60FB680133FB607A6A9A4215
:1022880007D37B681B681B6803F00103002BF2D19E
:1022980000E000BF7B681B681B6803F00103002B8C
:1022A80004D07B68032283F8352003E07B68012291
:1022B80083F835207B68002283F834207B68DB6C48
:1022C800002B00F072827B68DB6C786898476CE2C0
:1022D8007B681B68434A934222D07B681B68424A4A
:1022E80093421DD07B681B68404A934218D07B6894
:1022F8001B683F4A934213D07B681B683D4A934250
:102308000ED07B681B683C4A934209D07B681B68E7
:102318003A4A934204D07B681B68394A934201D1F8
:10232800012300E00023002B00F03F827B681B683C
:102338001B683B617B68DB6D03F01F0304229A4036
:102348007B691340002B00F0CD803B6903F0040348
:10235800002B00F0C7807B68DB6D03F01F030422AD
:102368009A40FB695A603B6903F40043002B49D04B
:102378003B6903F48033002B09D17B689B6C002BED
:1023880000F010827B689B6C786898470AE27B684B
:102398001B6C002B00F006827B681B6C78689847E2
:1023A80000E200BF10000240280002404000024046
:1023B800580002407000024088000240A00002401D
:1023C800B8000240100402402804024040040240C1
:1023D800580402407004024088040240A0040240ED
:1023E800B8040240085402581C5402583054025889
:1023F80044540258585402586C5402588054025895
:10240800945402583B6903F02003002B60D17B6889
:102418001B687F4A93424AD07B681B687D4A934277
:1024280045D07B681B687C4A934240D07B681B6818
:102438007A4A93423BD07B681B68794A934236D0EC
:102448007B681B68774A934231D07B681B68764A61
:1024580093422CD07B681B68744A934227D07B68D0
:102468001B68734A934222D07B681B68714A934267
:102478001DD07B681B68704A934218D07B681B6824
:102488006E4A934213D07B681B686D4A93420ED004
:102498007B681B686B4A934209D07B681B686A4A51
:1024A800934204D07B681B68684A934208D17B68D2
:1024B8001B681A687B681B6822F008021A6007E02C
:1024C8007B681B681A687B681B6822F004021A6024
:1024D8007B681B6C002B00F065817B681B6C78683F
:1024E80098475FE17B68DB6D03F01F0302229A4087
:1024F8007B691340002B00F0C5803B6903F00203A1
:10250800002B00F0BF807B68DB6D03F01F03022205
:102518009A40FB695A603B6903F40043002B18D0CA
:102528003B6903F48033002B09D17B685B6C002B7B
:1025380000F03A817B685B6C7868984734E17B6887
:10254800DB6B002B00F030817B68DB6B7868984789
:102558002AE13B6903F02003002B40F089807B6867
:102568001B682B4A93424AD07B681B68294A9342CE
:1025780045D07B681B68284A934240D07B681B681B
:10258800264A93423BD07B681B68254A934236D043
:102598007B681B68234A934231D07B681B68224AB8
:1025A80093422CD07B681B68204A934227D07B68D3
:1025B8001B681F4A934222D07B681B681D4A9342BE
:1025C8001DD07B681B681C4A934218D07B681B6827
:1025D8001A4A934213D07B681B68194A93420ED05B
:1025E8007B681B68174A934209D07B681B68164AA8
:1025F800934204D07B681B68144A934228D17B68B5
:102608001B681A687B681B6822F014021A6027E0AE
:1026180010000240280002404000024058000240DA
:102628007000024088000240A0000240B80002404A
:1026380010040240280402404004024058040240AA
:102648007004024088040240A0040240B80402401A
:102658007B681B681A687B681B6822F00A021A608C
:102668007B68012283F835207B68002283F83420B8
:102678007B68DB6B002B00F097807B68DB6B7868EE
:10268800984791E07B68DB6D03F01F0308229A40AE
:102698007B691340002B00F088803B6903F0080336
:1026A800002B00F082807B681B68414A93424AD025
:1026B8007B681B683F4A934245D07B681B683E4A4B
:1026C800934240D07B681B683C4A93423BD07B686E
:1026D8001B683B4A934236D07B681B68394A934251
:1026E80031D07B681B68384A93422CD07B681B68C2
:1026F800364A934227D07B681B68354A934222D0DA
:102708007B681B68334A93421DD07B681B68324A3A
:10271800934218D07B681B68304A934213D07B6879
:102728001B682F4A93420ED07B681B682D4A934240
:1027380009D07B681B682C4A934204D07B681B68CD
:102748002A4A934208D17B681B681A687B681B6811
:1027580022F01C021A6007E07B681B681A687B6815
:102768001B6822F00E021A607B68DB6D03F01F0302
:1027780001229A40FB695A607B6801225A657B688E
:10278800012283F835207B68002283F834207B6897
:10279800DB6C002B09D07B68DB6C7868984704E019
:1027A80000BF02E000BF00E000BF2837BD4680BD83
:1027B8001000024028000240400002405800024039
:1027C8007000024088000240A0000240B8000240A9
:1027D8001004024028040240400402405804024009
:1027E8007004024088040240A0040240B804024079
:1027F80080B487B000AFF860B9607A603B60FB686E
:102808009B6D7B61FB689B6D3B61FB681B687F4A26
:10281800934272D0FB681B687D4A93426DD0FB6877
:102828001B687C4A934268D0FB681B687A4A9342CB
:1028380063D0FB681B68794A93425ED0FB681B68CB
:10284800774A934259D0FB681B68764A934254D022
:10285800FB681B68744A93424FD0FB681B68734A35
:1028680093424AD0FB681B68714A934245D0FB6883
:102878001B68704A934240D0FB681B686E4A9342BB
:102888003BD0FB681B686D4A934236D0FB681B68D7
:102898006B4A934231D0FB681B686A4A93422CD03A
:1028A800FB681B68684A934227D0FB681B68674A25
:1028B800934222D0FB681B68654A93421DD0FB688F
:1028C8001B68644A934218D0FB681B68624A9342AB
:1028D80013D0FB681B68614A93420ED0FB681B68E3
:1028E8005F4A934209D0FB681B685E4A934204D052
:1028F800FB681B685C4A934201D1012300E0002376
:10290800002B0DD0FB685B6EFA68926E5A60FB680C
:10291800DB6E002B04D0FB681B6FFA68526F5A609D
:10292800FB681B68394A93424AD0FB681B68384ADF
:10293800934245D0FB681B68364A934240D0FB68F7
:102948001B68354A93423BD0FB681B68334A934265
:1029580036D0FB681B68324A934231D0FB681B684B
:10296800304A93422CD0FB681B682F4A934227D0E9
:10297800FB681B682D4A934222D0FB681B682C4ACF
:1029880093421DD0FB681B682A4A934218D0FB6803
:102998001B68294A934213D0FB681B68274A934255
:1029A8000ED0FB681B68264A934209D0FB681B6857
:1029B800244A934204D0FB681B68234A934201D1FE
:1029C800012300E00023002B59D0FB68DB6D03F0E6
:1029D8001F033F229A407B699A60FB681B681A684C
:1029E800FB681B6822F480221A60FB681B683A683F
:1029F8005A60FB689B68402B38D1FB681B687A6873
:102A08009A60FB681B68BA68DA6086E010000240CA
:102A18002800024040000240580002407000024076
:102A280088000240A0000240B800024010040240A2
:102A38002804024040040240580402407004024046
:102A480088040240A0040240B80402400854025816
:102A58001C540258305402584454025858540258CE
:102A68006C5402588054025894540258FB681B68EE
:102A7800BA689A60FB681B687A68DA604DE0FB68A0
:102A88001B68294A934222D0FB681B68274A934255
:102A98001DD0FB681B68264A934218D0FB681B6848
:102AA800244A934213D0FB681B68234A93420ED0F2
:102AB800FB681B68214A934209D0FB681B68204ABF
:102AC800934204D0FB681B681E4A934201D101233C
:102AD80000E00023002B20D0FB68DB6D03F01F0310
:102AE80001229A403B695A60FB681B683A685A6041
:102AF800FB689B68402B08D1FB681B687A689A6062
:102B0800FB681B68BA68DA6007E0FB681B68BA688C
:102B18009A60FB681B687A68DA6000BF1C37BD469C
:102B28005DF8047B704700BF085402581C540258D3
:102B38003054025844540258585402586C5402589D
:102B4800805402589454025880B485B000AF78601D
:102B58007B681B68424A93424AD07B681B68414A9B
:102B6800934245D07B681B683F4A934240D07B68BC
:102B78001B683E4A93423BD07B681B683C4A9342A1
:102B880036D07B681B683B4A934231D07B681B6810
:102B9800394A93422CD07B681B68384A934227D025
:102BA8007B681B68364A934222D07B681B68354A8B
:102BB80093421DD07B681B68334A934218D07B68C8
:102BC8001B68324A934213D07B681B68304A934291
:102BD8000ED07B681B682F4A934209D07B681B681C
:102BE8002D4A934204D07B681B682C4A934201D13A
:102BF800012300E00023002B24D07B681B68DBB294
:102C0800103B274AA2FB03231B09FB60FB6803F068
:102C18000703244AD35C1A467B68DA65FB68032BF2
:102C280008D97B681B681A461F4B13401A1D7B681E
:102C38009A650DE07B681B681A461B4B13407A683F
:102C4800936505E07B681B6823F0FF027B689A6543
:102C58007B689B6D18461437BD465DF8047B70474A
:102C68001000024028000240400002405800024084
:102C78007000024088000240A0000240B8000240F4
:102C88001004024028040240400402405804024054
:102C98007004024088040240A0040240B8040240C4
:102CA800ABAAAAAA585A000800FCFFFF80B485B056
:102CB80000AF78600023FB737B689B69002B20D1F1
:102CC8007B689B6A032B58D801A252F823F000BFF7
:102CD800E92C0008FB2C0008E92C0008832D0008CB
:102CE8007B68DB6A03F08073002B48D00123FB73F9
:102CF80045E07B68DB6AB3F1C07F42D10123FB73F7
:102D08003FE07B689B69B3F5005F23D17B689B6AD2
:102D1800032B38D801A252F823F000BF352D000844
:102D28003B2D0008352D00084D2D00080123FB73AD
:102D380030E07B68DB6A03F08073002B25D0012329
:102D4800FB7322E07B68DB6AB3F1C07F1FD10123EC
:102D5800FB731CE07B689B6A022B02D9032B03D010
:102D680018E00123FB7315E07B68DB6A03F08073CE
:102D7800002B0ED00123FB730BE000BF0AE000BF5D
:102D880008E000BF06E000BF04E000BF02E000BFAB
:102D980000E000BFFB7B18461437BD465DF8047B96
:102DA800704700BF80B485B000AF78607B681B684F
:102DB800BB607B681B68384A934222D07B681B68DB
:102DC800364A93421DD07B681B68354A934218D017
:102DD8007B681B68334A934213D07B681B68324A6E
:102DE80093420ED07B681B68304A934209D07B68B7
:102DF8001B682F4A934204D07B681B682D4A934274
:102E080001D1012300E00023002B1AD07B681B6846
:102E1800DBB2083B284AA2FB03231B09FB60FA68C4
:102E2800264B13449B001A467B681A667B68244A23
:102E38005A66FB6803F01F0301229A407B689A6672
:102E480024E07B681B68DBB2103B1E4AA2FB03230D
:102E58001B09FB60BB681C4A934206D8BB681B4A27
:102E6800934202D9FB680833FB60FA68184B134495
:102E78009B001A467B681A667B68164A5A66FB6886
:102E880003F01F0301229A407B689A6600BF14373B
:102E9800BD465DF8047B7047085402581C5402581C
:102EA8003054025844540258585402586C5402582A
:102EB8008054025894540258CDCCCCCC00960016BD
:102EC80080580258ABAAAAAAB80402400F040240CC
:102ED800008200108008024080B485B000AF78609E
:102EE8007B685B68DBB2FB60FB68002B4AD0FB6841
:102EF800082B47D87B681B68254A934222D07B68F9
:102F08001B68244A93421DD07B681B68224A93425F
:102F180018D07B681B68214A934213D07B681B68D2
:102F28001F4A93420ED07B681B681E4A934209D001
:102F38007B681B681C4A934204D07B681B681B4A49
:102F4800934201D1012300E00023002B0AD0FA6844
:102F5800174B13449B001A467B68DA667B68154A50
:102F68001A6709E0FA68144B13449B001A467B68F9
:102F7800DA667B68114A1A67FB68013B01229A40AE
:102F88007B685A6700BF1437BD465DF8047B7047FD
:102F9800085402581C5402583054025844540258D9
:102FA800585402586C540258805402589454025889
:102FB8003F960016405902583F82001040090240CF
:102FC80080B489B000AF786039600023FB61894B19
:102FD8007B6194E13B681A680121FB6901FA03F3FC
:102FE80013403B613B69002B00F086813B685B68BE
:102FF80003F00303012B05D03B685B6803F0030370
:10300800022B30D17B689B68BB61FB695B000322A4
:1030180002FA03F3DB43BA691340BB613B68DA6821
:10302800FB695B0002FA03F3BA691343BB617B686F
:10303800BA699A607B685B68BB610122FB6902FA26
:1030480003F3DB43BA691340BB613B685B681B0948
:1030580003F00102FB6902FA03F3BA691343BB6187
:103068007B68BA695A603B685B6803F00303032B0B
:1030780017D07B68DB68BB61FB695B00032202FA3F
:1030880003F3DB43BA691340BB613B689A68FB6989
:103098005B0002FA03F3BA691343BB617B68BA6940
:1030A800DA603B685B6803F00303022B23D1FB69FA
:1030B800DA087B68083253F82230BB61FB6903F0F9
:1030C80007039B000F2202FA03F3DB43BA6913409C
:1030D800BB613B681A69FB6903F007039B0002FAAE
:1030E80003F3BA691343BB61FB69DA087B680832EA
:1030F800B96943F822107B681B68BB61FB695B00F8
:10310800032202FA03F3DB43BA691340BB613B684D
:103118005B6803F00302FB695B0002FA03F3BA6918
:103128001343BB617B68BA691A603B685B6803F448
:103138004033002B00F0E0802F4BD3F8F4302E4AB8
:1031480043F00203C2F8F4302B4BD3F8F43003F009
:103158000203FB60FB68294AFB699B08023352F8AB
:103168002330BB61FB6903F003039B000F2202FAC3
:1031780003F3DB43BA691340BB617B68204A93427F
:1031880052D07B681F4A934231D07B681E4A9342D3
:103198002BD07B681D4A934225D07B681C4A9342FA
:1031A8001FD07B681B4A934219D07B681A4A934206
:1031B80013D07B68194A93420DD07B68184A934212
:1031C80007D07B68174A934201D109232DE00A23CF
:1031D8002BE0082329E0072327E0062325E0052321
:1031E80023E0042321E003231FE002231DE0012341
:1031F8001BE000BF8000005800440258000400583B
:10320800000002580004025800080258000C025836
:10321800001002580014025800180258001C0258E6
:1032280000200258002402580023FA6902F0030221
:1032380092009340BA691343BB613849FB699B0804
:103248000233BA6941F823204FF0B0431B68BB61D1
:103258003B69DB43BA691340BB613B685B6803F4B5
:103268008013002B03D0BA693B691343BB614FF04D
:10327800B042BB6913604FF0B0435B68BB613B6908
:10328800DB43BA691340BB613B685B6803F4001316
:10329800002B03D0BA693B691343BB614FF0B042BE
:1032A800BB6953607B695B68BB613B69DB43BA6997
:1032B8001340BB613B685B6803F40033002B03D009
:1032C800BA693B691343BB617B69BA695A607B6918
:1032D8001B68BB613B69DB43BA691340BB613B6850
:1032E8005B6803F48033002B03D0BA693B6913434E
:1032F800BB617B69BA691A60FB690133FB613B6892
:103308001A68FB6922FA03F3002B7FF463AE00BF4F
:1033180000BF2437BD465DF8047B704700040058A1
:1033280080B584B000AF7860194BDB6803F0040304
:10333800042B0AD0164BDB6803F007037A689A421D
:1033480001D001231FE000231DE0114BDB6823F0AF
:1033580007020F497B681343CB60FDF731FCF86027
:1033680009E0FDF72DFC0246FB68D31AB3F57A7F16
:1033780001D9012307E0064B5B6803F40053B3F55A
:10338800005FEED1002318461037BD4680BD00BF50
:103398000048025880B58CB000AF78607B68002B7D
:1033A80002D1012300F048BC7B681B6803F00103CD
:1033B800002B00F08880994B1B6903F03803FB62EF
:1033C800964B9B6ABB62FB6A102B07D0FB6A182BD3
:1033D80011D1BB6A03F00303022B0CD18F4B1B687E
:1033E80003F40033002B6DD07B685B68002B69D138
:1033F800012300F021BC7B685B68B3F5803F06D1F0
:10340800864B1B68854A43F4803313602EE07B6843
:103418005B68002B0CD1814B1B68804A23F48033F6
:1034280013607E4B1B687D4A23F4802313601DE0E4
:103438007B685B68B3F5A02F0CD1784B1B68774A83
:1034480043F480231360754B1B68744A43F480333C
:1034580013600BE0714B1B68704A23F480331360D0
:103468006E4B1B686D4A23F4802313607B685B688E
:10347800002B13D0FDF7A4FB786208E0FDF7A0FB52
:1034880002467B6AD31A642B01D90323D4E3634B26
:103498001B6803F40033002BF0D014E0FDF790FB19
:1034A800786208E0FDF78CFB02467B6AD31A642B2E
:1034B80001D90323C0E3594B1B6803F40033002BE5
:1034C800F0D100E000BF7B681B6803F00203002B0B
:1034D80000F0CA80514B1B6903F038033B624F4B25
:1034E8009B6AFB613B6A002B07D03B6A182B56D1BD
:1034F800FB6903F00303002B51D1484B1B6803F011
:103508000403002B05D07B68DB68002B01D1012365
:1035180092E3424B1B6823F019027B68DB683F4942
:1035280013430B60FDF74CFB786208E0FDF748FB9E
:1035380002467B6AD31A022B01D903237CE3374B5B
:103548001B6803F00403002BF0D0FDF745FB03468E
:1035580041F20302934217D87B681B69402B08D1BC
:103568002E4B5B6823F47C332C4A43F400335360BE
:103578007AE02A4B5B6823F47C327B681B691B0367
:10358800264913434B606FE0244B5B6823F0FE42EF
:103598007B681B691B06214913434B6064E07B6809
:1035A800DB68002B47D01D4B1B6823F019027B6892
:1035B800DB681A4913430B60FDF702FB786208E0E9
:1035C800FDF7FEFA02467B6AD31A022B01D90323C0
:1035D80032E3124B1B6803F00403002BF0D0FDF715
:1035E800FBFA034641F20302934219D87B681B6930
:1035F800402B08D1094B5B6823F47C33074A43F41A
:103608000033536030E0054B5B6823F47C327B6801
:103618001B691B03014913434B6025E00044025812
:103628009A4B5B6823F0FE427B681B691B0697492F
:1036380013434B6018E0954B1B68944A23F0010331
:103648001360FDF7BDFA786208E0FDF7B9FA0246A3
:103658007B6AD31A022B01D90323EDE28B4B1B683B
:1036680003F00403002BF0D17B681B6803F0100300
:10367800002B00F0A980854B1B6903F03803BB6160
:10368800824B9B6A7B61BB69082B07D0BB69182BEF
:103698003AD17B6903F00303012B35D17B4B1B68BF
:1036A80003F48073002B05D07B68DB69802B01D085
:1036B8000123C1E2FDF790FA034641F20302934267
:1036C80017D87B681B6A202B08D1704B5B6823F0E6
:1036D800F8436E4A43F08043536075E06B4B5B6878
:1036E80023F0F8427B681B6A9B06684913434B60CA
:1036F8006AE0664BDB6823F07C527B681B6A1B061A
:1037080062491343CB605FE07B68DB69002B42D0E2
:103718005E4B1B685D4A43F080031360FDF750FA67
:10372800786208E0FDF74CFA02467B6AD31A022B4E
:1037380001D9032380E2554B1B6803F48073002BE7
:10374800F0D0FDF749FA034641F20302934217D835
:103758007B681B6A202B08D14C4B5B6823F0F8432D
:103768004A4A43F0804353602EE0484B5B6823F09D
:10377800F8427B681B6A9B06444913434B6023E06D
:10378800424BDB6823F07C527B681B6A1B063F496F
:103798001343CB6018E03D4B1B683C4A23F0800381
:1037A8001360FDF70DFA786208E0FDF709FA0246A2
:1037B8007B6AD31A022B01D903233DE2334B1B68E2
:1037C80003F48073002BF0D17B681B6803F00803B7
:1037D800002B36D07B685B69002B19D02B4B5B6FB5
:1037E8002A4A43F001035367FDF7EAF9786208E0D3
:1037F800FDF7E6F902467B6AD31A022B01D90323A7
:103808001AE2224B5B6F03F00203002BF0D018E0A2
:103818001E4B5B6F1D4A23F001035367FDF7D0F978
:10382800786208E0FDF7CCF902467B6AD31A022BCE
:1038380001D9032300E2154B5B6F03F00203002B51
:10384800F0D17B681B6803F02003002B39D07B681C
:103858009B69002B1CD00D4B1B680C4A43F480530A
:103868001360FDF7ADF9786208E0FDF7A9F90246A3
:103878007B6AD31A022B01D90323DDE1034B1B68B2
:1038880003F40053002BF0D01BE000BF00440258A3
:103898009B4B1B689A4A23F480531360FDF790F9F9
:1038A800786208E0FDF78CF902467B6AD31A022B8E
:1038B80001D90323C0E1924B1B6803F40053002B8A
:1038C800F0D17B681B6803F00403002B00F08180B3
:1038D8008C4B1B688B4A43F480731360FDF770F9B7
:1038E800786208E0FDF76CF902467B6AD31A642B0C
:1038F80001D90323A0E1834B1B6803F48073002BD9
:10390800F0D07B689B68012B06D17D4B1B6F7C4AEE
:1039180043F0010313672DE07B689B68002B0CD1F3
:10392800774B1B6F764A23F001031367744B1B6FA9
:10393800734A23F0040313671CE07B689B68052B1C
:103948000CD16F4B1B6F6E4A43F0040313676C4B2B
:103958001B6F6B4A43F0010313670BE0684B1B6F47
:10396800674A23F001031367654B1B6F644A23F012
:10397800040313677B689B68002B15D0FDF720F9BB
:1039880078620AE0FDF71CF902467B6AD31A41F215
:103998008832934201D903234EE1594B1B6F03F040
:1039A8000203002BEED014E0FDF70AF978620AE072
:1039B800FDF706F902467B6AD31A41F28832934230
:1039C80001D9032338E14E4B1B6F03F00203002B90
:1039D800EED17B685B6A002B00F02D81484B1B6998
:1039E80003F03803182B00F0BD807B685B6A022B5C
:1039F80040F09E80424B1B68414A23F0807313605D
:103A0800FDF7DEF8786208E0FDF7DAF802467B6A2F
:103A1800D31A022B01D903230EE1394B1B6803F09B
:103A28000073002BF0D1364B9A6A374B13407A68F3
:103A3800916A7A68D26A12010A43314913438B6248
:103A48007B681B6B013BC3F308027B685B6B013B24
:103A58005B029BB21A437B689B6B013B1B0403F41C
:103A6800FE031A437B68DB6B013B1B0603F0FE4336
:103A7800234913430B63224BDB6A214A23F00103DA
:103A8800D3621F4B5A6B214B13407A68926CD20059
:103A98001B4913434B631A4BDB6A23F00C027B6808
:103AA8001B6C17491343CB62154BDB6A23F00202E8
:103AB8007B685B6C12491343CB62114BDB6A104A7B
:103AC80043F48033D3620E4BDB6A0D4A43F4003370
:103AD800D3620B4BDB6A0A4A43F48023D362084B58
:103AE800DB6A074A43F00103D362054B1B68044AAB
:103AF80043F080731360FDF763F8786211E000BF4C
:103B080000440258004802580CFCFFFF0700FFFF62
:103B1800FDF756F802467B6AD31A022B01D9032314
:103B28008AE0474B1B6803F00073002BF0D082E05B
:103B3800434B1B68424A23F080731360FDF740F83B
:103B4800786208E0FDF73CF802467B6AD31A022B3C
:103B580001D9032370E03A4B1B6803F00073002B74
:103B6800F0D168E0364B9B6A3B61354B1B6BFB60C1
:103B78007B685B6A012B31D03B6903F003027B68E9
:103B88009B6A9A422AD13B691B0903F03F027B6872
:103B9800DB6A9A4222D1FB68C3F308027B681B6B7D
:103BA800013B9A421AD1FB685B0A03F07F027B68EB
:103BB8005B6B013B9A4211D1FB681B0C03F07F023F
:103BC8007B689B6B013B9A4208D1FB681B0E03F094
:103BD8007F027B68DB6B013B9A4201D001232BE01B
:103BE800174B5B6BDB08C3F30C033B617B689B6C77
:103BF8003A699A421FD0124BDB6A114A23F001033B
:103C0800D362FCF7DDFF786200BFFCF7D9FF0246FC
:103C18007B6A9342F9D00A4B5A6B0A4B13407A6875
:103C2800926CD200064913434B63054BDB6A044A86
:103C380043F00103D362002318463037BD4680BDE8
:103C4800004402580700FFFF80B586B000AF7860D7
:103C580039607B68002B01D101239CE18A4B1B68EA
:103C680003F00F033A689A4210D9874B1B6823F078
:103C78000F0285493B6813430B60834B1B6803F0B5
:103C88000F033A689A4201D0012384E17B681B68DC
:103C980003F00403002B10D07B681A697B4B9B69E7
:103CA80003F070039A4208D9784B9B6923F070029D
:103CB8007B681B69754913438B617B681B6803F03C
:103CC8000803002B10D07B685A69704BDB6903F03E
:103CD80070039A4208D96D4BDB6923F070027B6848
:103CE8005B696A491343CB617B681B6803F0100367
:103CF800002B10D07B689A69644BDB6903F4E0639E
:103D08009A4208D9614BDB6923F4E0627B689B69BE
:103D18005E491343CB617B681B6803F02003002BCB
:103D280010D07B68DA69594B1B6A03F070039A421A
:103D380008D9564B1B6A23F070027B68DB6953492C
:103D480013430B627B681B6803F00203002B10D03F
:103D58007B68DA684D4B9B6903F00F039A4208D9D8
:103D68004A4B9B6923F00F027B68DB684749134382
:103D78008B617B681B6803F00103002B55D0434B14
:103D88009B6923F470627B689B68404913438B618D
:103D98007B685B68022B07D13C4B1B6803F400333C
:103DA800002B21D10123F6E07B685B68032B07D148
:103DB800364B1B6803F00073002B15D10123EAE092
:103DC8007B685B68012B07D1304B1B6803F4807359
:103DD800002B09D10123DEE02C4B1B6803F0040300
:103DE800002B01D10123D6E0284B1B6923F00702E1
:103DF8007B685B68254913430B61FCF7E1FE78613A
:103E08000AE0FCF7DDFE02467B69D31A41F28832EC
:103E1800934201D90323BEE01C4B1B6903F038020F
:103E28007B685B68DB009A42EBD17B681B6803F018
:103E38000203002B10D07B68DA68144B9B6903F0EF
:103E48000F039A4208D2114B9B6923F00F027B683B
:103E5800DB680E4913438B610B4B1B6803F00F03A0
:103E68003A689A4214D2084B1B6823F00F0206499D
:103E78003B6813430B60044B1B6803F00F033A685D
:103E88009A4205D0012386E00020005200440258DF
:103E98007B681B6803F00403002B10D07B681A6949
:103EA8003F4B9B6903F070039A4208D23C4B9B69D5
:103EB80023F070027B681B69394913438B617B6867
:103EC8001B6803F00803002B10D07B685A69344B39
:103ED800DB6903F070039A4208D2314BDB6923F0A7
:103EE80070027B685B692E491343CB617B681B6852
:103EF80003F01003002B10D07B689A69284BDB690C
:103F080003F4E0639A4208D2254BDB6923F4E062AC
:103F18007B689B6922491343CB617B681B6803F06C
:103F28002003002B10D07B68DA691D4B1B6A03F055
:103F380070039A4208D21A4B1B6A23F070027B68FE
:103F4800DB69174913430B6200F034F80246144B3F
:103F58009B691B0A03F00F031249CB5C03F01F0394
:103F680022FA03F33B610E4B9B6903F00F030D4AE2
:103F7800D35C03F01F033A6922FA03F30A4A136079
:103F88000A4A3B6913600A4B1B681846FCF7CEFDCA
:103F98000346FB73FB7B18461837BD4680BD00BF40
:103FA80000440258485A0008280300242403002427
:103FB8002C03002480B489B000AFB34B1B6903F015
:103FC8003803182B00F2558101A252F823F000BFE4
:103FD8003D4000087B4200087B4200087B42000805
:103FE8007B4200087B4200087B4200087B420008B5
:103FF800634000087B4200087B4200087B420008BF
:104008007B4200087B4200087B4200087B42000894
:10401800694000087B4200087B4200087B42000898
:104028007B4200087B4200087B4200087B42000874
:104038006F400008944B1B6803F02003002B09D045
:10404800914B1B68DB0803F00303904A22FA03F341
:10405800BB6111E18D4BBB610EE18D4BBB610BE187
:104068008C4BBB6108E1884B9B6A03F003037B61BF
:10407800854B9B6A1B0903F03F033B61824BDB6A5C
:1040880003F00103FB60804B5B6BDB08C3F30C039D
:10409800FA6802FB03F307EE903AF8EE677AC7ED89
:1040A800027A3B69002B00F0E1807B69022B00F06B
:1040B80083807B69022B00F2A1807B69002B03D0EF
:1040C8007B69012B56D099E06F4B1B6803F02003E6
:1040D800002B2DD06C4B1B68DB0803F003036B4AE5
:1040E80022FA03F37B607B6807EE903AF8EE676A82
:1040F8003B6907EE903AF8EE677A86EEA77A624B4C
:104108001B6BC3F3080307EE903AF8EE676A97ED66
:10411800026ADFED615AC6EE257A76EEA77AF7EEE7
:10412800006A77EEA67A67EE277AC7ED077A87E006
:104138003B6907EE903AF8EE677ADFED586A86EE4B
:10414800A77A514B1B6BC3F3080307EE903AF8EEBE
:10415800676A97ED026ADFED505AC6EE257A76EE69
:10416800A77AF7EE006A77EEA67A67EE277AC7EDA8
:10417800077A65E03B6907EE903AF8EE677ADFED7B
:10418800486A86EEA77A404B1B6BC3F3080307EE19
:10419800903AF8EE676A97ED026ADFED3F5AC6EE8D
:1041A800257A76EEA77AF7EE006A77EEA67A67EEBA
:1041B800277AC7ED077A43E03B6907EE903AF8EEB5
:1041C800677ADFED386A86EEA77A2F4B1B6BC3F34D
:1041D800080307EE903AF8EE676A97ED026ADFED9A
:1041E8002E5AC6EE257A76EEA77AF7EE006A77EEB3
:1041F800A67A67EE277AC7ED077A21E03B6907EED2
:10420800903AF8EE677ADFED266A86EEA77A1E4BBB
:104218001B6BC3F3080307EE903AF8EE676A97ED55
:10422800026ADFED1D5AC6EE257A76EEA77AF7EE1A
:10423800006A77EEA67A67EE277AC7ED077A00BF9D
:10424800114B1B6B5B0A03F07F0301333B603B6838
:1042580007EE903AB8EE677AD7ED076AC6EE877A26
:10426800FCEEE77A17EE903ABB6105E00023BB61EC
:1042780002E0074BBB6100BFBB6918462437BD4647
:104288005DF8047B704700BF004402580090D003DB
:1042980000093D0040787D01000000460024744C70
:1042A8000024744A20BCBE4B80B582B000AF786051
:1042B8007B68002B01D1012349E07B6893F83D30EE
:1042C800DBB2002B06D17B68002283F83C2078689B
:1042D800FCF71EFB7B68022283F83D207B681A6886
:1042E8007B6804331946104600F032FE7B680122D1
:1042F80083F848207B68012283F83E207B680122EE
:1043080083F83F207B68012283F840207B680122E4
:1043180083F841207B68012283F842207B680122D0
:1043280083F843207B68012283F844207B680122BC
:1043380083F845207B68012283F846207B680122A8
:1043480083F847207B68012283F83D200023184624
:104358000837BD4680BD000080B485B000AF7860E6
:104368007B6893F83D30DBB2012B01D001234CE090
:104378007B68022283F83D207B681B68264A9342AB
:1043880022D07B681B68B3F1804F1DD07B681B6807
:10439800224A934218D07B681B68214A934213D063
:1043A8007B681B681F4A93420ED07B681B681E4AB5
:1043B800934209D07B681B681C4A934204D07B68EF
:1043C8001B681B4A934215D17B681B689A68194B76
:1043D8001340FB60FB68062B15D0FB68B3F5803FE4
:1043E80011D07B681B681A687B681B6842F0010261
:1043F8001A6008E07B681B681A687B681B6842F0D3
:1044080001021A6000E000BF002318461437BD46B9
:104418005DF8047B704700BF0000014000040040C5
:1044280000080040000C0040000401400018004053
:10443800004001400700010080B483B000AF7860FD
:104448007B681B681A6A41F211131340002B0FD1C5
:104458007B681B681A6A40F244431340002B07D15B
:104468007B681B681A687B681B6822F001021A6067
:104478007B68012283F83D20002318460C37BD468F
:104488005DF8047B704780B582B000AF78607B68C8
:10449800002B01D1012349E07B6893F83D30DBB262
:1044A800002B06D17B68002283F83C20786800F056
:1044B80041F87B68022283F83D207B681A687B6894
:1044C80004331946104600F043FD7B68012283F847
:1044D80048207B68012283F83E207B68012283F80C
:1044E8003F207B68012283F840207B68012283F803
:1044F80041207B68012283F842207B68012283F8EF
:1045080043207B68012283F844207B68012283F8DA
:1045180045207B68012283F846207B68012283F8C6
:1045280047207B68012283F83D200023184608377E
:10453800BD4680BD80B483B000AF786000BF0C3743
:10454800BD465DF8047B704780B584B000AF7860E5
:1045580039603B68002B09D17B6893F83E30DBB2A9
:10456800012B14BF01230023DBB23CE03B68042B82
:1045780009D17B6893F83F30DBB2012B14BF0123CC
:104588000023DBB22FE03B68082B09D17B6893F846
:104598004030DBB2012B14BF01230023DBB222E041
:1045A8003B680C2B09D17B6893F84130DBB2012BB7
:1045B80014BF01230023DBB215E03B68102B09D19F
:1045C8007B6893F84230DBB2012B14BF0123002330
:1045D800DBB208E07B6893F84330DBB2012B14BFF1
:1045E80001230023DBB2002B01D00123A1E03B68AB
:1045F800002B04D17B68022283F83E2023E03B682D
:10460800042B04D17B68022283F83F201BE03B681F
:10461800082B04D17B68022283F8402013E03B6812
:104628000C2B04D17B68022283F841200BE03B6805
:10463800102B04D17B68022283F8422003E07B68B8
:10464800022283F843207B681B68012239681846D8
:1046580001F08CF87B681B68384A934213D07B685A
:104668001B68374A93420ED07B681B68354A9342D1
:1046780009D07B681B68344A934204D07B681B6866
:10468800324A934201D1012300E00023002B07D0D6
:104698007B681B685A6C7B681B6842F400425A644A
:1046A8007B681B68254A934222D07B681B68B3F15C
:1046B800804F1DD07B681B68254A934218D07B68C1
:1046C8001B68244A934213D07B681B68224A934292
:1046D8000ED07B681B681A4A934209D07B681B6816
:1046E8001E4A934204D07B681B68164A934215D130
:1046F8007B681B689A681A4B1340FB60FB68062BA3
:1047080015D0FB68B3F5803F11D07B681B681A6829
:104718007B681B6842F001021A6008E07B681B682E
:104728001A687B681B6842F001021A6000E000BF4B
:10473800002318461037BD4680BD00BF0000014069
:10474800000401400040014000440140004801408D
:104758000004004000080040000C00400018004021
:104768000700010080B582B000AF78607B68002B3D
:1047780001D1012349E07B6893F83D30DBB2002B7F
:1047880006D17B68002283F83C20786800F041F865
:104798007B68022283F83D207B681A687B680433B3
:1047A8001946104600F0D4FB7B68012283F84820A4
:1047B8007B68012283F83E207B68012283F83F2032
:1047C8007B68012283F840207B68012283F841201E
:1047D8007B68012283F842207B68012283F843200A
:1047E8007B68012283F844207B68012283F84520F6
:1047F8007B68012283F846207B68012283F84720E2
:104808007B68012283F83D20002318460837BD46FF
:1048180080BD80B483B000AF786000BF0C37BD4660
:104828005DF8047B7047000080B584B000AF786005
:1048380039603B68002B09D17B6893F83E30DBB2C6
:10484800012B14BF01230023DBB23CE03B68042B9F
:1048580009D17B6893F83F30DBB2012B14BF0123E9
:104868000023DBB22FE03B68082B09D17B6893F863
:104878004030DBB2012B14BF01230023DBB222E05E
:104888003B680C2B09D17B6893F84130DBB2012BD4
:1048980014BF01230023DBB215E03B68102B09D1BC
:1048A8007B6893F84230DBB2012B14BF012300234D
:1048B800DBB208E07B6893F84330DBB2012B14BF0E
:1048C80001230023DBB2002B01D00123A1E03B68C8
:1048D800002B04D17B68022283F83E2023E03B684A
:1048E800042B04D17B68022283F83F201BE03B683D
:1048F800082B04D17B68022283F8402013E03B6830
:104908000C2B04D17B68022283F841200BE03B6822
:10491800102B04D17B68022283F8422003E07B68D5
:10492800022283F843207B681B68012239681846F5
:1049380000F01CFF7B681B68384A934213D07B68E1
:104948001B68374A93420ED07B681B68354A9342EE
:1049580009D07B681B68344A934204D07B681B6883
:10496800324A934201D1012300E00023002B07D0F3
:104978007B681B685A6C7B681B6842F400425A6467
:104988007B681B68254A934222D07B681B68B3F179
:10499800804F1DD07B681B68254A934218D07B68DE
:1049A8001B68244A934213D07B681B68224A9342AF
:1049B8000ED07B681B681A4A934209D07B681B6833
:1049C8001E4A934204D07B681B68164A934215D14D
:1049D8007B681B689A681A4B1340FB60FB68062BC0
:1049E80015D0FB68B3F5803F11D07B681B681A6847
:1049F8007B681B6842F001021A6008E07B681B684C
:104A08001A687B681B6842F001021A6000E000BF68
:104A1800002318461037BD4680BD00BF0000014086
:104A280000040140004001400044014000480140AA
:104A38000004004000080040000C0040001800403E
:104A48000700010080B586B000AFF860B9607A60F1
:104A58000023FB75FB6893F83C30012B01D102233E
:104A680066E0FB68012283F83C207B68142B57D84A
:104A780001A252F823F000BFD54A0008294B0008CC
:104A8800294B0008294B0008E34A0008294B000875
:104A9800294B0008294B0008F14A0008294B000857
:104AA800294B0008294B0008FF4A0008294B000839
:104AB800294B0008294B00080D4B0008294B00081A
:104AC800294B0008294B00081B4B0008FB681B6892
:104AD800B968184600F0D6FA25E0FB681B68B96883
:104AE800184600F05FFB1EE0FB681B68B9681846B3
:104AF80000F0E2FB17E0FB681B68B968184600F095
:104B080063FC10E0FB681B68B968184600F0C6FC37
:104B180009E0FB681B68B968184600F023FD02E04D
:104B28000123FB7500BFFB68002283F83C20FB7D56
:104B380018461837BD4680BD80B586B000AFF8600E
:104B4800B9607A600023FB75FB6893F83C30012B51
:104B580001D10223FFE0FB68012283F83C207B6837
:104B6800142B00F2F08001A252F823F0C94B000880
:104B78004F4D00084F4D00084F4D0008094C0008E4
:104B88004F4D00084F4D00084F4D00084B4C000892
:104B98004F4D00084F4D00084F4D00088B4C000842
:104BA8004F4D00084F4D00084F4D0008CD4C0008F0
:104BB8004F4D00084F4D00084F4D00080D4D00089F
:104BC800FB681B68B968184600F05CFAFB681B684C
:104BD8009A69FB681B6842F008029A61FB681B68C7
:104BE8009A69FB681B6822F004029A61FB681B68DB
:104BF8009969BB681A69FB681B680A439A61A5E052
:104C0800FB681B68B968184600F0CCFAFB681B689B
:104C18009A69FB681B6842F400629A61FB681B682A
:104C28009A69FB681B6822F480629A61FB681B68BA
:104C38009969BB681B691A02FB681B680A439A6179
:104C480084E0FB681B68B968184600F035FBFB6810
:104C58001B68DA69FB681B6842F00802DA61FB68C6
:104C68001B68DA69FB681B6822F00402DA61FB68DA
:104C78001B68D969BB681A69FB681B680A43DA6153
:104C880064E0FB681B68B968184600F09DFBFB6888
:104C98001B68DA69FB681B6842F40062DA61FB682A
:104CA8001B68DA69FB681B6822F48062DA61FB68BA
:104CB8001B68D969BB681B691A02FB681B680A4331
:104CC800DA6143E0FB681B68B968184600F0E6FB48
:104CD800FB681B685A6DFB681B6842F008025A653E
:104CE800FB681B685A6DFB681B6822F004025A6552
:104CF800FB681B68596DBB681A69FB681B680A4327
:104D08005A6523E0FB681B68B968184600F02AFC5E
:104D1800FB681B685A6DFB681B6842F400625A65A1
:104D2800FB681B685A6DFB681B6822F480625A6531
:104D3800FB681B68596DBB681B691A02FB681B6816
:104D48000A435A6502E00123FB7500BFFB68002295
:104D580083F83C20FB7D18461837BD4680BD00BF50
:104D680080B584B000AF786039600023FB737B683E
:104D780093F83C30012B01D10223DCE07B6801224F
:104D880083F83C207B68022283F83D207B681B68FF
:104D98009B68BB60BA686A4B1340BB60BB6823F46E
:104DA8007F43BB607B681B68BA689A603B681B6876
:104DB800644A934200F0A980624A934200F2AE80AE
:104DC800614A934200F0A1805F4A934200F2A680B4
:104DD8005E4A934200F099805C4A934200F29E80BA
:104DE800B3F1101F00F09180B3F1101F00F296800C
:104DF800B3F5801F00F08980B3F5801F00F28E8024
:104E0800B3F5005F3ED0B3F5005F00F28780B3F5DD
:104E1800805F00F08680B3F5805F7FD8702B1AD052
:104E2800702B7BD8602B50D0602B77D8502B3CD080
:104E3800502B73D8402B58D0402B6FD8302B64D0D0
:104E4800302B6BD8202B60D0202B67D8002B5CD060
:104E5800102B5AD062E07B6818683B6899683B68F9
:104E68005A683B68DB6800F061FC7B681B689B68DC
:104E7800BB60BB6843F07703BB607B681B68BA689C
:104E88009A604FE07B6818683B6899683B685A6885
:104E98003B68DB6800F04AFC7B681B689A687B68A3
:104EA8001B6842F480429A603CE07B6818683B6863
:104EB80059683B68DB681A4600F0BAFB7B681B68D8
:104EC8005021184600F014FC2CE07B6818683B68F9
:104ED80059683B68DB681A4600F0D9FB7B681B6899
:104EE8006021184600F004FC1CE07B6818683B68E9
:104EF80059683B68DB681A4600F09AFB7B681B68B8
:104F08004021184600F0F4FB0CE07B681A683B6807
:104F18001B681946104600F0EBFB03E00123FB7306
:104F280000E000BF7B68012283F83D207B680022F7
:104F380083F83C20FB7B18461037BD4680BD00BF78
:104F480088FFCEFF40001000300010002000100045
:104F580080B485B000AF786039607B681B68FB60FF
:104F68007B68404A934213D07B68B3F1804F0FD0DF
:104F78007B683D4A93420BD07B683C4A934207D0FA
:104F88007B683B4A934203D07B683A4A934208D1F4
:104F9800FB6823F07003FB603B685B68FA681343A7
:104FA800FB607B682F4A93421FD07B68B3F1804F28
:104FB8001BD07B682C4A934217D07B682B4A9342BC
:104FC80013D07B682A4A93420FD07B68294A9342C0
:104FD8000BD07B68284A934207D07B68274A9342C4
:104FE80003D07B68264A934208D1FB6823F44073B8
:104FF800FB603B68DB68FA681343FB60FB6823F0DF
:1050080080023B685B691343FB607B68FA681A603F
:105018003B689A687B68DA623B681A687B689A62C0
:105028007B68104A93420FD07B68124A93420BD098
:105038007B68114A934207D07B68104A934203D099
:105048007B680F4A934203D13B681A697B681A63ED
:105058007B6801225A6100BF1437BD465DF8047BA6
:10506800704700BF000001400004004000080040F5
:10507800000C004000040140004001400044014091
:105088000048014080B487B000AF786039607B6821
:105098001B6A23F001027B681A627B681B6A7B61CA
:1050A8007B685B683B617B689B69FB60FA68374B90
:1050B8001340FB60FB6823F00303FB603B681B683D
:1050C800FA681343FB607B6923F002037B613B684A
:1050D8009B687A6913437B617B682D4A93420FD0A2
:1050E8007B682C4A93420BD07B682B4A934207D0AB
:1050F8007B682A4A934203D07B68294A93420CD1A1
:105108007B6923F008037B613B68DB687A6913439A
:105118007B617B6923F004037B617B681C4A9342B3
:105128000FD07B681B4A93420BD07B681A4A934284
:1051380007D07B68194A934203D07B68184A934288
:1051480011D13B6923F480733B613B6923F40073FD
:105158003B613B685B693A6913433B613B689B6908
:105168003A6913433B617B683A695A607B68FA681D
:105178009A613B685A687B685A637B687A691A62E5
:1051880000BF1C37BD465DF8047B70478FFFFEFFEC
:10519800000001400004014000400140004401407B
:1051A8000048014080B487B000AF786039607B6800
:1051B8001B6A23F010027B681A627B681B6A7B619A
:1051C8007B685B683B617B689B69FB60FA68344B72
:1051D8001340FB60FB6823F44073FB603B681B686B
:1051E8001B02FA681343FB607B6923F020037B6191
:1051F8003B689B681B017A6913437B617B68294A7A
:10520800934203D07B68284A93420DD17B6923F0EF
:1052180080037B613B68DB681B017A6913437B6110
:105228007B6923F040037B617B681E4A93420FD061
:105238007B681D4A93420BD07B681C4A934207D077
:105248007B681B4A934203D07B681A4A934213D166
:105258003B6923F480633B613B6923F400633B6152
:105268003B685B699B003A6913433B613B689B69F8
:105278009B003A6913433B617B683A695A607B68D3
:10528800FA689A613B685A687B689A637B687A69AE
:105298001A6200BF1C37BD465DF8047B704700BF2B
:1052A800FF8FFFFE00000140000401400040014064
:1052B800004401400048014080B487B000AF7860E6
:1052C80039607B681B6A23F480727B681A627B688A
:1052D8001B6A7B617B685B683B617B68DB69FB60A1
:1052E800FA68334B1340FB60FB6823F00303FB6051
:1052F8003B681B68FA681343FB607B6923F40073FF
:105308007B613B689B681B027A6913437B617B68FE
:10531800284A934203D07B68274A93420DD17B6980
:1053280023F400637B613B68DB681B027A691343E3
:105338007B617B6923F480637B617B681D4A9342B0
:105348000FD07B681C4A93420BD07B681B4A934260
:1053580007D07B681A4A934203D07B68194A934264
:1053680013D13B6923F480533B613B6923F4005319
:105378003B613B685B691B013A6913433B613B68CE
:105388009B691B013A6913433B617B683A695A6020
:105398007B68FA68DA613B685A687B68DA637B681D
:1053A8007A691A6200BF1C37BD465DF8047B7047F6
:1053B8008FFFFEFF00000140000401400040014053
:1053C800004401400048014080B487B000AF7860D5
:1053D80039607B681B6A23F480527B681A627B6899
:1053E8001B6A3B617B685B687B617B68DB69FB6090
:1053F800FA68244B1340FB60FB6823F44073FB609E
:105408003B681B681B02FA681343FB603B6923F483
:1054180000533B613B689B681B033A6913433B613C
:105428007B68194A93420FD07B68184A93420BD085
:105438007B68174A934207D07B68164A934203D089
:105448007B68154A934209D17B6923F480437B61C9
:105458003B685B699B017A6913437B617B687A6966
:105468005A607B68FA68DA613B685A687B681A6434
:105478007B683A691A6200BF1C37BD465DF8047B39
:10548800704700BFFF8FFFFE00000140000401408D
:1054980000400140004401400048014080B487B00A
:1054A80000AF786039607B681B6A23F480327B68C0
:1054B8001A627B681B6A3B617B685B687B617B68FF
:1054C8005B6DFB60FA68214B1340FB603B681B680F
:1054D800FA681343FB603B6923F400333B613B6884
:1054E8009B681B043A6913433B617B68184A9342E3
:1054F8000FD07B68174A93420BD07B68164A9342B9
:1055080007D07B68154A934203D07B68144A9342BC
:1055180009D17B6923F480337B613B685B691B029B
:105528007A6913437B617B687A695A607B68FA6899
:105538005A653B685A687B689A657B683A691A625B
:1055480000BF1C37BD465DF8047B70478FFFFEFF28
:1055580000000140000401400040014000440140B7
:105568000048014080B487B000AF786039607B683C
:105578001B6A23F480127B681A627B681B6A3B6192
:105588007B685B687B617B685B6DFB60FA68224BBC
:105598001340FB603B681B681B02FA681343FB60FF
:1055A8003B6923F400133B613B689B681B053A6920
:1055B80013433B617B68194A93420FD07B68184AB2
:1055C80093420BD07B68174A934207D07B68164AF0
:1055D800934203D07B68154A934209D17B6923F42F
:1055E80080237B613B685B699B027A6913437B611B
:1055F8007B687A695A607B68FA685A653B685A68BA
:105608007B68DA657B683A691A6200BF1C37BD4659
:105618005DF8047B704700BFFF8FFFFE000001406C
:10562800000401400040014000440140004801409E
:1056380080B487B000AFF860B9607A60FB681B6A15
:105648007B61FB681B6A23F00102FB681A62FB6836
:105658009B693B613B6923F0F0033B617B681B015D
:105668003A6913433B617B6923F00A037B617A69DA
:10567800BB6813437B61FB683A699A61FB687A6986
:105688001A6200BF1C37BD465DF8047B704780B4C2
:1056980087B000AFF860B9607A60FB681B6A23F0D6
:1056A8001002FB681A62FB689B697B61FB681B6AD6
:1056B8003B617B6923F470437B617B681B037A69D8
:1056C80013437B613B6923F0A0033B61BB681B016B
:1056D8003A6913433B61FB687A699A61FB683A69E6
:1056E8001A6200BF1C37BD465DF8047B7047000096
:1056F80080B485B000AF786039607B689B68FB60D8
:10570800FA68094B1340FB603A68FB68134343F09F
:105718000703FB607B68FA689A6000BF1437BD46D0
:105728005DF8047B704700BF8FFFCFFF80B487B060
:1057380000AFF860B9607A603B60FB689B687B618A
:105748007B6923F47F437B613B681A027B681A43B9
:10575800BB6813437A6913437B61FB687A699A6073
:1057680000BF1C37BD465DF8047B704780B487B026
:1057780000AFF860B9607A60BB6803F01F030122CC
:1057880002FA03F37B61FB681A6A7B69DB431A4000
:10579800FB681A62FB681A6ABB6803F01F03796822
:1057A80001FA03F31A43FB681A6200BF1C37BD46AF
:1057B8005DF8047B7047000080B485B000AF786066
:1057C80039607B6893F83C30012B01D102236DE0EE
:1057D8007B68012283F83C207B68022283F83D2005
:1057E8007B681B685B68FB607B681B689B68BB60A9
:1057F8007B681B68304A934204D07B681B682F4A39
:10580800934208D1FB6823F47003FB603B685B6834
:10581800FA681343FB60FB6823F07003FB603B6886
:105828001B68FA681343FB607B681B68FA685A6058
:105838007B681B68204A934222D07B681B68B3F1BF
:10584800804F1DD07B681B681D4A934218D07B6827
:105858001B681C4A934213D07B681B681A4A934200
:105868000ED07B681B68154A934209D07B681B6879
:10587800164A934204D07B681B68154A93420CD1A0
:10588800BB6823F08003BB603B689B68BA6813431E
:10589800BB607B681B68BA689A607B68012283F8E2
:1058A8003D207B68002283F83C20002318461437EB
:1058B800BD465DF8047B70470000014000040140CC
:1058C8000004004000080040000C004000180040A0
:1058D8000040014080B485B000AF78603960002393
:1058E800FB607B6893F83C30012B01D1022365E013
:1058F8007B68012283F83C20FB6823F0FF023B68A9
:10590800DB681343FB60FB6823F440723B689B68C9
:105918001343FB60FB6823F480623B685B681343B6
:10592800FB60FB6823F400623B681B681343FB6061
:10593800FB6823F480523B681B691343FB60FB68D8
:1059480023F400523B685B691343FB60FB6823F454
:1059580080423B689B6A1343FB60FB6823F4702218
:105968003B689B691B041343FB607B681B68164AF2
:10597800934204D07B681B68144A934215D1FB6894
:1059880023F470023B685B6A1B051343FB60FB68EA
:1059980023F080723B68DB691343FB60FB6823F0EC
:1059A80000723B681B6A1343FB607B681B68FA68DC
:1059B8005A647B68002283F83C2000231846143779
:1059C800BD465DF8047B70470000014000040140BB
:1059D80002440346934200D1704703F8011BF9E7DC
:1059E80070B50D4D0D4C641BA4100026A64209D1BC
:1059F8000B4D0C4C00F018F8641BA4100026A642AE
:105A080005D170BD55F8043B98470136EEE755F8C7
:105A1800043B98470136F2E7605A0008605A0008CC
:105A2800605A0008645A0008F8B500BFF8BC08BC02
:105A38009E467047F8B500BFF8BC08BC9E46704744
:105A4800000000000102030401020304060708091C
:085A58000006101600061016EE
:045A6000BD0200087B
:045A6400990200089B
:105A6800000000004F0000009E000000ED00000054
:105A78003C0100008B010000D90100002802000051
:105A880077020000C602000015030000630300004F
:105A9800B2030000000400004F0400009D04000051
:105AA800EC0400003A05000088050000D605000057
:105AB8002406000072060000C00600000E07000061
:105AC8005B070000A9070000F60700004308000074
