:020000040800F2
:1000000000180020C926000801250008092500085D
:1000100000000000000000000000000000000000E0
:100020000000000000000000000000001125000892
:1000300000000000000000001B2500082525000826
:1000400019270008000000001927000819270008D8
:100050001927000819270008192700081927000880
:1000600000000000192700081927000819270008B8
:1000700019270008192700081927000800000000A8
:1000800019270008000000000000000019270008E0
:100090000000000019270008192700081927000888
:1000A00000000000192700080000000019270008C0
:1000B00019270008000000000000000000000000F8
:1000C00010B5064C2378002B07D1054B002B02D02E
:1000D000044800E000BF0123237010BD6C02002023
:1000E00000000000905F0008044B10B5002B03D007
:1000F0000349044800E000BF10BDC04600000000F6
:1001000070020020905F00080023C25C0133002AC7
:10011000FBD1581E7047000002B4714649084900DF
:10012000095C49008E4402BC7047C04603B4714666
:10013000490840004900095E49008E4403BC7047ED
:10014000002243088B4274D303098B425FD3030A16
:100150008B4244D3030B8B4228D3030C8B420DD329
:10016000FF22090212BA030C8B4202D312120902B7
:1001700065D0030B8B4219D300E0090AC30B8B42F5
:1001800001D3CB03C01A5241830B8B4201D38B03A3
:10019000C01A5241430B8B4201D34B03C01A524148
:1001A000030B8B4201D30B03C01A5241C30A8B428B
:1001B00001D3CB02C01A5241830A8B4201D38B0276
:1001C000C01A5241430A8B4201D34B02C01A52411A
:1001D000030A8B4201D30B02C01A5241CDD2C3098C
:1001E0008B4201D3CB01C01A524183098B4201D308
:1001F0008B01C01A524143098B4201D34B01C01AF3
:10020000524103098B4201D30B01C01A5241C3086A
:100210008B4201D3CB00C01A524183088B4201D3D9
:100220008B00C01A524143088B4201D34B00C01AC5
:100230005241411A00D20146524110467047FFE731
:1002400001B5002000F0F0F802BDC0460029F7D04B
:1002500076E7704703460B437FD4002243088B4266
:1002600074D303098B425FD3030A8B4244D3030B3D
:100270008B4228D3030C8B420DD3FF22090212BA02
:10028000030C8B4202D31212090265D0030B8B427E
:1002900019D300E0090AC30B8B4201D3CB03C01A68
:1002A0005241830B8B4201D38B03C01A5241430B43
:1002B0008B4201D34B03C01A5241030B8B4201D333
:1002C0000B03C01A5241C30A8B4201D3CB02C01A9E
:1002D0005241830A8B4201D38B02C01A5241430A16
:1002E0008B4201D34B02C01A5241030A8B4201D305
:1002F0000B02C01A5241CDD2C3098B4201D3CB01AC
:10030000C01A524183098B4201D38B01C01A52415A
:1003100043098B4201D34B01C01A524103098B425E
:1003200001D30B01C01A5241C3088B4201D3CB0049
:10033000C01A524183088B4201D38B00C01A52412C
:1003400043088B4201D34B00C01A5241411A00D2DC
:1003500001465241104670475DE0CA0F00D0494245
:10036000031000D34042534000229C4603098B42B5
:100370002DD3030A8B4212D3FC22890112BA030A3D
:100380008B420CD3890192118B4208D389019211BF
:100390008B4204D389013AD0921100E08909C30944
:1003A0008B4201D3CB01C01A524183098B4201D346
:1003B0008B01C01A524143098B4201D34B01C01A31
:1003C000524103098B4201D30B01C01A5241C308A9
:1003D0008B4201D3CB00C01A524183088B4201D318
:1003E0008B00C01A5241D9D243088B4201D34B0033
:1003F000C01A5241411A00D20146634652415B1075
:10040000104601D34042002B00D549427047634655
:100410005B1000D3404201B5002000F005F802BD9A
:100420000029F8D016E770477047C0468446100090
:1004300062468C461900634600E0C0461FB500F0D6
:1004400069FF002801D40021C8421FBD10B500F08B
:10045000A9FE4042013010BD10B500F05BFF00283E
:1004600001DB002010BD012010BDC04610B500F01A
:1004700051FF002801DD002010BD012010BDC04645
:1004800010B500F0D3FE002801DC002010BD0120D3
:1004900010BDC04610B500F0C9FE002801DA0020EA
:1004A00010BD012010BDC046F0B557464E4645462A
:1004B000DE46E0B583B0009001910C034F00CE0FF3
:1004C000610A009C1D03640F0C4300990092019384
:1004D000C80059004B0D9946009A019B6D0AD90F2F
:1004E000530F2B439A46009B7F0DDA0094464A46F1
:1004F000B046BA1A8E4200D1B0E0002A00DC78E0A3
:100500004946002900D1E9E0C9498F4200D195E16F
:100510000125382A16DC8021534609040B439A46EC
:100520001F2A00DDE7E1202155468B1A61469D40D8
:10053000D1400D43614699404B1E99415346D340EB
:100540000D43E41A451BA84280414042241A23026D
:1005500000D40FE16402640A002C00D139E12000CC
:1005600001F05EFE0300083B20212800CA1AD0409B
:100570009C4002009D4022439F4200DD73E1D81B56
:100580000130091A2C008D40C4406B1E9D411300A0
:10059000C2408B402543002714001D436B0709D040
:1005A0000F232B40042B05D02B1DAB42AD416D42D8
:1005B00064191D00230200D42DE19D4A01379742A2
:1005C00000D1D3E046469B49ED0821404A072A4323
:1005D0007C054D022D0B640D24052C43F607344396
:1005E0001000210003B0F0BCBB46B246A946A046AD
:1005F000F0BD002A00D184E04A46D21B002F00D073
:100600006DE12500054300D127E1561E012A00D1E6
:100610003BE2874DAA4200D16AE20125382E12DC66
:1006200032001F2A00DDF8E120262500B61A070057
:100630005346B040D440B540D740461EB0411B1B86
:100640009A463D4305436246551BAC45924153468D
:1006500052420E004F4688469C1A78E7002A00DC7A
:100660008EE04946002975D161465346194300D1B1
:10067000F6E0511E012A00D191E16D4DAA4200D150
:10068000DCE00125382914DC0A001F2A00DDA2E184
:1006900020215346891A8B401D006346D3401D43D9
:1006A00063468B4019004B1E99415346D3400D437E
:1006B000E4182D188542804140422418230259D560
:1006C0005B4B01379F4251D001215A4B6A081C40B5
:1006D00029400A43E507154364085FE7614653462E
:1006E000194300D1BCE0511E012A00D164E1504DF4
:1006F000AA4200D16AE10125382900DD22E70A007B
:100700000EE74D4A7D1C154200D0D0E02500624620
:10071000534605431A43002F00D037E1002D00D186
:10072000A8E1002A00D16AE16346C51A5346E21ADD
:10073000A8429B415B42D31A1A0200D403E26346EB
:100740001D1AAC459241534652421C1B0E0088466E
:10075000A41A23E736498F4270D00125382AA8DC35
:100760008021534609040B439A468EE73C0000253E
:10077000002231E707232B40002B00D010E793E045
:10078000002A74D04A46D21B002F00D1C7E0284966
:10079000894500D185E10125382A12DC8021090430
:1007A0000C431F2A00DDABE120212500891A070038
:1007B00088408D40D740411E8841D4403D43054389
:1007C000A2446544654592415242524414004F464A
:1007D00074E7280001F024FD030018331F2B00DC10
:1007E000C2E62A00083882409F4200DDA9E0DB1BF8
:1007F000581C1F2800DCACE115001F3BDD40202801
:1008000005D040231B1A9A40531E9A4115430723D3
:1008100000272B40B0E7ED08054B62072A43E408A8
:100820009F420FD02403250B7C05640DD4E6C046FF
:10083000FF070000FFFF7FFFFE070000C008620700
:100840000243E4081300234300D186E180252D03F1
:1008500025432D03C34C2D0BBEE6604654460E00C7
:100860001700C508D8E7C04CFF1A144096E6BF4AE7
:10087000791C11426BD122000243002F00D0DBE033
:10088000002A00D12DE1624653461A4300D1B6E05A
:100890006346C518854280415444404224182302CF
:1008A00002D50F00B04B1C403A002800D8E7624642
:1008B000851AA8429241534652429146E31A1A00C1
:1008C0004B46D21A130091461A0254D44A464C465B
:1008D0002A4300D040E60026002400257CE6A14DF6
:1008E000A94500D190E00125382A00DDABE680253E
:1008F0002D042C4395E6110055462039CD40A946DC
:10090000202A06D0402153468A1A934062461A4351
:10091000944665466B1E9D414B461D4312E62100E1
:10092000014300D1C4E0511E012A00D1FBE08D4DEE
:10093000AA4200D1B5E00125382900DD41E70A00CF
:100940002FE7894CFF1A14406207E4086AE7854ADA
:10095000914200D1E3E06346C21882428041230005
:10096000404253441B18DD075C0807235208154317
:100970000F002B4000E763461D1AAC4592415346D9
:1009800052421C1B0E008846A41AE5E5002D00D03B
:1009900091E0002A38D180240026240356E76346DC
:1009A000C51885428041544440422418012723023F
:1009B00000D4DFE6022787E66346C51AA8428041D5
:1009C00053464042E41A0127241AC0E56207C008D2
:1009D0000243E40836E7110053462039CB409946DC
:1009E000202A06D0402153468A1A934062461A4371
:1009F000944665466B1E9D414B461D4359E6620772
:100A0000C0080243E4080DE753465A076346D80876
:100A100053460E000243DC0814E715002600203D73
:100A2000EE40202A03D04025AA1A94402043421EBB
:100A300090410500354306E6002A7CD062465346C5
:100A4000C0081A4300D1FAE6620710438022E40886
:100A50001203144208D0D908114205D16346D808C0
:100A600053460C005B071843420FC000C0085207F2
:100A70000243E7E6002A00D12DE76346D808534633
:100A80005A070E000243DC08CCE663461D1AAC454B
:100A90009241534652421C1B0E008846A41A01374D
:100AA00055E56346D90853465A070A43DC08C9E6A8
:100AB00060465446D4E6C008002A00D1BFE662076B
:100AC00010438022E40812031442CDD0DD08154201
:100AD000CAD16346D80853465B070E002C00184362
:100AE000C2E76346D90853465A070A43DC0899E629
:100AF0006346D80853465A070E000243DC08A1E6B5
:100B0000110027002039CF40202A03D040218A1A23
:100B100094402043421E904105003D4351E60C00A5
:100B20000025002258E560446045924154445242F9
:100B30000500A4183AE753465A076346D9085346B6
:100B40000A43DC087EE61A001C002A4300D0ABE60C
:100B5000C1E620210025091A19E500220025014CD3
:100B60003AE5C046FF070000FFFF7FFFFE070000D9
:100B7000F0B5DE46454657464E46E0B587B0009292
:100B800001930B031B0B9B46CA0F4B0004008046CE
:100B90005B0D029200D16AE1D44A934200D18CE10C
:100BA0005946420FC9000A43802109041143C2007B
:100BB0009046CF4A894692469A44002300240393E4
:100BC000009E019F3B031B0B9B467B0030005B0D8F
:100BD000FD0F002B00D128E1C44A934200D177E1F8
:100BE0005946720FC9000A438021090411438B46FC
:100BF000BF49F2008C4651466344CB1A9A46002303
:100C0000029E6E400F2C27D8BA49A40009598F467E
:100C1000CB464246029E039B022B16D0032B00D1EB
:100C2000A6E2012B00D0DFE0002200230024904642
:100C30001B052343F60733434046190007B0F0BCB9
:100C4000BB46B246A946A046F0BD0022002490460D
:100C5000A64BEDE72E00DFE7CB4500D2D4E100D173
:100C6000CFE101235B429C46444648460027E244CC
:100C70005B46150E1B021D43190C2B041202009536
:100C80001D0C914602910395FFF7E0FA02006A43BA
:100C90000B04210C804619438A4209D9009D012387
:100CA000AC465B4261449C46E0448D4200D8FBE187
:100CB000881A0299FFF7CAFA039A240442430904E6
:100CC000240C03000C43A24206D90099013B8C4638
:100CD0006444A14200D8E1E1A01A424612041A433A
:100CE00093464B4659461B0C1D0004930B04494682
:100CF0000904090C0C001B0C5C43120C6B43884666
:100D000051436A43250CAC465B186344994203D9AE
:100D1000802149028C466244190C24041B04240CD3
:100D20008A181C19904202D316D1A74214D25B46EE
:100D3000009D013B4F4405934F459B41AC465B42B0
:100D40006344C018854200D3A1E1824200D9F6E194
:100D500000D1F1E1059B9B463C1BA742BF41009D92
:100D6000801A7F42C01B854200D1D0E10299FFF773
:100D70006DFA039A0B044243210C070019438A427F
:100D800000D978E1881A0299FFF760FA039A2404DF
:100D900042430904240C03000C43A24200D95DE144
:100DA0004146A41A3A041A43049D13041B0C5943E8
:100DB00047466B439C46100C47430B0CBC446344B2
:100DC00068439F4203D980256D02AC4660441F0CE6
:100DD00009041B04090C3F185B18BC4200D202E155
:100DE00000D1FDE001231A43434B5344002B00DCA8
:100DF000AEE0510700D098E15946C90106D55946E1
:100E00003E4B194080238B46DB0053443C498B42C8
:100E100000DD1AE75946D208490711435A465B05D7
:100E200054028846240B5B0D02E75A46009B1A4386
:100E300000D17EE05B46002B00D100E1584601F076
:100E4000EFF9020003000B3A1D27009EBA1A1900A1
:100E50005846D64008398840320002439346009AEB
:100E60008A40284953448A469A440023C8E65B4690
:100E70000343994656D05B46002B00D1CDE058463F
:100E800001F0CEF90B235B429C4602008444664687
:100E90001D239B1B260011005846DE400839884060
:100EA00033000343994623008B409846164B002499
:100EB0009B1A9A460023039382E65A4602439146C0
:100EC0002AD100229A46022390460824039377E60B
:100ED0005A46009B1A430D4B9C46E244002A17D108
:100EE00002231C4300239B46023389E6FF070000D0
:100EF00001FCFFFFD05F0008FF030000FFFFFFFEC3
:100F0000FE070000F30300000DFCFFFF01F8FFFFE8
:100F1000032332001C4373E69A460323D9460C246C
:100F200003934DE6002398469A4601330424039325
:100F300046E601231C4300239B46013360E6002361
:100F4000802498460026924B240371E601225242E7
:100F50000121C91A382900DD66E61F2900DCABE053
:100F60001F204042C31A5846D8400300202904D00D
:100F700058468849514488400243511E8A411A43C9
:100F8000072319000024114013420CD00F231340F3
:100F9000042B00D1F9E0111D91429B410A005B42F4
:100FA00059075B021C0BD2080A43904600233FE618
:100FB00080244B462403234209D05B46234206D1BA
:100FC0001C4324032E009046714B240B30E68024F2
:100FD0004B4624031C432403029E6D4B240B27E63F
:100FE000002B00D100E70098511E844664448442DF
:100FF00000D284E0BC4200D2AEE000D1C1E00A00E1
:10100000F0E6424500D92CE64B46DC07580843463B
:101010005B081C434346DF072AE601F001F915236C
:101020009C4684440200634620321C2B00DC2EE7E1
:1010300023000838834099460023984636E701F09C
:10104000EFF802000300153220331C2A00DCFBE617
:1010500000990838814000228B4602E70099013B45
:101060008C466444A14200D99AE6A24200D897E691
:10107000831E644494E6AC466144013F8D4200D92E
:1010800080E68A4200D87DE6871E61447AE6854282
:1010900000D05FE6B94500D95CE656E6A24200D82A
:1010A0001AE6831E644417E68A4200D800E6AC467E
:1010B000831E98466144FBE5374814005044824043
:1010C0005B4617008340CC407A1E974123433B4345
:1010D0001A005B46CB40510709D00F21114004296B
:1010E00005D0111D9142924152429B180A001902EB
:1010F00000D455E7002201230024904698E50A0019
:10110000BC4200D06EE64B4500D06BE66CE6234B4C
:10111000234A5344924500DA18E7012149420A1D47
:101120008A42894149428B4466E60F2111400429D5
:1011300000D161E61100F2E7BC4200D80AE60223C2
:101140005B429C4600994F444F459B41E3448C468B
:101150005B426344C018FFE54946009D480048458E
:101160008941AC46494261448146023A6418C7E766
:1011700080245B4624031C4324039046044B240B29
:1011800056E59945E8D30A00BDE7002308E7C046C5
:10119000FF0700003E0400001E040000FF030000E3
:1011A00002FCFFFFF0B55746DE464E464546E0B529
:1011B0000D000400E80F83460903D80F090B82468F
:1011C00019488C461F0369005E00490D3F0B760DE0
:1011D000814218D086420FD00120B1420DD1BC45CA
:1011E0000BD1944209D1D3451CD0002905D16046CA
:1011F0002043431E984100E00120F0BCBB46B246AC
:10120000A946A046F0BD01208E42F6D16146394381
:101210000F0017432743F0D15B465246981A431EEE
:101220009841EAE70020E8E7FF070000F0B55746DD
:101230004E464546DE46E0B50D000F03390B83B040
:101240000400804601915800E90F314F400D8C4653
:101250006E00190382469146760D090BD80FBE42E7
:101260001FD0BA450FD0002E2FD15546019E3443D2
:10127000002D27D10A433AD0002C45D100281AD19D
:101280000120404217E011433BD1002E02D1019FC3
:101290002743F3D0844509D16346002BF0D0604644
:1012A00009E0019F27432CD1B24524D06346022098
:1012B000013B1840013803B0F0BCBB46B246A9461A
:1012C000A046F0BD002CD9D0E4E75446002CEDD068
:1012D0008445EBD15645E9DCDEDB019B8B42E5D84A
:1012E000DAD1C845E2D80020C845E4D2D4E70020CE
:1012F000002CE0D0DAE7114303D18445D6D1002099
:10130000D9E702204042D6E78445E6D0CEE7C04682
:10131000FF070000F0B557464E464546DE46E0B5AD
:101320000D000F0304008046E80F390B844683B09C
:101330005800304F400D01911E03690082469146CE
:10134000490D360BD80FB94220D0BA450FD000292D
:101350002BD101990C435146002937D1324338D063
:10136000002C44D1002819D10120404216E0164338
:1013700013D1002902D1019F2743F3D0844520D007
:1013800063460220013B1840013807E0019F2743D4
:1013900003D18A45F4D116431FD0022003B0F0BC1C
:1013A000BB46B246A946A046F0BD5446002CE7D045
:1013B0008445E5D15145E3DC03DB019BB342DFD833
:1013C0000FD06346002BCFD06046E7E7002CC9D092
:1013D000D4E70020002CE1D0D2E78445D0D1002012
:1013E000DCE7C845CCD80020C845D7D2E9E784451A
:1013F000E3D0C5E7FF070000F0B55746DE464E468E
:101400004546E0B51F000B031B0B16009A46CA0F9A
:101410004B000400934687B05B0D00D1D5E0BB4A7A
:10142000934200D1F8E05146420FC9000A4380219F
:1014300009041143C2009146B54A8A469D1800230B
:10144000984602933C037B00FA0F3000240B5B0D9F
:10145000009200D196E0AD4A934231D0720FE40081
:101460002243802424041443A94AF0009446634490
:101470005B195A1C0192424600260A2A42DC5A464F
:1014800000994A4093464246022A32DC013A012A38
:1014900000D949E1022E00D1CAE0012E3DD100233E
:1014A0000024002210005A461B052343D207134391
:1014B000190007B0F0BCBB46B246A946A046F0BD35
:1014C000924B2643EB18002E00D1BBE0032241468D
:1014D00011435A46884600994A40802109018C46AA
:1014E00029006144019141460A2900DD33E2934617
:1014F0000326424601279740A6213A00C9000A4028
:101500000F4231D0029E022E00D135E2032E00D1CF
:10151000D2E154464846012EC1D0019A7D4B9446F3
:101520006344002B00DCC0E0420709D00F220240D8
:10153000042A05D0021D8242804140422418100036
:10154000E20106D5744B019A1C4080239446DB00CF
:101550006344724A93426BDC6207C00864025B0515
:101560000243240B5B0D9DE7902189000F4263D15C
:1015700088223A4200D1D7E0009BA2469B46814692
:101580000296BFE72300334300D17FE0002C00D157
:10159000ADE1200000F044FE020003000B3A1D20E4
:1015A0001900821A30000839D0408C4004433000C2
:1015B00088405B4AEB1A944663445A1C01924246A7
:1015C00000260A2A00DC5AE79CE753460343994663
:1015D00054D05346002B00D177E1504600F020FE56
:1015E0000B235B429C46020084441100504608399C
:1015F00088401D23804660461B1A2000D840030007
:10160000404603439A4623008B4099460023444DAD
:101610009846AD1A029315E752460243914626D1E9
:1016200000221D000223924608329046029309E7E9
:1016300000240022354B35E7002380249B462403F9
:10164000324B2FE702224146114380221201944679
:101650002A006244884601920A2900DD52E75A4670
:101660000020009904004A40934602260BE70C2212
:101670001D000323814690460293E3E600239A4629
:1016800004339846033B00250293DBE642460133D0
:101690001A432B0090465A1C019242460024002017
:1016A00001260A2A00DCEAE62CE70122D21A382AAF
:1016B00000DDF4E61F2A00DC2AE11F214942CB1A93
:1016C0002100D9400B00202A05D0164A019D9446DE
:1016D0006544AC402043421E904118430723190043
:1016E0000024014003420CD00F230340042B00D1FF
:1016F00040E1031D8342A441180064426107640273
:10170000240BC20800230A43CCE6C046FF070000B2
:1017100001FCFFFFFF030000FFFFFFFEFE070000CC
:101720000DFCFFFF3E04000049464A460904090C2F
:101730000D00160C020C0004000C4543AC460500DD
:101740007543A84615000F007543009202952A00C4
:10175000009D6F4365462D0CA94647444F44B8454C
:1017600005D91500802252029046454402953D0C51
:10177000039565462D043F042D0CAC463D006544A1
:101780000495250C2404240CAC4625007543A8467A
:1017900065460F006943414489466743390C494413
:1017A0006E43884503D980225202904646440D0C70
:1017B000A846350045440595039D3F04A8463F0CC7
:1017C0000904C91988444546039555462E04360C2C
:1017D0002F0C35004543784381463800A8462D0C30
:1017E000AA46009A504372434A445244914503D951
:1017F00080256D02A9464844150CA94645462D048E
:101800002D0CA84665467D43120448449044A946E1
:101810003200654662436E437C43170C3619BF198C
:10182000BC4203D980246402A446E144029C039E86
:10183000A446059D66448E428941AC4612043C0490
:10184000120CA2186244494254184644A446464524
:10185000A44182466442A046AA4292418C458941F5
:10186000E244D044494252420A43A045A441824541
:101870008941644249420C4341463F0CD219121936
:10188000CC0D049970020843411E884141464A44E8
:10189000F60D52023043490214430843D20135D5B4
:1018A0000122430802401343E0071843640834E66A
:1018B000009BA2469B4681468024534624031C433A
:1018C00024034A462E4B240BECE500F0A9FC15231B
:1018D0009C4684440200634620321C2B00DC84E6D4
:1018E000002399462300083883409A468EE600F08C
:1018F00097FC02000300153220331C2A00DC4EE660
:1019000002003400083A0020944052E6019304E6B5
:101910001C4B21009C460300019DD3406544A94017
:1019200019430300AB40581E834119430800D440BB
:101930004B0709D00F230B40042B05D00B1D8B4206
:101940008041404224181800230200D4D6E6012327
:1019500000240022A6E50F29AAD1802352461B03AA
:101960001A42A9D01C42A7D11C43009B02009B46EF
:10197000034B97E50024C1E60024014B220091E5CA
:10198000FF0700001E040000F0B54E464546DE4647
:101990005746E0B585B0009001910C034F00CE0F83
:1019A000610A009CB046640F0C4300997F0DC8008B
:1019B00011001A001B039C460091019251004B0D2F
:1019C0009946019B009DD90F63466A0F5B0A13433A
:1019D000EA0094469346C14A03900293914500D190
:1019E000CDE0012569404D467D1BAA468E4200D1BF
:1019F00080E0002D00DC35E34946002900D1DFE01E
:101A0000974200D194E152460125382A19DC802200
:101A1000029B12041343029352461F2A00DDE3E1A6
:101A2000534620226146029DD21A9540D9400D436B
:101A3000614691400A00511E8A411543029ADA40DC
:101A4000A41A451BA84280414042241A230200D414
:101A50003DE16402640A002C00D147E1200000F05F
:101A6000DFFB0300083B20212800CA1AD0409C401D
:101A700002009D4022439F4200DD77E1D81B0130E8
:101A8000091A2C008D40C4406B1E9D411300C240BA
:101A90008B402543002714001D436B0709D00F23FB
:101AA0002B40042B05D02B1DAB42AD416D42641978
:101AB0001D00230200D440E1884A0137974200D13B
:101AC00001E1012643468649ED0821404A072A43A1
:101AD0007C054D022D0B640D1E4024052C43F6079A
:101AE00034431000210005B0F0BCBB46B246A94605
:101AF000A046F0BD002D00DCD0E24946002900D010
:101B0000D4E06146029B194300D12BE1691E012DEF
:101B100000D1D9E1954200D10AE10125382917DC2D
:101B20008A4653461F2B00DDE7E12022D21A029B92
:101B3000614693401D005346D940634693401A00C6
:101B40000D43511E8A4153461543029ADA40A418A8
:101B50002D188542804140422418230200D4B6E06B
:101B60005E4B01379F4200D1ADE001215C4B6A081A
:101B70001C4029400A43E507154364088DE7594A8C
:101B8000029B92466246BA441A432CD08E422ED013
:101B90005246002A60D0002F00D1DBE063460E00E1
:101BA000029CD80862070243E4081300234300D1D3
:101BB00054E280252D0325432D03484C2D0B8CE743
:101BC0006146029B194300D1CCE029000139012D67
:101BD00000D188E1954200D1AAE00125382900DD35
:101BE0002FE78A4618E7012251408E42D0D1534652
:101BF000002B00D1BEE0002F00D038E1CA46220001
:101C0000024300D1E2E15346591E012B00D10DE2FF
:101C1000324A924500D1D2E10127382913DC1F292D
:101C200000DDEEE12022029B521A250007009A46B1
:101C3000CC4090409540CF40A244421E9041534634
:101C40002F43074302933D00654465459241029B43
:101C500052424F46D41880E7234A7D1C154200D0DB
:101C6000AAE062462500029B05431A43002F00D0DC
:101C7000F5E0002D00D16BE1002A00D152E163466E
:101C8000C51A029BE21AA8429B415B42D31A1A0270
:101C900000D4D5E163461D1AAC4592410126029B52
:101CA00052421C1B8846A41A0E40F6E697423FD0CB
:101CB00052460125382A00DD4AE78022029B1204A1
:101CC000134302932DE73C000025002205E707237C
:101CD0002B40002B00D0E2E66BE0C046FF0700007F
:101CE000FFFF7FFF01F8FFFFFE070000280000F064
:101CF00097FA030018331F2B00DCB4E62A000838DB
:101D000082409F4200DDB9E0DB1B581C1F2800DC2D
:101D1000A0E115001F3BDD40202805D040231B1A01
:101D20009A40531E9A411543072300272B40D0E7C2
:101D3000C00862070243E40837E7EA0863071A436A
:101D4000D34BE4089F4200D12FE72403250B7C05E9
:101D5000640DC2E6CA462200024358D163460E0013
:101D6000029C0393039B5746DA08E7E7C94CFF1A26
:101D7000144092E6C84D7A1C2A4200D084E022002A
:101D80000243002F00D0EFE0002A00D1E5E06246D8
:101D900002990A4300D1C5E06346C5188C468542C6
:101DA0008041644440422418230202D5B94B0137D4
:101DB0001C40BA460395D5E76246851AA84292416F
:101DC00052429146029BE31A1A004B46D21A130064
:101DD00091461A026CD44A464C462A4300D03AE651
:101DE00000260024002578E6029953460D00203A8B
:101DF000D540202B06D04022D21A0B0093406246D9
:101E00001A4393465B465A1E93411D4319E65346B7
:101E10005A1E012B00D1C6E09D4EB24500D1BDE651
:101E200088460E000125382A10DC1F2A7FDC20217D
:101E30002500891A070088408D40D740D440411EB4
:101E40008841029B3D431B1B054302936246551B81
:101E5000AC459241029B52424F469C1AF6E5002D3A
:101E600000D0B7E0002A00D1F0E001260E40634622
:101E70000298D90842070A43C40896E6854CFF1A1F
:101E800014406207E40860E781498A4200D1C9E052
:101E90006346C11881428041029B4042E3181B18EF
:101EA000DD075C08072349080D4317002B4010E7A6
:101EB00063461D1AAC4592410126029B52421C1BEF
:101EC0008846A41A0E40C6E56346C518029B8542A3
:101ED00080419C464042644424180127230200D4D8
:101EE000F5E6022741E66346C51AA8428041029BF7
:101EF0004042E41A0127241AA8E5029D52462B000D
:101F0000203AD34019005346202B06D04022D21A43
:101F10002B00934062461A4393465D466B1E9D41DB
:101F20000D4315E66207C0080243E4080DE71100FF
:101F300027002039CF40202A05D040218A1A94401A
:101F4000250005430395039D6A1E95413D437DE7AA
:101F5000002A00D144E701260E406346D908029BBF
:101F60005A070A43DC08F0E6002A28D06246029F9E
:101F7000C0083A4300D1DCE6620710438022E4083F
:101F80001203144209D0FD08154206D1634601260A
:101F90002C00D8087B0718430E40420FC000C00831
:101FA0005207024301E663461D1AAC459241029B6B
:101FB00052421C1B0E0088460127A41A46E56346C0
:101FC000D908029B5A070A43DC08EEE56346029CE7
:101FD0000393C7E6C008002A00D1AAE662071043AF
:101FE0008022E40812031442D7D0029FFD08154254
:101FF000D3D163460126D8087B072C0018430E4036
:10200000CBE70A002700203AD740202905D04022FC
:10201000521A9440250005430395039D6A1E95417D
:102020002F4310E614000025002256E5029B604471
:102030009946604592414C4452420500A4184CE731
:102040001A001C002A4300D0B3E6C9E6802400260B
:102050002403AEE520210025091A17E500220025FA
:102060000B4C3AE5002D00D1F6E54B46DA1B9246C3
:10207000002F00D16FE6382A05DC80263604344371
:1020800088460E00D1E688460E000125DEE6C046F1
:10209000FF070000FFFF7FFFFE070000002D00D1BB
:1020A00068E64B46D91B002F01D18A46A7E50127D8
:1020B000382900DDC7E5802212041443AFE5C0468D
:1020C000F0B5C6461E03360BB0460D4E0C034D0050
:1020D0005F0000B5240B6D0D7F0DB5420BD0084994
:1020E00000208F4204D1464616433000431E9841DB
:1020F00080BCB846F0BD04430120002CF8D1EEE7C7
:10210000FF0700000B00020070B5164D0C0382B0F3
:102110004900002000920193240B490DDE0FA942D3
:1021200004DD1148814203DD104BF01802B070BD90
:102130008020400320430E4C641A1F2C08DD0D4BF9
:102140005B1AD84003005842002EEFD11800EDE78B
:10215000094B009A9C46030061448B40E2401343C4
:10216000F1E7C046FE0300001D040000FFFFFF7FF3
:102170003304000013040000EDFBFFFF70B50028DE
:1021800016D0C317C5185D40C40F280000F048F8EA
:10219000104B1B1A5B055B0D0A2814DC02002E0095
:1021A000153296400B22121AD5402D032D0B03E059
:1021B00000240023002500261B052B43E4072343AE
:1021C0003000190070BD0B3885402D0300262D0B03
:1021D000F2E7C0461E04000010B5041E10D000F047
:1021E0001FF80E4B1B1A5B055B0D0A280FDC0B2238
:1021F0002100121AD14015300A038440120B01E06D
:10220000002300221B0513432000190010BD2200EB
:102210000B38824012030024120BF3E71E04000067
:102220001C2101231B04984201D3000C10391B0A06
:10223000984201D3000A08391B09984201D30009CA
:10224000043902A2105C40187047C0460403020221
:10225000010101010000000000000000B0B586B0DF
:1022600000AFF860B9607A6000F0D6FB00237B61B4
:1022700011E0FA687B69D118BA687B69D3181B78BA
:102280001C0000231D0022002B00012000F076FB23
:102290007B6901337B617A697B689A42E9D300F0FC
:1022A000DFFBC046BD4606B0B0BD80B584B000AF10
:1022B000786039600C217B183A0012681A6079182E
:1022C0007B6804221800FFF7C9FFC046BD4604B072
:1022D00080BD80B584B000AF786039600C217B1878
:1022E0003A0012681A6079187B6804221800FFF718
:1022F000B5FFC046BD4604B080BD80B582B000AF1A
:1023000078600A00FB1C1A70F91C7B680122180017
:10231000FFF7A4FFC046BD4602B080BD90B583B0B4
:1023200000AF00F0FAF900F047F800F089F800F08B
:1023300073FB1C4B7B601C4B1C681B4B1B68180001
:10234000FDF7E2FE03005A1C7B6821001800FFF72E
:1023500085FF154B1B681800FDF7D6FE02007B6851
:10236000D31801337B60114B1A687B681100180089
:10237000FFF79BFF7B6804337B600D4B1A687B681B
:10238000111C1800FFF7A5FF7B6804337B60094B25
:102390001A787B6811001800FFF7AFFF00F060FBB0
:1023A000C046FDE700700008000000200400002087
:1023B000080000200C00002090B58DB000AF142460
:1023C0003B1918001C231A00002101F017FE3B00E6
:1023D000180014231A00002101F010FE3B190222FC
:1023E0001A603B1980225200DA603B1980225201A8
:1023F0001A613B1940225A613B19180000F04EFD4A
:10240000031E01D000F052F83B0007221A603B0087
:1024100000225A603B0000229A603B000022DA60F2
:102420003B0000221A613B000021180000F01AFF57
:10243000031E01D000F03AF8C046BD460DB090BD75
:1024400080B586B000AF3B1D180014231A00002190
:1024500001F0D4FD144B5A6B134B01210A435A630C
:10246000114B5B6B012213403B603B68A023DB05F3
:1024700000221021180000F0F3FC3B1D10221A600E
:102480003B1D01225A603B1D00229A603B1D002229
:10249000DA603A1DA023DB051100180000F076FB7E
:1024A000C046BD4606B080BD0010024080B500AFFA
:1024B00072B6C046C046FDE780B582B000AF0F4B94
:1024C0001A6C0E4B01210A431A640C4B1B6C01223F
:1024D00013407B607B68094BDA6B084B8021490510
:1024E0000A43DA63054BDA6B80235B0513403B60DC
:1024F0003B68C046BD4602B080BDC04600100240E9
:1025000080B500AFC046FDE780B500AFC046FDE72F
:1025100080B500AFC046BD4680BD80B500AFC046A7
:10252000BD4680BD80B500AF00F058F9C046BD463D
:1025300080BD80B500AF01231800BD4680BD80B5C9
:1025400082B000AF7860396001F0B2FD030016225E
:102550001A6001235B421800BD4602B080BD80B501
:1025600082B000AF786001235A427B6811001800E6
:10257000FFF7E5FFC046FDE780B586B000AFF86025
:10258000B9607A6000237B610AE000E000BF0100CF
:10259000BB685A1CBA60CAB21A707B6901337B618E
:1025A0007A697B689A42F0DB7B681800BD4606B00A
:1025B00080BD80B586B000AFF860B9607A60002356
:1025C0007B6109E0BB685A1CBA601B78180000E008
:1025D00000BF7B6901337B617A697B689A42F1DBDA
:1025E0007B681800BD4606B080BD80B582B000AFE4
:1025F000786001235B421800BD4602B080BD80B503
:1026000082B000AF786039603B68802292015A60E6
:1026100000231800BD4602B080BD80B582B000AF77
:10262000786001231800BD4602B080BD80B584B03B
:1026300000AFF860B9607A6000231800BD4604B0AE
:1026400080BD000080B586B000AF7860144A154B9D
:10265000D31A7B617B693B61134B1B68002B02D152
:10266000114B124A1A60104B1A687B68D3183A69EA
:102670009A4207D201F01CFD03000C221A600123CC
:102680005B4209E0084B1B68FB60074B1A687B68DC
:10269000D218054B1A60FB681800BD4606B080BD15
:1026A000001800200004000088020020F803002029
:1026B00080B500AF034B802212059A60C046BD462C
:1026C00080BDC04600ED00E00D488546FFF7F0FFF5
:1026D000002103E00B4B5B58435004310A480B4B7D
:1026E00042189A42F6D30A4A02E0002313600432E9
:1026F000084B9A42F9D301F0E1FCFFF70FFEFEE729
:1027000000180020C8630008000000206C020020B0
:102710006C020020F4030020FEE780B582B000AF19
:10272000FB1D00221A70032000F00EF8031E03D0D8
:10273000FB1D01221A7001E0FFF7BEFEFB1D1B7896
:102740001800BD4602B080BD90B585B000AF78607E
:102750000F23FB1800221A701D4B1B78002B2BD067
:102760001C4B1C681A4B1B781900FA239800FDF7C4
:10277000E7FC030019002000FDF7E2FC030018004D
:1027800000F0EFF8031E12D17B68032B0AD879689A
:1027900001235B420022180000F0CEF80E4B7A684D
:1027A0001A600DE00F23FB1801221A7008E00F23B6
:1027B000FB1801221A7003E00F23FB1801221A7084
:1027C0000F23FB181B781800BD4605B090BDC0460E
:1027D00018000020100000201400002080B500AF79
:1027E000054B1B781A00054B1B68D218034B1A6067
:1027F000C046BD4680BDC046180000208C020020A7
:1028000080B500AF024B1B681800BD4680BDC046B6
:102810008C02002090B583B000AF02003960FB1D30
:102820001A70FB1D1B787F2B28D82F4AFB1D1B78A5
:102830005BB29B08C0339B009B58FA1D12781100B5
:1028400003220A40D200FF2191400A00D2431A40DD
:1028500011003B689B01FF221A40FB1D1B781800EA
:1028600003230340DB009A401F48FB1D1B785BB22B
:102870009B080A43C0339B001A5031E01B4AFB1DE2
:102880001B7819000F230B40083B9B0806339B0065
:10289000D31804331B68FA1D1278110003220A4072
:1028A000D200FF2191400A00D2431A4011003B6838
:1028B0009B01FF221A40FB1D1B78180003230340D5
:1028C000DB009A400948FB1D1B781C000F232340A6
:1028D000083B9B080A4306339B00C31804331A6065
:1028E000C046BD4603B090BD00E100E000ED00E051
:1028F00080B582B000AF78607B685A1E80235B048D
:102900009A4201D3012310E00A4B7A68013A5A60D7
:1029100001235B4203211800FFF77CFF054B0022D7
:102920009A60044B07221A6000231800BD4602B0CB
:1029300080BDC04610E000E080B584B000AFB96053
:102940007A600F217B18021C1A70BA687B181B78FA
:102950005BB211001800FFF75DFFC046BD4604B032
:1029600080BD80B582B000AF78607B681800FFF74B
:10297000BFFF03001800BD4602B080BDB0B586B0F1
:1029800000AFF860B9603A607B60214B1B78012B87
:1029900001D1022338E01E4B01221A701C4B002289
:1029A0005A6017257C19FA239B00180000F074F870
:1029B000030023707B191B78002B1FD1FB68012BB0
:1029C00006D13A687B68B968080000F0BFF805E0F6
:1029D0003A68BB681100180003F0E6FA1723FC18E8
:1029E000FA239B00180000F057F803002370094BEE
:1029F0005A69FB68D943074B0A405A61044B0022CD
:102A00001A701723FB181B781800BD4606B0B0BD1E
:102A1000900200200020024080B582B000AFFB1D74
:102A200000221A700B4B5B69002B0CDA094B0A4A27
:102A30009A60084B094A9A60064B5B69002B02DAE0
:102A4000FB1D01221A70FB1D1B781800BD4602B049
:102A500080BDC0460020024023016745AB89EFCD11
:102A600080B582B000AFFB1D01221A70094B5A6974
:102A7000084B802109060A435A61064B5B69002B0B
:102A800002DAFB1D00221A70FB1D1B781800BD46E0
:102A900002B080BD0020024080B584B000AF7860F5
:102AA000FFF7AEFE02007B689B18FB6007E0FFF7B4
:102AB000A7FE0200FB68934201D803233BE0204BB2
:102AC0001A6980235B021A4080235B029A4201D17B
:102AD000012300E00023002BE9D1194B1B69194A9F
:102AE0001340BB60164BBA681A61BB68002B04D058
:102AF000154BBA685A6001231DE0FFF781FE020002
:102B00007B689B18FB6007E0FFF77AFE0200FB681A
:102B1000934201D803230EE0094B1A698023DB029C
:102B20001A408023DB029A4201D1012300E00023F6
:102B3000002BE9D100231800BD4604B080BDC0467B
:102B400000200240FAC3000090020020B0B584B01B
:102B500000AFF8603A607B600B4B5A690A4B012169
:102B60000A435A61FB683A681A60BFF36F8FC04628
:102B70007B681C0000231D00FB68043322001A60E0
:102B8000C046BD4604B0B0BD0020024080B586B04E
:102B900000AF7860396000233B614DE13B681B6802
:102BA00001213A6991400A001340FB60FB68002B49
:102BB00000D13EE13B685B68022B03D03B685B6859
:102BC000122B25D13B69DA087B6808329200D35872
:102BD0007B613B69072213409B000F229A40130040
:102BE000DA437B6913407B613B681B690F221A4003
:102BF0003B6907210B409B009A4013007A691343FD
:102C00007B613B69DA087B68083292007969D150B0
:102C10007B681B687B613B695B0003229A40130061
:102C2000DA437B6913407B613B685B6803221A408F
:102C30003B695B009A4013007A6913437B617B68B0
:102C40007A691A603B685B68012B0BD03B685B6854
:102C5000022B07D03B685B68112B03D03B685B6895
:102C6000122B30D17B689B687B613B695B00032240
:102C70009A401300DA437B6913407B613B68DA6852
:102C80003B695B009A4013007A6913437B617B6860
:102C90007A699A607B685B687B6101223B699A4034
:102CA0001300DA437B6913407B613B685B681B0957
:102CB00001221A403B699A4013007A6913437B61F1
:102CC0007B687A695A603B685B68032B17D07B6826
:102CD000DB687B613B695B0003229A401300DA43A7
:102CE0007B6913407B613B689A683B695B009A4053
:102CF00013007A6913437B617B687A69DA603B6809
:102D00005A6880235B05134000D192E0504A3B692A
:102D10009B0818339B009B587B613B69032213403F
:102D2000DB000F229A401300DA437B6913407B617A
:102D30007A68A023DB059A4213D07B68454A934208
:102D40000DD07B68444A934207D07B68434A934244
:102D500001D1052306E0062304E0022302E001235B
:102D600000E000233A6903210A40D20093407A69C7
:102D700013437B6136493B699B0818339B007A6992
:102D80005A50334A8023D3587B61FB68DA437B690E
:102D900013407B613B685A6880235B02134003D079
:102DA0007A69FB6813437B61294980227B698B50D8
:102DB000274A8423D3587B61FB68DA437B6913403D
:102DC0007B613B685A6880239B02134003D07A6979
:102DD000FB6813437B611E4984227B698B501C4B2B
:102DE0001B687B61FB68DA437B6913407B613B684E
:102DF0005A6880235B03134003D07A69FB6813434E
:102E00007B61134B7A691A60114B5B687B61FB68CD
:102E1000DA437B6913407B613B685A6880239B03DC
:102E2000134003D07A69FB6813437B61084B7A69CE
:102E30005A603B6901333B613B681A683B69DA4081
:102E4000131E00D0AAE6C046C046BD4606B080BDEF
:102E50000018024000040050000800500014005008
:102E600080B582B000AF786008001100BB1C021C66
:102E70001A807B1C0A1C1A707B1C1B78002B04D048
:102E8000BB1C1A887B689A6103E0BB1C1A887B68AC
:102E90009A62C046BD4602B080BD000080B586B0D3
:102EA00000AF78607B68002B01D10123D0E17B6803
:102EB0001B680122134000D169E0C84B9B6838228F
:102EC00013407B617B69082B05D17B685B68002B15
:102ED0005DD10123BCE17B685A6880235B029A4282
:102EE00007D1BE4B1A68BD4B802149020A431A60C4
:102EF00020E07B685A68A023DB029A420ED1B74BD0
:102F00001A68B64B8021C9020A431A60B34B1A688B
:102F1000B24B802149020A431A600BE0AF4B1A689A
:102F2000AE4BAF490A401A60AC4B1A68AB4BAD4987
:102F30000A401A607B685B68002B14D0FFF760FCC6
:102F400003003B6108E0FFF75BFC02003B69D31A1A
:102F5000642B01D903237BE1A04B1A6880239B02D9
:102F60001340F0D013E0FFF74BFC03003B6108E097
:102F7000FFF746FC02003B69D31A642B01D90323F7
:102F800066E1964B1A6880239B021340F0D17B6860
:102F90001B680222134000D186E0904B9B683822C8
:102FA00013407B617B69002B2FD17B68DB68002B92
:102FB00001D101234CE1894B5B688B4A1340190016
:102FC0007B685B691A02854B0A435A607B69002B58
:102FD00012D1824B1B68854A134019007B681A691D
:102FE0007E4B0A431A607D4B1B68DB0A07221340A5
:102FF0007F4ADA407F4B1A607F4B1B681800FFF74F
:10300000A3FB031E50D0012322E17B68DB68002B69
:1030100030D0724B1B68754A134019007B681A69DF
:103020006E4B0A431A606D4B1A686C4B8021490045
:103030000A431A60FFF7E4FB03003B6108E0FFF777
:10304000DFFB02003B69D31A022B01D90323FFE007
:10305000624B1A688023DB001340F0D05F4B5B6843
:10306000614A134019007B685B691A025B4B0A4393
:103070005A6019E0594B1A68584B60490A401A6067
:10308000FFF7BEFB03003B6108E0FFF7B9FB02005E
:103090003B69D31A022B01D90323D9E04F4B1A689D
:1030A0008023DB001340F0D17B681B6808221340AB
:1030B00042D04A4B9B6838221340182B05D17B68BD
:1030C0009B69002B38D10123C2E07B689B69002BF0
:1030D00019D0424B1A6E414B01210A431A66FFF781
:1030E0008FFB03003B6108E0FFF78AFB02003B69AE
:1030F000D31A022B01D90323AAE0384B1B6E0222FC
:103100001340F1D018E0354B1A6E344B01218A433D
:103110001A66FFF775FB03003B6108E0FFF770FBE1
:1031200002003B69D31A022B01D9032390E02B4BF9
:103130001B6E02221340F1D17B681B6804221340EE
:1031400000D184E00F23FB1800221A70234B9B68E8
:1031500038221340202B06D17B689B68002B00D0BF
:1031600075E0012374E07B689B68012B06D11B4B43
:10317000DA6D1A4B01210A43DA651CE07B689B6813
:10318000052B0CD1154BDA6D144B04210A43DA657B
:10319000124BDA6D114B01210A43DA650BE00F4B3C
:1031A000DA6D0E4B01218A43DA650C4BDA6D0B4B5D
:1031B00004218A43DA657B689B68002B28D0FFF7DF
:1031C0001FFB03003B611DE0FFF71AFB02003B6998
:1031D000D31A0B4A934215D9032339E00010024059
:1031E000FFFFFEFFFFFFFBFFFF80FFFFFFC7FFFFAB
:1031F000006CDC021000002014000020FFFEFFFF26
:1032000088130000144BDB6D02221340DCD013E066
:10321000FFF7F6FA03003B6109E0FFF7F1FA02005D
:103220003B69D31A0D4A934201D9032310E00A4B9C
:10323000DB6D02221340F0D10F23FB181B78012B0A
:1032400005D1054BDA6B044B05490A40DA630023CC
:103250001800BD4606B080BD001002408813000073
:10326000FFFFFFEF80B584B000AF786039607B6806
:10327000002B01D10123E9E0764B1B6807221340A4
:103280003A689A421ED9734B1B6807229343190070
:10329000704B3A680A431A60FFF7B2FA0300FB600A
:1032A00009E0FFF7ADFA0200FB68D31A6A4A9342BD
:1032B00001D90323CAE0674B1B68072213403A6811
:1032C0009A42EED17B681B680222134017D07B68BC
:1032D0001B680422134008D0604B9B68604A1A4068
:1032E0005E4BB02109010A439A605C4B9B685D4AC2
:1032F000134019007B68DA68584B0A439A607B6870
:103300001B680122134055D0544B1B681C22934369
:1033100019007B689A68514B0A431A607B685B68A6
:10332000012B07D14D4B1A6880239B0213401FD1FC
:1033300001238BE07B685B68002B07D1474B1A6841
:103340008023DB00134013D101237FE07B685B689F
:10335000032B06D1414B1B6E0222134008D10123DF
:1033600074E03E4BDB6D0222134001D101236DE07E
:103370003A4B9B680722934319007B685A68374B86
:103380000A439A60FFF73CFA0300FB6009E0FFF78D
:1033900037FA0200FB68D31A2F4A934201D903235C
:1033A00054E02E4B9B6838221A407B685B68DB0038
:1033B0009A42ECD1274B1B68072213403A689A4285
:1033C0001ED2244B1B68072293431900214B3A68F5
:1033D0000A431A60FFF714FA0300FB6009E0FFF7E5
:1033E0000FFA0200FB68D31A1B4A934201D9032348
:1033F0002CE0184B1B68072213403A689A42EED122
:103400007B681B680422134009D0144B9B68164A42
:10341000134019007B681A69104B0A439A6000F048
:103420002BF801000D4B9B681B0A0F221A400F4B13
:103430009200D3581F2213400A00DA400C4B1A6046
:103440000C4B1B681800FFF77FF903001800BD46FE
:1034500004B080BD0020024088130000001002402C
:10346000FF84FFFFFFF0FFFFFF8FFFFF10600008EA
:10347000100000201400002080B584B000AF234B62
:103480001B689B08072213400133BB601F4B9B68DE
:10349000382213400FD11D4B1B68DB0A0722134053
:1034A00001229A4013007B6079681948FCF748FEB6
:1034B0000300FB601EE0154B9B6838221340082B6D
:1034C00002D1144BFB6015E0104B9B68382213406F
:1034D000202B03D180231B02FB600BE00B4B9B686E
:1034E00038221340182B03D1FA23DB01FB6001E0E3
:1034F0000023FB60B968F868FCF722FE0300FB605C
:10350000FB681800BD4604B080BDC04600100240F4
:10351000006CDC0200127A00F0B51F0000231600D8
:103520008BB09F4204DA802109067B181F002D23EF
:10353000129A149D1370202303229D43462D07D019
:103540002B00453B59424B411099013ACB1810933F
:1035500009AB049308AB0393139B00920293109B57
:10356000320001933B0000F069FE0400472D1BD19F
:10357000119BDB0711D5109BC31807930022002372
:1035800030003900FCF762FF002801D0079B099347
:103590003022099B07998B4220D32000099B159A62
:1035A0001B1B13600BB0F0BD109BC3180793462D77
:1035B000E4D10378302B0CD10022002330003900F5
:1035C000FCF744FF002804D10123109A9B1A139A98
:1035D0001360139B079A1B68D318CEE7591C0991F7
:1035E0001A70D6E7F0B52B2305000C0085B00270E9
:1035F000002901DA4C4202336B70092C2CDD02AB3E
:10360000DE1D20000A21FCF70BFF37003031013EA0
:10361000200031700A210194FCF71CFE019B04007C
:10362000632BEEDCBA1EA81C0100130030341470AA
:1036300002AC07349C420AD80023A24203D80933C3
:1036400002AA9B18DB1BC018401B05B0F0BD1C78FC
:1036500001330C700131EBE73023E418AB70281D07
:10366000EC70F1E7F0B597B00D000A921C9C0B933B
:10367000099000F0CBFC036818000D93FCF744FDA3
:1036800000230F9014932B7E07220C932B680E932C
:103690000E992368C90545D59B1893431A00083233
:1036A000226001221E685F687B005B081193109600
:1036B000AE64EF6410981199A74B5242FEF700FDDB
:1036C000002831D1109811990122A34B5242FCF7E6
:1036D000CDFE002828D10022002330003900FCF75D
:1036E000BBFE002803D02B002D2243331A700C9B05
:1036F0009A4F472B00D99A4F032300240E9A2B612F
:1037000001339A432A600B9B2900009309980A9B76
:1037100015AA00F0E5F9013000D09FE001204042F9
:1037200017B0F0BD0733B8E732003B003000390076
:10373000FEF7C6FC00280BD0002F03DA2B002D2249
:1037400043331A700C9B874F472BD5D9864FD3E74D
:1037500020220C9C6B6894435A1C46D107336B6043
:1037600080230E9ADB00134300222B60069214AADA
:1037700005920C9A0AA9049213AA039223225218C2
:10378000029201936B683200009309983B00FFF7A7
:10379000C3FE139A0700472C2DD1D31C02DB6B68A4
:1037A0009A4248DD0C9B1399023BDBB20C93280034
:1037B0000C9A013950301391FFF714FF149A04004A
:1037C00013182B61012A02DC2A68D20701D50133C4
:1037D0002B6123230AAA9B181B78002B00D192E7A8
:1037E0002B002D2243331A708DE7472CB8D1002BC4
:1037F000B6D10133B3E70C9B1100652BD7D90C9BD5
:10380000662B1AD16B68002A09DD2A61002B02D1D0
:103810002968C9070BD501339B182B6107E0002BE2
:1038200003D101222968114200D09A1C2A61139BFE
:103830000024AB65CDE767230C931399149B994241
:1038400006DB2B682961DB07F1D501312961EEE741
:1038500001220029E0DC9218521ADDE72A6853059C
:1038600008D42B693A000A9909980B9CA0470130AB
:1038700029D153E70C9B652B00D8DAE0A86CE96CE2
:1038800000220023FCF7E2FD002833D00123374A51
:103890000A9909980B9CA047013000D13EE7149E7D
:1038A000139BB34202DB2B68DB070CD50B9C0F9BF1
:1038B0000D9A0A990998A0470024013000D12DE7FC
:1038C000731EA3420ADC2B689B0700D505E1159BFC
:1038D000E868984200DB23E7180021E72A0001236B
:1038E0000A9909980B9F1A32B847013000D115E7A1
:1038F0000134E5E7139B002B3ADC01231B4A0A99AC
:1039000009980B9CA047013000D107E7149E139B38
:10391000334302D12B68DB07D5D50F9B0D9A0A994B
:1039200009980B9CA0470023013000D1F6E60C93C8
:10393000139B0C9A5B42934201DC330092E72A000E
:1039400001230A9909980B9C1A32A047013000D133
:10395000E4E60C9B0133EAE7FFFFEF7F50600008CD
:1039600054600008586000085C600008606000084F
:10397000149BAE6D0C939E4200DD1E00002E31DCC8
:10398000F3430024DB1733400E93AE6D0E9BF31A06
:10399000A34230DC139B0C9A9A4238DC2B68DB077D
:1039A00035D4139C0C9B0C9A9B1B141B9C4200DD72
:1039B0001C00002C34DCE3430026DB171C40139B67
:1039C0000C9AD31A1B1BB34200DC7CE72A000123AC
:1039D0000A9909980B9F1A32B847013000D19DE629
:1039E0000136ECE733003A000A9909980B9CA0478E
:1039F0000130C5D192E62A0001230A9909980B9E4D
:103A00001A32B047013000D188E60134BDE70F9B80
:103A10000D9A0A9909980B9CA0470130C1D17DE607
:103A2000BA1923000A9909980B9EB0470130C2D1F8
:103A300074E6149B0C93012B02DC01231A4239D04B
:103A400001233A000A9909980B9EB047013000D132
:103A500064E60F9B0D9A0A9909980B9EB0470130B6
:103A600000D15BE6A86CE96C0C9B0022013B0C9337
:103A70000023FCF7EBFC00281AD10C9B7A1C0A9956
:103A800009980B9EB04701300ED147E62A0001236A
:103A90000A9909980B9F1A32B847013000D13DE6C8
:103AA00001360C9B9E42F1DB2A0023005032DAE6FD
:103AB0000026F6E73A00E2E72A0001230A9909986E
:103AC0000B9E1932B047013000D127E60134EB6874
:103AD000159A9B1AA342EFDCF9E60024F7E7C046EB
:103AE000F7B5160001938A680B690C0000909342A9
:103AF00000DA13002200336043321278002A01D02A
:103B00000133336023689B0602D533680233336088
:103B10002268062315001D401A4227D02300433394
:103B20001B785A1E93412268920630D422000199D4
:103B30000098089D4332A847013025D0062223680B
:103B400000251340042B05D13368E568ED1AEB43DB
:103B5000DB171D40A3682269934201DD9B1AED1813
:103B60000026B54220D1002010E00135E36832681C
:103B70009B1AAB42D2DD2200012301990098089FD5
:103B80001932B8470130F0D101204042FEBD30204B
:103B9000E1184331087021005A1C45310978A218F8
:103BA000433202331170C1E72200012301990098CA
:103BB000089F1A32B8470130E6D00136D1E700003D
:103BC000F0B58BB006920A0043320793059003923A
:103BD0000A7E0C00109B782A09D8622A0BD8002A8A
:103BE00000D1BCE07B490491582A00D190E0250027
:103BF00042352A7022E0100063381528F7D8FCF708
:103C000095FA16001F00F6FFF6FFF6FFF6FF1F00FD
:103C1000F6FFF6FFF6FFF6FFA10036008000F6FF84
:103C2000F6FFB200F6FF3600F6FFF6FF840025002F
:103C30001A684235111D196013682B700123A0E02A
:103C400018680968021D0D060BD506681A60002E5B
:103C500003DA2D23039A764213705E4B0A270493EE
:103C600018E006681A604906F1D536B2EFE7086831
:103C7000196840C9050602D4400600D5B6B21960DD
:103C8000544B0A2704936F2A00D1023F23000022DD
:103C900043331A706368A360002B03DB042122689E
:103CA0008A432260002E02D1039D002B0CD0039D7D
:103CB00030003900FCF7CAFA049B013D5B5C2B70B5
:103CC000330006009F42F3D9082F09D12368DB0790
:103CD00006D5626823699A4202DC3023013D2B70CD
:103CE000039B5B1B2361079B210000930598069BA8
:103CF00009AAFFF7F5FE013048D1012040420BB080
:103D0000F0BD202209680A432260782232490491DA
:103D1000210045310A701968226840C9100602D492
:103D2000500600D5B6B21960D30702D5202313433D
:103D30002360002E01D01027A8E720222368934398
:103D40002360F8E71A680D68101D49691860136848
:103D50002E0601D5196002E06D06FBD519800023FF
:103D6000039D2361BFE71A68111D196015680021C2
:103D70002800626800F0C9F9002801D0401B60608B
:103D8000636823610023039A1370ACE72A00236958
:103D900006990598079DA8470130AED023689B0778
:103DA00015D4099BE0689842A9DA1800A7E7220019
:103DB000012306990598079E1932B04701309CD01F
:103DC0000135E368099A9B1AAB42F0DCE9E700256C
:103DD000F7E7C0466260000873600008002310B572
:103DE000040003604360836081814366C281036194
:103DF00043618361190008225C3000F0FFF80B4B2F
:103E0000246263620A4BA3620A4BE3620A4B236398
:103E10000A4B9C4205D00A4B9C4202D0094B9C4263
:103E200003D12000583000F06DF910BD653F000847
:103E30008D3F0008C53F0008F13F0008A8020020A0
:103E4000100300207803002010B5034A03490448FA
:103E500000F06CF810BDC0461C000020855800081A
:103E60002C00002041680B4B10B50400994201D092
:103E700001F008FDA168084B994202D0200001F032
:103E800001FDE168054B994202D0200001F0FAFCE7
:103E900010BDC046A80200201003002078030020B7
:103EA00010B5094B094A04211A6009480022FFF79E
:103EB00095FF012209210748FFF790FF02221221F6
:103EC0000548FFF78BFF10BDE0030020493E0008C6
:103ED000A8020020100300207803002010B502483B
:103EE00000F011F910BDC046E903002010B50248EA
:103EF00000F00AF910BDC046E903002010B5040027
:103F0000FFF7ECFF236A002B02D0FFF7EFFF10BD95
:103F1000044B2362044B1B68002BF6D1FFF7C0FF54
:103F2000F3E7C046653E0008E0030020F7B5140043
:103F3000002600900191A5686768013F04D52468B8
:103F4000002CF8D13000FEBDAB89012B08D90E2220
:103F5000AB5E013304D029000098019B98470643CB
:103F60006835EAE770B50C000E25495F00F078F877
:103F7000002803DB636D1B18636570BDA389024ACB
:103F80001340A381F9E7C046FFEFFFFFF8B51F001C
:103F90008B8905000C001600DB0505D50E23C95ED4
:103FA0000022022300F048F8A389054A28001340A4
:103FB000A38132000E23E15E3B0000F065F8F8BDFE
:103FC000FFEFFFFF70B50C000E25495F00F034F8DD
:103FD000A389421C03D1054A1340A38170BD8022EE
:103FE00052011343A3816065F8E7C046FFEFFFFF6E
:103FF00010B50E23C95E00F00DF810BD0300821845
:10400000934200D1704719700133F9E700487047B7
:1040100068010020002370B5064D040008002B60E5
:10402000FEF7E3FA431C03D12B68002B00D023607A
:1040300070BDC046E403002070B504000800110004
:104040001A000023054D2B60FEF7F0FA431C03D144
:104050002B68002B00D0236070BDC046E403002015
:1040600070B50400080011001A000023054D2B60F4
:10407000FEF782FA431C03D12B68002B00D023608B
:1040800070BDC046E403002070B5040008001100B4
:104090001A000023054D2B60FEF78BFA431C03D159
:1040A0002B68002B00D0236070BDC046E4030020C5
:1040B000014B18687047C0462800002070B50026E4
:1040C0000C4C0D4D641BA410A64209D1002601F032
:1040D0005FFF0A4C0A4D641BA410A64205D170BDB7
:1040E000B300EB5898470136EEE7B300EB5898471A
:1040F0000136F2E7C0630008C0630008C46300082B
:10410000C0630008704770477047C9B28218904278
:1041100001D10020704703788B42FBD00130F6E7D5
:10412000F0B502690F6987B006000B00002002910C
:10413000BA426DDB013FBC00143305931B19039396
:10414000330014331C19019323680493039B0498D0
:104150001D6801352900FBF7F3FF049B0090AB427B
:104160002BD3059B019D9C46002305930493624637
:1041700008CA28689446009A99B25143059A1B0CC4
:104180008918009A53430A0C9B181A0C89B205929D
:1041900082B2521A0499000C52189BB21114C31A1D
:1041A0005B18191492B21B041A43039B049104C5B3
:1041B0006345DCD22368002B30D03000029901F037
:1041C000C5F9002823DB340000250299143414318A
:1041D000236801C902936B461B8982B29A1A029B1B
:1041E0005219000C1B0C1B1A10141B181D1492B230
:1041F0001B041A43039B04C48B42E9D2019ABB00FF
:10420000D3181A68002A13D0009B0133009300983A
:1042100007B0F0BD2368002B04D1013F019B043C93
:10422000A342F7D33761C8E71A68002A04D1013FD7
:10423000019A043B9A42F7D33761E5E7F0B51400E1
:104240001D00C6699DB00A940B95259F0390002E12
:104250000FD1102000F030FE039B021ED86104D164
:10426000EF21C74BC74801F055FB466086600660EA
:10427000C660039BDB69196800290BD05A680123CB
:1042800093404A608B60039800F016FF0022039B66
:10429000DB691A60002D1EDA01233B606B005B08AE
:1042A0000B930B9FB84BB84A3B40934216D1B74B88
:1042B000249A13603B031B0B234301D100F083FDC1
:1042C000B34B269A0893002A02D0B24B269A136069
:1042D00008981DB0F0BD00233B60E2E70A9A0B9BF3
:1042E000129213931298139900220023FCF7AEF850
:1042F000061E0BD00123249A1360269B002B02D0AC
:10430000A54B269A1360A54B0893E1E71AAB0193DE
:104310001BAB00930398129A139B01F0CDF97A001E
:104320000590520D00D17BE0139B189619039C4B0E
:10433000090B0B439B495718129813991900002237
:10434000994BFDF721FB994A994BFDF755F8994A8E
:10435000994BFCF7A9F8040038000D00FDF70EFF9B
:10436000964A974BFDF748F802000B002000290001
:10437000FCF79AF804000D00FDF7C4FE002204903B
:10438000002320002900FCF767F800280BD00498D0
:10439000FDF7F4FE2B002200FCF758F84342584189
:1043A000049B1B1A049301231593049B162B10D80E
:1043B00012981399049A834BD2009B181A685B6871
:1043C000FCF74AF8002847D0049B013B04930023E4
:1043D000159300221A9B0692DB1B5A1E3ED5012222
:1043E000D31A069300230D93049B002B38DB049A09
:1043F0000D9B944663440D93002314920F93229BCC
:104400000124092B67D8052B02DD0024043B2293ED
:10441000229B981E032867D8FBF77EFE2B3A385B59
:104420001B9B1A9EF618684BF218202A0FDD4023BA
:104430009B1A9F40654B3800F318DC402043FDF782
:10444000CBFE0122624B771ECB18189276E7202311
:1044500020009B1A9840F2E71590BAE70D92C3E747
:10446000069B049A9B1A069353420F9300231493BE
:10447000C5E700231093239B0E930993002B13DCB5
:1044800001231A000E93099323920DE00123F1E713
:104490000023239A10939446049B63440E930133A4
:1044A0000993002B00DC0123039A0021D069042228
:1044B000150014359D421BD94160039800F0B8FDEA
:1044C0000890002817D1B021424B2E48089AFF319E
:1044D000C9E60123DDE7002310942293013B0E93EC
:1044E000099300221333CFE701231093023BF6E731
:1044F00001315200DCE7039B089ADB691A60099BD3
:104500000E2B00D9D9E0002C00D1D6E0049B002B63
:1045100064DD0F21049A2B4B0A40D2009B181E68C1
:104520005F68049B02241D11DB050AD52A4B0D4050
:104530001A6A5B6A12981399FCF71AFB0A900B919E
:104540000134254B0C93002D08D10A980B993200A9
:104550003B00FCF70DFB0A900B915AE001231D4232
:1045600009D0E4180C9B30001A685B683900FCF72E
:1045700043FF06000F000C9B6D100833E2E7C046B6
:1045800091600008A86000080000F07F0F2700007D
:104590008D6000089060000861600008606000089D
:1045A0000000F03F01FCFFFF0000F83F61436F6334
:1045B000A787D23FB3C8608B288AC63FFB799F503C
:1045C0001344D33FA061000832040000120400002D
:1045D000000010FE0061000878610008049B0224BE
:1045E000002B16D0129813990F225D422A40D74B08
:1045F000D2009B181A685B68FCF7FEFE01270023B7
:104600000A900B91D24E2D11002D00D0BAE0002B54
:10461000A1D10A9E0B9F159B002B00D1BDE000226B
:1046200030003900CB4BFBF717FF002800D1B4E076
:10463000099B002B00D1B0E00E9B002B39DD049BC1
:104640000022013B0C933000C34B3900FCF7D4FE31
:104650000A900B910E9B013420001193FDF78EFD03
:104660000A9A0B9BFCF7C8FEBC4B0022FBF71CFF11
:10467000BB4B0600CF18119B002B00D091E00A988D
:104680000B990022B74BFDF77FF932003B00040085
:104690000D00FBF7F5FE002800D09DE28021090601
:1046A0007B18320020002900FBF7D6FE002800D03E
:1046B00030E1129B139C0A930B941B9B002B00DA96
:1046C00077E1049A0E2A00DD73E1A04BD2009B181B
:1046D0005C681B6806930794239B002B03DA099BF5
:1046E000002B00DC06E10A9E0B9F099B089D013B05
:1046F0005B190A93069A079B30003900FCF738FAD9
:10470000FDF700FD0990FDF739FD069A079BFCF7C0
:1047100073FE02000B0030003900FDF735F92B0065
:10472000099A013530321A700A9A2C009A4200D048
:1047300031E102000B00FBF7B7FE069A079B06006B
:104740000F00FBF79DFE002800D00FE1069A079BA3
:1047500030003900FBF77AFE002803D0099BDD0703
:1047600000D503E10599039800F0A6FC002323700F
:10477000049B249A01331360269B002B00D1A7E5EC
:104780001C60A5E53D4205D032687368FCF734FE35
:104790003B0001346D10083636E7049B0C93099BEF
:1047A0005AE7119A694B013AD20010999B181A687E
:1047B0005B6800294CD000206B49FCF7D9F9320026
:1047C0003B00FDF7E1F8089A060094460F00089BAD
:1047D0001693119B634411930A980B99FDF792FC71
:1047E0000500FDF7CBFC02000B000A980B99FDF7C2
:1047F000CBF8169B30355C1C1D7032003B000A90D4
:104800000B91FBF729FE00286AD10A9A0B9B002026
:104810005049FDF7B9F832003B00FBF71DFE0028B8
:1048200000D0A5E0119BA34200D142E70022300056
:104830003900494BFCF7E0FD002206000F000A9802
:104840000B99454BFCF7D8FD16940A900B91C3E7E2
:1048500030003900FCF7D0FD089D119A2B009446DA
:1048600016901791634419930A980B99FDF74AFC27
:104870000400FDF783FC0B0002000A980B99FDF77A
:1048800083F83034199B2C70013506000F00AB42C1
:1048900029D116981799089B119C9C460022324BEF
:1048A0006444FBF701FE02000B0030003900FBF707
:1048B000E7FD00285CD1169A179B00202A49FDF7D6
:1048C00063F802000B0030003900FBF7C5FD00283B
:1048D00000D1EEE62300013C2278302AFAD01C00F9
:1048E0000C9B04933EE700221B4BFCF785FD0A90CE
:1048F0000B91B9E7099B002B0CD106980799002270
:10490000184BFCF779FD0A9A0B9BFBF7C3FD0028B7
:1049100000D164E100263700239B089CDB430C9305
:10492000002304933100039800F0C6FB002FD7D07A
:10493000049B002B05D0BB4203D01900039800F064
:10494000BBFB3900039800F0B7FBC9E7A061000882
:10495000786100080000F03F0000244000001C4087
:104960000000C0FC000014400000E03F049B0C93DA
:1049700023001C00013B1A78392A08D1089A9A4270
:10498000F7D10C9A089901320C9230220A701A78E9
:1049900001321A70A4E70022C64BFCF72DFD00225D
:1049A000002306000F00FBF751FD002800D1A1E60F
:1049B000D8E6109F0F9D069C002F14D0229A012A42
:1049C00000DDC8E0189A002A00D1BEE0BA4A9B1860
:1049D000069A0121D21806920D9A0398D3180D93C6
:1049E00000F022FC0700002C0ED00D9B002B0BDDED
:1049F0000D9A2300944200DD1300069AE41AD21A9D
:104A000006920D9AD31A0D930F9B002B1FD0109B6B
:104A1000002B00D1B5E0002D10D039002A000398FA
:104A200000F0CCFC059A01000700039800F014FC8C
:104A300006000599039800F03FFB05960F9B5A1B53
:104A4000AB4204D00599039800F0B8FC0590012111
:104A5000039800F0E9FB149B0600002B00D1BCE199
:104A60001A000100039800F0A9FC229B0600002513
:104A7000012B16DC00250A9BAB420ED10B9B1B03BE
:104A8000AB420AD18D4B0B9A134206D0069B0135DF
:104A9000013306930D9B01330D93149B0120002BD2
:104AA00008D0336903339B00F318586800F06CFB9F
:104AB0002023181A0D9B181802001F231A401842B1
:104AC00065D001339B1A042B5DDD1C239B1A069ACB
:104AD000E418D21806920D9AD3180D93069B002B5A
:104AE00005DD1A000599039800F0C4FC05900D9BA4
:104AF000002B05DD31001A00039800F0BBFC060016
:104B0000159B002B45D03100059800F01FFD0028B3
:104B10003FDA049B0A22013B0C930599002303987A
:104B200000F0EEFA109B0590002B00D15CE1002311
:104B300039000A22039800F0E3FA0E9B0700002BCD
:104B400055DC229B022B2DDC51E036231A9A0F9D57
:104B5000069C9B1A3CE7099B5D1E0F9BAB4208DB42
:104B60005D1B099B069C002B00DB31E7E41A002348
:104B70002EE70F9B149AEB1AD3180F951493002568
:104B8000EFE70F9A5EE7042BA8D01C339FE71300D2
:104B9000FBE7049B0C93099B0E93002B23DC229BC9
:104BA000022B20DD0E9B002B00D0B5E63100052244
:104BB000039800F0A5FA06000100059800F0C6FC75
:104BC000002800DCA8E6089B089A5C1C31231370BF
:104BD0000C9B01330C93A3E6119E3700F3E7049B73
:104BE000099E0C93F9E7109B002B00D100E1002CEB
:104BF00005DD39002200039800F03CFC0700380076
:104C0000002D18D07968039800F012FA041E05D11F
:104C100022002B4B2B482C49FFF725FB39003A6922
:104C20000C31023292000C3000F06AFE01222100A9
:104C3000039800F01FFC089B0E9A0693013B9B18FB
:104C40000122049707000F930A9B13400E93310033
:104C50000598FFF765FA049905000A90059800F099
:104C600075FC3A000D903100039800F08BFC012296
:104C7000C368040030350992002B04D10100059867
:104C800000F064FC09902100039800F015FA069BDF
:104C9000099A5C1C229B13430E9A134316D1392D9B
:104CA0002FD00D9B002B01DD0A9D3135069B1D7019
:104CB00038E6C04600002440330400000000F07FC6
:104CC00000610008A8600008EF0200000D9B002BA7
:104CD00004DB229A13430E9A13431ED1099B002B27
:104CE000E4DD05990122039800F0C4FB3100059032
:104CF00000F02CFC002802DCD8D1EB07D6D5392DEA
:104D0000D2D13923069A137023001C00013B1A7874
:104D1000392A4FD001321A7004E6099B002B03DDBB
:104D2000392DEED00135C1E7069B069A1D700F9B09
:104D300093422AD000230A220599039800F0E0F953
:104D4000049B0590BB4209D100230A2204990398D1
:104D500000F0D6F904900700069478E70499002340
:104D60000A22039800F0CCF9002304900A223900AB
:104D7000039800F0C5F9EEE70E9B0124002B00DD3F
:104D80001C00089B1C190023049305990122039819
:104D900000F070FB3100059000F0D8FB0028B3DC78
:104DA00001D1ED07B0D423001C00013B1A78302A52
:104DB000FAD0B7E5089A9A42A7D10C9B01330C931D
:104DC00031231370AEE5154B269A0893144B002A35
:104DD00001D0FFF77BFAFFF77BFA229B012B00DC67
:104DE00048E60120149D65E60E9B002B00DCD6E60C
:104DF000002431000598FFF793F9089B30301855CF
:104E00000E9B013405009C42B6DA00230A22059964
:104E1000039800F075F90590EBE7C0468460000840
:104E20008C60000870B505000C1E10D0043C23688F
:104E3000002B00DAE418280000F0EAF81D4A136895
:104E4000002B05D163601460280000F0E9F870BD04
:104E5000A34208D9206821188B42F3D119685B68F6
:104E600009182160EEE71A005B68002B01D0A3420D
:104E7000F9D911685018A0420BD1206809185018B0
:104E800011608342E0D118685B684118116053607B
:104E9000DAE7A04202D90C232B60D5E7206821185D
:104EA0008B4203D119685B68091821606360546004
:104EB000CAE7C046F003002010B5034B0100186894
:104EC00000F026F810BDC0462800002070B50F4E37
:104ED0000D0031680400002902D100F0FFFC3060B1
:104EE0002900200000F0FAFC431C03D101256D428B
:104EF000280070BD0323C51C9D43A842F8D0291A81
:104F0000200000F0EBFC0130F2D1EFE7EC030020D1
:104F1000F7B50322CB1C9343083305001F000C2B6D
:104F200034D20C27B94233D8280000F071F8374E3C
:104F300033681C00002C2FD139002800FFF7C6FF72
:104F40000400431C5FD134680094009B002B4AD1BD
:104F5000002C52D023682800E3180099019300F038
:104F6000BDFC019B834248D123682800FF1A390009
:104F7000FFF7ACFF013040D02368DB1923603368B2
:104F80005A68002A33D1009B336019E0002BC9DA3C
:104F90000C232B600020FEBD2168C91B20D40B29E7
:104FA0000AD9E2192760A34204D132606368116014
:104FB000536005E05A60F9E76268A3420ED132609F
:104FC000280000F02DF8200007220B30231D90430D
:104FD000C21A9842DFD01B1AA350DCE75A60EFE7F1
:104FE00023006468A6E7009C63680093ADE71A009D
:104FF0005B68A342FBD10023DAE70C2328002B6077
:1050000000F00EF8C6E70760DAE7C046F0030020BC
:1050100010B50248FFF777F810BDC046E80300203E
:1050200010B50248FFF770F810BDC046E803002035
:1050300070B5C56906000C00002D0ED11020FFF7D9
:105040003BFF021EF06104D16B21194B194800F09F
:1050500061FC456085600560C560F569EB68002B03
:1050600013D0F369A200DB689B181868002818D1D8
:1050700001210D00A5406A1D3000920000F068FC7F
:1050800000280CD0446085600DE02122042130000E
:1050900000F05EFCF369E860DB68002BE1D10020E2
:1050A00070BD02681A6000230361C360F8E7C04660
:1050B000916000081161000870B5C66905000C0018
:1050C000002E0ED11020FFF7F7FE021EE86104D17A
:1050D0008F21094B094800F01DFC46608660066080
:1050E000C660002C07D0EB696268DB6892009B18F1
:1050F0001A6822601C6070BD916000081161000890
:10510000F7B50F0001900C001E0000200D69143748
:105110003B68013099B251431B0C534389190E0C63
:105120009B191E0C89B21B045B1808C78542EFDC73
:10513000002E22D0A368AB4219DC616801980131CE
:10514000FFF776FF071E05D13A00BA210C4B0D4838
:1051500000F0E0FB210022690C31023292000C3099
:1051600000F0CEFB21000198FFF7A6FF3C002B1DAD
:105170009B00E31801355E6025612000FEBDC0463E
:105180000061000811610008802203005202002023
:10519000934201D21B04103080225204934201D268
:1051A00008301B0280225205934201D204301B01B9
:1051B0008022D205934201D202309B00002B03DBF8
:1051C0000130134200D120207047036801000722FC
:1051D0001800104013420DD0063A0020134205D1AA
:1051E0000230034203D0D34010000B6070479B088D
:1051F0000B60FBE79AB2002A01D110201B0CDAB237
:10520000002A01D108301B0A1A0701D104301B09FA
:105210009A0701D102309B08DA07E9D401305B0814
:10522000E6D12020E2E7000010B50C000121FFF7D5
:10523000FFFE002807D14621054C0200054B200047
:10524000FF3100F067FB01234461036110BDC046DC
:105250001161000800610008F0B514000A692369B3
:105260000D008BB09A4202DB23000C001D00276961
:105270002E696168BB190393A368BA19934200DAD7
:105280000131FFF7D5FE0290002806D1B121494B2C
:105290004948029A490000F03DFB029B002214336A
:1052A0009C46BB199B0063440493634604998B425C
:1052B0002AD32300BF00143314350893B600DB193A
:1052C0000593AB190993042306932300059A15331C
:1052D00001959A4205D3131B153B9B0801339B0094
:1052E0000693019B099A934210D3039B002B05DD83
:1052F000049B043B04931B68002B56D0029B039A2B
:1053000018001A610BB0F0BD04C3CFE7019B186809
:1053100080B200281ED067460025089E02CE3B685A
:1053200007938BB243431A006B46090C9B8B414396
:10533000D318079A5B19120C89181A0C8A189BB299
:10534000150C12041A43059B04C7B342E6D8634602
:10535000069A9D50019B1868000C20D063462500DA
:10536000614600271B6814352A680E6892B24243D2
:10537000360C9219D21916049BB21E430E6040CD12
:105380004B68360C46439BB2120CF3189B18059AD7
:105390001F0C0431AA42E7D8624606995350019B7C
:1053A0000433019304239C449BE7039B013B039339
:1053B0009BE7C0460061000811610008F7B50323B0
:1053C000150007000E001A401D4208D02549013A79
:1053D0009200525800233100FFF792FE0600AD10F4
:1053E0003DD0FC69002C0FD11020FFF765FD021E97
:1053F000F86105D1B4211C4B1C48FF3100F08AFA3A
:10540000446084600460C460FB699C680193002C64
:1054100008D138001649FFF707FF019B0400986088
:105420000023036001231D420AD03100220038000E
:10543000FFF712FF310001903800FFF73DFE019E9B
:105440006D100CD02068002807D122002100380000
:10545000FFF702FF0023206003600400E2E7300052
:10546000FEBDC0466C610008916000081161000833
:1054700071020000F0B50C0016002369571185B0C9
:10548000FB180193013300934968A3680290009AC6
:10549000934210DB0298FFF7CBFD002301000500CB
:1054A0001A00143198420CD1EF212A00254B2648CE
:1054B000490000F02FFA01315B00E8E798000A503C
:1054C0000133BB42FADBFB43DB171F40BF00230065
:1054D0001F20C91937002269143392009A18074017
:1054E000064229D00130C01B03908C4600201E6864
:1054F000BE400643604640C08446039E01CBF04058
:105500009A42F4D8260015360423B24204D3131B62
:10551000153B9B0801339B00C850002802D0019B1B
:1055200002330093009B0298013B21002B61FFF79F
:10553000C3FD280005B0F0BD01CB01C19A42FBD8E4
:10554000F0E7C046006100081161000830B50B6942
:1055500004690200E01A9C420FD114329B001431FE
:105560001400C918D218043A043915680B689D4212
:1055700004D001209D4200D2023830BD9442F2D3C3
:10558000FBE70000F0B50C0087B000901100200090
:105590001700FFF7DBFF051E10D101000098FFF791
:1055A00047FD021E04D1404B4048414900F0B2F98A
:1055B000012345610361100007B0F0BD0026B04231
:1055C00003DA23003C001F00013661680098FFF7F2
:1055D0002FFD021E03D1344B34483649E6E72369D8
:1055E000143400939B00E318210001943C000293C3
:1055F0003B6914349B00E31803930300C6608C4698
:105600000020143304930593634620CBA9B20E0007
:105610009C4608CC2D0C99B2711A09181B0C081461
:10562000EB1A1B18181489B21B041943059B02C3FB
:105630000593039BA342E7D83900039C153104234B
:105640008C4204D3E31B153B9B0801339B0001995B
:10565000CD1804992E00CB181F0002998E4211D349
:10566000029CE91E00208C4204D321000331491B17
:10567000890888001B18043B1968002910D0009B7A
:10568000136198E7844602CE88B2604400140C0C83
:1056900004196144201489B22404214302C7DCE7C1
:1056A000009901390091E6E70061000811610008E6
:1056B0003702000045020000F7B5012116001F0067
:1056C000FFF7B6FC041E05D12200254B25482649CC
:1056D00000F020F93B037D001B0B6D0D02D08022F2
:1056E000520313430193002E25D068460096FFF71E
:1056F0006CFD019B009900281BD020221E00121A6D
:1057000096403200C3400A4362610193019EA66144
:10571000731E9E4101362661002D14D03526134B91
:10572000ED18089B2D181D60099B361A1E6020007D
:10573000FEBD6161EAE701A8FFF747FD019B012675
:1057400063612030E7E70A4BC018089B1860094BDB
:10575000F3189B00E3185869FFF716FD7601E3E79D
:1057600000610008116100080F030000CDFBFFFF7E
:10577000CEFBFFFFFFFFFF3FF7B50C228B5E05005E
:105780000C001A0756D44A68002A02DC0A6C002A68
:105790004EDDE76A002F4BD0002280202E682A6061
:1057A0001A004001216A0240034233D0626DA3898E
:1057B0005B0706D56368D21A636B002B01D0236C9C
:1057C000D21A00232800E76A216AB847A289431C3D
:1057D00006D129681D2946D8294B0B41DB0742D445
:1057E0000023636023692360D20405D5431C02D1E2
:1057F0002B68002B00D16065616B2E60002917D0EB
:1058000023004433994202D02800FFF70BFB00230A
:1058100063630DE001232800B8470200431CC6D192
:105820002B68002BC3D01D2B01D0162B1AD12E6054
:1058300000201EE00E69002EFAD00F680E60BA1B21
:10584000019200229B0700D14A69A260019B002BB4
:10585000EEDDA36A32001F002800019B216AB847D1
:10586000002807DCA2894023012013431BB2A38137
:105870004042FEBD019B36181B1A0193E6E7C04665
:10588000FEFFBFDF0B6970B505000C00002B02D1D5
:105890000025280070BD002804D0036A002B01D128
:1058A000FEF72CFB0C22A35E002BF1D0626ED20718
:1058B00004D49B0502D4A06DFEF725FC280021002E
:1058C000FFF75AFF636E0500DB07E2D4A3899B054F
:1058D000DFD4A06DFEF718FCDBE70000002370B5F5
:1058E000064D040008002B60FCF7ACFE431C03D1FE
:1058F0002B68002B00D0236070BDC046E40300205D
:10590000002310B59A4200D110BDCC5CC4540133C1
:10591000F8E700007FB514001A00094B05001B686A
:105920000E00D868074B002C01D1074B1C0007491B
:10593000019302942B00009600F056F800F064F8F2
:105940002800002072620008AD6200087F62000833
:1059500070B50B0C150C002B1ED1002D0CD189B28B
:1059600094B24C432100FFF7D3FA051E1AD022004F
:105970000021FEF743FB16E02B1C0C1C89B292B2EF
:105980004A439BB2A1B25943140C0C19230C07D102
:10599000240492B21443E5E7002D01D1141CEDE775
:1059A0000C2303600025280070BD82B0002900D1BF
:1059B00001A9101E06D0002B06D013780B601078BA
:1059C000431E984102B0704702204042FAE70300AC
:1059D000081E05D0FF2A04D98A2201201A604042FD
:1059E000704701200A70FBE70EB417B5054C05ABF4
:1059F00004CB01002068019300F034F81EBC08BC01
:105A000003B0184728000020062010B500F010FA57
:105A10000120FCF7A4FD936810B5013B9360002BB7
:105A200004DA9469A34207DB0A2905D01368581CDD
:105A300010601970080010BD00F030F90100F9E79E
:105A4000F8B506000F001400D518AC4201D10020B3
:105A500007E021783A003000FFF7DDFF0134431CF6
:105A6000F3D1F8BDF0B5A1B00F0015001E000390F2
:105A7000002804D0036A002B01D1FEF73FFA7B6EA9
:105A8000DB0705D4BB899B0502D4B86DFEF73BFB51
:105A9000BB891B0702D53B69002B13D13900039842
:105AA00000F03EF900280DD07B6EDB0703D5012006
:105AB000404221B0F0BDBB899B05F8D4B86DFEF71C
:105AC00023FBF4E7002308AC6361203363761033D3
:105AD000A37607962E003378002B01D0252B48D1D2
