:020000040800F2
:100000000000082475150008511200085912000854
:100010006112000869120008711200080000000057
:10002000000000000000000000000000791200083D
:10003000871200080000000095120008A3120008B3
:10004000C5150008C5150008C5150008C515000828
:10005000C5150008C5150008C5150008C515000818
:10006000C5150008C5150008C5150008C515000808
:10007000C5150008C5150008C5150008C5150008F8
:10008000C5150008C5150008C5150008C5150008E8
:10009000C5150008C5150008C5150008C5150008D8
:1000A000C5150008C5150008C5150008C5150008C8
:1000B000C5150008C5150008C5150008C5150008B8
:1000C000C5150008C5150008C5150008C5150008A8
:1000D000C5150008B1120008C5150008C5150008AF
:1000E000C5150008C515000800000000C51500086A
:1000F000C5150008C5150008C5150008C515000878
:10010000C5150008C5150008C5150008C515000867
:10011000C5150008C5150008C5150008C515000857
:10012000C5150008C5150008C5150008C515000847
:10013000C5150008C5150008C5150008C515000837
:1001400000000000000000000000000000000000AF
:10015000C5150008C5150008C5150008C515000817
:10016000C5150008C5150008C5150008C515000807
:10017000C5150008C5150008C5150008C5150008F7
:10018000C5150008C5150008C5120008C5150008EA
:10019000C5150008C5150008C5150008C5150008D7
:1001A000C5150008C5150008C5150008C5150008C7
:1001B000C5150008C5150008C5150008C5150008B7
:1001C000C5150008C5150008C5150008C5150008A7
:1001D000C5150008C5150008C5150008C515000897
:1001E000C5150008C5150008C5150008C515000887
:1001F000C5150008C5150008C5150008C515000877
:10020000C5150008C5150008C5150008C515000866
:10021000C5150008C5150008C5150008C515000856
:10022000C5150008C5150008C51500080000000028
:10023000C5150008C515000800000000C515000818
:10024000C5150008C5150008C5150008C515000826
:10025000C5150008C5150008C5150008C515000816
:10026000C5150008C5150008C5150008C515000806
:10027000C5150008C5150008C515000800000000D8
:10028000C5150008C5150008C515000800000000C8
:0802900000000000C515000884
:1002A00010B5054C237833B9044B13B10448AFF3B0
:1002B00000800123237010BD6C00002400000000AA
:1002C000B49A000808B5034B1BB103490348AFF3C8
:1002D000008008BD0000000070000024B49A0008EF
:1002E00001F0FF01102A2BDB10F0070F08D010F8E7
:1002F000013B013A8B422DD010F0070F42B3F6D1EB
:10030000F0B441EA012141EA014122F007047FF003
:1003100000070023F0E80256083C85EA010586EA5A
:10032000010685FA47F5A3FA87F586FA47F6A5FA96
:1003300087F68EB9EED1F0BC01F0FF0102F00702A2
:1003400032B110F8013B013A83EA010313B1F8D14D
:100350000020704701387047002D06BF354603382E
:10036000073815F0010F07D1013015F4807F02BF67
:10037000013015F4C03F0130F0BC0138704700BFB8
:1003800053B94AB9002908BF00281CBF4FF0FF31FC
:100390004FF0FF3000F06AB9ADF1080C6DE904CE02
:1003A00000F006F8DDF804E0DDE9022304B0704750
:1003B0002DE9F047089D0C46002B4ED194468C4504
:1003C0008646B2FA82F262D94AB1C2F12003914064
:1003D00020FA03F30CFA02FC194300FA02FE4FEA7A
:1003E0001C471FFA8CF6B1FBF7F44FEA1E4307FBDC
:1003F000141143EA014304FB06F199420AD91CEBAC
:10040000030304F1FF3080F01281994240F20F8122
:10041000023C6344591A1FFA8EF3B1FBF7F007FB55
:10042000101143EA014300FB06F69E420AD91CEB79
:10043000030300F1FF3180F0FC809E4240F2F9801E
:10044000634402389B1B40EA044000211DB1D340A5
:100450000022C5E90032BDE8F0878B4205D90DB115
:10046000C5E9000100210846F5E7B3FA83F1002948
:1004700046D1A34202D39042C0F0F080861A64EBCA
:1004800003030120002DE6D0C5E90063E3E7002A5D
:1004900040F09080A1EB0C044FEA1C481FFA8CF747
:1004A0000121B4FBF8F64FEA1E4308FB164443EA69
:1004B000044307FB06F0984208D91CEB030306F13E
:1004C000FF3402D2984200F2CD8026461C1A1FFA51
:1004D0008EF3B4FBF8F008FB104443EA044300FB3E
:1004E00007F79F4208D91CEB030300F1FF3402D247
:1004F0009F4200F2B0802046DB1B40EA0640A5E7A1
:10050000C1F120068B4022FA06F71F4320FA06FCB1
:1005100004FA01F343EA0C03F44000FA01F8380C42
:100520004FEA1349B4FBF0FE1FFA87FC00FB1E44A0
:1005300049EA04440EFB0CF9A14502FA01F20AD97A
:100540003C190EF1FF3A80F08480A14540F2818091
:10055000AEF1020E3C44A4EB09041FFA83F9B4FB8C
:10056000F0F300FB134449EA044403FB0CFCA445EC
:1005700007D93C1903F1FF3067D2A44565D9023B86
:100580003C4443EA0E40A0FB0293A4EB0C049C42C3
:10059000CE469C4651D34ED055B1B8EB0E0364EB1A
:1005A0000C0404FA06F6CB401E43CC40C5E90064B7
:1005B000002150E7C2F1200320FA03F10CFA02FCFB
:1005C00024FA03F394400C434FEA1C4800FA02FE5D
:1005D0001FFA8CF7B3FBF8F008FB1031230C43EA49
:1005E000014300FB07F1994208D91CEB030300F11A
:1005F000FF362CD299422AD9023863445B1AA4B23E
:10060000B3FBF8F108FB113344EA034401FB07F3A1
:10061000A34208D91CEB040401F1FF3613D2A34214
:1006200011D902396444E41A41EA004139E7044629
:10063000F0E6084606E7C845AED2B9EB020E63EB1A
:10064000070C0138A8E73146EDE7034699E7304645
:10065000D4E7D6467FE7634402384DE70646234693
:1006600008460FE7023E634430E700BF704700BF13
:1006700080B483B000AF0346FB710B46BB711346D9
:100680007B71094B1B68FA795A63084B1B68BA796E
:100690005A63074B1B687A799A6300BF0C37BD46D3
:1006A0005DF8047B704700BF88000024D40000245C
:1006B0002001002480B586B000AF786000233B6144
:1006C0001449786808F008FB786110E0786908F050
:1006D0006DF901463B695A1C3A61CAB218333B4472
:1006E00003F80C2C0B49002008F0F6FA78617B69BE
:1006F000002B02D03B69022BE8DD3B69032B05D1BF
:100700003B7B797BBA7B1846FFF7B2FF00BF1837F7
:10071000BD4680BDCC9A000880B582B000AF78603D
:100720000B467B807B681B680C4A934208D17B8810
:100730000B4A0021D154402209490A4808F097F891
:100740007B681B68084A934204D140220749084845
:1007500008F08DF800BF0837BD4680BD0078004026
:10076000940200246C01002400100140D4020024F3
:100770000002002480B500AF00F026FF00F034F83E
:1007800000F0A2FA00F054FA00F006FA00F096F831
:1007900000F022F900F07AF940220C490C4808F0E8
:1007A00066F840220B490C4808F061F800210B481C
:1007B00004F08AFE00210A4804F086FE042109485C
:1007C00004F082FE0348FFF775FFFBE7D402002424
:1007D00000020024940200246C01002488000024FC
:1007E000D40000242001002480B59CB000AF07F1A4
:1007F00024034C220021184608F065FA3B1D2022F4
:100800000021184608F05FFA022001F0B9FF00232A
:100810003B60284BDB6A274A23F00103D362254B58
:10082000DB6A03F001033B60234B9B6923F44043E5
:10083000214A43F4004393611F4B9B6903F44043F7
:100840003B603B6800BF1C4B9B6903F40053B3F54E
:10085000005FF8D102237B6201233B6340237B636B
:100860000023BB6407F12403184601F0C3FF0346CD
:10087000002B01D000F002FB3F237B600023BB6014
:100880000023FB6000233B6100237B610023BB61ED
:100890000023FB6100233B623B1D0121184602F04F
:1008A00003FC0346002B01D000F0E8FA00BF7037CC
:1008B000BD4680BD000400580048025880B596B07F
:1008C00000AF07F14C0300221A605A609A6007F1EA
:1008D000300300221A605A609A60DA601A615A6125
:1008E0009A613B1D2C220021184608F0ECF9384B88
:1008F000384A1A60364B00225A60354B00229A6003
:10090000334BFF22DA60324B00221A61304B002257
:100910005A612F4B00229A612D4804F07DFD034659
:10092000002B01D000F0AAFA0023FB6400233B65F2
:1009300000237B6507F14C031946254805F088FB29
:100940000346002B01D000F099FA60233B6300239B
:100950007B630023BB630023FB6300233B64002312
:100960007B640023BB6407F130030022194618485A
:1009700004F0B8FE0346002B01D000F07FFA0023FC
:100980007B600023BB600023FB6000233B610023EE
:100990007B614FF40053BB610023FB6100233B628A
:1009A0004FF000737B620023BB620023FB623B1DA0
:1009B0001946074805F0DAFB0346002B01D000F08A
:1009C0005DFA034800F0CAFA00BF5837BD4680BD43
:1009D000880000240000014080B58AB000AF07F114
:1009E0001C0300221A605A609A603B4600221A607B
:1009F0005A609A60DA601A615A619A61214B224A00
:100A00001A60204B00225A601E4B00229A601D4B38
:100A1000FF22DA601B4B00221A611A4B00229A61F6
:100A2000184804F0F9FC0346002B01D000F026FA28
:100A30000023FB6100237B6207F11C031946114868
:100A400005F006FB0346002B01D000F017FA6023E7
:100A50003B6000237B600023BB6000233B613B467F
:100A600000221946074804F03DFE0346002B01D042
:100A700000F004FA034800F071FA00BF2837BD46C1
:100A800080BD00BFD40000240004004080B596B0B3
:100A900000AF07F14C0300221A605A609A6007F118
:100AA000300300221A605A609A60DA601A615A6153
:100AB0009A613B1D2C220021184608F004F9344BA2
:100AC000344A1A60324B00225A60314B00229A603D
:100AD0002F4BFF22DA602E4B00221A612C4B002292
:100AE0005A612B4B00229A61294804F095FC034679
:100AF000002B01D000F0C2F90023FB6400237B65CA
:100B000007F14C031946224805F0A2FA0346002BD0
:100B100001D000F0B3F960233B6300237B63002323
:100B2000BB630023FB6300233B6400237B6400233F
:100B3000BB6407F1300304221946154804F0D2FDC6
:100B40000346002B01D000F099F900237B600023BD
:100B5000BB600023FB6000233B6100237B614FF4FB
:100B60000053BB610023FB610023FB623B1D194660
:100B7000074805F0FBFA0346002B01D000F07EF990
:100B8000034800F0EBF900BF5837BD4680BD00BFF9
:100B9000200100240040014080B500AF224B234AD1
:100BA0001A60214B4FF416525A601F4B00229A6074
:100BB0001D4B0022DA601C4B00221A611A4B0C22DA
:100BC0005A61194B00229A61174B0022DA61164BC9
:100BD00000221A62144B00225A62134B00229A62BE
:100BE000114805F041FB0346002B01D000F046F907
:100BF00000210D4807F0BFFD0346002B01D000F097
:100C00003DF90021084807F0F4FD0346002B01D010
:100C100000F034F9044807F075FD0346002B01D0BD
:100C200000F02CF900BF80BD6C010024007800406A
:100C300080B500AF224B234A1A60214B4FF4165265
:100C40005A601F4B00229A601D4B0022DA601C4B39
:100C500000221A611A4B0C225A61194B00229A6128
:100C6000174B0022DA61164B00221A62144B002245
:100C70005A62134B00229A62114805F0F5FA0346B6
:100C8000002B01D000F0FAF800210D4807F073FDA9
:100C90000346002B01D000F0F1F80021084807F0CE
:100CA000A8FD0346002B01D000F0E8F8044807F047
:100CB00029FD0346002B01D000F0E0F800BF80BD05
:100CC000000200240010014080B58EB000AF07F193
:100CD000240300221A605A609A60DA601A61634B3A
:100CE000D3F8E030614A43F00203C2F8E0305F4BD2
:100CF000D3F8E03003F002033B623B6A5B4BD3F86E
:100D0000E0305A4A43F00803C2F8E030574BD3F8BA
:100D1000E03003F00803FB61FB69544BD3F8E0308B
:100D2000524A43F00403C2F8E030504BD3F8E030AD
:100D300003F00403BB61BB694C4BD3F8E0304B4A72
:100D400043F01003C2F8E030484BD3F8E03003F032
:100D500010037B617B69454BD3F8E030434A43F095
:100D60000103C2F8E030414BD3F8E03003F0010357
:100D70003B613B693D4BD3F8E0303C4A43F4807320
:100D8000C2F8E030394BD3F8E03003F48073FB60F5
:100D9000FB68364BD3F8E030344A43F08003C2F8A6
:100DA000E030324BD3F8E03003F08003BB60BB6827
:100DB0002E4BD3F8E0302D4A43F48063C2F8E03084
:100DC0002A4BD3F8E03003F480637B607B68274BC9
:100DD000D3F8E030254A43F40073C2F8E030234BE7
:100DE000D3F8E03003F400733B603B680022082135
:100DF0001F4801F0ABFC00224FF400511D4801F0E8
:100E0000A5FC002204211C4801F0A0FC08237B6201
:100E10000123BB620023FB6200233B6307F1240331
:100E20001946134801F0E2FA4FF400537B620123A4
:100E3000BB620023FB6200233B6307F124031946D6
:100E40000C4801F0D3FA04237B620123BB62002328
:100E5000FB6200233B6307F124031946064801F0B7
:100E6000C5FA00BF3837BD4680BD00BF00440258F8
:100E7000000C0258002002580024025880B400AF31
:100E800072B600BF00BFFDE780B483B000AF0A4B6D
:100E9000D3F8F430084A43F00203C2F8F430064BAA
:100EA000D3F8F43003F002037B607B6800BF0C379B
:100EB000BD465DF8047B70470044025880B487B09B
:100EC00000AF78607B681B68204A93420FD1204BAB
:100ED000D3F8F0301E4A43F00103C2F8F0301C4B47
:100EE000D3F8F03003F001037B617B6928E07B6875
:100EF0001B68184A93420FD1154BD3F8E830144AB7
:100F000043F00203C2F8E830114BD3F8E83003F0A5
:100F100002033B613B6913E07B681B680E4A934206
:100F20000ED10B4BD3F8F030094A43F48033C2F8AA
:100F3000F030074BD3F8F03003F48033FB60FB68EC
:100F400000BF1C37BD465DF8047B704700000140C0
:100F500000440258000400400040014080B58AB0BF
:100F600000AF786007F1140300221A605A609A609B
:100F7000DA601A617B681B68374A93421FD1374B8E
:100F8000D3F8E030354A43F48063C2F8E030334BA5
:100F9000D3F8E03003F480633B613B6902237B615B
:100FA0000223BB610023FB6100233B6201237B62C0
:100FB00007F1140319462A4801F018FA48E07B6843
:100FC0001B68284A93421FD1244BD3F8E030234AB0
:100FD00043F00103C2F8E030204BD3F8E03003F0D7
:100FE0000103FB60FB6840237B610223BB6100239C
:100FF000FB6100233B6202237B6207F11403194665
:10100000194801F0F3F923E07B681B68174A934203
:101010001ED1124BD3F8E030104A43F01003C2F84F
:10102000E0300E4BD3F8E03003F01003BB60BB6838
:1010300040237B610223BB610023FB6100233B62F1
:1010400004237B6207F114031946094801F0CEF925
:1010500000BF2837BD4680BD000001400044025853
:1010600000280258000400400000025800400140DF
:101070000010025880B5BEB000AF786007F1E403FD
:1010800000221A605A609A60DA601A6107F1200340
:10109000C0220021184607F016FE7B681B68674ACD
:1010A000934273D14FF002024FF00003C7E90823C7
:1010B0000023C7F8983007F12003184602F080FBA0
:1010C0000346002B01D0FFF7D9FE5D4BD3F8E83083
:1010D0005B4A43F08043C2F8E830594BD3F8E8301C
:1010E00003F08043FB61FB69554BD3F8E030544A71
:1010F00043F00203C2F8E030514BD3F8E03003F084
:101100000203BB61BB694E4BD3F8E0304C4A43F05D
:101110000103C2F8E0304A4BD3F8E03003F001039A
:101120007B617B691023C7F8E4300223C7F8E830FD
:101130000023C7F8EC300023C7F8F0300B23C7F8C2
:10114000F43007F1E40319463E4801F04FF94FF43B
:101150008073C7F8E4300223C7F8E8300023C7F8EB
:10116000EC300023C7F8F0300B23C7F8F43007F158
:10117000E4031946344801F039F9002200215220D5
:1011800000F09BFB522000F0B2FB52E07B681B6832
:101190002E4A93424DD14FF001024FF00003C7E9B0
:1011A00008230023C7F89C3007F12003184602F0FB
:1011B00007FB0346002B01D0FFF760FE204BD3F85E
:1011C000F0301F4A43F01003C2F8F0301C4BD3F844
:1011D000F03003F010033B613B69194BD3F8E0306A
:1011E000174A43F00203C2F8E030154BD3F8E03061
:1011F00003F00203FB60FB68C023C7F8E43002235E
:10120000C7F8E8300023C7F8EC300023C7F8F03007
:101210000723C7F8F43007F1E4031946094801F041
:10122000E5F800220021252000F047FB252000F0F2
:101230005EFB00BFF837BD4680BD00BF00780040B0
:1012400000440258000402580000025800100140F7
:1012500080B400AF00BFFDE780B400AF00BFFDE782
:1012600080B400AF00BFFDE780B400AF00BFFDE772
:1012700080B400AF00BFFDE780B400AF00BFBD4643
:101280005DF8047B704780B400AF00BFBD465DF8D9
:10129000047B704780B400AF00BFBD465DF8047B9F
:1012A000704780B500AF00F001FA00BF80BD0000BC
:1012B00080B500AF024805F027F800BF80BD00BF31
:1012C0000002002480B500AF024805F01DF800BF01
:1012D00080BD00BF6C01002480B400AF012318461C
:1012E000BD465DF8047B704780B582B000AF786082
:1012F000396007F093FD034616221A604FF0FF3362
:1013000018460837BD4680BD80B582B000AF786012
:101310004FF0FF317868FFF7E7FF00BFFDE780B5CA
:1013200086B000AFF860B9607A6000237B610AE0A4
:10133000AFF300800146BB685A1CBA60CAB21A708B
:101340007B6901337B617A697B689A42F0DB7B6859
:1013500018461837BD4680BD80B586B000AFF8602E
:10136000B9607A6000237B6109E0BB685A1CBA60EF
:101370001B781846AFF300807B6901337B617A6983
:101380007B689A42F1DB7B6818461837BD4680BD02
:1013900080B483B000AF78604FF0FF3318460C374D
:1013A000BD465DF8047B704780B483B000AF7860C1
:1013B00039603B684FF400525A60002318460C37DE
:1013C000BD465DF8047B704780B483B000AF7860A1
:1013D000012318460C37BD465DF8047B704780B486
:1013E00085B000AFF860B9607A6000231846143702
:1013F000BD465DF8047B704780B586B000AF78606D
:10140000144A154BD31A7B617B693B61134B1B68F4
:10141000002B02D1114B124A1A60104B1A687B68DC
:1014200013443A699A4207D207F0F8FC03460C22AB
:101430001A604FF0FF3309E0084B1B68FB60074B55
:101440001A687B681344054A1360FB68184618370E
:10145000BD4680BD000008240004000014030024E1
:101460006804002480B400AF374BD3F88830364A84
:1014700043F47003C2F88830344B1B6803F00F0349
:10148000062B07D8314B1B6823F00F032F4A43F07C
:10149000070313602E4B1B682D4A43F001031360B2
:1014A0002B4B00221A612A4B1A682949294B1340F9
:1014B0000B60264B1B6803F00803002B07D0234B5F
:1014C0001B6823F00F03214A43F007031360204BEE
:1014D00000229A611E4B0022DA611D4B00221A6223
:1014E0001B4B1D4A9A621A4B1C4ADA62184B1C4A63
:1014F0001A63174B00225A63154B194A9A63144B0F
:101500000022DA63124B164A1A64114B00225A6405
:101510000F4B1B680E4A23F4802313600C4B0022F0
:101520001A66104B1A68104B1340B3F1005F02D2D9
:101530000E4B01221A600E4B43F2D2021A6000BF1A
:10154000BD465DF8047B704700ED00E000200052CE
:10155000004402587FEDF6EA000202020000FF019B
:10156000800201010010005C0000FFFF08810051B3
:1015700000400052DFF834D0FFF774FF0C480D49EB
:101580000D4A002302E0D458C4500433C4188C42DE
:10159000F9D30A4A0A4C002301E013600432A24244
:1015A000FBD307F041FCFFF7E5F870470000082483
:1015B000000000246C000024FC9C00086C00002447
:1015C00068040024FEE7000080B582B000AF03206D
:1015D00000F068F901F01EFF0246154B9B691B0ADB
:1015E00003F00F031349CB5C03F01F0322FA03F34C
:1015F0007B600F4B9B6903F00F030E4AD35C03F033
:101600001F037A6822FA03F30B4A13600B4A7B68C4
:101610001360002000F014F80346002B01D00123D2
:1016200002E0FFF731FC002318460837BD4680BDB5
:1016300000440258D09A000804000024000000244E
:1016400080B582B000AF7860154B1B78002B01D1BC
:10165000012321E0134B1A68114B1B7819464FF4F4
:101660007A73B3FBF1F3B2FBF3F3184600F04DF9D4
:101670000346002B01D001230EE07B680F2B0AD814
:10168000002279684FF0FF3000F017F9064A7B68B6
:101690001360002300E0012318460837BD4680BDD3
:1016A0000C000024000000240800002480B400AFD7
:1016B000064B1B781A46064B1B681344044A1360FA
:1016C00000BFBD465DF8047B704700BF0C000024DE
:1016D0001803002480B400AF034B1B681846BD46B6
:1016E0005DF8047B704700BF1803002480B400AF8E
:1016F000034B1B681B0C1846BD465DF8047B704706
:101700000010005C80B485B000AF78607B6803F0A7
:101710000703FB600B4BDB68BB60BA684FF6FF0347
:101720001340BB60FB681A02BB681A43064B1343A5
:10173000BB60044ABB68D36000BF1437BD465DF888
:10174000047B704700ED00E00000FA0580B400AFB4
:10175000044BDB681B0A03F007031846BD465DF81F
:10176000047B704700ED00E080B483B000AF034617
:10177000FB80B7F90630002B0BDBFB8803F01F0260
:101780000749B7F906305B09012000FA02F241F877
:10179000232000BF0C37BD465DF8047B704700BFB7
:1017A00000E100E080B483B000AF03463960FB8005
:1017B000B7F90630002B0ADB3B68DAB20C49B7F9FF
:1017C00006301201D2B20B4483F800230AE03B68D2
:1017D000DAB20849FB8803F00F03043B1201D2B2CE
:1017E0000B441A7600BF0C37BD465DF8047B70478A
:1017F00000E100E000ED00E080B489B000AFF860E7
:10180000B9607A60FB6803F00703FB61FB69C3F111
:101810000703042B28BF0423BB61FB690433062B99
:1018200002D9FB69033B00E000237B614FF0FF32EC
:10183000BB6902FA03F3DA43BB681A407B699A403A
:101840004FF0FF317B6901FA03F3D9437B680B400A
:10185000134318462437BD465DF8047B70470000EB
:1018600080B582B000AF78607B68013BB3F1807FC8
:1018700001D301230FE00A4A7B68013B53600F212B
:101880004FF0FF30FFF78EFF054B00229A60044BAC
:1018900007221A60002318460837BD4680BD00BFE6
:1018A00010E000E080B582B000AF78607868FFF7A4
:1018B00029FF00BF0837BD4680BD80B586B000AFA8
:1018C0000346B9607A60FB81FFF740FF78617A6870
:1018D000B9687869FFF790FF0246B7F90E301146F4
:1018E0001846FFF75FFF00BF1837BD4680BD80B5C3
:1018F00082B000AF0346FB80B7F906301846FFF709
:1019000033FF00BF0837BD4680BD80B582B000AF51
:1019100078607868FFF7A4FF034618460837BD468D
:1019200080BD000080B586B000AF7860FFF7D2FEC2
:1019300038617B68002B01D10123DCE27B6893F8DE
:101940003530DBB2022B08D07B6880225A657B6879
:10195000002283F834200123CDE27B681B68764A9D
:1019600093424AD07B681B68744A934245D07B6897
:101970001B68734A934240D07B681B68714A93424C
:101980003BD07B681B68704A934236D07B681B68EB
:101990006E4A934231D07B681B686D4A93422CD0CB
:1019A0007B681B686B4A934227D07B681B686A4A36
:1019B000934222D07B681B68684A93421DD07B68A3
:1019C0001B68674A934218D07B681B68654A93423C
:1019D00013D07B681B68644A93420ED07B681B68F7
:1019E000624A934209D07B681B68614A934204D0E3
:1019F0007B681B685F4A934201D1012300E000230A
:101A0000002B13D07B681B681A687B681B6822F068
:101A10001E021A607B681B685A697B681B6822F08B
:101A200080025A617B681B687B610AE07B681B68E7
:101A30001A687B681B6822F00E021A607B681B68BC
:101A40007B617B681B683C4A934272D07B681B6851
:101A50003A4A93426DD07B681B68394A934268D0FA
:101A60007B681B68374A934263D07B681B68364AA1
:101A700093425ED07B681B68344A934259D07B689E
:101A80001B68334A934254D07B681B68314A9342A7
:101A90004FD07B681B68304A93424AD07B681B68F2
:101AA0002E4A934245D07B681B682D4A934240D012
:101AB0007B681B682B4A93423BD07B681B682A4A91
:101AC000934236D07B681B68284A934231D07B68AA
:101AD0001B68274A93422CD07B681B68254A934297
:101AE00027D07B681B68244A934222D07B681B68FE
:101AF000224A93421DD07B681B68214A934218D02A
:101B00007B681B681F4A934213D07B681B681E4A80
:101B100093420ED07B681B681C4A934209D07B68B5
:101B20001B681B4A934204D07B681B68194A934286
:101B300032D1012331E000BF1000024028000240F2
:101B400040000240580002407000024088000240FD
:101B5000A0000240B80002401004024028040240E5
:101B600040040240580402407004024088040240CD
:101B7000A0040240B8040240085402581C54025801
:101B80003054025844540258585402586C54025865
:101B900080540258945402580023002B07D07B68CD
:101BA0001B6E1A687B681B6E22F480721A607B6859
:101BB0001B686D4A93424AD07B681B686B4A93420C
:101BC00045D07B681B686A4A934240D07B681B689B
:101BD000684A93423BD07B681B68674A934236D081
:101BE0007B681B68654A934231D07B681B68644AF6
:101BF00093422CD07B681B68624A934227D07B6853
:101C00001B68614A934222D07B681B685F4A9342FB
:101C10001DD07B681B685E4A934218D07B681B68A6
:101C20005C4A934213D07B681B685B4A93420ED098
:101C30007B681B68594A934209D07B681B68584AE5
:101C4000934204D07B681B68564A934208D17B6854
:101C50001B681A687B681B6822F001021A6007E0A3
:101C60007B681B681A687B681B6822F001021A6097
:101C700013E0FFF72FFD02463B69D31A052B0CD961
:101C80007B6820225A657B68032283F835207B68B5
:101C9000002283F8342001232DE17B691B6803F0C7
:101CA0000103002BE5D17B681B682F4A93424AD081
:101CB0007B681B682D4A934245D07B681B682C4A81
:101CC000934240D07B681B682A4A93423BD07B6892
:101CD0001B68294A934236D07B681B68274A934287
:101CE00031D07B681B68264A93422CD07B681B68E6
:101CF000244A934227D07B681B68234A934222D010
:101D00007B681B68214A93421DD07B681B68204A70
:101D1000934218D07B681B681E4A934213D07B689D
:101D20001B681D4A93420ED07B681B681B4A934276
:101D300009D07B681B681A4A934204D07B681B68F1
:101D4000184A934201D1012300E00023002B2BD03D
:101D50007B689B6DBB607B68DB6D03F01F033F22DC
:101D60009A40BB689A602AE01000024028000240B6
:101D700040000240580002407000024088000240CB
:101D8000A0000240B80002401004024028040240B3
:101D9000400402405804024070040240880402409B
:101DA000A0040240B80402407B689B6DFB607B6826
:101DB000DB6D03F01F0301229A40FB685A607B68C9
:101DC0001B684F4A934272D07B681B684D4A93420E
:101DD0006DD07B681B684C4A934268D07B681B6857
:101DE0004A4A934263D07B681B68494A93425ED05B
:101DF0007B681B68474A934259D07B681B68464AF8
:101E0000934254D07B681B68444A93424FD07B680E
:101E10001B68434A93424AD07B681B68414A9342FD
:101E200045D07B681B68404A934240D07B681B6862
:101E30003E4A93423BD07B681B683D4A934236D072
:101E40007B681B683B4A934231D07B681B683A4AE7
:101E500093422CD07B681B68384A934227D07B681A
:101E60001B68374A934222D07B681B68354A9342ED
:101E70001DD07B681B68344A934218D07B681B686E
:101E8000324A934213D07B681B68314A93420ED08A
:101E90007B681B682F4A934209D07B681B682E4AD7
:101EA000934204D07B681B682C4A934201D10123E2
:101EB00000E00023002B15D07B685B6E7A68926E81
:101EC0005A607B68DB6E002B0CD07B68DB6E1A6877
:101ED0007B68DB6E22F480721A607B681B6F7A6805
:101EE000526F5A607B68012283F835207B6800229C
:101EF00083F83420002318461837BD4680BD00BF44
:101F000010000240280002404000024058000240F9
:101F10007000024088000240A0000240B800024069
:101F200010040240280402404004024058040240C9
:101F30007004024088040240A0040240B804024039
:101F4000085402581C540258305402584454025841
:101F5000585402586C5402588054025894540258F1
:101F600080B584B000AF78607B68002B01D101237D
:101F700037E27B6893F83530DBB2022B04D07B6804
:101F800080225A6501232CE27B681B685C4A9342DD
:101F90004AD07B681B685B4A934245D07B681B68CC
:101FA000594A934240D07B681B68584A93423BD0C1
:101FB0007B681B68564A934236D07B681B68554A3B
:101FC000934231D07B681B68534A93422CD07B6884
:101FD0001B68524A934227D07B681B68504A934241
:101FE00022D07B681B684F4A93421DD07B681B68D8
:101FF0004D4A934218D07B681B684C4A934213D0D9
:102000007B681B684A4A93420ED07B681B68494A2A
:10201000934209D07B681B68474A934204D07B688F
:102020001B68464A934201D1012300E00023002BA4
:1020300000F086807B68042283F835207B681B686B
:102040002F4A93424AD07B681B682E4A934245D060
:102050007B681B682C4A934240D07B681B682B4AE4
:1020600093423BD07B681B68294A934236D07B68F9
:102070001B68284A934231D07B681B68264A9342EA
:102080002CD07B681B68254A934227D07B681B684D
:10209000234A934222D07B681B68224A93421DD078
:1020A0007B681B68204A934218D07B681B681F4AD4
:1020B000934213D07B681B681D4A93420ED07B6805
:1020C0001B681C4A934209D07B681B681A4A9342DA
:1020D00004D07B681B68194A934208D17B681B684F
:1020E0001A687B681B6822F001021A6078E17B683D
:1020F0001B681A687B681B6822F001021A606FE196
:1021000010000240280002404000024058000240F7
:102110007000024088000240A0000240B800024067
:1021200010040240280402404004024058040240C7
:102130007004024088040240A0040240B804024037
:102140007B681B681A687B681B6822F00E021A60A5
:102150007B681B686C4A93424AD07B681B686B4A59
:10216000934245D07B681B68694A934240D07B68A4
:102170001B68684A93423BD07B681B68664A93425F
:1021800036D07B681B68654A934231D07B681B68F8
:10219000634A93422CD07B681B68624A934227D0E3
:1021A0007B681B68604A934222D07B681B685F4A49
:1021B00093421DD07B681B685D4A934218D07B68B0
:1021C0001B685C4A934213D07B681B685A4A93424F
:1021D0000ED07B681B68594A934209D07B681B6804
:1021E000574A934204D07B681B68564A934208D1F1
:1021F0007B681B681A687B681B6822F001021A6002
:1022000007E07B681B681A687B681B6822F0010284
:102210001A607B681B683C4A934272D07B681B68DB
:102220003A4A93426DD07B681B68394A934268D022
:102230007B681B68374A934263D07B681B68364AC9
:1022400093425ED07B681B68344A934259D07B68C6
:102250001B68334A934254D07B681B68314A9342CF
:102260004FD07B681B68304A93424AD07B681B681A
:102270002E4A934245D07B681B682D4A934240D03A
:102280007B681B682B4A93423BD07B681B682A4AB9
:10229000934236D07B681B68284A934231D07B68D2
:1022A0001B68274A93422CD07B681B68254A9342BF
:1022B00027D07B681B68244A934222D07B681B6826
:1022C000224A93421DD07B681B68214A934218D052
:1022D0007B681B681F4A934213D07B681B681E4AA9
:1022E00093420ED07B681B681C4A934209D07B68DE
:1022F0001B681B4A934204D07B681B68194A9342AF
:1023000032D1012331E000BF10000240280002401A
:102310004000024058000240700002408800024025
:10232000A0000240B800024010040240280402400D
:1023300040040240580402407004024088040240F5
:10234000A0040240B8040240085402581C54025829
:102350003054025844540258585402586C5402588D
:1023600080540258945402580023002B28D07B68D4
:102370001B6E1A687B681B6E22F480721A607B6881
:102380009B6DFB607B68DB6D03F01F0301229A40AD
:10239000FB685A607B685B6E7A68926E5A607B68F5
:1023A000DB6E002B0CD07B68DB6E1A687B68DB6E03
:1023B00022F480721A607B681B6F7A68526F5A60D1
:1023C0007B68012283F835207B68002283F8342063
:1023D0007B681B6D002B03D07B681B6D786898476A
:1023E000002318461037BD4680BD00BF80B489B0B9
:1023F00000AF786039600023FB61894B7B6194E119
:102400003B681A680121FB6901FA03F313403B6141
:102410003B69002B00F086813B685B6803F0030397
:10242000012B05D03B685B6803F00303022B30D11E
:102430007B689B68BB61FB695B00032202FA03F3C4
:10244000DB43BA691340BB613B68DA68FB695B0038
:1024500002FA03F3BA691343BB617B68BA699A60F5
:102460007B685B68BB610122FB6902FA03F3DB4313
:10247000BA691340BB613B685B681B0903F001024A
:10248000FB6902FA03F3BA691343BB617B68BA695B
:102490005A603B685B6803F00303032B17D07B682B
:1024A000DB68BB61FB695B00032202FA03F3DB43D9
:1024B000BA691340BB613B689A68FB695B0002FA2A
:1024C00003F3BA691343BB617B68BA69DA603B689E
:1024D0005B6803F00303022B23D1FB69DA087B68F6
:1024E000083253F82230BB61FB6903F007039B00FD
:1024F0000F2202FA03F3DB43BA691340BB613B6866
:102500001A69FB6903F007039B0002FA03F3BA6937
:102510001343BB61FB69DA087B680832B96943F889
:1025200022107B681B68BB61FB695B00032202FA17
:1025300003F3DB43BA691340BB613B685B6803F09C
:102540000302FB695B0002FA03F3BA691343BB6140
:102550007B68BA691A603B685B6803F44033002B00
:1025600000F0E0802F4BD3F8F4302E4A43F0020302
:10257000C2F8F4302B4BD3F8F43003F00203FB60C5
:10258000FB68294AFB699B08023352F82330BB6180
:10259000FB6903F003039B000F2202FA03F3DB4302
:1025A000BA691340BB617B68204A934252D07B6872
:1025B0001F4A934231D07B681E4A93422BD07B68DE
:1025C0001D4A934225D07B681C4A93421FD07B68EA
:1025D0001B4A934219D07B681A4A934213D07B68F6
:1025E000194A93420DD07B68184A934207D07B6802
:1025F000174A934201D109232DE00A232BE0082337
:1026000029E0072327E0062325E0052323E0042310
:1026100021E003231FE002231DE001231BE000BF94
:10262000800000580044025800040058000002587E
:102630000004025800080258000C0258001002580A
:102640000014025800180258001C025800200258BA
:10265000002402580023FA6902F00302920093401A
:10266000BA691343BB613849FB699B080233BA69F5
:1026700041F823204FF0B0431B68BB613B69DB434B
:10268000BA691340BB613B685B6803F48013002B9D
:1026900003D0BA693B691343BB614FF0B042BB69D9
:1026A00013604FF0B0435B68BB613B69DB43BA69C1
:1026B0001340BB613B685B6803F40013002B03D03D
:1026C000BA693B691343BB614FF0B042BB695360C9
:1026D0007B695B68BB613B69DB43BA691340BB61E3
:1026E0003B685B6803F40033002B03D0BA693B6995
:1026F0001343BB617B69BA695A607B691B68BB6124
:102700003B69DB43BA691340BB613B685B6803F418
:102710008033002B03D0BA693B691343BB617B69EB
:10272000BA691A60FB690133FB613B681A68FB698F
:1027300022FA03F3002B7FF463AE00BF00BF2437FF
:10274000BD465DF8047B70470004005880B483B038
:1027500000AF78600B467B8013467B707B78002B44
:1027600003D07A887B689A6103E07B881A047B68CF
:102770009A6100BF0C37BD465DF8047B70470000CE
:1027800080B584B000AF7860194BDB6803F00403B8
:10279000042B0AD0164BDB6803F007037A689A42D1
:1027A00001D001231FE000231DE0114BDB6823F063
:1027B00007020F497B681343CB60FEF78BFFF8607D
:1027C00009E0FEF787FF0246FB68D31AB3F57A7F6C
:1027D00001D9012307E0064B5B6803F40053B3F50E
:1027E000005FEED1002318461037BD4680BD00BF04
:1027F0000048025880B58CB000AF78607B68002B31
:1028000002D1012300F048BC7B681B6803F0010380
:10281000002B00F08880994B1B6903F03803FB62A2
:10282000964B9B6ABB62FB6A102B07D0FB6A182B86
:1028300011D1BB6A03F00303022B0CD18F4B1B6831
:1028400003F40033002B6DD07B685B68002B69D1EB
:10285000012300F021BC7B685B68B3F5803F06D1A3
:10286000864B1B68854A43F4803313602EE07B68F7
:102870005B68002B0CD1814B1B68804A23F48033AA
:1028800013607E4B1B687D4A23F4802313601DE098
:102890007B685B68B3F5A02F0CD1784B1B68774A37
:1028A00043F480231360754B1B68744A43F48033F0
:1028B00013600BE0714B1B68704A23F48033136084
:1028C0006E4B1B686D4A23F4802313607B685B6842
:1028D000002B13D0FEF7FEFE786208E0FEF7FAFE4A
:1028E00002467B6AD31A642B01D90323D4E3634BDA
:1028F0001B6803F40033002BF0D014E0FEF7EAFE6F
:10290000786208E0FEF7E6FE02467B6AD31A642B83
:1029100001D90323C0E3594B1B6803F40033002B98
:10292000F0D100E000BF7B681B6803F00203002BBE
:1029300000F0CA80514B1B6903F038033B624F4BD8
:102940009B6AFB613B6A002B07D03B6A182B56D170
:10295000FB6903F00303002B51D1484B1B6803F0C4
:102960000403002B05D07B68DB68002B01D1012319
:1029700092E3424B1B6823F019027B68DB683F49F6
:1029800013430B60FEF7A6FE786208E0FEF7A2FE96
:1029900002467B6AD31A022B01D903237CE3374B0F
:1029A0001B6803F00403002BF0D0FEF79FFE0346E4
:1029B00041F20302934217D87B681B69402B08D170
:1029C0002E4B5B6823F47C332C4A43F40033536072
:1029D0007AE02A4B5B6823F47C327B681B691B031B
:1029E000264913434B606FE0244B5B6823F0FE42A3
:1029F0007B681B691B06214913434B6064E07B68BD
:102A0000DB68002B47D01D4B1B6823F019027B6845
:102A1000DB681A4913430B60FEF75CFE786208E03E
:102A2000FEF758FE02467B6AD31A022B01D9032314
:102A300032E3124B1B6803F00403002BF0D0FEF7C7
:102A400055FE034641F20302934219D87B681B6985
:102A5000402B08D1094B5B6823F47C33074A43F4CD
:102A60000033536030E0054B5B6823F47C327B68B5
:102A70001B691B03014913434B6025E000440258C6
:102A80009A4B5B6823F0FE427B681B691B069749E3
:102A900013434B6018E0954B1B68944A23F00103E5
:102AA0001360FEF717FE786208E0FEF713FE024699
:102AB0007B6AD31A022B01D90323EDE28B4B1B68EF
:102AC00003F00403002BF0D17B681B6803F01003B4
:102AD000002B00F0A980854B1B6903F03803BB6114
:102AE000824B9B6A7B61BB69082B07D0BB69182BA3
:102AF0003AD17B6903F00303012B35D17B4B1B6873
:102B000003F48073002B05D07B68DB69802B01D038
:102B10000123C1E2FEF7EAFD034641F203029342BC
:102B200017D87B681B6A202B08D1704B5B6823F099
:102B3000F8436E4A43F08043536075E06B4B5B682B
:102B400023F0F8427B681B6A9B06684913434B607D
:102B50006AE0664BDB6823F07C527B681B6A1B06CD
:102B600062491343CB605FE07B68DB69002B42D096
:102B70005E4B1B685D4A43F080031360FEF7AAFDBD
:102B8000786208E0FEF7A6FD02467B6AD31A022BA4
:102B900001D9032380E2554B1B6803F48073002B9B
:102BA000F0D0FEF7A3FD034641F20302934217D88B
:102BB0007B681B6A202B08D14C4B5B6823F0F843E1
:102BC0004A4A43F0804353602EE0484B5B6823F051
:102BD000F8427B681B6A9B06444913434B6023E021
:102BE000424BDB6823F07C527B681B6A1B063F4923
:102BF0001343CB6018E03D4B1B683C4A23F0800335
:102C00001360FEF767FD786208E0FEF763FD024699
:102C10007B6AD31A022B01D903233DE2334B1B6895
:102C200003F48073002BF0D17B681B6803F008036A
:102C3000002B36D07B685B69002B19D02B4B5B6F68
:102C40002A4A43F001035367FEF744FD786208E027
:102C5000FEF740FD02467B6AD31A022B01D90323FB
:102C60001AE2224B5B6F03F00203002BF0D018E056
:102C70001E4B5B6F1D4A23F001035367FEF72AFDCD
:102C8000786208E0FEF726FD02467B6AD31A022B23
:102C900001D9032300E2154B5B6F03F00203002B05
:102CA000F0D17B681B6803F02003002B39D07B68D0
:102CB0009B69002B1CD00D4B1B680C4A43F48053BE
:102CC0001360FEF707FD786208E0FEF703FD024699
:102CD0007B6AD31A022B01D90323DDE1034B1B6866
:102CE00003F40053002BF0D01BE000BF0044025857
:102CF0009B4B1B689A4A23F480531360FEF7EAFC4F
:102D0000786208E0FEF7E6FC02467B6AD31A022BE3
:102D100001D90323C0E1924B1B6803F40053002B3D
:102D2000F0D17B681B6803F00403002B00F0818066
:102D30008C4B1B688B4A43F480731360FEF7CAFC0C
:102D4000786208E0FEF7C6FC02467B6AD31A642B61
:102D500001D90323A0E1834B1B6803F48073002B8C
:102D6000F0D07B689B68012B06D17D4B1B6F7C4AA2
:102D700043F0010313672DE07B689B68002B0CD1A7
:102D8000774B1B6F764A23F001031367744B1B6F5D
:102D9000734A23F0040313671CE07B689B68052BD0
:102DA0000CD16F4B1B6F6E4A43F0040313676C4BDF
:102DB0001B6F6B4A43F0010313670BE0684B1B6FFB
:102DC000674A23F001031367654B1B6F644A23F0C6
:102DD000040313677B689B68002B15D0FEF77AFC11
:102DE00078620AE0FEF776FC02467B6AD31A41F26B
:102DF0008832934201D903234EE1594B1B6F03F0F4
:102E00000203002BEED014E0FEF764FC78620AE0C7
:102E1000FEF760FC02467B6AD31A41F28832934285
:102E200001D9032338E14E4B1B6F03F00203002B43
:102E3000EED17B685B6A002B00F02D81484B1B694B
:102E400003F03803182B00F0BD807B685B6A022B0F
:102E500040F09E80424B1B68414A23F08073136010
:102E6000FEF738FC786208E0FEF734FC02467B6A25
:102E7000D31A022B01D903230EE1394B1B6803F04F
:102E80000073002BF0D1364B9A6A374B13407A68A7
:102E9000916A7A68D26A12010A43314913438B62FC
:102EA0007B681B6B013BC3F308027B685B6B013BD8
:102EB0005B029BB21A437B689B6B013B1B0403F4D0
:102EC000FE031A437B68DB6B013B1B0603F0FE43EA
:102ED000234913430B63224BDB6A214A23F001038E
:102EE000D3621F4B5A6B214B13407A68926CD2000D
:102EF0001B4913434B631A4BDB6A23F00C027B68BC
:102F00001B6C17491343CB62154BDB6A23F002029B
:102F10007B685B6C12491343CB62114BDB6A104A2E
:102F200043F48033D3620E4BDB6A0D4A43F4003323
:102F3000D3620B4BDB6A0A4A43F48023D362084B0B
:102F4000DB6A074A43F00103D362054B1B68044A5E
:102F500043F080731360FEF7BDFB786211E000BFA1
:102F600000440258004802580CFCFFFF0700FFFF16
:102F7000FEF7B0FB02467B6AD31A022B01D903236A
:102F80008AE0474B1B6803F00073002BF0D082E00F
:102F9000434B1B68424A23F080731360FEF79AFB91
:102FA000786208E0FEF796FB02467B6AD31A022B92
:102FB00001D9032370E03A4B1B6803F00073002B28
:102FC000F0D168E0364B9B6A3B61354B1B6BFB6075
:102FD0007B685B6A012B31D03B6903F003027B689D
:102FE0009B6A9A422AD13B691B0903F03F027B6826
:102FF000DB6A9A4222D1FB68C3F308027B681B6B31
:10300000013B9A421AD1FB685B0A03F07F027B689E
:103010005B6B013B9A4211D1FB681B0C03F07F02F2
:103020007B689B6B013B9A4208D1FB681B0E03F047
:103030007F027B68DB6B013B9A4201D001232BE0CE
:10304000174B5B6BDB08C3F30C033B617B689B6C2A
:103050003A699A421FD0124BDB6A114A23F00103EE
:10306000D362FEF737FB786200BFFEF733FB024600
:103070007B6A9342F9D00A4B5A6B0A4B13407A6829
:10308000926CD200064913434B63054BDB6A044A3A
:1030900043F00103D362002318463037BD4680BD9C
:1030A000004402580700FFFF80B586B000AF78608B
:1030B00039607B68002B01D101239CE18A4B1B689E
:1030C00003F00F033A689A4210D9874B1B6823F02C
:1030D0000F0285493B6813430B60834B1B6803F069
:1030E0000F033A689A4201D0012384E17B681B6890
:1030F00003F00403002B10D07B681A697B4B9B699B
:1031000003F070039A4208D9784B9B6923F0700250
:103110007B681B69754913438B617B681B6803F0EF
:103120000803002B10D07B685A69704BDB6903F0F1
:1031300070039A4208D96D4BDB6923F070027B68FB
:103140005B696A491343CB617B681B6803F010031A
:10315000002B10D07B689A69644BDB6903F4E06351
:103160009A4208D9614BDB6923F4E0627B689B6972
:103170005E491343CB617B681B6803F02003002B7F
:1031800010D07B68DA69594B1B6A03F070039A42CE
:1031900008D9564B1B6A23F070027B68DB695349E0
:1031A00013430B627B681B6803F00203002B10D0F3
:1031B0007B68DA684D4B9B6903F00F039A4208D98C
:1031C0004A4B9B6923F00F027B68DB684749134336
:1031D0008B617B681B6803F00103002B55D0434BC8
:1031E0009B6923F470627B689B68404913438B6141
:1031F0007B685B68022B07D13C4B1B6803F40033F0
:10320000002B21D10123F6E07B685B68032B07D1FB
:10321000364B1B6803F00073002B15D10123EAE045
:103220007B685B68012B07D1304B1B6803F480730C
:10323000002B09D10123DEE02C4B1B6803F00403B3
:10324000002B01D10123D6E0284B1B6923F0070294
:103250007B685B68254913430B61FEF73BFA786195
:103260000AE0FEF737FA02467B69D31A41F2883248
:10327000934201D90323BEE01C4B1B6903F03802C3
:103280007B685B68DB009A42EBD17B681B6803F0CC
:103290000203002B10D07B68DA68144B9B6903F0A3
:1032A0000F039A4208D2114B9B6923F00F027B68EF
:1032B000DB680E4913438B610B4B1B6803F00F0354
:1032C0003A689A4214D2084B1B6823F00F02064951
:1032D0003B6813430B60044B1B6803F00F033A6811
:1032E0009A4205D0012386E0002000520044025893
:1032F0007B681B6803F00403002B10D07B681A69FD
:103300003F4B9B6903F070039A4208D23C4B9B6988
:1033100023F070027B681B69394913438B617B681A
:103320001B6803F00803002B10D07B685A69344BEC
:10333000DB6903F070039A4208D2314BDB6923F05A
:1033400070027B685B692E491343CB617B681B6805
:1033500003F01003002B10D07B689A69284BDB69BF
:1033600003F4E0639A4208D2254BDB6923F4E06260
:103370007B689B6922491343CB617B681B6803F020
:103380002003002B10D07B68DA691D4B1B6A03F009
:1033900070039A4208D21A4B1B6A23F070027B68B2
:1033A000DB69174913430B6200F034F80246144BF3
:1033B0009B691B0A03F00F031249CB5C03F01F0348
:1033C00022FA03F33B610E4B9B6903F00F030D4A96
:1033D000D35C03F01F033A6922FA03F30A4A13602D
:1033E0000A4A3B6913600A4B1B681846FEF728F926
:1033F0000346FB73FB7B18461837BD4680BD00BFF4
:1034000000440258D09A0008040000240000002460
:103410000800002480B489B000AFB34B1B6903F0EF
:103420003803182B00F2558101A252F823F000BF97
:1034300095340008D3360008D3360008D336000888
:10344000D3360008D3360008D3360008D336000838
:10345000BB340008D3360008D3360008D336000842
:10346000D3360008D3360008D3360008D336000818
:10347000C1340008D3360008D3360008D33600081C
:10348000D3360008D3360008D3360008D3360008F8
:10349000C7340008944B1B6803F02003002B09D0AD
:1034A000914B1B68DB0803F00303904A22FA03F3F5
:1034B000BB6111E18D4BBB610EE18D4BBB610BE13B
:1034C0008C4BBB6108E1884B9B6A03F003037B6173
:1034D000854B9B6A1B0903F03F033B61824BDB6A10
:1034E00003F00103FB60804B5B6BDB08C3F30C0351
:1034F000FA6802FB03F307EE903AF8EE677AC7ED3D
:10350000027A3B69002B00F0E1807B69022B00F01E
:1035100083807B69022B00F2A1807B69002B03D0A2
:103520007B69012B56D099E06F4B1B6803F0200399
:10353000002B2DD06C4B1B68DB0803F003036B4A98
:1035400022FA03F37B607B6807EE903AF8EE676A35
:103550003B6907EE903AF8EE677A86EEA77A624BFF
:103560001B6BC3F3080307EE903AF8EE676A97ED1A
:10357000026ADFED615AC6EE257A76EEA77AF7EE9B
:10358000006A77EEA67A67EE277AC7ED077A87E0BA
:103590003B6907EE903AF8EE677ADFED586A86EEFF
:1035A000A77A514B1B6BC3F3080307EE903AF8EE72
:1035B000676A97ED026ADFED505AC6EE257A76EE1D
:1035C000A77AF7EE006A77EEA67A67EE277AC7ED5C
:1035D000077A65E03B6907EE903AF8EE677ADFED2F
:1035E000486A86EEA77A404B1B6BC3F3080307EECD
:1035F000903AF8EE676A97ED026ADFED3F5AC6EE41
:10360000257A76EEA77AF7EE006A77EEA67A67EE6D
:10361000277AC7ED077A43E03B6907EE903AF8EE68
:10362000677ADFED386A86EEA77A2F4B1B6BC3F300
:10363000080307EE903AF8EE676A97ED026ADFED4D
:103640002E5AC6EE257A76EEA77AF7EE006A77EE66
:10365000A67A67EE277AC7ED077A21E03B6907EE85
:10366000903AF8EE677ADFED266A86EEA77A1E4B6F
:103670001B6BC3F3080307EE903AF8EE676A97ED09
:10368000026ADFED1D5AC6EE257A76EEA77AF7EECE
:10369000006A77EEA67A67EE277AC7ED077A00BF51
:1036A000114B1B6B5B0A03F07F0301333B603B68EC
:1036B00007EE903AB8EE677AD7ED076AC6EE877ADA
:1036C000FCEEE77A17EE903ABB6105E00023BB61A0
:1036D00002E0074BBB6100BFBB6918462437BD46FB
:1036E0005DF8047B704700BF004402580090D0038F
:1036F00000093D0040787D01000000460024744C24
:103700000024744A20BCBE4B80B582B000AFFFF7E6
:1037100081FE0246104B9B691B0A03F00F030F4901
:10372000CB5C03F01F0322FA03F37B600A4B9B6917
:1037300003F00F03094AD35C03F01F037A6822FAEF
:1037400003F3074A1360074A7B681360044B1B6846
:1037500018460837BD4680BD00440258D09A00087C
:10376000040000240000002480B500AFFFF7CCFF68
:103770000246064BDB691B0903F007030449CB5CD7
:1037800003F01F0322FA03F3184680BD00440258D9
:10379000D09A000880B500AFFFF7B6FF0246064B8F
:1037A000DB691B0A03F007030449CB5C03F01F032A
:1037B00022FA03F3184680BD00440258D09A00084C
:1037C0002DE9B04FCAB000AFC7F81401002387F845
:1037D0002731002387F82631D7F81431D3E90023A5
:1037E00002F00064002554EA050349D0D7F81431EB
:1037F0009B6EB3F5401F2FD0B3F5401F28D8B3F50B
:10380000001F1AD0B3F5001F22D8002B03D0B3F548
:10381000801F07D01CE0B84BDB6AB74A43F4003383
:10382000D3621AE0D7F8143108330221184601F0A8
:103830008FFC034687F827310FE0D7F8143128337F
:103840000221184601F036FD034687F8273104E0CF
:10385000012387F8273100E000BF97F82731002BBC
:103860000AD1A54B1B6D23F44011D7F814319B6E80
:10387000A14A0B43136503E097F8273187F82631F7
:10388000D7F81431D3E9002302F480784FF000090F
:1038900058EA090347D0D7F814319B6D042B2AD876
:1038A00001A252F823F000BFBD380008CB38000851
:1038B000E1380008FF380008FF3800088E4BDB6A4B
:1038C0008D4A43F40033D3621AE0D7F81431083339
:1038D0000021184601F03CFC034687F827310FE031
:1038E000D7F8143128330021184601F0E3FC0346D1
:1038F00087F8273104E0012387F8273100E000BF73
:1039000097F82731002B0AD17B4B1B6D23F0070161
:10391000D7F814319B6D784A0B43136503E097F891
:10392000273187F82631D7F81431D3E9002302F480
:10393000007A4FF0000B5AEA0B034CD0D7F8143141
:10394000DB6DB3F5807F30D0B3F5807F29D8C02BF5
:103950002DD0C02B25D8802B18D0802B21D8002B20
:1039600002D0402B07D01CE0634BDB6A624A43F471
:103970000033D3621CE0D7F8143108330021184615
:1039800001F0E6FB034687F8273111E0D7F8143140
:1039900028330021184601F08DFC034687F82731B3
:1039A00006E0012387F8273102E000BF00E000BFF6
:1039B00097F82731002B0AD14F4B1B6D23F4E07190
:1039C000D7F81431DB6D4C4A0B43136503E097F8CD
:1039D000273187F82631D7F81431D3E9002302F4D0
:1039E0008063C7F808310023C7F80C31D7E94212C9
:1039F0000B46134353D0D7F81431D3F8A830B3F59E
:103A0000000F35D0B3F5000F2ED8B3F5C00F31D06D
:103A1000B3F5C00F28D8B3F5800F1AD0B3F5800FD7
:103A200022D8002B03D0B3F5001F07D01CE0324B87
:103A3000DB6A314A43F40033D3621CE0D7F8143117
:103A400008330021184601F083FB034687F827312D
:103A500011E0D7F8143128330021184601F02AFC70
:103A6000034687F8273106E0012387F8273102E073
:103A700000BF00E000BF97F82731002B0BD11E4B91
:103A80009B6D23F46001D7F81431D3F8A8301A4A9B
:103A90000B43936503E097F8273187F82631D7F871
:103AA0001431D3E9002302F40063C7F80031002386
:103AB000C7F80431D7E940120B46134356D0D7F864
:103AC0001431D3F8AC30B3F1806F38D0B3F1806FDC
:103AD00031D8B3F1407F34D0B3F1407F2BD8B3F16C
:103AE000007F1DD0B3F1007F25D8002B06D0B3F1A5
:103AF000807F0AD01FE000BF00440258A24BDB6A5F
:103B0000A14A43F40033D3621CE0D7F814310833E0
:103B10000021184601F01CFB034687F8273111E00D
:103B2000D7F8143128330021184601F0C3FB0346AF
:103B300087F8273106E0012387F8273102E000BF2C
:103B400000E000BF97F82731002B0BD18E4B9B6D07
:103B500023F0E061D7F81431D3F8AC308A4A0B4334
:103B6000936503E097F8273187F82631D7F81431A9
:103B7000D3E9002302F00073C7F8F8300023C7F838
:103B8000FC30D7E93E120B4613433AD0D7F8143134
:103B9000DB6C302B1FD0302B19D8202B0CD0202BD6
:103BA00015D8002B19D0102B11D1774BDB6A764A30
:103BB00043F40033D36211E0D7F814310833022103
:103BC000184601F0C5FA034687F8273106E00123BD
:103BD00087F8273102E000BF00E000BF97F82731E7
:103BE000002B0AD1684BDB6C23F03001D7F814317D
:103BF000DB6C654A0B43D36403E097F8273187F801
:103C00002631D7F81431D3E9002302F48053C7F8E2
:103C1000F0300023C7F8F430D7E93C120B461343C9
:103C200051D0D7F814311B6EB3F5804F35D0B3F5B2
:103C3000804F2ED8B3F5405F31D0B3F5405F28D820
:103C4000B3F5005F1AD0B3F5005F22D8002B03D084
:103C5000B3F5805F07D01CE04B4BDB6A4A4A43F464
:103C60000033D3621CE0D7F8143108330021184622
:103C700001F06EFA034687F8273111E0D7F81431C6
:103C800028330021184601F015FB034687F8273139
:103C900006E0012387F8273102E000BF00E000BF03
:103CA00097F82731002B0AD1374B1B6D23F4E041E5
:103CB000D7F814311B6E344A0B43136503E097F8B1
:103CC000273187F82631D7F81431D3E9002302F4DD
:103CD0000053C7F8E8300023C7F8EC30D7E93A12B0
:103CE0000B46134356D0D7F814315B6EB3F5A02FB3
:103CF00033D0B3F5A02F2CD8B3F5802F2FD0B3F548
:103D0000802F26D8B3F5403F2BD0B3F5403F20D8C5
:103D1000B3F5003F12D0B3F5003F1AD8002B22D0E4
:103D2000B3F5803F15D1D7F8143108330121184677
:103D300001F00EFA034687F8273115E0D7F8143161
:103D400028330121184601F0B5FA034687F82731D8
:103D50000AE0012387F8273106E000BF04E000BF36
:103D600002E000BF00E000BF97F82731002B0DD123
:103D7000054B1B6D23F4E021D7F814315B6E024A2A
:103D80000B43136506E000BF0044025897F8273143
:103D900087F82631D7F81431D3E9002302F48043A1
:103DA000C7F8E0300023C7F8E430D7E938120B46F3
:103DB000134355D0D7F81431D3F8B030B3F1A04F36
:103DC00033D0B3F1A04F2CD8B3F1804F2FD0B3F143
:103DD000804F26D8B3F1405F2BD0B3F1405F20D89D
:103DE000B3F1005F12D0B3F1005F1AD8002B22D0DC
:103DF000B3F1805F15D1D7F814310833012118468B
:103E000001F0A6F9034687F8273115E0D7F81431F9
:103E100028330121184601F04DFA034687F827316F
:103E20000AE0012387F8273106E000BF04E000BF65
:103E300002E000BF00E000BF97F82731002B0BD154
:103E4000A34B9B6D23F0E041D7F81431D3F8B03089
:103E50009F4A0B43936503E097F8273187F8263193
:103E6000D7F81431D3E9002302F40043C7F8D8305F
:103E70000023C7F8DC30D7E936120B46134337D09E
:103E8000D7F814311B6FB3F1005F0ED0B3F1005FB0
:103E900016D8002B18D0B3F1805F11D18C4BDB6AA0
:103EA0008B4A43F40033D3620FE0D7F81431083360
:103EB0000121184601F04CF9034687F8273104E048
:103EC000012387F8273100E000BF97F82731002B46
:103ED0000AD17F4B1B6D23F04051D7F814311B6F73
:103EE0007B4A0B43136503E097F8273187F82631A7
:103EF000D7F81431D3E9002302F08073C7F8D0302B
:103F00000023C7F8D430D7E934120B46134339D015
:103F1000D7F814319B6C032B1CD801A252F823F064
:103F20005D3F0008313F00083F3F00085D3F00084B
:103F3000674BDB6A664A43F40033D3620FE0D7F87D
:103F4000143108330221184601F002F9034687F8BC
:103F5000273104E0012387F8273100E000BF97F8FC
:103F60002731002B0AD15A4BDB6C23F00301D7F821
:103F700014319B6C564A0B43D36403E097F8273106
:103F800087F82631D7F81431D3E9002302F48003EF
:103F9000C7F8C8300023C7F8CC30D7E932120B4637
:103FA000134300F09F804B4B1B684A4A43F48073D5
:103FB0001360FDF78FFBC7F820010BE0FDF78AFBCC
:103FC0000246D7F82031D31A642B03D9032387F88C
:103FD000273105E03F4B1B6803F48073002BEDD0C5
:103FE00097F82731002B79D1394B1A6FD7F8143154
:103FF000D3F8B430534003F44073002B15D0344B46
:104000001B6F23F44073C7F81C31314B1B6F304AD0
:1040100043F4803313672E4B1B6F2D4A23F48033F8
:1040200013672B4AD7F81C311367D7F81431D3F82C
:10403000B430B3F5807F18D1FDF74CFBC7F82001F1
:104040000DE0FDF747FB0246D7F82031D21A41F2C6
:1040500088339A4203D9032387F8273105E01C4BA4
:104060001B6F03F00203002BEBD097F82731002BD6
:1040700029D1D7F81431D3F8B43003F44073B3F531
:10408000407F0ED1124B1B6923F47C51D7F81431B9
:10409000D3F8B4301A09104B13400D4A0B43136187
:1040A00005E00B4B1B690A4A23F47C531361084B50
:1040B000196FD7F81431D3F8B430C3F30B03044AA3
:1040C0000B4313670EE097F8273187F8263109E094
:1040D0000044025800480258CFFFFF0097F82731EC
:1040E00087F82631D7F81431D3E9002302F0010311
:1040F000C7F8C0300023C7F8C430D7E930120B46E8
:10410000134300F08980D7F81431DB6F282B6BD86C
:1041100001A252F823F000BFF1410008E941000874
:10412000E9410008E9410008E9410008E9410008C7
:10413000E9410008E9410008BD410008E9410008E3
:10414000E9410008E9410008E9410008E9410008A7
:10415000E9410008E9410008D3410008E9410008AD
:10416000E9410008E9410008E9410008E941000887
:10417000E9410008E9410008F1410008E94100086F
:10418000E9410008E9410008E9410008E941000867
:10419000E9410008E9410008F1410008E94100084F
:1041A000E9410008E9410008E9410008E941000847
:1041B000E9410008E9410008F1410008D7F814314D
:1041C00008330121184600F0C3FF034687F8273162
:1041D0000FE0D7F8143128330121184601F06AF8AE
:1041E000034687F8273104E0012387F8273100E0F0
:1041F00000BF97F82731002B0AD1BF4B5B6D23F02E
:104200003801D7F81431DB6FBB4A0B43536503E029
:1042100097F8273187F82631D7F81431D3E90023EE
:1042200002F00203C7F8B8300023C7F8BC30D7E962
:104230002E120B46134341D0D7F814319B6F052B38
:1042400024D801A252F823F09542000861420008E8
:104250007742000895420008954200089542000800
:10426000D7F8143108330121184600F071FF0346D6
:1042700087F827310FE0D7F8143128330121184689
:1042800001F018F8034687F8273104E0012387F886
:10429000273100E000BF97F82731002B0AD1964B59
:1042A0005B6D23F00701D7F814319B6F924A0B43E3
:1042B000536503E097F8273187F82631D7F8143192
:1042C000D3E9002302F00403C7F8B0300023C7F895
:1042D000B430D7E92C120B46134344D0D7F814312D
:1042E000D3F89430052B25D801A252F823F000BF53
:1042F0003D430008094300081F4300083D430008F0
:104300003D4300083D430008D7F81431083301212C
:10431000184600F01DFF034687F827310FE0D7F855
:10432000143128330121184600F0C4FF034687F8F2
:10433000273104E0012387F8273100E000BF97F818
:104340002731002B0BD16C4B9B6D23F00701D7F865
:104350001431D3F89430684A0B43936503E097F81F
:10436000273187F82631D7F81431D3E9002302F03A
:104370002003C7F8A8300023C7F8AC30D7E92A12C9
:104380000B46134355D0D7F81431D3F89030B3F11E
:10439000A04F33D0B3F1A04F2CD8B3F1804F2FD022
:1043A000B3F1804F26D8B3F1405F2BD0B3F1405F1B
:1043B00020D8B3F1005F12D0B3F1005F1AD8002B00
:1043C00022D0B3F1805F15D1D7F814310833002122
:1043D000184600F0BDFE034687F8273115E0D7F8F0
:1043E000143128330221184600F064FF034687F891
:1043F00027310AE0012387F8273106E000BF04E0F7
:1044000000BF02E000BF00E000BF97F82731002B9B
:104410000BD1394B5B6D23F0E041D7F81431D3F861
:104420009030354A0B43536503E097F8273187F8FE
:104430002631D7F81431D3E9002302F04003C7F83E
:10444000A0300023C7F8A430D7E928120B46134345
:1044500058D0D7F81431D3F89C30B3F5A05F33D0DF
:10446000B3F5A05F2CD8B3F5805F2FD0B3F5805F94
:1044700026D8B3F5406F2BD0B3F5406F20D8B3F5F5
:10448000006F12D0B3F5006F1AD8002B22D0B3F50D
:10449000806F15D1D7F8143108330021184600F089
:1044A00057FE034687F8273115E0D7F81431283333
:1044B0000221184600F0FEFE034687F827310AE085
:1044C000012387F8273106E000BF04E000BF02E0C7
:1044D00000BF00E000BF97F82731002B0ED1064B3C
:1044E0009B6D23F4E051D7F81431D3F89C30024A85
:1044F0000B43936506E000BF0044025897F827314C
:1045000087F82631D7F81431D3E9002302F080036D
:10451000C7F898300023C7F89C30D7E926120B461D
:10452000134355D0D7F81431D3F8A030B3F5204F4A
:1045300033D0B3F5204F2CD8B3F5004F2FD0B3F5BF
:10454000004F26D8B3F5C04F2BD0B3F5C04F20D8BD
:10455000B3F5804F12D0B3F5804F1AD8002B22D07C
:10456000B3F5005F15D1D7F8143108330021184690
:1045700000F0EEFD034687F8273115E0D7F8143137
:1045800028330221184600F095FE034687F82731AC
:104590000AE0012387F8273106E000BF04E000BFEE
:1045A00002E000BF00E000BF97F82731002B0BD1DD
:1045B000A14B9B6D23F46041D7F81431D3F8A030A0
:1045C0009D4A0B43936503E097F8273187F826311E
:1045D000D7F81431D3E9002302F00803C7F890306C
:1045E0000023C7F89430D7E924120B4613431ED09A
:1045F000D7F81431D3F88430B3F5805F0CD1D7F8F5
:10460000143128330221184600F054FE0346002BD3
:1046100002D0012387F82631874B5B6D23F440518C
:10462000D7F81431D3F88430834A0B435365D7F855
:104630001431D3E9002302F01003C7F888300023B7
:10464000C7F88C30D7E922120B4613431ED0D7F897
:104650001431D3F89830B3F5807F0CD1D7F81431EA
:1046600028330221184600F025FE0346002B02D015
:10467000012387F82631704B9B6D23F44071D7F8E6
:104680001431D3F898306C4A0B439365D7F8143142
:10469000D3E9002302F40023C7F880300023C7F8D1
:1046A0008430D7E920120B4613433ED0D7F814319B
:1046B000D3F8A430B3F5003F22D0B3F5003F1BD8A8
:1046C000002B03D0B3F5803F0BD015E0D7F81431A1
:1046D00008330021184600F03BFD034687F82731D8
:1046E0000FE0D7F8143128330221184600F0E2FD1C
:1046F000034687F8273104E0012387F8273100E0DB
:1047000000BF97F82731002B0BD14B4B9B6D23F447
:104710004031D7F81431D3F8A430474A0B4393659E
:1047200003E097F8273187F82631D7F81431D3E919
:10473000002302F48023BB670023FB67D7E91E1226
:104740000B4613433BD0D7F81431D3F88830B3F578
:10475000401F1FD0B3F5401F18D8B3F5801F03D0FA
:10476000B3F5001F07D011E0334BDB6A324A43F444
:104770000033D3620FE0D7F81431283301211846F3
:1047800000F098FD034687F8273104E0012387F8FD
:10479000273100E000BF97F82731002B0BD1264BC3
:1047A0005B6D23F44011D7F81431D3F88830224AD6
:1047B0000B43536503E097F8273187F82631D7F884
:1047C0001431D3E9002302F480333B6700237B6775
:1047D000D7E91C120B46134334D0D7F814311B6DA4
:1047E000002B03D0B3F5803F07D011E0124BDB6AFA
:1047F000114A43F40033D3620EE0D7F81431083382
:104800000221184600F0A4FC034687F8273103E094
:10481000012387F8273100BF97F82731002B0DD1EE
:10482000054BDB6C23F48031D7F814311B6D024A41
:104830000B43D36406E000BF0044025897F82731C9
:1048400087F82631D7F81431D3E9002302F000535A
:10485000BB660023FB66D7E91A120B4613430CD044
:10486000D7F8143128330221184600F023FD0346FF
:10487000002B02D0012387F82631D7F81431D3E971
:10488000002302F400333B6600237B66D7E918124D
:104890000B46134338D0D7F81431D3F88030B3F532
:1048A000407F18D0B3F5407F11D8B3F5007F14D006
:1048B000B3F5007F0BD8002B11D0B3F5807F06D164
:1048C000C34BDB6AC24A43F40033D36208E00123DE
:1048D00087F8273104E000BF02E000BF00E000BF1E
:1048E00097F82731002B0BD1B94B5B6D23F4407146
:1048F000D7F81431D3F88030B54A0B43536503E041
:1049000097F8273187F82631D7F81431D3E90023F7
:1049100002F48013BB650023FB65D7E916120B4632
:10492000134309D0AA4B1B6D23F00041D7F8143173
:104930005B6FA74A0B431365D7F81431D3E9002303
:1049400002F080533B6500237B65D7E914120B46C8
:1049500013430AD09E4B1B6923F48041D7F81431CE
:10496000D3F8B8309A4A0B431361D7F81431D3E91E
:10497000002302F40013BB640023FB64D7E9121286
:104980000B46134309D0924B1B6D23F08071D7F86F
:104990001431DB6E8E4A0B431365D7F81431D3E91B
:1049A000002302F080433B6400237B64D7E91012AC
:1049B0000B4613430ED0864B1B69854A23F40043F4
:1049C0001361834B1969D7F81431D3F8BC30804A8E
:1049D0000B431361D7F81431D3E9002302F00043ED
:1049E000BB630023FB63D7E90E120B46134309D0C8
:1049F000774BDB6C23F04051D7F814315B6D744A70
:104A00000B43D364D7F81431D3E9002302F4000335
:104A10003B6300237B63D7E90C120B4613430AD098
:104A20006B4B5B6D23F44001D7F81431D3F88C3015
:104A3000674A0B435365D7F81431D3E900230021AB
:104A4000B96203F00103FB62D7E90A120B46134374
:104A500011D0D7F8143108330021184600F078FB44
:104A6000034687F8273197F82731002B03D097F8B2
:104A7000273187F82631D7F81431D3E900230021F4
:104A8000396203F002037B62D7E908120B46134335
:104A900011D0D7F8143108330121184600F058FB23
:104AA000034687F8273197F82731002B03D097F872
:104AB000273187F82631D7F81431D3E900230021B4
:104AC000B96103F00403FB61D7E906120B461343F7
:104AD00011D0D7F8143108330221184600F038FB02
:104AE000034687F8273197F82731002B03D097F832
:104AF000273187F82631D7F81431D3E90023002174
:104B0000396103F008037B61D7E904120B461343B4
:104B100011D0D7F8143128330021184600F0CAFB11
:104B2000034687F8273197F82731002B03D097F8F1
:104B3000273187F82631D7F81431D3E90023002133
:104B4000B96003F01003FB60D7E902120B46134370
:104B500011D0D7F8143128330121184600F0AAFBF0
:104B6000034687F8273197F82731002B03D097F8B1
:104B7000273187F82631D7F81431D3E900230021F3
:104B8000396003F020037B60D7E900120B46134322
:104B900011D0D7F8143128330221184600F08AFBCF
:104BA000034687F8273197F82731002B03D097F871
:104BB000273187F8263197F82631002B01D10023C1
:104BC00000E00123184607F59477BD46BDE8B08F95
:104BD0000044025880B500AFFEF796FD0246064B32
:104BE0001B6A1B0903F007030449CB5C03F01F0396
:104BF00022FA03F3184680BD00440258D09A0008F8
:104C000080B489B000AF7860A14B9B6A03F00303C6
:104C1000BB619F4B9B6A1B0B03F03F037B619C4B6B
:104C2000DB6A1B0903F001033B61994BDB6BDB087B
:104C3000C3F30C033A6902FB03F307EE903AF8EE74
:104C4000677AC7ED037A7B69002B00F01181BB699D
:104C5000022B00F08380BB69022B00F2A180BB69AC
:104C6000002B03D0BB69012B56D099E0884B1B6801
:104C700003F02003002B2DD0854B1B68DB0803F0CD
:104C80000303844A22FA03F3BB60BB6807EE903A41
:104C9000F8EE676A7B6907EE903AF8EE677A86EE7F
:104CA000A77A7B4B9B6BC3F3080307EE903AF8EEB1
:104CB000676A97ED036ADFED785AC6EE257A76EEDD
:104CC000A77AF7EE006A77EEA67A67EE277AC7ED45
:104CD000077A87E07B6907EE903AF8EE677ADFEDB6
:104CE0006F6A86EEA77A6A4B9B6BC3F3080307EEE5
:104CF000903AF8EE676A97ED036ADFED675AC6EE01
:104D0000257A76EEA77AF7EE006A77EEA67A67EE56
:104D1000277AC7ED077A65E07B6907EE903AF8EEEF
:104D2000677ADFED5F6A86EEA77A594B9B6BC3F318
:104D3000080307EE903AF8EE676A97ED036ADFED35
:104D4000565AC6EE257A76EEA77AF7EE006A77EE27
:104D5000A67A67EE277AC7ED077A43E07B6907EE0C
:104D6000903AF8EE677ADFED4F6A86EEA77A484B05
:104D70009B6BC3F3080307EE903AF8EE676A97ED72
:104D8000036ADFED455AC6EE257A76EEA77AF7EE8E
:104D9000006A77EEA67A67EE277AC7ED077A21E0F8
:104DA0007B6907EE903AF8EE677ADFED3D6A86EEB2
:104DB000A77A374B9B6BC3F3080307EE903AF8EEE4
:104DC000676A97ED036ADFED345AC6EE257A76EE10
:104DD000A77AF7EE006A77EEA67A67EE277AC7ED34
:104DE000077A00BF2A4B9B6B5B0A03F07F0307EE39
:104DF000903AF8EE677AB7EE007A37EE877AD7ED19
:104E0000076AC6EE877AFCEEE77A17EE902A7B688F
:104E10001A601F4B9B6B1B0C03F07F0307EE903A4D
:104E2000F8EE677AB7EE007A37EE877AD7ED076A41
:104E3000C6EE877AFCEEE77A17EE902A7B685A6016
:104E4000134B9B6B1B0E03F07F0307EE903AF8EEBB
:104E5000677AB7EE007A37EE877AD7ED076AC6EE43
:104E6000877AFCEEE77A17EE902A7B689A6008E072
:104E70007B6800221A607B6800225A607B680022EF
:104E80009A6000BF2437BD465DF8047B704700BFC1
:104E9000004402580090D003000000460024744CE7
:104EA0000024744A20BCBE4B80B489B000AF786047
:104EB000A14B9B6A03F00303BB619F4B9B6A1B0DD5
:104EC00003F03F037B619C4BDB6A1B0A03F0010389
:104ED0003B61994B5B6CDB08C3F30C033A6902FB43
:104EE00003F307EE903AF8EE677AC7ED037A7B6931
:104EF000002B00F01181BB69022B00F08380BB699D
:104F0000022B00F2A180BB69002B03D0BB69012BEF
:104F100056D099E0884B1B6803F02003002B2DD05E
:104F2000854B1B68DB0803F00303844A22FA03F372
:104F3000BB60BB6807EE903AF8EE676A7B6907EEE4
:104F4000903AF8EE677A86EEA77A7B4B1B6CC3F338
:104F5000080307EE903AF8EE676A97ED036ADFED13
:104F6000785AC6EE257A76EEA77AF7EE006A77EEE3
:104F7000A67A67EE277AC7ED077A87E07B6907EEA6
:104F8000903AF8EE677ADFED6F6A86EEA77A6A4BA1
:104F90001B6CC3F3080307EE903AF8EE676A97EDCF
:104FA000036ADFED675AC6EE257A76EEA77AF7EE4A
:104FB000006A77EEA67A67EE277AC7ED077A65E092
:104FC0007B6907EE903AF8EE677ADFED5F6A86EE6E
:104FD000A77A594B1B6CC3F3080307EE903AF8EE1F
:104FE000676A97ED036ADFED565AC6EE257A76EECC
:104FF000A77AF7EE006A77EEA67A67EE277AC7ED12
:10500000077A43E07B6907EE903AF8EE677ADFEDC6
:105010004F6A86EEA77A484B1B6CC3F3080307EE72
:10502000903AF8EE676A97ED036ADFED455AC6EEEF
:10503000257A76EEA77AF7EE006A77EEA67A67EE23
:10504000277AC7ED077A21E07B6907EE903AF8EE00
:10505000677ADFED3D6A86EEA77A374B1B6CC3F3A8
:10506000080307EE903AF8EE676A97ED036ADFED02
:10507000345AC6EE257A76EEA77AF7EE006A77EE16
:10508000A67A67EE277AC7ED077A00BF2A4B1B6C1A
:105090005B0A03F07F0307EE903AF8EE677AB7EE0B
:1050A000007A37EE877AD7ED076AC6EE877AFCEE8C
:1050B000E77A17EE902A7B681A601F4B1B6C1B0C5B
:1050C00003F07F0307EE903AF8EE677AB7EE007AC6
:1050D00037EE877AD7ED076AC6EE877AFCEEE77A75
:1050E00017EE902A7B685A60134B1B6C1B0E03F063
:1050F0007F0307EE903AF8EE677AB7EE007A37EE64
:10510000877AD7ED076AC6EE877AFCEEE77A17EE64
:10511000902A7B689A6008E07B6800221A607B68AE
:1051200000225A607B6800229A6000BF2437BD4687
:105130005DF8047B704700BF004402580090D00324
:10514000000000460024744C0024744A20BCBE4B6E
:1051500080B584B000AF786039600023FB73534B97
:105160009B6A03F00303032B01D1012399E04F4B0A
:105170001B684E4A23F080631360FCF7ABFAB860FB
:1051800008E0FCF7A7FA0246BB68D31A022B01D944
:10519000032386E0454B1B6803F00063002BF0D12E
:1051A000424B9B6A23F47C327B681B681B033F499C
:1051B00013438B627B685B68013BC3F308027B6827
:1051C0009B68013B5B029BB21A437B68DB68013B37
:1051D0001B0403F4FE031A437B681B69013B1B0697
:1051E00003F0FE43314913438B63304BDB6A23F0FA
:1051F000C0027B685B692D491343CB622B4BDB6A92
:1052000023F020027B689B6928491343CB62274B1C
:10521000DB6A264A23F01003D362244BDA6B244B5B
:1052200013407A68D269D20020491343CB631F4BE5
:10523000DB6A1E4A43F01003D3623B68002B06D1A1
:105240001A4BDB6A194A43F40023D3620FE03B6830
:10525000012B06D1154BDB6A144A43F48013D36249
:1052600005E0124BDB6A114A43F40013D3620F4B83
:105270001B680E4A43F080631360FCF72BFAB8609A
:1052800008E0FCF727FA0246BB68D31A022B01D9C3
:10529000032306E0054B1B6803F00063002BF0D0EE
:1052A000FB7B18461037BD4680BD00BF0044025846
:1052B0000700FFFF80B584B000AF7860396000233D
:1052C000FB73534B9B6A03F00303032B01D10123B0
:1052D00099E04F4B1B684E4A23F080531360FCF754
:1052E000F9F9B86008E0FCF7F5F90246BB68D31A93
:1052F000022B01D9032386E0454B1B6803F00053C2
:10530000002BF0D1424B9B6A23F07C727B681B68B8
:105310001B053F4913438B627B685B68013BC3F30A
:1053200008027B689B68013B5B029BB21A437B6867
:10533000DB68013B1B0403F4FE031A437B681B6913
:10534000013B1B0603F0FE43314913430B64304B12
:10535000DB6A23F440627B685B692D491343CB62AF
:105360002B4BDB6A23F400727B689B69284913434B
:10537000CB62274BDB6A264A23F48073D362244B2B
:105380005A6C244B13407A68D269D20020491343E7
:105390004B641F4BDB6A1E4A43F48073D3623B6845
:1053A000002B06D11A4BDB6A194A43F48003D362FF
:1053B0000FE03B68012B06D1154BDB6A144A43F41E
:1053C0000003D36205E0124BDB6A114A43F080739D
:1053D000D3620F4B1B680E4A43F080531360FCF7F7
:1053E00079F9B86008E0FCF775F90246BB68D31A92
:1053F000022B01D9032306E0054B1B6803F0005381
:10540000002BF0D0FB7B18461037BD4680BD00BF97
:10541000004402580700FFFF80B582B000AF7860FB
:105420007B68002B01D1012349E07B6893F83D3074
:10543000DBB2002B06D17B68002283F83C20786821
:10544000FBF73CFD7B68022283F83D207B681A68ED
:105450007B6804331946104600F058FA7B68012235
:1054600083F848207B68012283F83E207B68012274
:1054700083F83F207B68012283F840207B6801226B
:1054800083F841207B68012283F842207B68012257
:1054900083F843207B68012283F844207B68012243
:1054A00083F845207B68012283F846207B6801222F
:1054B00083F847207B68012283F83D2000231846AB
:1054C0000837BD4680BD000080B584B000AF78606D
:1054D00039603B68002B09D17B6893F83E30DBB222
:1054E000012B14BF01230023DBB23CE03B68042BFB
:1054F00009D17B6893F83F30DBB2012B14BF012345
:105500000023DBB22FE03B68082B09D17B6893F8BE
:105510004030DBB2012B14BF01230023DBB222E0B9
:105520003B680C2B09D17B6893F84130DBB2012B2F
:1055300014BF01230023DBB215E03B68102B09D117
:105540007B6893F84230DBB2012B14BF01230023A8
:10555000DBB208E07B6893F84330DBB2012B14BF69
:1055600001230023DBB2002B01D00123A1E03B6823
:10557000002B04D17B68022283F83E2023E03B68A5
:10558000042B04D17B68022283F83F201BE03B6898
:10559000082B04D17B68022283F8402013E03B688B
:1055A0000C2B04D17B68022283F841200BE03B687E
:1055B000102B04D17B68022283F8422003E07B6831
:1055C000022283F843207B681B6801223968184651
:1055D00000F018FD7B681B68384A934213D07B6843
:1055E0001B68374A93420ED07B681B68354A93424A
:1055F00009D07B681B68344A934204D07B681B68DF
:10560000324A934201D1012300E00023002B07D04E
:105610007B681B685A6C7B681B6842F400425A64C2
:105620007B681B68254A934222D07B681B68B3F1D4
:10563000804F1DD07B681B68254A934218D07B6839
:105640001B68244A934213D07B681B68224A93420A
:105650000ED07B681B681A4A934209D07B681B688E
:105660001E4A934204D07B681B68164A934215D1A8
:105670007B681B689A681A4B1340FB60FB68062B1B
:1056800015D0FB68B3F5803F11D07B681B681A68A2
:105690007B681B6842F001021A6008E07B681B68A7
:1056A0001A687B681B6842F001021A6000E000BFC4
:1056B000002318461037BD4680BD00BF00000140E2
:1056C0000004014000400140004401400048014006
:1056D0000004004000080040000C0040001800409A
:1056E0000700010080B586B000AFF860B9607A604D
:1056F0000023FB75FB6893F83C30012B01D102239A
:10570000FFE0FB68012283F83C207B68142B00F249
:10571000F08001A252F823F06D570008F3580008FA
:10572000F3580008F3580008AD570008F358000874
:10573000F3580008F3580008EF570008F358000822
:10574000F3580008F35800082F580008F3580008D1
:10575000F3580008F358000871580008F35800087F
:10576000F3580008F3580008B1580008FB681B689C
:10577000B968184600F070F9FB681B689A69FB6805
:105780001B6842F008029A61FB681B689A69FB6813
:105790001B6822F004029A61FB681B689969BB6868
:1057A0001A69FB681B680A439A61A5E0FB681B68DD
:1057B000B968184600F0E0F9FB681B689A69FB6855
:1057C0001B6842F400629A61FB681B689A69FB6877
:1057D0001B6822F480629A61FB681B689969BB6848
:1057E0001B691A02FB681B680A439A6184E0FB6824
:1057F0001B68B968184600F049FAFB681B68DA694B
:10580000FB681B6842F00802DA61FB681B68DA6912
:10581000FB681B6822F00402DA61FB681B68D96927
:10582000BB681A69FB681B680A43DA6164E0FB68BD
:105830001B68B968184600F0B1FAFB681B68DA69A2
:10584000FB681B6842F40062DA61FB681B68DA6976
:10585000FB681B6822F48062DA61FB681B68D96907
:10586000BB681B691A02FB681B680A43DA6143E0E4
:10587000FB681B68B968184600F0FAFAFB681B68F9
:105880005A6DFB681B6842F008025A65FB681B688A
:105890005A6DFB681B6822F004025A65FB681B689E
:1058A000596DBB681A69FB681B680A435A6523E097
:1058B000FB681B68B968184600F03EFBFB681B6874
:1058C0005A6DFB681B6842F400625A65FB681B68EE
:1058D0005A6DFB681B6822F480625A65FB681B687E
:1058E000596DBB681B691A02FB681B680A435A653D
:1058F00002E00123FB7500BFFB68002283F83C2017
:10590000FB7D18461837BD4680BD00BF80B485B00A
:1059100000AF786039607B681B68FB607B68464A33
:10592000934213D07B68B3F1804F0FD07B68434A1A
:1059300093420BD07B68424A934207D07B68414A2E
:10594000934203D07B68404A934208D1FB6823F01E
:105950007003FB603B685B68FA681343FB607B681D
:10596000354A93421FD07B68B3F1804F1BD07B68D0
:10597000324A934217D07B68314A934213D07B68F6
:10598000304A93420FD07B682F4A93420BD07B68FA
:105990002E4A934207D07B682D4A934203D07B68FE
:1059A0002C4A934208D1FB6823F44073FB603B68A8
:1059B000DB68FA681343FB60FB6823F080023B68F6
:1059C0005B691343FB607B68FA681A603B689A68FE
:1059D0007B68DA623B681A687B689A627B68164A61
:1059E00093420FD07B68184A93420BD07B68174ACA
:1059F000934207D07B68164A934203D07B68154ACE
:105A0000934203D13B681A697B681A637B68012261
:105A10005A617B681B6903F00103012B05D17B6888
:105A20001B6923F001027B681A6100BF1437BD4671
:105A30005DF8047B704700BF000001400004004097
:105A400000080040000C00400004014000400140FC
:105A5000004401400048014080B487B000AF786046
:105A600039607B681B6A7B617B681B6A23F00102DB
:105A70007B681A627B685B683B617B689B69FB6043
:105A8000FA68374B1340FB60FB6823F00303FB60AD
:105A90003B681B68FA681343FB607B6923F00203D1
:105AA0007B613B689B687A6913437B617B682D4A05
:105AB00093420FD07B682C4A93420BD07B682B4AD1
:105AC000934207D07B682A4A934203D07B68294AD5
:105AD00093420CD17B6923F008037B613B68DB6850
