:020000040800F2
:10000000005000208D050008050500080D050008BA
:10001000150500081D050008250500080000000062
:100020000000000000000000000000002D05000896
:1000300039050008000000004505000851050008CA
:10004000D5050008D5050008D5050008D505000828
:10005000D5050008D50500085D050008D505000890
:10006000D5050008D5050008D5050008D505000808
:10007000D5050008D5050008D5050008D5050008F8
:10008000D5050008D5050008D5050008D5050008E8
:10009000D5050008D5050008D5050008D5050008D8
:1000A000D5050008D5050008D5050008D5050008C8
:1000B000D5050008D5050008D5050008D5050008B8
:1000C000D5050008D5050008D50500086D05000810
:1000D000D5050008D5050008D5050008D505000898
:1000E000D5050008D5050008D5050008000000006A
:1000F0000000000000000000000000000000000000
:0C01000000000000000000005FF808F1A3
:10010C0010B5054C237833B9044B13B10448AFF345
:10011C0000800123237010BD34000020000000007B
:10012C001C1D000808B5034B1BB103490348AFF372
:10013C00008008BD00000000380000201C1D0008D5
:10014C0080B483B000AF78607B68054A934202D1DB
:10015C00044B01221A7000BF0C37BD4680BC70479F
:10016C0050000020A900002080B483B000AF78605C
:10017C007B68054A934202D1044B01221A7000BFDE
:10018C000C37BD4680BC704750000020A9000020F1
:10019C0080B483B000AF0346FB80FB88012B0FD1EA
:1001AC000A4B1B7801335A4203F0030302F003029B
:1001BC0058BF5342DAB2054B1A70054B00221A7025
:1001CC0000BF0C37BD4680BC704700BFA8000020A4
:1001DC00A900002080B500AF00F0F8F900F022F87B
:1001EC0000F09CF800F064F80A4B1B78002B0CD143
:1001FC00094801F064FB0346012B08D15023074A40
:10020C000749054801F0E0F901E000BFECE700BF49
:10021C00EAE700BFA800002050000020AC0000203E
:10022C000000002080B590B000AF07F11803282221
:10023C000021184601F040FD3B1D00221A605A6057
:10024C009A60DA601A610123BB614FF48033FB6161
:10025C0000233B620123BB6202237B634FF4803398
:10026C00BB634FF4E013FB6307F11803184600F06F
:10027C0049FD0346002B01D000F0B4F80F237B603E
:10028C000223BB600023FB604FF480633B610023BF
:10029C007B613B1D0221184600F0B6FF0346002B84
:1002AC0001D000F09FF800BF4037BD4680BD000074
:1002BC0080B500AF174B184A1A60164B4FF4827278
:1002CC005A60144B00229A60124B0022DA60114BD8
:1002DC0000221A610F4B00225A610E4B4FF4007230
:1002EC009A610C4B0822DA610A4B00221A62094B04
:1002FC0000225A62074B00229A62064B0A22DA62EB
:10030C00044801F0DDF80346002B01D000F06AF838
:10031C0000BF80BD500000200030014080B588B087
:10032C0000AF07F1100300221A605A609A60DA607D
:10033C00284B9B69274A43F010039361254B9B691B
:10034C0003F01003FB60FB68224B9B69214A43F0CE
:10035C00200393611F4B9B6903F02003BB60BB68B8
:10036C001C4B9B691B4A43F004039361194B9B691B
:10037C0003F004037B607B6800224FF400511648A5
:10038C0000F090FC4FF400533B6101237B61002390
:10039C00BB610223FB6107F1100319460E4800F004
:1003AC00FDFA01233B610D4B7B610023BB6107F11F
:1003BC00100319460A4800F0F1FA00220021062029
:1003CC0000F03DFA062000F056FA00BF2037BD467B
:1003DC0080BD00BF00100240001001400000111051
:1003EC000008014080B400AF72B600BF00BFFDE74B
:1003FC0080B485B000AF154B9B69144A43F00103E0
:10040C009361124B9B6903F00103BB60BB680F4BFC
:10041C00DB690E4A43F08053D3610C4BDB6903F06C
:10042C0080537B607B680A4B5B68FB60FB6823F046
:10043C00E063FB60FB6843F00073FB60044AFB68FD
:10044C00536000BF1437BD4680BC7047001002409B
:10045C000000014080B588B000AF786007F1100350
:10046C0000221A605A609A60DA607B681B681F4A27
:10047C00934237D11E4B9B691D4A43F480539361C1
:10048C001B4B9B6903F48053FB60FB68184B9B6907
:10049C00174A43F004039361154B9B6903F0040363
:1004AC00BB60BB68A0233B6102237B610323FB6120
:1004BC0007F1100319460F4800F070FA40233B6116
:1004CC0000237B610023BB6107F110031946094827
:1004DC0000F064FA00220021232000F0B0F9232060
:1004EC0000F0C9F900BF2037BD4680BD0030014087
:1004FC00001002400008014080B400AF00BFFDE7CF
:10050C0080B400AF00BFFDE780B400AF00BFFDE7D3
:10051C0080B400AF00BFFDE780B400AF00BFFDE7C3
:10052C0080B400AF00BFBD4680BC704780B400AF44
:10053C0000BFBD4680BC704780B400AF00BFBD4655
:10054C0080BC704780B500AF00F086F800BF80BD5E
:10055C0080B500AF012000F0BDFB00BF80BD0000E6
:10056C0080B500AF024801F0C3F800BF80BD00BFEA
:10057C005000002080B400AF00BFBD4680BC704767
:10058C00FFF7F8FF0B480C490C4A002302E0D45843
:10059C00C4500433C4188C42F9D3094A094C0023C3
:1005AC0001E013600432A242FBD301F08DFBFFF794
:1005BC0011FE70470000002034000020601D000870
:1005CC003400002000010020FEE7000080B500AFE1
:1005DC00084B1B68074A43F010031360032000F01C
:1005EC0023F90F2000F008F8FFF702FF002318464C
:1005FC0080BD00BF0020024080B582B000AF7860A3
:10060C00124B1A68124B1B7819464FF47A73B3FBD2
:10061C00F1F3B2FBF3F3184600F03BF90346002B61
:10062C0001D001230EE07B680F2B0AD800227968D9
:10063C004FF0FF3000F003F9064A7B68136000238B
:10064C0000E0012318460837BD4680BD2800002075
:10065C00300000202C00002080B400AF054B1B782C
:10066C001A46054B1B681344034A136000BFBD4672
:10067C0080BC704730000020FC00002080B400AF2C
:10068C00024B1B681846BD4680BC7047FC0000201E
:10069C0080B485B000AF78607B6803F00703FB6023
:1006AC000C4BDB68BB60BA684FF6FF031340BB60B2
:1006BC00FB681A02BB68134343F0BF6343F4003377
:1006CC00BB60044ABB68D36000BF1437BD4680BC16
:1006DC00704700BF00ED00E080B400AF044BDB6856
:1006EC001B0A03F007031846BD4680BC704700BFC9
:1006FC0000ED00E080B483B000AF0346FB7197F9C6
:10070C000730002B0BDBFB7903F01F02064997F92E
:10071C0007305B09012000FA02F241F8232000BFE8
:10072C000C37BD4680BC704700E100E080B483B05C
:10073C0000AF03463960FB7197F90730002B0ADBD9
:10074C003B68DAB20C4997F907301201D2B20B446C
:10075C0083F800230AE03B68DAB20849FB7903F01E
:10076C000F03043B1201D2B20B441A7600BF0C37B4
:10077C00BD4680BC704700BF00E100E000ED00E02A
:10078C0080B489B000AFF860B9607A60FB6803F0A0
:10079C000703FB61FB69C3F10703042B28BF042388
:1007AC00BB61FB690433062B02D9FB69033B00E0F8
:1007BC0000237B614FF0FF32BB6902FA03F3DA438B
:1007CC00BB681A407B699A404FF0FF317B6901FA94
:1007DC0003F3D9437B680B40134318462437BD46BB
:1007EC0080BC704780B582B000AF78607B68013BFD
:1007FC00B3F1807F01D301230FE00A4A7B68013BF0
:10080C0053600F214FF0FF30FFF790FF054B002294
:10081C009A60044B07221A60002318460837BD461D
:10082C0080BD00BF10E000E080B582B000AF786002
:10083C007868FFF72DFF00BF0837BD4680BD80B537
:10084C0086B000AF0346B9607A60FB7300237B610E
:10085C00FFF742FF78617A68B9687869FFF790FF13
:10086C00024697F90F3011461846FFF75FFF00BF9D
:10087C001837BD4680BD80B582B000AF0346FB7112
:10088C0097F907301846FFF735FF00BF0837BD460C
:10089C0080BD80B582B000AF78607868FFF7A2FFAA
:1008AC00034618460837BD4680BD000080B584B0AD
:1008BC0000AF78600023FB737B6893F82130DBB2C8
:1008CC00022B05D07B6804229A630123FB7351E051
:1008DC007B681B681A687B681B6822F00E021A6022
:1008EC007B681B681A687B681B6822F001021A601F
:1008FC007B681B68224A934229D07B681B68214A7B
:10090C00934222D07B681B681F4A93421AD07B68A3
:10091C001B681E4A934212D07B681B681C4A934288
:10092C000AD07B681B681B4A934202D14FF4801398
:10093C000EE04FF080730BE04FF4803308E04FF47F
:10094C00805305E04FF4807302E0102300E0012394
:10095C00114A53607B68012283F821207B680022B6
:10096C0083F820207B685B6B002B03D07B685B6B70
:10097C0078689847FB7B18461037BD4680BD00BF92
:10098C00080002401C0002403000024044000240BB
:10099C00580002406C0002400000024080B48BB052
:1009AC0000AF7860396000237B6200233B6269E111
:1009BC0001227B6A02FA03F3FB613B681B68FA694C
:1009CC001340BB61BA69FB699A4240F058813B689D
:1009DC005B689A4A93425ED0984A934275D8984A7B
:1009EC00934258D0964A93426FD8964A934252D02B
:1009FC00944A934269D8944A93424CD0924A934277
:100A0C0063D8924A934246D0904A93425DD8122BB7
:100A1C002AD8122B59D801A252F823F0A30A0008A5
:100A2C007D0A00088F0A0008D10A0008D70A0008BE
:100A3C00D70A0008D70A0008D70A0008D70A000806
:100A4C00D70A0008D70A0008D70A0008D70A0008F6
:100A5C00D70A0008D70A0008D70A0008D70A0008E6
:100A6C00850A0008990A0008794A934213D02CE0B1
:100A7C003B68DB683B6229E03B68DB6804333B6224
:100A8C0024E03B68DB6808333B621FE03B68DB68B3
:100A9C000C333B621AE03B689B68002B02D10423A9
:100AAC003B6213E03B689B68012B05D108233B623A
:100ABC007B68FA691A6109E008233B627B68FA6972
:100ACC005A6103E000233B6200E000BFBB69FF2BCF
:100ADC0001D87B6801E07B6804337B61BB69FF2B29
:100AEC0002D87B6A9B0002E07B6A083B9B003B615F
:100AFC007B691A680F213B6901FA03F3DB431A4047
:100B0C00396A3B6901FA03F31A437B691A603B6843
:100B1C005B6803F08053002B00F0B1804D4B9B6958
:100B2C004C4A43F0010393614A4B9B6903F0010368
:100B3C00BB60BB68484A7B6A9B08023352F823307F
:100B4C00FB607B6A03F003039B000F2202FA03F3A2
:100B5C00DB43FA681340FB607B68404A934213D036
:100B6C007B683F4A93420DD07B683E4A934207D044
:100B7C007B683D4A934201D1032306E0042304E041
:100B8C00022302E0012300E000237A6A02F0030250
:100B9C0092009340FA681343FB602F497B6A9B08D1
:100BAC000233FA6841F823203B685B6803F4801336
:100BBC00002B06D02D4B9A682C49BB6913438B60D4
:100BCC0006E02A4B9A68BB69DB43284913408B60CB
:100BDC003B685B6803F40013002B06D0234BDA68E8
:100BEC002249BB691343CB6006E0204BDA68BB6932
:100BFC00DB431E491340CB603B685B6803F4003356
:100C0C00002B06D0194B5A681849BB6913434B602B
:100C1C0006E0164B5A68BB69DB43144913404B6022
:100C2C003B685B6803F48033002B21D00F4B1A68B0
:100C3C000E49BB6913430B6021E000BF000032106A
:100C4C0000003110000022100000211000001210D2
:100C5C00000011100010024000000140000801408B
:100C6C00000C014000100140001401400004014040
:100C7C000B4B1A68BB69DB43094913400B607B6A59
:100C8C0001337B623B681A687B6A22FA03F3002B00
:100C9C007FF48EAE00BF00BF2C37BD4680BC7047C2
:100CAC000004014080B483B000AF78600B467B80B9
:100CBC0013467B707B78002B03D07A887B681A6193
:100CCC0003E07B881A047B681A6100BF0C37BD46B1
:100CDC0080BC704780B582B000AF0346FB80084BE8
:100CEC005A69FB881340002B06D0054AFB885361D8
:100CFC00FB881846FFF74CFA00BF0837BD4680BD8D
:100D0C000004014080B586B000AF78607B68002B92
:100D1C0001D1012372E27B681B6803F00103002BF5
:100D2C0000F08780924B5B6803F00C03042B0CD013
:100D3C008F4B5B6803F00C03082B12D18C4B5B6858
:100D4C0003F48033B3F5803F0BD1894B1B6803F45C
:100D5C000033002B6CD07B685B68002B68D10123BF
:100D6C004CE27B685B68B3F5803F06D1804B1B6817
:100D7C007F4A43F4803313602EE07B685B68002B62
:100D8C000CD17B4B1B687A4A23F480331360784B6D
:100D9C001B68774A23F4802313601DE07B685B6833
:100DAC00B3F5A02F0CD1724B1B68714A43F480230E
:100DBC0013606F4B1B686E4A43F4803313600BE077
:100DCC006B4B1B686A4A23F480331360684B1B68B7
:100DDC00674A23F4802313607B685B68002B13D075
:100DEC00FFF74CFC386108E0FFF748FC02463B6912
:100DFC00D31A642B01D9032300E25D4B1B6803F467
:100E0C000033002BF0D014E0FFF738FC386108E019
:100E1C00FFF734FC02463B69D31A642B01D9032338
:100E2C00ECE1534B1B6803F40033002BF0D100E0D2
:100E3C0000BF7B681B6803F00203002B63D04C4B94
:100E4C005B6803F00C03002B0BD0494B5B6803F081
:100E5C000C03082B1CD1464B5B6803F48033002B2E
:100E6C0016D1434B1B6803F00203002B05D07B68A3
:100E7C001B69012B01D00123C0E13D4B1B6823F002
:100E8C00F8027B685B69DB00394913430B603AE07D
:100E9C007B681B69002B20D0364B01221A60FFF7B0
:100EAC00EDFB386108E0FFF7E9FB02463B69D31A1A
:100EBC00022B01D90323A1E12D4B1B6803F0020384
:100ECC00002BF0D02A4B1B6823F0F8027B685B697F
:100EDC00DB00274913430B6015E0264B00221A60F8
:100EEC00FFF7CCFB386108E0FFF7C8FB02463B6913
:100EFC00D31A022B01D9032380E11D4B1B6803F08D
:100F0C000203002BF0D17B681B6803F00803002B55
:100F1C003AD07B689B69002B19D0174B01221A60C1
:100F2C00FFF7ACFB386108E0FFF7A8FB02463B6912
:100F3C00D31A022B01D9032360E10D4B5B6A03F03A
:100F4C000203002BF0D0012000F09CFA1CE00A4BAD
:100F5C0000221A60FFF792FB38610FE0FFF78EFB5F
:100F6C0002463B69D31A022B08D9032346E100BF82
:100F7C00001002400000424280044242924B5B6AE5
:100F8C0003F00203002BE9D17B681B6803F0040318
:100F9C00002B00F0A6800023FB758B4BDB6903F064
:100FAC008053002B0DD1884BDB69874A43F080536B
:100FBC00D361854BDB6903F08053BB60BB680123B5
:100FCC00FB75824B1B6803F48073002B18D17F4B8D
:100FDC001B687E4A43F480731360FFF74FFB386144
:100FEC0008E0FFF74BFB02463B69D31A642B01D98F
:100FFC00032303E1754B1B6803F48073002BF0D0C3
:10100C007B68DB68012B06D16F4B1B6A6E4A43F081
:10101C00010313622DE07B68DB68002B0CD16A4B5B
:10102C001B6A694A23F001031362674B1B6A664A09
:10103C0023F0040313621CE07B68DB68052B0CD1E6
:10104C00614B1B6A604A43F0040313625E4B1B6ADC
:10105C005D4A43F0010313620BE05B4B1B6A5A4A77
:10106C0023F001031362584B1B6A574A23F0040305
:10107C0013627B68DB68002B15D0FFF7FFFA386131
:10108C000AE0FFF7FBFA02463B69D31A41F28832B9
:10109C00934201D90323B1E04B4B1B6A03F00203CB
:1010AC00002BEED014E0FFF7E9FA38610AE0FFF705
:1010BC00E5FA02463B69D31A41F28832934201D9D0
:1010CC0003239BE0404B1B6A03F00203002BEED181
:1010DC00FB7D012B05D13C4BDB693B4A23F0805354
:1010EC00D3617B68DB69002B00F08780364B5B6833
:1010FC0003F00C03082B61D07B68DB69022B46D113
:10110C00334B00221A60FFF7B9FA386108E0FFF799
:10111C00B5FA02463B69D31A022B01D903236DE0C1
:10112C00294B1B6803F00073002BF0D17B681B6A02
:10113C00B3F5803F08D1244B5B6823F400327B6805
:10114C009B68214913434B601F4B5B6823F474125B
:10115C007B68196A7B685B6A0B431B4913434B60C2
:10116C001B4B01221A60FFF789FA386108E0FFF780
:10117C0085FA02463B69D31A022B01D903233DE0C1
:10118C00114B1B6803F00073002BF0D035E0104BB3
:10119C0000221A60FFF772FA386108E0FFF76EFA66
:1011AC0002463B69D31A022B01D9032326E0064BD6
:1011BC001B6803F00073002BF0D11EE07B68DB6929
:1011CC00012B07D1012319E00010024000700040F0
:1011DC00600042420B4B5B68FB60FB6803F480329F
:1011EC007B681B6A9A4206D1FB6803F470127B6819
:1011FC005B6A9A4201D0012300E00023184618379D
:10120C00BD4680BD0010024080B584B000AF786050
:10121C0039607B68002B01D10123D0E06A4B1B683D
:10122C0003F007033A689A4210D9674B1B6823F006
:10123C00070265493B6813430B60634B1B6803F063
:10124C0007033A689A4201D00123B8E07B681B6817
:10125C0003F00203002B20D07B681B6803F004030F
:10126C00002B05D0594B5B68584A43F4E06353603C
:10127C007B681B6803F00803002B05D0534B5B689D
:10128C00524A43F460535360504B5B6823F0F002B6
:10129C007B689B684D4913434B607B681B6803F06C
:1012AC000103002B40D07B685B68012B07D1474BB7
:1012BC001B6803F40033002B15D101237FE07B68FE
:1012CC005B68022B07D1414B1B6803F00073002BAA
:1012DC0009D1012373E03D4B1B6803F00203002B83
:1012EC0001D101236BE0394B5B6823F003027B686F
:1012FC005B68364913434B60FFF7C0F9F8600AE0AE
:10130C00FFF7BCF90246FB68D31A41F288329342CC
:10131C0001D9032353E02D4B5B6803F00C027B686F
:10132C005B689B009A42EBD1274B1B6803F00703C9
:10133C003A689A4210D2244B1B6823F007022249C8
:10134C003B6813430B60204B1B6803F007033A68A0
:10135C009A4201D0012332E07B681B6803F004033E
:10136C00002B08D0194B5B6823F4E0627B68DB68C8
:10137C00164913434B607B681B6803F00803002B72
:10138C0009D0124B5B6823F460527B681B69DB004D
:10139C000E4913434B6000F021F802460B4B5B687F
:1013AC001B0903F00F030A49CB5C22FA03F3094A29
:1013BC001360094B1B681846FFF71EF900231846EB
:1013CC001037BD4680BD00BF002002400010024017
:1013DC00341D0008280000202C00002080B487B0A9
:1013EC0000AF0023FB600023BB6000237B61002364
:1013FC007B6000233B611E4B5B68FB60FB6803F06A
:10140C000C03042B02D0082B03D027E0194B3B61B3
:10141C0027E0FB689B0C03F00F03174AD35C7B603F
:10142C00FB6803F48033002B10D0114B5B685B0C12
:10143C0003F00103114AD35CBB607B680D4A03FBCC
:10144C0002F2BB68B2FBF3F37B6104E07B680C4AED
:10145C0002FB03F37B617B693B6102E0054B3B6163
:10146C0000BF3B6918461C37BD4680BC704700BFA7
:10147C000010024000127A00441D0008541D0008A0
:10148C0000093D0080B485B000AF78600A4B1B6842
:10149C000A4AA2FB03235B0A7A6802FB03F3FB6094
:1014AC0000BFFB685A1EFA60002BF9D100BF00BFC9
:1014BC001437BD4680BC704728000020D34D621005
:1014CC0080B582B000AF78607B68002B01D101231E
:1014DC0076E07B685B6A002B08D17B685B68B3F5B0
:1014EC00827F09D07B680022DA6105E07B680022EC
:1014FC001A617B6800225A617B6800229A627B68C1
:10150C0093F85130DBB2002B06D17B68002283F8B4
:10151C0050207868FEF79EFF7B68022283F85120EA
:10152C007B681B681A687B681B6822F040021A6093
:10153C007B685B6803F482727B689B6803F40443EA
:10154C001A437B68DB6803F400631A437B681B69EE
:10155C0003F002031A437B685B6903F001031A432F
:10156C007B689B6903F400731A437B68DB6903F0A7
:10157C0038031A437B681B6A03F0800342EA0301B9
:10158C007B689B6A03F400527B681B680A431A60F1
:10159C007B689B691A0C7B681B6802F004025A601A
:1015AC007B681B68DA697B681B6822F40062DA616D
:1015BC007B6800225A657B68012283F85120002346
:1015CC0018460837BD4680BD80B487B000AFF860C0
:1015DC00B9607A607B800023FB75FB6893F8503010
:1015EC00012B01D1022375E0FB68012283F8502006
:1015FC00FB6893F85130BB75FB685B683B61BB7D46
:10160C00012B0DD03B69B3F5827F06D1FB689B683B
:10161C00002B02D1BB7D042B02D00223FB7554E0BE
:10162C00BB68002B05D07B68002B02D07B88002B7D
:10163C0002D10123FB7548E0FB6893F85130DBB213
:10164C00042B03D0FB68052283F85120FB68002291
:10165C005A65FB68BA681A63FB687A889A86FB68D5
:10166C007A88DA86FB687A689A63FB687A889A8744
:10167C00FB687A88DA87FB68DB68002B06D0FB688E
:10168C00174A1A64FB68174A5A6405E0FB68164A45
:10169C001A64FB68154A5A64FB681B685A68FB6835
:1016AC001B6842F0E0025A60FB681B681B6803F081
:1016BC004003402B08D0FB681B681A68FB681B684A
:1016CC0042F040021A6000E000BFFB68002283F881
:1016DC005020FB7D18461C37BD4680BC704700BFB0
:1016EC00D1190008311A00080D19000871190008E9
:1016FC0080B588B000AF78607B681B685B68FB6165
:10170C007B681B689B68BB61BB6903F04003002BC3
:10171C000ED1BB6903F00103002B09D0FB6903F068
:10172C004003002B04D07B681B6C78689847B7E0AB
:10173C00BB6903F00203002B09D0FB6903F08003A3
:10174C00002B04D07B685B6C78689847A8E0BB6979
:10175C0003F02003002B05D1BB6903F04003002BE1
:10176C0000F09E80FB6903F02003002B00F09880B2
:10177C00BB6903F04003002B23D07B6893F85130F6
:10178C00DBB2032B11D07B685B6D43F004027B68EA
:10179C005A6500237B617B681B68DB687B617B6817
:1017AC001B689B687B617B690BE000233B617B685A
:1017BC001B68DB683B617B681B689B683B613B6912
:1017CC006EE0BB6903F02003002B14D07B685B6DCB
:1017DC0043F001027B685A650023FB607B681B6841
:1017EC009B68FB607B681B681A687B681B6822F02F
:1017FC0040021A60FB687B685B6D002B4FD07B68E6
:10180C001B685A687B681B6822F0E0025A607B6890
:10181C00012283F85120FB6903F00203002B04D151
:10182C00FB6903F00103002B34D07B681B685A68FA
:10183C007B681B6822F003025A607B68DB6C002B10
:10184C0011D07B68DB6C184A5A637B68DB6C1846DA
:10185C00FFF72CF80346002B05D07B685B6D43F03B
:10186C0040027B685A657B689B6C002B16D07B68AA
:10187C009B6C0D4A5A637B689B6C1846FFF716F8F5
:10188C000346002B0AD07B685B6D43F040027B68FB
:10189C005A6503E0786800F009F800E000BF00BF6B
:1018AC002037BD4680BD00BFE518000880B483B06A
:1018BC0000AF786000BF0C37BD4680BC704780B469
:1018CC0083B000AF78607B6893F85130DBB2184678
:1018DC000C37BD4680BC704780B584B000AF7860D3
:1018EC007B685B6AFB60FB680022DA87FB6800227E
:1018FC00DA86F868FFF7DAFF00BF1037BD4680BD07
:10190C0080B582B000AF78607B681B6803F10C0275
:10191C007B689B6B1278D2B21A707B689B6B5A1CDB
:10192C007B689A637B68DB8F9BB2013B9AB27B68C6
:10193C00DA877B68DB8F9BB2002B0FD17B681B682F
:10194C005A687B681B6822F060025A607B68DB8EE9
:10195C009BB2002B02D1786800F03AF900BF08372F
:10196C00BD4680BD80B582B000AF78607B681A6BD5
:10197C007B681B680C3312781A707B681B6B5A1CC3
:10198C007B681A637B68DB8E9BB2013B9AB27B68E7
:10199C00DA867B68DB8E9BB2002B0FD17B681B68D1
:1019AC005A687B681B6822F080025A607B68DB8F68
:1019BC009BB2002B02D1786800F00AF900BF0837FF
:1019CC00BD4680BD80B582B000AF78607B681B6877
:1019DC00DA687B689B6B92B21A807B689B6B9A1C53
:1019EC007B689A637B68DB8F9BB2013B9AB27B6806
:1019FC00DA877B68DB8F9BB2002B0FD17B681B686F
:101A0C005A687B681B6822F040025A607B68DB8E48
:101A1C009BB2002B02D1786800F0DAF800BF0837CF
:101A2C00BD4680BD80B582B000AF78607B681B6B13
:101A3C001A887B681B68DA607B681B6B9A1C7B6856
:101A4C001A637B68DB8E9BB2013B9AB27B68DA86A9
:101A5C007B68DB8E9BB2002B0FD17B681B685A68AE
:101A6C007B681B6822F080025A607B68DB8F9BB21C
:101A7C00002B02D1786800F0ABF800BF0837BD46E8
:101A8C0080BD000080B588B000AFF860B9603B60E5
:101A9C001346FB71FEF7F2FD0246BB6A9B1A3A68CD
:101AAC001344FB61FEF7EAFDB861394B1B685B011F
:101ABC001B0DFA6902FB03F37B6154E03B68B3F145
:101ACC00FF3F50D0FEF7DAFD0246BB69D31AFA6924
:101ADC009A4202D9FB69002B3DD1FB681B685A68FE
:101AEC00FB681B6822F0E0025A60FB685B68B3F588
:101AFC00827F11D1FB689B68B3F5004F04D0FB6863
:101B0C009B68B3F5806F07D1FB681B681A68FB688C
:101B1C001B6822F040021A60FB689B6AB3F5005FF9
:101B2C000FD1FB681B681A68FB681B6822F4005213
:101B3C001A60FB681B681A68FB681B6842F4005249
:101B4C001A60FB68012283F85120FB68002283F89D
:101B5C005020032317E07B69002B01D10023FB618C
:101B6C007B69013B7B61FB681B689A68BB6813400F
:101B7C00BA689A420CBF01230023DBB21A46FB79E8
:101B8C009A429BD1002318462037BD4680BD00BF2A
:101B9C002800002080B586B002AFF860B9607A608A
:101BAC007B680093BB6800228021F868FFF76AFF0E
:101BBC000346002B07D0FB685B6D43F02002FB68EB
:101BCC005A65032300E0002318461037BD4680BD3C
:101BDC0080B586B000AF7860354B1B68354AA2FBE8
:101BEC0003235B0A642202FB03F33B61FEF746FD11
:101BFC0078617B681B685A687B681B6822F020023E
:101C0C005A603B69002B06D17B685B6D43F0200268
:101C1C007B685A6509E03B69013B3B617B681B684B
:101C2C009B6803F00203002BEBD07A69642178687F
:101C3C00FFF7B0FF0346002B05D07B685B6D43F0CC
:101C4C0020027B685A657B689B68002B0AD10023B5
:101C5C00FB607B681B68DB68FB607B681B689B68B0
:101C6C00FB60FB687B685B6D002B15D17B6893F880
:101C7C005130DBB2042B07D17B68012283F8512051
:101C8C007868FEF771FA0EE07B68012283F8512028
:101C9C007868FEF755FA06E07B68012283F851203C
:101CAC007868FFF703FE00BF1837BD4680BD00BF44
:101CBC0028000020F119760503460244934200D116
:101CCC00704703F8011BF9E770B500260C4D0D4C5D
:101CDC00641BA410A64209D100F01AF800260A4D84
:101CEC000A4C641BA410A64205D170BD55F8043BE8
:101CFC0098470136EEE755F8043B98470136F2E772
:101D0C00581D0008581D0008581D00085C1D0008CF
:101D1C00F8B500BFF8BC08BC9E467047F8B500BFCC
:081D2C00F8BC08BC9E4670479C
:101D34000000000000000000010203040607080977
:101D440002030405060708090A0B0C0D0E0F1010F8
:041D54000102000088
:041D5800310100084D
:041D5C000D0100086D
:101D600030000000310000003200000033000000AD
:101D700034000000350000003600000000000000C4
:101D800000000000000000000024F400100000002B
:041D9000010000004E
:040000050800058D5D
:00000001FF
