:020000040800F2
:1000000000000824990C0008350B00083B0B000881
:10001000410B0008470B00084D0B000800000000D2
:10002000000000000000000000000000530B00086A
:10003000610B0008000000006F0B00087D0B00083A
:10004000E90C0008E90C0008E90C0008E90C0008BC
:10005000E90C0008E90C0008E90C0008E90C0008AC
:10006000E90C0008E90C0008E90C0008E90C00089C
:10007000E90C0008E90C0008E90C0008E90C00088C
:10008000E90C0008E90C0008E90C0008E90C00087C
:10009000E90C0008E90C0008E90C0008E90C00086C
:1000A000E90C0008E90C0008E90C0008E90C00085C
:1000B000E90C0008E90C0008E90C0008E90C00084C
:1000C000E90C0008E90C0008E90C0008E90C00083C
:1000D000E90C0008E90C0008E90C0008E90C00082C
:1000E000E90C0008E90C000800000000E90C000819
:1000F000E90C0008E90C0008E90C0008E90C00080C
:10010000E90C0008E90C0008E90C0008E90C0008FB
:10011000E90C0008E90C0008E90C0008E90C0008EB
:10012000E90C0008E90C0008E90C0008E90C0008DB
:10013000E90C0008E90C0008E90C0008E90C0008CB
:1001400000000000000000000000000000000000AF
:10015000E90C0008E90C0008E90C0008E90C0008AB
:10016000E90C0008E90C0008E90C0008E90C00089B
:10017000E90C0008E90C0008E90C0008E90C00088B
:10018000E90C0008E90C0008E90C0008E90C00087B
:10019000E90C0008E90C0008E90C0008E90C00086B
:1001A000E90C0008E90C0008E90C0008E90C00085B
:1001B000E90C0008E90C0008E90C0008E90C00084B
:1001C000E90C0008E90C0008E90C0008E90C00083B
:1001D000E90C0008E90C0008E90C0008E90C00082B
:1001E000E90C0008E90C0008E90C0008E90C00081B
:1001F000E90C0008E90C0008E90C0008E90C00080B
:10020000E90C0008E90C0008E90C0008E90C0008FA
:10021000E90C0008E90C0008E90C0008E90C0008EA
:10022000E90C0008E90C0008E90C000800000000D7
:10023000E90C0008E90C000800000000E90C0008C7
:10024000E90C0008E90C0008E90C0008E90C0008BA
:10025000E90C0008E90C0008E90C0008E90C0008AA
:10026000E90C0008E90C0008E90C0008E90C00089A
:10027000E90C0008E90C0008E90C00080000000087
:10028000E90C0008E90C0008E90C00080000000077
:0802900000000000E90C000869
:1002980010B5054C237833B9044B13B10448AFF3B8
:1002A80000800123237010BD2000002400000000FE
:1002B8009C42000808B5034B1BB103490348AFF340
:1002C800008008BD00000000240000249C420008B3
:1002D80080B500AF00F006FD00F02CF800F000F942
:1002E80000F0A6F8072000F054F900F0CDF900F06E
:1002F80077F902219FED0E0A082000F0EDFA00229E
:100308000C21042000F0D0F900220B21032000F07A
:10031800CBF900220D21022000F0C6F900220E219F
:10032800012000F0C1F940F2DC5000F06DFDDEE77D
:10033800C3F548C080B59CB000AF07F124034C2238
:100348000021184603F09EFF3B1D2022002118467D
:1003580003F098FF022001F035F800233B60324B90
:10036800DB6A314A23F00103D3622F4BDB6A03F0C7
:1003780001033B602D4B9B6923F440432B4A43F414
:1003880080439361294B9B6903F440433B603B687E
:1003980000BF264B9B6903F40053B3F5005FF8D107
:1003A80002237B6201233B6340237B630223BB64FC
:1003B8000023FB6404233B6509237B650223BB659B
:1003C8000223FB6502233B660C237B660223BB6684
:1003D8004FF44063FB6607F12403184601F02CF83C
:1003E8000346002B01D000F0CFF83F237B600023A9
:1003F800BB600023FB6000233B6100237B6100237B
:10040800BB610023FB6100233B623B1D01211846B1
:1004180001F06CFC0346002B01D000F0B5F800BFDA
:100428007037BD4680BD00BF000400580048025820
:1004380080B500AF284B294A1A60274B4FF4800239
:100448005A60254B4FF400329A60234B0722DA603A
:10045800214B00221A61204B00225A611E4B4FF09B
:1004680080629A611C4B4FF04052DA611A4B0022AD
:100478001A62194B00225A62174B00229A62164BD5
:100488000022DA62144B4FF080425A63124B00226A
:100498009A63114B0022DA630F4B00221A640E4B49
:1004A80000225A640C4B00229A640B4B0022DA6437
:1004B800094B00221A65084B00225A65064B002298
:1004C8009A65054803F0B0FA0346002B01D000F006
:1004D8005BF800BF80BD00BF3C0000240030014035
:1004E80080B588B000AF07F10C0300221A605A608B
:1004F8009A60DA601A61224BD3F8E030204A43F060
:100508008003C2F8E0301E4BD3F8E03003F08003DC
:10051800BB60BB681A4BD3F8E030194A43F00103BB
:10052800C2F8E030164BD3F8E03003F001037B60EB
:100538007B68134BD3F8E030114A43F00203C2F84A
:10054800E0300F4BD3F8E03003F002033B603B6828
:10055800002201210B4800F01BFF0123FB6001234F
:100568003B6100237B610323BB6107F10C03194640
:10057800044800F05DFD00BF2037BD4680BD00BFC8
:10058800004402580004025880B400AF72B600BF9D
:10059800FEE780B582B000AF0346FB7100F06CF84F
:1005A80007210B2000F040F8FB79184600F006F808
:1005B80000F016F800BF0837BD4680BD80B582B090
:1005C80000AF0346FB71FB790F2B05D8FB79194661
:1005D8000A2000F029F800E000BF0837BD4680BDBA
:1005E80080B582B000AF0023FB710E4B1B78FF2B48
:1005F80001D10F23FB7100233B600BE03B68DBB2AA
:100608000133DBB2FA791146184600F00DF83B6861
:1006180001333B603B68072BF0DD00BF00BF0837A4
:10062800BD4680BDC400002480B582B000AF03463B
:100638000A46FB711346BB71002201210C4800F0E9
:10064800A7FEF91D4FF0FF3301220A4803F010FB03
:10065800B91D4FF0FF330122064803F009FB0122C0
:100668000121034800F094FE00BF0837BD4680BD55
:10067800000402583C00002480B500AF01210C2082
:10068800FFF7D2FF00BF80BD80B500AF054BFF224A
:100698001A70044B1B7819460920FFF7C5FF00BFE5
:1006A80080BD00BFC400002480B582B000AF0346FF
:1006B800FB710B46BB7113467B71FB79082B44D841
:1006C8007B79002B20D0234B1B78002B0ED1BB79D4
:1006D800184600F07BF90346DBB263F07F03DAB219
:1006E800FB7911461846FFF79FFF2FE0194B1B783F
:1006F800FF2B2BD1BB7963F07F03DAB2FB7911466C
:100708001846FFF791FF21E0124B1B78002B0ED102
:10071800BB79184600F05AF90346DBB203F07F03B1
:10072800DAB2FB7911461846FFF77EFF0EE0094B57
:100738001B78FF2B0AD1BB7903F07F03DAB2FB7970
:1007480011461846FFF770FF00E000BF0837BD46A6
:1007580080BD00BFC400002480B584B000AF03464C
:100768003960FB71FF210920FFF75EFF3B68002B12
:100778000DDAFB79002B07D0FB790A211846FFF721
:1007880053FFFB79013BFB713B685B423B600123F4
:10079800FB6005E0FA6813469B0013445B00FB60AE
:1007A8003A68FB6892FBF3F3092BF3DCFB79002B27
:1007B8000CD03A68FB6892FBF3F3DAB2FB79114686
:1007C8001846FFF731FFFB79013BFB71FB681C4AB8
:1007D80082FB03129210DB17D31AFB6022E0FB792D
:1007E800002B17D0FA6813469B0013445B001A4687
:1007F8003B6893FBF2F101FB02F29A1AFB6892FB49
:10080800F3F3DAB2FB7911461846FFF70DFFFB79CF
:10081800013BFB71FB680A4A82FB03129210DB174B
:10082800D31AFB60FB68002BD9DC064B1B781946F2
:100838000920FFF7F9FEFB7918461037BD4680BD41
:1008480067666666C400002480B584B000AF0346BE
:100858003960FB711346BB71FF210920FFF7E4FEE5
:10086800BB79002B29D0BB79013BDBB2184600F0DD
:10087800BFF8F8601EE0FB79002B15D03A68FB68DA
:10088800B2FBF3F1124BA3FB0123DA0813469B00DA
:1008980013445B00CA1AD2B2FB7911461846FFF717
:1008A800C3FEFB79013BFB71FB68094AA2FB0323EA
:1008B800DB08FB60FB68002BDDD1064B1B78194673
:1008C8000920FFF7B1FEFB7918461037BD4680BDF9
:1008D800CDCCCCCCC400002480B582B000AF034698
:1008E80087ED000A0A46FB711346BB71BB79042BDE
:1008F80001D90423BB71FF210920FFF795FED7ED2D
:10090800007AF5EEC07AF1EE10FA10D5FB79002BDB
:1009180007D0FB790A211846FFF786FEFB79013BD1
:10092800FB71D7ED007AF1EE677AC7ED007AD7ED63
:10093800007AFDEEE77AFB7917EE901A1846FFF772
:100948000BFF0346FB71BB79002B2FD0FB790133DA
:10095800D8B2D7ED007AFDEEE77A17EE901A194B68
:1009680083FB01239A10CB17D21A13469B0013441A
:100978005B00CA1AD3B201221946FFF795FEBB796C
:10098800184600F035F807EE900AB8EE677AD7ED0A
:10099800007A67EE277AFCEEE77ABA79FB7917EEE8
:1009A800901A1846FFF750FF0346FB71064B1B7859
:1009B80019460920FFF738FEFB7918460837BD4667
:1009C80080BD00BF67666666C400002480B483B03B
:1009D80000AF0346FB71FB79044AD35C9BB218460F
:1009E8000C37BD465DF8047B704700BF000000244B
:1009F80080B485B000AF0346FB710123FB6008E0BB
:100A0800FA6813469B0013445B00FB60FB79013BCB
:100A1800FB71FB79002BF3D1FB6818461437BD46F0
:100A28005DF8047B7047000080B483B000AF0A4BC8
:100A3800D3F8F430084A43F00203C2F8F430064B06
:100A4800D3F8F43003F002037B607B6800BF0C37F7
:100A5800BD465DF8047B70470044025880B5BAB0C3
:100A680000AF786007F1D40300221A605A609A60D8
:100A7800DA601A6107F11003C0220021184603F05A
:100A880001FC7B681B68264A934244D14FF480528C
:100A98004FF00003C7E9042300233B6707F1100365
:100AA800184601F053FC0346002B01D0FFF76CFDFC
:100AB8001C4BD3F8F0301B4A43F48053C2F8F03093
:100AC800184BD3F8F03003F48053FB60FB68154BE8
:100AD800D3F8E030134A43F00103C2F8E030114B79
:100AE800D3F8E03003F00103BB60BB68A023C7F86C
:100AF800D4300223C7F8D8300023C7F8DC300023ED
:100B0800C7F8E0300523C7F8E43007F1D4031946E5
:100B1800054800F08DFA00BFE837BD4680BD00BF2C
:100B280000300140004402580000025880B400AF71
:100B3800FEE780B400AFFEE780B400AFFEE780B404
:100B480000AFFEE780B400AFFEE780B400AF00BF9F
:100B5800BD465DF8047B704780B400AF00BFBD465A
:100B68005DF8047B704780B400AF00BFBD465DF8F8
:100B7800047B704780B500AF00F026F900BF80BD48
:100B880080B400AF374BD3F88830364A43F470034B
:100B9800C2F88830344B1B6803F00F03062B07D8C4
:100BA800314B1B6823F00F032F4A43F007031360F0
:100BB8002E4B1B682D4A43F0010313602B4B002278
:100BC8001A612A4B1A682949294B13400B60264B96
:100BD8001B6803F00803002B07D0234B1B6823F086
:100BE8000F03214A43F007031360204B00229A6148
:100BF8001E4B0022DA611D4B00221A621B4B1D4A54
:100C08009A621A4B1C4ADA62184B1C4A1A63174B31
:100C180000225A63154B194A9A63144B0022DA636F
:100C2800124B164A1A64114B00225A640F4B1B6868
:100C38000E4A23F4802313600C4B00221A66104BD3
:100C48001A68104B1340B3F1005F02D20E4B012219
:100C58001A600E4B43F2D2021A6000BFBD465DF81F
:100C6800047B704700ED00E0002000520044025869
:100C78007FEDF6EA000202020000FF018002010196
:100C88000010005C0000FFFF088100510040005286
:100C9800DFF834D0FFF774FF0C480D490D4A0023E4
:100CA80002E0D458C4500433C4188C42F9D30A4A19
:100CB8000A4C002301E013600432A242FBD303F084
:100CC800BDFAFFF705FB7047000008240000002468
:100CD80020000024CC42000820000024CC0000247E
:100CE800FEE7000080B582B000AF032000F06EF987
:100CF80001F0B2F90246154B9B691B0A03F00F037A
:100D08001349CB5C03F01F0322FA03F37B600F4BFC
:100D18009B6903F00F030E4AD35C03F01F037A6844
:100D280022FA03F30B4A13600B4A7B6813600F2007
:100D380000F014F80346002B01D0012302E0FFF76E
:100D480073FE002318460837BD4680BD004402588C
:100D5800B4420008140000241000002480B582B0BA
:100D680000AF7860154B1B78002B01D1012321E0DF
:100D7800134B1A68114B1B7819464FF47A73B3FB5F
:100D8800F1F3B2FBF3F3184600F045F90346002BE4
:100D980001D001230EE07B680F2B0AD80022796866
:100DA8004FF0FF3000F01DF9064A7B6813600023FE
:100DB80000E0012318460837BD4680BD1C0000240A
:100DC800100000241800002480B400AF064B1B78E4
:100DD8001A46064B1B681344044A136000BFBD46FD
:100DE8005DF8047B704700BF1C000024C800002485
:100DF80080B400AF034B1B681846BD465DF8047B02
:100E0800704700BFC800002480B584B000AF786088
:100E1800FFF7EEFFB8607B68FB60FB68B3F1FF3F4C
:100E280005D00A4B1B781A46FB681344FB6000BFC9
:100E3800FFF7DEFF0246BB68D31AFA689A42F7D872
:100E480000BF00BF1037BD4680BD00BF1C00002496
:100E580080B400AF034B1B681B0C1846BD465DF8F9
:100E6800047B70470010005C80B485B000AF7860E8
:100E78007B6803F00703FB600B4BDB68BB60BA6859
:100E88004FF6FF031340BB60FB681A02BB681A43A6
:100E9800064B1343BB60044ABB68D36000BF1437DA
:100EA800BD465DF8047B704700ED00E00000FA05E0
:100EB80080B400AF044BDB681B0A03F00703184635
:100EC800BD465DF8047B704700ED00E080B483B058
:100ED80000AF03463960FB80B7F90630002B0ADB08
:100EE8003B68DAB20C49B7F906301201D2B20B44AA
:100EF80083F800230AE03B68DAB20849FB8803F06C
:100F08000F03043B1201D2B20B441A7600BF0C3710
:100F1800BD465DF8047B704700E100E000ED00E0AD
:100F280080B489B000AFF860B9607A60FB6803F0FC
:100F38000703FB61FB69C3F10703042B28BF0423E4
:100F4800BB61FB690433062B02D9FB69033B00E054
:100F580000237B614FF0FF32BB6902FA03F3DA43E7
:100F6800BB681A407B699A404FF0FF317B6901FAF0
:100F780003F3D9437B680B40134318462437BD4617
:100F88005DF8047B7047000080B582B000AF7860E0
:100F98007B68013BB3F1807F01D301230FE00A4A4C
:100FA8007B68013B53600F214FF0FF30FFF78EFF46
:100FB800054B00229A60044B07221A60002318464A
:100FC8000837BD4680BD00BF10E000E080B582B0A4
:100FD80000AF78607868FFF747FF00BF0837BD4665
:100FE80080BD80B586B000AF0346B9607A60FB81EA
:100FF800FFF75EFF78617A68B9687869FFF790FF54
:101008000246B7F90E3011461846FFF75FFF00BFDA
:101018001837BD4680BD80B582B000AF786078686B
:10102800FFF7B2FF034618460837BD4680BD0000EB
:1010380080B489B000AF786039600023FB61894BC8
:101048007B6194E13B681A680121FB6901FA03F3AB
:1010580013403B613B69002B00F086813B685B686D
:1010680003F00303012B05D03B685B6803F003031F
:10107800022B30D17B689B68BB61FB695B00032254
:1010880002FA03F3DB43BA691340BB613B68DA68D1
:10109800FB695B0002FA03F3BA691343BB617B681F
:1010A800BA699A607B685B68BB610122FB6902FAD6
:1010B80003F3DB43BA691340BB613B685B681B09F8
:1010C80003F00102FB6902FA03F3BA691343BB6137
:1010D8007B68BA695A603B685B6803F00303032BBB
:1010E80017D07B68DB68BB61FB695B00032202FAEF
:1010F80003F3DB43BA691340BB613B689A68FB6939
:101108005B0002FA03F3BA691343BB617B68BA69EF
:10111800DA603B685B6803F00303022B23D1FB69A9
:10112800DA087B68083253F82230BB61FB6903F0A8
:1011380007039B000F2202FA03F3DB43BA6913404B
:10114800BB613B681A69FB6903F007039B0002FA5D
:1011580003F3BA691343BB61FB69DA087B68083299
:10116800B96943F822107B681B68BB61FB695B00A7
:10117800032202FA03F3DB43BA691340BB613B68FD
:101188005B6803F00302FB695B0002FA03F3BA69C8
:101198001343BB617B68BA691A603B685B6803F4F8
:1011A8004033002B00F0E0802F4BD3F8F4302E4A68
:1011B80043F00203C2F8F4302B4BD3F8F43003F0B9
:1011C8000203FB60FB68294AFB699B08023352F85B
:1011D8002330BB61FB6903F003039B000F2202FA73
:1011E80003F3DB43BA691340BB617B68204A93422F
:1011F80052D07B681F4A934231D07B681E4A934283
:101208002BD07B681D4A934225D07B681C4A9342A9
:101218001FD07B681B4A934219D07B681A4A9342B5
:1012280013D07B68194A93420DD07B68184A9342C1
:1012380007D07B68174A934201D109232DE00A237E
:101248002BE0082329E0072327E0062325E00523D0
:1012580023E0042321E003231FE002231DE00123F0
:101268001BE000BF800000580044025800040058EA
:10127800000002580004025800080258000C0258E6
:10128800001002580014025800180258001C025896
:1012980000200258002402580023FA6902F00302D1
:1012A80092009340BA691343BB613849FB699B08B4
:1012B8000233BA6941F823204FF0B0431B68BB6181
:1012C8003B69DB43BA691340BB613B685B6803F465
:1012D8008013002B03D0BA693B691343BB614FF0FD
:1012E800B042BB6913604FF0B0435B68BB613B69B8
:1012F800DB43BA691340BB613B685B6803F40013C6
:10130800002B03D0BA693B691343BB614FF0B0426D
:10131800BB6953607B695B68BB613B69DB43BA6946
:101328001340BB613B685B6803F40033002B03D0B8
:10133800BA693B691343BB617B69BA695A607B69C7
:101348001B68BB613B69DB43BA691340BB613B68FF
:101358005B6803F48033002B03D0BA693B691343FD
:10136800BB617B69BA691A60FB690133FB613B6841
:101378001A68FB6922FA03F3002B7FF463AE00BFFF
:1013880000BF2437BD465DF8047B70470004005851
:1013980080B483B000AF78600B467B8013467B70C7
:1013A8007B78002B03D07A887B689A6103E07B887E
:1013B8001A047B689A6100BF0C37BD465DF8047B50
:1013C8007047000080B584B000AF7860194BDB68C7
:1013D80003F00403042B0AD0164BDB6803F0070361
:1013E8007A689A4201D001231FE000231DE0114BC7
:1013F800DB6823F007020F497B681343CB60FFF7D4
:10140800F7FCF86009E0FFF7F3FC0246FB68D31A23
:10141800B3F57A7F01D9012307E0064B5B6803F433
:101428000053B3F5005FEED1002318461037BD46D0
:1014380080BD00BF0048025880B58CB000AF78600E
:101448007B68002B02D1012300F048BC7B681B6835
:1014580003F00103002B00F08880994B1B6903F00F
:101468003803FB62964B9B6ABB62FB6A102B07D062
:10147800FB6A182B11D1BB6A03F00303022B0CD1B2
:101488008F4B1B6803F40033002B6DD07B685B68BF
:10149800002B69D1012300F021BC7B685B68B3F5A0
:1014A800803F06D1864B1B68854A43F4803313601E
:1014B8002EE07B685B68002B0CD1814B1B68804A4F
:1014C80023F4803313607E4B1B687D4A23F480230A
:1014D80013601DE07B685B68B3F5A02F0CD1784BD7
:1014E8001B68774A43F480231360754B1B68744A62
:1014F80043F4803313600BE0714B1B68704A23F48C
:10150800803313606E4B1B686D4A23F4802313608D
:101518007B685B68002B13D0FFF76AFC786208E0F1
:10152800FFF766FC02467B6AD31A642B01D90323B2
:10153800D4E3634B1B6803F40033002BF0D014E0B2
:10154800FFF756FC786208E0FFF752FC02467B6A18
:10155800D31A642B01D90323C0E3594B1B6803F446
:101568000033002BF0D100E000BF7B681B6803F05C
:101578000203002B00F0CA80514B1B6903F03803AB
:101588003B624F4B9B6AFB613B6A002B07D03B6A6F
:10159800182B56D1FB6903F00303002B51D1484B9C
:1015A8001B6803F00403002B05D07B68DB68002B65
:1015B80001D1012392E3424B1B6823F019027B6897
:1015C800DB683F4913430B60FFF712FC786208E0C1
:1015D800FFF70EFC02467B6AD31A022B01D90323BC
:1015E8007CE3374B1B6803F00403002BF0D0FFF7B4
:1015F8002FFC034641F20302934217D87B681B690C
:10160800402B08D12E4B5B6823F47C332C4A43F4DF
:10161800003353607AE02A4B5B6823F47C327B68A2
:101628001B691B03264913434B606FE0244B5B681F
:1016380023F0FE427B681B691B06214913434B605C
:1016480064E07B68DB68002B47D01D4B1B6823F0E8
:1016580019027B68DB681A4913430B60FFF7C8FB64
:10166800786208E0FFF7C4FB02467B6AD31A022BB4
:1016780001D9032332E3124B1B6803F00403002B48
:10168800F0D0FFF7E5FB034641F20302934219D875
:101698007B681B69402B08D1094B5B6823F47C33BA
:1016A800074A43F40033536030E0054B5B6823F48A
:1016B8007C327B681B691B03014913434B6025E09F
:1016C800004402589A4B5B6823F0FE427B681B6912
:1016D8001B06974913434B6018E0954B1B68944AC7
:1016E80023F001031360FFF783FB786208E0FFF73C
:1016F8007FFB02467B6AD31A022B01D90323EDE252
:101708008B4B1B6803F00403002BF0D17B681B682C
:1017180003F01003002B00F0A980854B1B6903F030
:101728003803BB61824B9B6A7B61BB69082B07D07E
:10173800BB69182B3AD17B6903F00303012B35D120
:101748007B4B1B6803F48073002B05D07B68DB6937
:10175800802B01D00123C1E2FFF77AFB034641F257
:101768000302934217D87B681B6A202B08D1704B61
:101778005B6823F0F8436E4A43F08043536075E09A
:101788006B4B5B6823F0F8427B681B6A9B066849D1
:1017980013434B606AE0664BDB6823F07C527B683E
:1017A8001B6A1B0662491343CB605FE07B68DB69F9
:1017B800002B42D05E4B1B685D4A43F080031360E8
:1017C800FFF716FB786208E0FFF712FB02467B6A18
:1017D800D31A022B01D9032380E2554B1B6803F46B
:1017E8008073002BF0D0FFF733FB034641F203026E
:1017F800934217D87B681B6A202B08D14C4B5B6837
:1018080023F0F8434A4A43F0804353602EE0484BA4
:101818005B6823F0F8427B681B6A9B0644491343C4
:101828004B6023E0424BDB6823F07C527B681B6AE9
:101838001B063F491343CB6018E03D4B1B683C4AED
:1018480023F080031360FFF7D3FA786208E0FFF70C
:10185800CFFA02467B6AD31A022B01D903233DE251
:10186800334B1B6803F48073002BF0D17B681B6833
:1018780003F00803002B36D07B685B69002B19D076
:101888002B4B5B6F2A4A43F001035367FFF7B0FA0B
:10189800786208E0FFF7ACFA02467B6AD31A022B9B
:1018A80001D903231AE2224B5B6F03F00203002BDA
:1018B800F0D018E01E4B5B6F1D4A23F001035367FD
:1018C800FFF796FA786208E0FFF792FA02467B6A19
:1018D800D31A022B01D9032300E2154B5B6F03F0E7
:1018E8000203002BF0D17B681B6803F02003002B58
:1018F80039D07B689B69002B1CD00D4B1B680C4AA8
:1019080043F480531360FFF773FA786208E0FFF737
:101918006FFA02467B6AD31A022B01D90323DDE151
:10192800034B1B6803F40053002BF0D01BE000BFEF
:10193800004402589B4B1B689A4A23F48053136057
:10194800FFF756FA786208E0FFF752FA02467B6A18
:10195800D31A022B01D90323C0E1924B1B6803F46D
:101968000053002BF0D17B681B6803F00403002BA5
:1019780000F081808C4B1B688B4A43F480731360A2
:10198800FFF736FA786208E0FFF732FA02467B6A18
:10199800D31A642B01D90323A0E1834B1B6803F4FA
:1019A8008073002BF0D07B689B68012B06D17D4BA0
:1019B8001B6F7C4A43F0010313672DE07B689B682B
:1019C800002B0CD1774B1B6F764A23F0010313676A
:1019D800744B1B6F734A23F0040313671CE07B6886
:1019E8009B68052B0CD16F4B1B6F6E4A43F00403A9
:1019F80013676C4B1B6F6B4A43F0010313670BE0D3
:101A0800684B1B6F674A23F001031367654B1B6F15
:101A1800644A23F0040313677B689B68002B15D086
:101A2800FFF7E6F978620AE0FFF7E2F902467B6A17
:101A3800D31A41F28832934201D903234EE1594B1C
:101A48001B6F03F00203002BEED014E0FFF7D0F970
:101A580078620AE0FFF7CCF902467B6AD31A41F2B2
:101A68008832934201D9032338E14E4B1B6F03F0B0
:101A78000203002BEED17B685B6A002B00F02D81FE
:101A8800484B1B6903F03803182B00F0BD807B68B6
:101A98005B6A022B40F09E80424B1B68414A23F050
:101AA80080731360FFF7A4F9786208E0FFF7A0F9E4
:101AB80002467B6AD31A022B01D903230EE1394B64
:101AC8001B6803F00073002BF0D1364B9A6A374B32
:101AD80013407A68916A7A68D26A12010A433149D6
:101AE80013438B627B681B6B013BC3F308027B6863
:101AF8005B6B013B5B029BB21A437B689B6B013BB0
:101B08001B0403F4FE031A437B68DB6B013B1B06D3
:101B180003F0FE43234913430B63224BDB6A214A3C
:101B280023F00103D3621F4B5A6B214B13407A6891
:101B3800926CD2001B4913434B631A4BDB6A23F0A8
:101B48000C027B681B6C17491343CB62154BDB6A8D
:101B580023F002027B685B6C12491343CB62114B82
:101B6800DB6A104A43F48033D3620E4BDB6A0D4ABA
:101B780043F40033D3620B4BDB6A0A4A43F48023F5
:101B8800D362084BDB6A074A43F00103D362054B73
:101B98001B68044A43F080731360FFF729F97862E1
:101BA80011E000BF00440258004802580CFCFFFF37
:101BB8000700FFFFFFF71CF902467B6AD31A022BC6
:101BC80001D903238AE0474B1B6803F00073002BFD
:101BD800F0D082E0434B1B68424A23F080731360C5
:101BE800FFF706F9786208E0FFF702F902467B6A18
:101BF800D31A022B01D9032370E03A4B1B6803F078
:101C08000073002BF0D168E0364B9B6A3B61354B83
:101C18001B6BFB607B685B6A012B31D03B6903F06F
:101C280003027B689B6A9A422AD13B691B0903F02D
:101C38003F027B68DB6A9A4222D1FB68C3F3080241
:101C48007B681B6B013B9A421AD1FB685B0A03F065
:101C58007F027B685B6B013B9A4211D1FB681B0CCE
:101C680003F07F027B689B6B013B9A4208D1FB68BB
:101C78001B0E03F07F027B68DB6B013B9A4201D0AD
:101C880001232BE0174B5B6BDB08C3F30C033B61B1
:101C98007B689B6C3A699A421FD0124BDB6A114AE7
:101CA80023F00103D362FFF7A3F8786200BFFFF7C0
:101CB8009FF802467B6A9342F9D00A4B5A6B0A4B4B
:101CC80013407A68926CD200064913434B63054B64
:101CD800DB6A044A43F00103D36200231846303715
:101CE800BD4680BD004402580700FFFF80B586B09E
:101CF80000AF786039607B68002B01D101239CE13B
:101D08008A4B1B6803F00F033A689A4210D9874B35
:101D18001B6823F00F0285493B6813430B60834B14
:101D28001B6803F00F033A689A4201D0012384E14B
:101D38007B681B6803F00403002B10D07B681A69CA
:101D48007B4B9B6903F070039A4208D9784B9B69D7
:101D580023F070027B681B69754913438B617B68AC
:101D68001B6803F00803002B10D07B685A69704B7E
:101D7800DB6903F070039A4208D96D4BDB6923F0E5
:101D880070027B685B696A491343CB617B681B6897
:101D980003F01003002B10D07B689A69644BDB6951
:101DA80003F4E0639A4208D9614BDB6923F4E062EB
:101DB8007B689B695E491343CB617B681B6803F0B2
:101DC8002003002B10D07B68DA69594B1B6A03F09B
:101DD80070039A4208D9564B1B6A23F070027B683D
:101DE800DB69534913430B627B681B6803F00203EA
:101DF800002B10D07B68DA684D4B9B6903F00F030A
:101E08009A4208D94A4B9B6923F00F027B68DB682A
:101E1800474913438B617B681B6803F00103002B60
:101E280055D0434B9B6923F470627B689B6840499B
:101E380013438B617B685B68022B07D13C4B1B68A3
:101E480003F40033002B21D10123F6E07B685B68A3
:101E5800032B07D1364B1B6803F00073002B15D1F9
:101E68000123EAE07B685B68012B07D1304B1B68D4
:101E780003F48073002B09D10123DEE02C4B1B688F
:101E880003F00403002B01D10123D6E0284B1B6982
:101E980023F007027B685B68254913430B61FEF753
:101EA800A7FF78610AE0FEF7A3FF02467B69D31A11
:101EB80041F28832934201D90323BEE01C4B1B69CF
:101EC80003F038027B685B68DB009A42EBD17B68E1
:101ED8001B6803F00203002B10D07B68DA68144BF0
:101EE8009B6903F00F039A4208D2114B9B6923F0B8
:101EF8000F027B68DB680E4913438B610B4B1B6831
:101F080003F00F033A689A4214D2084B1B6823F077
:101F18000F0206493B6813430B60044B1B6803F030
:101F28000F033A689A4205D0012386E00020005248
:101F3800004402587B681B6803F00403002B10D090
:101F48007B681A693F4B9B6903F070039A4208D279
:101F58003C4B9B6923F070027B681B69394913432A
:101F68008B617B681B6803F00803002B10D07B682B
:101F78005A69344BDB6903F070039A4208D2314B3B
:101F8800DB6923F070027B685B692E491343CB61E0
:101F98007B681B6803F01003002B10D07B689A69DC
:101FA800284BDB6903F4E0639A4208D2254BDB69CE
:101FB80023F4E0627B689B6922491343CB617B6809
:101FC8001B6803F02003002B10D07B68DA691D4BD7
:101FD8001B6A03F070039A4208D21A4B1B6A23F05B
:101FE80070027B68DB69174913430B6200F034F811
:101FF8000246144B9B691B0A03F00F031249CB5C82
:1020080003F01F0322FA03F33B610E4B9B6903F0B5
:102018000F030D4AD35C03F01F033A6922FA03F356
:102028000A4A13600A4A3B6913600A4B1B68184640
:10203800FEF794FE0346FB73FB7B18461837BD4634
:1020480080BD00BF00440258B442000814000024B8
:10205800100000241800002480B489B000AFB34BEE
:102068001B6903F03803182B00F2558101A252F8BE
:1020780023F000BFE12000081F2300081F230008E9
:102088001F2300081F2300081F2300081F23000820
:102098001F230008072100081F2300081F2300082A
:1020A8001F2300081F2300081F2300081F23000800
:1020B8001F2300080D2100081F2300081F23000804
:1020C8001F2300081F2300081F2300081F230008E0
:1020D8001F23000813210008944B1B6803F02003FA
:1020E800002B09D0914B1B68DB0803F00303904ACF
:1020F80022FA03F3BB6111E18D4BBB610EE18D4BFD
:10210800BB610BE18C4BBB6108E1884B9B6A03F018
:1021180003037B61854B9B6A1B0903F03F033B610B
:10212800824BDB6A03F00103FB60804B5B6BDB08CF
:10213800C3F30C03FA6802FB03F307EE903AF8EED8
:10214800677AC7ED027A3B69002B00F0E1807B6972
:10215800022B00F083807B69022B00F2A1807B694F
:10216800002B03D07B69012B56D099E06F4B1B687D
:1021780003F02003002B2DD06C4B1B68DB0803F009
:1021880003036B4A22FA03F37B607B6807EE903AFD
:10219800F8EE676A3B6907EE903AF8EE677A86EEE2
:1021A800A77A624B1B6BC3F3080307EE903AF8EE6D
:1021B800676A97ED026ADFED615AC6EE257A76EE18
:1021C800A77AF7EE006A77EEA67A67EE277AC7ED68
:1021D800077A87E03B6907EE903AF8EE677ADFED19
:1021E800586A86EEA77A514B1B6BC3F3080307EEB8
:1021F800903AF8EE676A97ED026ADFED505AC6EE3C
:10220800257A76EEA77AF7EE006A77EEA67A67EE79
:10221800277AC7ED077A65E03B6907EE903AF8EE52
:10222800677ADFED486A86EEA77A404B1B6BC3F3EB
:10223800080307EE903AF8EE676A97ED026ADFED59
:102248003F5AC6EE257A76EEA77AF7EE006A77EE61
:10225800A67A67EE277AC7ED077A43E03B6907EE6F
:10226800903AF8EE677ADFED386A86EEA77A2F4B58
:102278001B6BC3F3080307EE903AF8EE676A97ED15
:10228800026ADFED2E5AC6EE257A76EEA77AF7EEC9
:10229800006A77EEA67A67EE277AC7ED077A21E01B
:1022A8003B6907EE903AF8EE677ADFED266A86EE2C
:1022B800A77A1E4B1B6BC3F3080307EE903AF8EEA0
:1022C800676A97ED026ADFED1D5AC6EE257A76EE4B
:1022D800A77AF7EE006A77EEA67A67EE277AC7ED57
:1022E800077A00BF114B1B6B5B0A03F07F030133B6
:1022F8003B603B6807EE903AB8EE677AD7ED076A1D
:10230800C6EE877AFCEEE77A17EE903ABB6105E0F5
:102318000023BB6102E0074BBB6100BFBB691846E5
:102328002437BD465DF8047B704700BF004402585F
:102338000090D00300093D0040787D010000004670
:102348000024744C0024744A20BCBE4B2DE9B04FC5
:10235800CAB000AFC7F81401002387F8273100235B
:1023680087F82631D7F81431D3E9002302F0006446
:10237800002554EA050349D0D7F814319B6EB3F50C
:10238800401F2FD0B3F5401F28D8B3F5001F1AD02F
:10239800B3F5001F22D8002B03D0B3F5801F07D058
:1023A8001CE0B84BDB6AB74A43F40033D3621AE047
:1023B800D7F8143108330221184601F0D1F9034641
:1023C80087F827310FE0D7F814312833022118464F
:1023D80001F078FA034687F8273104E0012387F8EB
:1023E800273100E000BF97F82731002B0AD1A54B11
:1023F8001B6D23F44011D7F814319B6EA14A0B438F
:10240800136503E097F8273187F82631D7F8143198
:10241800D3E9002302F480784FF0000958EA090351
:1024280047D0D7F814319B6D042B2AD801A252F853
:1024380023F000BF512400085F2400087524000819
:1024480093240008932400088E4BDB6A8D4A43F4DA
:102458000033D3621AE0D7F8143108330021184644
:1024680001F07EF9034687F827310FE0D7F81431D9
:1024780028330021184601F025FA034687F827314A
:1024880004E0012387F8273100E000BF97F82731DF
:10249800002B0AD17B4B1B6D23F00701D7F81431B1
:1024A8009B6D784A0B43136503E097F8273187F84B
:1024B8002631D7F81431D3E9002302F4007A4FF01B
:1024C800000B5AEA0B034CD0D7F81431DB6DB3F587
:1024D800807F30D0B3F5807F29D8C02B2DD0C02B7A
:1024E80025D8802B18D0802B21D8002B02D0402B48
:1024F80007D01CE0634BDB6A624A43F40033D362C3
:102508001CE0D7F8143108330021184601F028F9E7
:10251800034687F8273111E0D7F814312833002112
:10252800184601F0CFF9034687F8273106E0012362
:1025380087F8273102E000BF00E000BF97F8273195
:10254800002B0AD14F4B1B6D23F4E071D7F81431DF
:10255800DB6D4C4A0B43136503E097F8273187F886
:102568002631D7F81431D3E9002302F48063C7F881
:1025780008310023C7F80C31D7E942120B46134340
:1025880053D0D7F81431D3F8A830B3F5000F35D0AD
:10259800B3F5000F2ED8B3F5C00F31D0B3F5C00F87
:1025A80028D8B3F5800F1AD0B3F5800F22D8002BA6
:1025B80003D0B3F5001F07D01CE0324BDB6A314A69
:1025C80043F40033D3621CE0D7F8143108330021F8
:1025D800184601F0C5F8034687F8273111E0D7F807
:1025E800143128330021184601F06CF9034687F8A6
:1025F800273106E0012387F8273102E000BF00E019
:1026080000BF97F82731002B0BD11E4B9B6D23F48D
:102618006001D7F81431D3F8A8301A4A0B439365F0
:1026280003E097F8273187F82631D7F81431D3E932
:10263800002302F40063C7F800310023C7F804310F
:10264800D7E940120B46134356D0D7F81431D3F8C4
:10265800AC30B3F1806F38D0B3F1806F31D8B3F1BB
:10266800407F34D0B3F1407F2BD8B3F1007F1DD029
:10267800B3F1007F25D8002B06D0B3F1807F0AD0B4
:102688001FE000BF00440258A24BDB6AA14A43F492
:102698000033D3621CE0D7F8143108330021184600
:1026A80001F05EF8034687F8273111E0D7F81431B6
:1026B80028330021184601F005F9034687F8273129
:1026C80006E0012387F8273102E000BF00E000BFE1
:1026D80097F82731002B0BD18E4B9B6D23F0E061CF
:1026E800D7F81431D3F8AC308A4A0B43936503E02A
:1026F80097F8273187F82631D7F81431D3E9002322
:1027080002F00073C7F8F8300023C7F8FC30D7E9A7
:102718003E120B4613433AD0D7F81431DB6C302BFA
:102728001FD0302B19D8202B0CD0202B15D8002BDC
:1027380019D0102B11D1774BDB6A764A43F400335A
:10274800D36211E0D7F8143108330221184601F09A
:1027580007F8034687F8273106E0012387F8273171
:1027680002E000BF00E000BF97F82731002B0AD134
:10277800684BDB6C23F03001D7F81431DB6C654A09
:102788000B43D36403E097F8273187F82631D7F84D
:102798001431D3E9002302F48053C7F8F030002342
:1027A800C7F8F430D7E93C120B46134351D0D7F899
:1027B80014311B6EB3F5804F35D0B3F5804F2ED84A
:1027C800B3F5405F31D0B3F5405F28D8B3F5005F6B
:1027D8001AD0B3F5005F22D8002B03D0B3F5805F81
:1027E80007D01CE04B4BDB6A4A4A43F40033D36200
:1027F8001CE0D7F8143108330021184600F0B0FF68
:10280800034687F8273111E0D7F81431283300211F
:10281800184601F057F8034687F8273106E00123E8
:1028280087F8273102E000BF00E000BF97F82731A2
:10283800002B0AD1374B1B6D23F4E041D7F8143134
:102848001B6E344A0B43136503E097F8273187F86A
:102858002631D7F81431D3E9002302F40053C7F81E
:10286800E8300023C7F8EC30D7E93A120B46134397
:1028780056D0D7F814315B6EB3F5A02F33D0B3F52B
:10288800A02F2CD8B3F5802F2FD0B3F5802F26D8C2
:10289800B3F5403F2BD0B3F5403F20D8B3F5003F08
:1028A80012D0B3F5003F1AD8002B22D0B3F5803FE1
:1028B80015D1D7F8143108330121184600F050FF1C
:1028C800034687F8273115E0D7F81431283301215A
:1028D800184600F0F7FF034687F827310AE001237E
:1028E80087F8273106E000BF04E000BF02E000BF20
:1028F80000E000BF97F82731002B0DD1054B1B6D69
:1029080023F4E021D7F814315B6E024A0B431365B8
:1029180006E000BF0044025897F8273187F82631AF
:10292800D7F81431D3E9002302F48043C7F8E03024
:102938000023C7F8E430D7E938120B46134355D0C3
:10294800D7F81431D3F8B030B3F1A04F33D0B3F186
:10295800A04F2CD8B3F1804F2FD0B3F1804F26D899
:10296800B3F1405F2BD0B3F1405F20D8B3F1005FE3
:1029780012D0B3F1005F1AD8002B22D0B3F1805FD8
:1029880015D1D7F8143108330121184600F0E8FEB4
:10299800034687F8273115E0D7F814312833012189
:1029A800184600F08FFF034687F827310AE0012315
:1029B80087F8273106E000BF04E000BF02E000BF4F
:1029C80000E000BF97F82731002B0BD1A34B9B6D7C
:1029D80023F0E041D7F81431D3F8B0309F4A0B43C5
:1029E800936503E097F8273187F82631D7F8143133
:1029F800D3E9002302F40043C7F8D8300023C7F80E
:102A0800DC30D7E936120B46134337D0D7F81431E8
:102A18001B6FB3F1005F0ED0B3F1005F16D8002B27
:102A280018D0B3F1805F11D18C4BDB6A8B4A43F429
:102A38000033D3620FE0D7F8143108330121184668
:102A480000F08EFE034687F8273104E0012387F85B
:102A5800273100E000BF97F82731002B0AD17F4BC0
:102A68001B6D23F04051D7F814311B6F7B4A0B4381
:102A7800136503E097F8273187F82631D7F8143122
:102A8800D3E9002302F08073C7F8D0300023C7F8D9
:102A9800D430D7E934120B46134339D0D7F8143160
:102AA8009B6C032B1CD801A252F823F0F12A0008D2
:102AB800C52A0008D32A0008F12A0008674BDB6AF8
:102AC800664A43F40033D3620FE0D7F81431083371
:102AD8000221184600F044FE034687F8273104E037
:102AE800012387F8273100E000BF97F82731002B32
:102AF8000AD15A4BDB6C23F00301D7F814319B6CD5
:102B0800564A0B43D36403E097F8273187F82631F8
:102B1800D7F81431D3E9002302F48003C7F8C8308A
:102B28000023C7F8CC30D7E932120B46134300F024
:102B38009F804B4B1B684A4A43F480731360FEF72F
:102B480057F9C7F820010BE0FEF752F90246D7F80B
:102B58002031D31A642B03D9032387F8273105E0E2
:102B68003F4B1B6803F48073002BEDD097F8273197
:102B7800002B79D1394B1A6FD7F81431D3F8B43008
:102B8800534003F44073002B15D0344B1B6F23F4D0
:102B98004073C7F81C31314B1B6F304A43F4803304
:102BA80013672E4B1B6F2D4A23F4803313672B4A70
:102BB800D7F81C311367D7F81431D3F8B430B3F50C
:102BC800807F18D1FEF714F9C7F820010DE0FEF751
:102BD8000FF90246D7F82031D21A41F288339A42C7
:102BE80003D9032387F8273105E01C4B1B6F03F03B
:102BF8000203002BEBD097F82731002B29D1D7F807
:102C08001431D3F8B43003F44073B3F5407F0ED1D8
:102C1800124B1B6923F47C51D7F81431D3F8B43024
:102C28001A09104B13400D4A0B43136105E00B4B77
:102C38001B690A4A23F47C531361084B196FD7F8B0
:102C48001431D3F8B430C3F30B03044A0B431367AE
:102C58000EE097F8273187F8263109E0004402583A
:102C680000480258CFFFFF0097F8273187F8263130
:102C7800D7F81431D3E9002302F00103C7F8C030B4
:102C88000023C7F8C430D7E930120B46134300F0CD
:102C98008980D7F81431DB6F282B6BD801A252F842
:102CA80023F000BF852D00087D2D00087D2D00082C
:102CB8007D2D00087D2D00087D2D00087D2D000844
:102CC8007D2D0008512D00087D2D00087D2D000860
:102CD8007D2D00087D2D00087D2D00087D2D000824
:102CE8007D2D0008672D00087D2D00087D2D00082A
:102CF8007D2D00087D2D00087D2D00087D2D000804
:102D08007D2D0008852D00087D2D00087D2D0008EB
:102D18007D2D00087D2D00087D2D00087D2D0008E3
:102D28007D2D0008852D00087D2D00087D2D0008CB
:102D38007D2D00087D2D00087D2D00087D2D0008C3
:102D48007D2D0008852D0008D7F81431083301219E
:102D5800184600F005FD034687F827310FE0D7F83D
:102D6800143128330121184600F0ACFD034687F8DA
:102D7800273104E0012387F8273100E000BF97F8E6
:102D88002731002B0AD1BF4B5B6D23F03801D7F8F0
:102D98001431DB6FBB4A0B43536503E097F82731C7
:102DA80087F82631D7F81431D3E9002302F002035B
:102DB800C7F8B8300023C7F8BC30D7E92E120B4645
:102DC800134341D0D7F814319B6F052B24D801A2A7
:102DD80052F823F0292E0008F52D00080B2E0008C4
:102DE800292E0008292E0008292E0008D7F81431AA
:102DF80008330121184600F0B3FC034687F8273151
:102E08000FE0D7F8143128330121184600F05AFD95
:102E1800034687F8273104E0012387F8273100E0CB
:102E280000BF97F82731002B0AD1964B5B6D23F032
:102E38000701D7F814319B6F924A0B43536503E09F
:102E480097F8273187F82631D7F81431D3E90023CA
:102E580002F00403C7F8B0300023C7F8B430D7E94C
:102E68002C120B46134344D0D7F81431D3F89430BE
:102E7800052B25D801A252F823F000BFD12E000857
:102E88009D2E0008B32E0008D12E0008D12E000870
:102E9800D12E0008D7F8143108330121184600F064
:102EA8005FFC034687F827310FE0D7F81431283341
:102EB8000121184600F006FD034687F8273104E093
:102EC800012387F8273100E000BF97F82731002B4E
:102ED8000BD16C4B9B6D23F00701D7F81431D3F855
:102EE8009430684A0B43936503E097F8273187F8D5
:102EF8002631D7F81431D3E9002302F02003C7F8AC
:102F0800A8300023C7F8AC30D7E92A120B46134380
:102F180055D0D7F81431D3F89030B3F1A04F33D04F
:102F2800B3F1A04F2CD8B3F1804F2FD0B3F1804F1D
:102F380026D8B3F1405F2BD0B3F1405F20D8B3F16E
:102F4800005F12D0B3F1005F1AD8002B22D0B3F182
:102F5800805F15D1D7F8143108330021184600F0E6
:102F6800FFFB034687F8273115E0D7F814312833DB
:102F78000221184600F0A6FC034687F827310AE02C
:102F8800012387F8273106E000BF04E000BF02E014
:102F980000BF00E000BF97F82731002B0BD1394B59
:102FA8005B6D23F0E041D7F81431D3F89030354AFF
:102FB8000B43536503E097F8273187F82631D7F894
:102FC8001431D3E9002302F04003C7F8A0300023EE
:102FD800C7F8A430D7E928120B46134358D0D7F8BE
:102FE8001431D3F89C30B3F5A05F33D0B3F5A05FAC
:102FF8002CD8B3F5805F2FD0B3F5805F26D8B3F512
:10300800406F2BD0B3F5406F20D8B3F5006F12D0C6
:10301800B3F5006F1AD8002B22D0B3F5806F15D105
:10302800D7F8143108330021184600F099FB0346FD
:1030380087F8273115E0D7F81431283302211846CC
:1030480000F040FC034687F827310AE0012387F89F
:10305800273106E000BF04E000BF02E000BF00E047
:1030680000BF97F82731002B0ED1064B9B6D23F438
:10307800E051D7F81431D3F89C30024A0B439365DA
:1030880006E000BF0044025897F8273187F8263138
:10309800D7F81431D3E9002302F08003C7F8983039
:1030A8000023C7F89C30D7E926120B46134355D0A6
:1030B800D7F81431D3F8A030B3F5204F33D0B3F597
:1030C800204F2CD8B3F5004F2FD0B3F5004F26D89A
:1030D800B3F5C04F2BD0B3F5C04F20D8B3F5804F10
:1030E80012D0B3F5804F1AD8002B22D0B3F5005F69
:1030F80015D1D7F8143108330021184600F030FBF9
:10310800034687F8273115E0D7F814312833022110
:10311800184600F0D7FB034687F827310AE0012359
:1031280087F8273106E000BF04E000BF02E000BFD7
:1031380000E000BF97F82731002B0BD1A14B9B6D06
:1031480023F46041D7F81431D3F8A0309D4A0B43DB
:10315800936503E097F8273187F82631D7F81431BB
:10316800D3E9002302F00803C7F890300023C7F81A
:103178009430D7E924120B4613431ED0D7F81431E4
:10318800D3F88430B3F5805F0CD1D7F814312833E5
:103198000221184600F096FB0346002B02D00123BB
:1031A80087F82631874B5B6D23F44051D7F81431EB
:1031B800D3F88430834A0B435365D7F81431D3E9E5
:1031C800002302F01003C7F888300023C7F88C30BA
:1031D800D7E922120B4613431ED0D7F81431D3F87F
:1031E8009830B3F5807F0CD1D7F8143128330221F9
:1031F800184600F067FB0346002B02D0012387F82E
:103208002631704B9B6D23F44071D7F81431D3F8F5
:1032180098306C4A0B439365D7F81431D3E90023EF
:1032280002F40023C7F880300023C7F88430D7E9B8
:1032380020120B4613433ED0D7F81431D3F8A430EC
:10324800B3F5003F22D0B3F5003F1BD8002B03D0C5
:10325800B3F5803F0BD015E0D7F8143108330021BF
:10326800184600F07DFA034687F827310FE0D7F8B3
:10327800143128330221184600F024FB034687F84E
:10328800273104E0012387F8273100E000BF97F8D1
:103298002731002B0BD14B4B9B6D23F44031D7F8D2
:1032A8001431D3F8A430474A0B43936503E097F8E9
:1032B800273187F82631D7F81431D3E9002302F4EF
:1032C8008023BB670023FB67D7E91E120B46134315
:1032D8003BD0D7F81431D3F88830B3F5401F1FD04E
:1032E800B3F5401F18D8B3F5801F03D0B3F5001FFE
:1032F80007D011E0334BDB6A324A43F40033D36220
:103308000FE0D7F8143128330121184600F0DAFA13
:10331800034687F8273104E0012387F8273100E0C6
:1033280000BF97F82731002B0BD1264B5B6D23F498
:103338004011D7F81431D3F88830224A0B4353652B
:1033480003E097F8273187F82631D7F81431D3E905
:10335800002302F480333B6700237B67D7E91C1204
:103368000B46134334D0D7F814311B6D002B03D010
:10337800B3F5803F07D011E0124BDB6A114A43F4E2
:103388000033D3620EE0D7F814310833022118460F
:1033980000F0E6F9034687F8273103E0012387F8B0
:1033A800273100BF97F82731002B0DD1054BDB6C77
:1033B80023F48031D7F814311B6D024A0B43D364D0
:1033C80006E000BF0044025897F8273187F82631F5
:1033D800D7F81431D3E9002302F00053BB66002369
:1033E800FB66D7E91A120B4613430CD0D7F81431F1
:1033F80028330221184600F065FA0346002B02D054
:10340800012387F82631D7F81431D3E9002302F4D1
:1034180000333B6600237B66D7E918120B4613433B
:1034280038D0D7F81431D3F88030B3F5407F18D0AE
:10343800B3F5407F11D8B3F5007F14D0B3F5007F02
:103448000BD8002B11D0B3F5807F06D1C34BDB6AB4
:10345800C24A43F40033D36208E0012387F82731D6
:1034680004E000BF02E000BF00E000BF97F827318A
:10347800002B0BD1B94B5B6D23F44071D7F8143195
:10348800D3F88030B54A0B43536503E097F82731EA
:1034980087F82631D7F81431D3E9002302F48013D2
:1034A800BB650023FB65D7E916120B46134309D009
:1034B800AA4B1B6D23F00041D7F814315B6FA74A64
:1034C8000B431365D7F81431D3E9002302F0805376
:1034D8003B6500237B65D7E914120B4613430AD0DA
:1034E8009E4B1B6923F48041D7F81431D3F8B830C8
:1034F8009A4A0B431361D7F81431D3E9002302F435
:103508000013BB640023FB64D7E912120B46134374
:1035180009D0924B1B6D23F08071D7F81431DB6E04
:103528008E4A0B431365D7F81431D3E9002302F010
:1035380080433B6400237B64D7E910120B46134396
:103548000ED0864B1B69854A23F400431361834BD5
:103558001969D7F81431D3F8BC30804A0B4313618A
:10356800D7F81431D3E9002302F00043BB630023EA
:10357800FB63D7E90E120B46134309D0774BDB6C7C
:1035880023F04051D7F814315B6D744A0B43D36470
:10359800D7F81431D3E9002302F400033B63002376
:1035A8007B63D7E90C120B4613430AD06B4B5B6D58
:1035B80023F44001D7F81431D3F88C30674A0B4311
:1035C8005365D7F81431D3E900230021B96203F019
:1035D8000103FB62D7E90A120B46134311D0D7F84F
:1035E800143108330021184600F0BAF8034687F86A
:1035F800273197F82731002B03D097F8273187F820
:103608002631D7F81431D3E900230021396203F0B9
:1036180002037B62D7E908120B46134311D0D7F88F
:10362800143108330121184600F09AF8034687F848
:10363800273197F82731002B03D097F8273187F8DF
:103648002631D7F81431D3E900230021B96103F0FA
:103658000403FB61D7E906120B46134311D0D7F8D0
:10366800143108330221184600F07AF8034687F827
:10367800273197F82731002B03D097F8273187F89F
:103688002631D7F81431D3E900230021396103F03A
:1036980008037B61D7E904120B46134311D0D7F80E
:1036A800143128330021184600F00CF9034687F836
:1036B800273197F82731002B03D097F8273187F85F
:1036C8002631D7F81431D3E900230021B96003F07B
:1036D8001003FB60D7E902120B46134311D0D7F849
:1036E800143128330121184600F0ECF8034687F816
:1036F800273197F82731002B03D097F8273187F81F
:103708002631D7F81431D3E900230021396003F0BA
:1037180020037B60D7E900120B46134311D0D7F87A
:10372800143128330221184600F0CCF8034687F8F4
:10373800273197F82731002B03D097F8273187F8DE
:10374800263197F82631002B01D1002300E0012310
:10375800184607F59477BD46BDE8B08F0044025877
:1037680080B584B000AF786039600023FB73534B99
:103778009B6A03F00303032B01D1012399E04F4B0C
:103788001B684E4A23F080631360FDF731FBB86075
:1037980008E0FDF72DFB0246BB68D31A022B01D9BE
:1037A800032386E0454B1B6803F00063002BF0D130
:1037B800424B9B6A23F47C327B681B681B033F499E
:1037C80013438B627B685B68013BC3F308027B6829
:1037D8009B68013B5B029BB21A437B68DB68013B39
:1037E8001B0403F4FE031A437B681B69013B1B0699
:1037F80003F0FE43314913438B63304BDB6A23F0FC
:10380800C0027B685B692D491343CB622B4BDB6A93
:1038180023F020027B689B6928491343CB62274B1E
:10382800DB6A264A23F01003D362244BDA6B244B5D
:1038380013407A68D269D20020491343CB631F4BE7
:10384800DB6A1E4A43F01003D3623B68002B06D1A3
:103858001A4BDB6A194A43F40023D3620FE03B6832
:10386800012B06D1154BDB6A144A43F48013D3624B
:1038780005E0124BDB6A114A43F40013D3620F4B85
:103888001B680E4A43F080631360FDF7B1FAB86015
:1038980008E0FDF7ADFA0246BB68D31A022B01D93E
:1038A800032306E0054B1B6803F00063002BF0D0F0
:1038B800FB7B18461037BD4680BD00BF0044025848
:1038C8000700FFFF80B584B000AF7860396000233F
:1038D800FB73534B9B6A03F00303032B01D10123B2
:1038E80099E04F4B1B684E4A23F080531360FDF755
:1038F8007FFAB86008E0FDF77BFA0246BB68D31A86
:10390800022B01D9032386E0454B1B6803F00053C3
:10391800002BF0D1424B9B6A23F07C727B681B68BA
:103928001B053F4913438B627B685B68013BC3F30C
:1039380008027B689B68013B5B029BB21A437B6869
:10394800DB68013B1B0403F4FE031A437B681B6915
:10395800013B1B0603F0FE43314913430B64304B14
:10396800DB6A23F440627B685B692D491343CB62B1
:103978002B4BDB6A23F400727B689B69284913434D
:10398800CB62274BDB6A264A23F48073D362244B2D
:103998005A6C244B13407A68D269D20020491343E9
:1039A8004B641F4BDB6A1E4A43F48073D3623B6847
:1039B800002B06D11A4BDB6A194A43F48003D36201
:1039C8000FE03B68012B06D1154BDB6A144A43F420
:1039D8000003D36205E0124BDB6A114A43F080739F
:1039E800D3620F4B1B680E4A43F080531360FDF7F8
:1039F800FFF9B86008E0FDF7FBF90246BB68D31A87
:103A0800022B01D9032306E0054B1B6803F0005382
:103A1800002BF0D0FB7B18461037BD4680BD00BF99
:103A2800004402580700FFFF80B584B000AF7860FB
:103A38007B68002B01D101230FE17B6800229A6289
:103A48007B681B68874A93420FD07B681B68864A4D
:103A580093420AD07B681B68844A934205D07B68EE
:103A6800DB680F2B01D90123F7E0786800F0CAFB67
:103A7800F8607B681B687B4A93420CD07B681B68A4
:103A8800794A934207D07B681B68784A934202D0F0
:103A9800FB68082B11D87B681B68724A934209D0CF
:103AA8007B681B68704A934204D07B681B686F4A26
:103AB800934204D1FB68102B01D90123CDE07B6828
:103AC80093F88130DBB2002B06D17B68002283F8A3
:103AD80080207868FCF7C2FF7B68022283F8812087
:103AE8007B681B681A687B681B6822F001021A60F1
:103AF8007B681B689B6803F4F813BB607B689B6951
:103B0800B3F1806F19D17B685B68B3F5800F03D17F
:103B18007B689B6B002B08D07B685B68002B0CD103
:103B28007B689B6BB3F1805F07D17B681B681A6861
:103B38007B681B6842F480521A607B685B6803F4F8
:103B48008003002B0FD07B68DB68062B0BD97B68C2
:103B58001B681B6823F480717B681A6D7B681B687F
:103B68000A431A6007E07B681B681A687B681B6851
:103B780022F480721A607B68DA697B689B6A1A4350
:103B8800BB681A437B68DB6B42EA03017B68DA682F
:103B98007B681B680A439A607B685A6B7B685B6A20
:103BA8001A437B689B6B1A437B689B691A437B6843
:103BB8001B691A437B685B691A437B681B6A1A4353
:103BC8007B685B681A437B68DB6C1A437B689B687D
:103BD8001A437B689B6C42EA03017B689A6D7B6899
:103BE8001B680A43DA607B685B68002B13D17B682B
:103BF8001B689B6823F4C0527B681B6842F4006210
:103C08009A607B681B689B6823F4C0627B681B68AA
:103C180042F480629A607B681B681A6D7B681B6837
:103C280022F001021A657B685B6803F48003002BAD
:103C38000AD07B681B68DB6823F000417B685A6DFB
:103C48007B681B680A43DA607B680022C3F884201B
:103C58007B68012283F88120002318461037BD466F
:103C680080BD00BF0030014000380040003C0040EB
:103C780080B58AB002AFF860B9603B601346FB803C
:103C8800FB681B682033FB610023FB76FB6893F815
:103C98008030012B01D10223E1E1FB68012283F886
:103CA8008020FDF7A5F87861FB6893F88130DBB2D6
:103CB800012B07D00223FB76FB68002283F88020C3
:103CC800FB7ECCE1BB68002B02D0FB88002B07D120
:103CD8000123FB76FB68002283F88020FB7EBEE18F
:103CE800FB68032283F88120FB680022C3F8842044
:103CF800FB68BA68DA65FB68FA88A3F86020FB6895
:103D0800FA88A3F86220FB6800225A66FB68002242
:103D1800A3F86820FB680022A3F86A20FB68002249
:103D28005A67FB6800221A67FB689B68B3F5C02FC7
:103D380008D1FB681B681A68FB681B6842F40062BC
:103D48001A6009E0FB681B68DB6823F4C022FB6883
:103D58001B6842F40032DA60FB681B685A68964BAD
:103D68001340F988FA6812680B435360FB681B68B4
:103D78001A68FB681B6842F001021A60FB685B68FE
:103D8800B3F5800F07D1FB681B681A68FB681B68CE
:103D980042F400721A60FB68DB680F2B47D93FE0DA
:103DA800FB681B685B6903F00203022B14D1FB68F4
:103DB800DA6DFB681B6812681A62FB68DB6D1A1DF6
:103DC800FB68DA65FB68B3F862309BB2013B9AB2D4
:103DD800FB68A3F8622023E0FDF70AF802467B6936
:103DE800D31A3A689A4203D83B68B3F1FF3F02D12D
:103DF8003B68002B14D1F86800F036F9FB68002204
:103E080083F88020FB68D3F8843043F48072FB6821
:103E1800C3F88420FB68012283F8812003231EE174
:103E2800FB68B3F862309BB2002BB9D1F1E0FB68B4
:103E3800DB68072B40F2E6805DE0FB681B685B6986
:103E480003F00203022B32D1FB68B3F862309BB255
:103E5800012B18D9FB68DB6B002B14D0FB68DA6DDB
:103E6800FB681B6812681A62FB68DB6D1A1DFB6829
:103E7800DA65FB68B3F862309BB2023B9AB2FB6822
:103E8800A3F8622037E0FB68DB6D1A88FB691A80AB
:103E9800FB68DB6D9A1CFB68DA65FB68B3F8623077
:103EA8009BB2013B9AB2FB68A3F8622023E0FCF7BF
:103EB8009FFF02467B69D31A3A689A4203D83B6847
:103EC800B3F1FF3F02D13B68002B14D1F86800F032
:103ED800CBF8FB68002283F88020FB68D3F8843095
:103EE80043F48072FB68C3F88420FB68012283F8DE
:103EF80081200323B3E0FB68B3F862309BB2002B48
:103F08009BD186E0FB681B685B6903F00203022B08
:103F180054D1FB68B3F862309BB2032B18D9FB6805
:103F2800DB6B402B14D9FB68DA6DFB681B681268E1
:103F38001A62FB68DB6D1A1DFB68DA65FB68B3F86B
:103F480062309BB2043B9AB2FB68A3F8622059E046
:103F5800FB68B3F862309BB2012B17D9FB68DB6BA7
:103F6800002B13D0FB68DB6D1A88FB691A80FB688D
:103F7800DB6D9A1CFB68DA65FB68B3F862309BB2AC
:103F8800023B9AB2FB68A3F862203BE0FB68DA6D5B
:103F9800FB681B68203312781A70FB68DB6D5A1CAB
:103FA800FB68DA65FB68B3F862309BB2013B9AB2F2
:103FB800FB68A3F8622025E00000FFFFFCF718FF6C
:103FC80002467B69D31A3A689A4203D83B68B3F130
:103FD800FF3F02D13B68002B14D1F86800F044F889
:103FE800FB68002283F88020FB68D3F8843043F410
:103FF8008072FB68C3F88420FB68012283F8812063
:1040080003232CE0FB68B3F862309BB2002B7FF4EB
:1040180079AF7B6900933B6800220821F86800F0BB
:10402800C3F80346002B07D0FB68D3F8843043F06D
:104038002002FB68C3F88420F86800F015F8FB68D4
:10404800002283F88020FB68012283F88120FB6826
:10405800D3F88430002B01D0012300E0FB7E184602
:104068002037BD4680BD00BF80B485B000AF786002
:104078007B681B685B69FB607B681B689A697B6867
:104088001B6842F008029A617B681B689A697B6822
:104098001B6842F010029A617B681B681A687B688B
:1040A8001B6822F001021A607B681B6819697B682B
:1040B8001A683C4B0B4013617B681B689A687B68E5
:1040C8001B6822F440429A607B6893F88130DBB227
:1040D800042B14D0FB6803F02003002B0FD07B685F
:1040E800D3F8843043F080027B68C3F884207B686F
:1040F8001B689A697B681B6842F020029A617B689A
:1041080093F88130DBB2032B14D0FB6803F0400333
:10411800002B0FD07B68D3F8843043F004027B680F
:10412800C3F884207B681B689A697B681B6842F027
:1041380040029A61FB6803F40073002B0FD07B6880
:10414800D3F8843043F001027B68C3F884207B688D
:104158001B689A697B681B6842F400729A61FB6865
:1041680003F48073002B0FD07B68D3F8843043F0BE
:1041780008027B68C3F884207B681B689A697B689F
:104188001B6842F480729A617B680022A3F862205F
:104198007B680022A3F86A2000BF1437BD465DF88B
:1041A800047B704790FCFFFF80B584B000AFF860D7
:1041B800B9603B601346FB7110E0FCF719FE02463C
:1041C800BB69D31A3A689A4203D83B68B3F1FF3FF8
:1041D80002D13B68002B01D103230FE0FB681B6869
:1041E8005A69BB681340BA689A420CBF012300237E
:1041F800DBB21A46FB799A42DFD000231846103703
:10420800BD4680BD80B485B000AF78607B68DB6B4D
:104218005B090133FB607B68DB680133BB60BB680B
:104228000733DB08BB60BB68FA6802FB03F3184678
:104238001437BD465DF8047B7047000070B50D4D1E
:104248000D4C641BA4100026A64209D10B4D0C4C42
:1042580000F020F8641BA4100026A64205D170BD0A
:1042680055F8043B98470136EEE755F8043B984764
:104278000136F2E7C4420008C4420008C4420008FC
:10428800C842000802440346934200D1704703F82D
:10429800011BF9E7F8B500BFF8BC08BC9E4670479B
:0C42A800F8B500BFF8BC08BC9E4670478B
:1042B40000000000010203040102030406070809C8
:0442C400BD0200082F
:0442C800990200084F
:1042CC007E306D79335B5F707F7B014F370E6700FB
:1042DC000090D0030090D0031000000001000000FB
:0400000508000C994A
:00000001FF
