:020000040800F2
:1000000000000824411C0008711900087719000835
:100010007D190008831900088919000800000000F4
:100020000000000000000000000000008F19000820
:100030009D19000800000000AB190008B91900085C
:10004000911C0008911C0008911C0008911C0008DC
:10005000911C0008911C0008911C0008911C0008CC
:10006000911C0008911C0008911C0008911C0008BC
:10007000911C0008911C0008911C0008911C0008AC
:10008000911C0008911C0008911C0008911C00089C
:10009000911C0008911C0008911C0008911C00088C
:1000A000911C0008911C0008911C0008911C00087C
:1000B000911C0008911C0008911C0008911C00086C
:1000C000911C0008911C0008911C0008911C00085C
:1000D000911C0008911C0008911C0008911C00084C
:1000E000911C0008911C000800000000911C0008F1
:1000F000911C0008911C0008911C0008911C00082C
:10010000911C0008911C0008911C0008911C00081B
:10011000911C0008911C0008911C0008911C00080B
:10012000911C0008911C0008911C0008911C0008FB
:10013000911C0008911C0008911C0008911C0008EB
:1001400000000000000000000000000000000000AF
:10015000911C0008911C0008911C0008911C0008CB
:10016000911C0008911C0008911C0008911C0008BB
:10017000911C0008911C0008911C0008911C0008AB
:10018000911C0008911C0008911C0008911C00089B
:10019000911C0008911C0008911C0008911C00088B
:1001A000911C0008911C0008911C0008911C00087B
:1001B000911C0008911C0008911C0008911C00086B
:1001C000911C0008911C0008911C0008911C00085B
:1001D000911C0008C5190008911C0008911C00081A
:1001E000911C0008911C0008911C0008911C00083B
:1001F000911C0008911C0008911C0008911C00082B
:10020000911C0008911C0008911C0008911C00081A
:10021000911C0008911C0008911C0008911C00080A
:10022000911C0008911C0008911C000800000000AF
:10023000911C0008911C000800000000911C00089F
:10024000911C0008911C0008911C0008911C0008DA
:10025000911C0008911C0008911C0008911C0008CA
:10026000911C0008911C0008911C0008911C0008BA
:10027000911C0008911C0008911C0008000000005F
:10028000911C0008911C0008911C0008000000004F
:0802900000000000911C0008B1
:1002A00010B5054C237833B9044B13B10448AFF3B0
:1002B00000800123237010BD7400002400000000A2
:1002C0009493000808B5034B1BB103490348AFF3EF
:1002D000008008BD0000000078000024949300080E
:1002E000034613F8012B002AFBD1181A0138704776
:1002F00001F0FF01102A2BDB10F0070F08D010F8D7
:10030000013B013A8B422DD010F0070F42B3F6D1DA
:10031000F0B441EA012141EA014122F007047FF0F3
:1003200000070023F0E80256083C85EA010586EA4A
:10033000010685FA47F5A3FA87F586FA47F6A5FA86
:1003400087F68EB9EED1F0BC01F0FF0102F0070292
:1003500032B110F8013B013A83EA010313B1F8D13D
:100360000020704701387047002D06BF354603381E
:10037000073815F0010F07D1013015F4807F02BF57
:10038000013015F4C03F0130F0BC0138704700BFA8
:1003900080B489B000AF78600023BB61194B5B6803
:1003A0007B61194B1A687B6802FB03F33B61154BB9
:1003B0009B68FB61134B9B68FB60FA68FB699A4280
:1003C000F8D0FA68FB699A4206D2FA69FB68D31A38
:1003D000BA691344BB6107E07A69FB68D21AFB690A
:1003E0001344BA691344BB61FB68FB61BA693B699A
:1003F0009A4200D2DEE700BF00BF2437BD465DF859
:10040000047B704710E000E09000002480B584B0C9
:1004100000AF0346FB800023FB6006E04FF47A70D8
:10042000FFF7B6FFFB680133FB60FB88FA689A426E
:10043000F4D300BF00BF1037BD4680BD80B588B083
:1004400000AF07F10C0300221A605A609A60DA606C
:100450001A61324BD3F8E030304A43F08003C2F8DF
:10046000E0302E4BD3F8E03003F08003BB60BB6874
:100470002A4BD3F8E030294A43F00103C2F8E030B8
:10048000264BD3F8E03003F001037B607B68234BFD
:10049000D3F8E030214A43F01003C2F8E0301F4B9C
:1004A000D3F8E03003F010033B603B68002250219A
:1004B0001B4801F039FF00224FF43051194801F078
:1004C00033FF2823FB6000233B6100237B6107F19E
:1004D0000C031946124801F05FFD5023FB60012315
:1004E0003B6100237B610023BB6107F10C031946CC
:1004F0000B4801F051FD4FF43053FB6001233B6189
:1005000001237B610323BB6107F10C0319460548F6
:1005100001F042FD00BF2037BD4680BD00440258B7
:10052000000002580010025890B585B000AF044694
:10053000084611461A462346FB800346BB800B46FD
:100540007B8013463B80624B1B887B8197F8203071
:10055000203B87F8203097F824305B08DBB29AB252
:10056000FB8813449BB2013B9CB297F824309AB2AB
:10057000BB8813449BB2013B9BB2B988F8882246E2
:1005800000F02CFE97F82830002B43D10023BB73DA
:100590003AE097F824300C2B0CD197F82020B97B47
:1005A0004C4813465B0013449B0003440B441B78E8
:1005B000FB7308E097F82020BB7B474912010A44EF
:1005C00013441B78FB7300237B7313E0FB7B03F066
:1005D0000103002B04D07B88184600F00BFC03E0DD
:1005E0003B88184600F006FCFB7B5B08FB737B7BBB
:1005F00001337B7397F824305B08DBB27A7B9A4235
:10060000E4D3BB7B0133BB73BA7B97F824309A42A7
:10061000BFD349E00023BB7341E097F824300C2B93
:100620000CD197F82020B97B2A4813465B0013446D
:100630009B0003440B441B78FB7308E097F82020D1
:10064000BB7B254912010A4413441B78FB7300232A
:100650007B731AE01E4A7B881380FB7B03F0010347
:10066000002B0CD07B7B9AB2FB88134498B2BB7BE7
:100670009AB2BB8813449BB2194600F0E5FBFB7BA2
:100680005B08FB737B7B01337B7397F824305B083B
:10069000DBB27A7B9A42DDD3BB7B0133BB73BA7B7F
:1006A00097F824309A42B8D3094A7B8913800B4BC0
:1006B0001B88013B9AB2094B5B88013B9BB200212E
:1006C000002000F08BFD00BF1437BD4690BD00BF79
:1006D000A2000024D093000844980008940000244D
:1006E00090B585B000AF0446084611461A46234629
:1006F000FB800346BB800B467B8013463B80FB8818
:100700007B8140233B810023BB8183E0BA894C4934
:1007100013461B0113445B000B441A783B6A1B7899
:100720009A4274D1BA89464913461B0113445B00AF
:100730000B4401331A783B6A01331B789A4266D125
:10074000FB880F339AB2BB880F339BB2B988F88805
:1007500000F044FD0023FB7356E00023BB734DE023
:1007600097F82430002B1CD1BA89F97B3448134602
:100770001B0113445B0003440B4402331B781946EE
:10078000BB7B802242FA03F30B40002B04D07B8812
:10079000184600F02FFB2EE03B88184600F02AFB9D
:1007A00029E0284A7B881380BA89F97B24481346BC
:1007B0001B0113445B0003440B4402331B781946AE
:1007C000BB7B802242FA03F30B40002B05D0BA8892
:1007D000FB881146184600F037FBFB880133FB808D
:1007E000FA887B89D31A102B05D17B89FB80BB88C3
:1007F0000133BB8005E0BB7B0133BB73BB7B072BA5
:10080000AED9FB7B0133FB73FB7B1F2BA5D9BB89C7
:100810000133BB81BA893B899A42FFF477AF0A4B17
:100820001B88013B9AB2084B5B88013B9BB20021BD
:10083000002000F0D3FC00BF1437BD4690BD00BFC0
:10084000349E0008A20000249400002490B585B0D6
:1008500000AF0446084611461A462346FB8003466D
:10086000BB800B467B8013463B80FB887B81072344
:100870003B810023BB817FE0BB894A4A4A2101FBBF
:1008800003F313441A783B6A1B789A4271D1BB89EF
:10089000444A4A2101FB03F3134401331A783B6AAB
:1008A00001331B789A4264D1FB8817339AB2BB8814
:1008B00017339BB2B988F88800F090FC0023FB73D3
:1008C00054E00023BB734BE097F82430002B1BD17E
:1008D000BA89FB7B33494A2000FB02F20A441344E5
:1008E00002331B781946BB7B802242FA03F30B408C
:1008F000002B04D07B88184600F07CFA2DE03B8862
:10090000184600F077FA28E0274A7B881380BA89D6
:10091000FB7B24494A2000FB02F20A4413440233C1
:100920001B781946BB7B802242FA03F30B40002B55
:1009300005D0BA88FB881146184600F085FAFB8876
:100940000133FB80FA887B89D31A182B05D17B8968
:10095000FB80BB880133BB8005E0BB7B0133BB73ED
:10096000BB7B072BB0D9FB7B0133FB73FB7B472B96
:10097000A7D9BB890133BB81BA893B899A42FFF46D
:100980007BAF0A4B1B88013B9AB2084B5B88013B4B
:100990009BB20021002000F021FC00BF1437BD46AF
:1009A00090BD00BFB4A60008A2000024940000245B
:1009B00090B585B000AF0446084611461A46234656
:1009C000FB800346BB800B467B8013463B80FB8845
:1009D0007B8104233B810023BB8184E0BA894C499D
:1009E00013469B0113445B000B441A783B6A1B7847
:1009F0009A4275D1BA89464913469B0113445B005C
:100A00000B4401331A783B6A01331B789A4267D151
:100A1000FB881F339AB2BB881F339BB2B988F88812
:100A200000F0DCFB0023FB7356E00023BB734DE0BA
:100A300097F82430002B1CD1BA89F97B344813462F
:100A40009B0113445B0003440B4402331B7819469B
:100A5000BB7B802242FA03F30B40002B04D07B883F
:100A6000184600F0C7F92EE03B88184600F0C2F99E
:100A700029E0284A7B881380BA89F97B24481346E9
:100A80009B0113445B0003440B4402331B7819465B
:100A9000BB7B802242FA03F30B40002B05D0BA88BF
:100AA000FB881146184600F0CFF9FB880133FB8024
:100AB000FA887B89D31A202B05D17B89FB80BB88E0
:100AC0000133BB8005E0BB7B0133BB73BB7B072BD2
:100AD000AED9FB7B0133FB7397F90F30002BA4DAFF
:100AE000BB890133BB81BA893B899A42FFF476AF57
:100AF000094B1B88013B9AB2074B5B88013B9BB2B9
:100B00000021002000F06AFB00BF1437BD4690BDF5
:100B1000BCA80008A200002494000024B0B588B04E
:100B200004AF0446084611461A462346FB80034696
:100B3000BB800B467B8013463B80FB88BB81002338
:100B4000FB73AFE0FB7B002B61D1FA885B4B1B880A
:100B5000194697F824305B08DBB2CB1A9A4200F3AF
:100B6000A780BA88554B5B88194697F82430CB1A72
:100B70009A4200F39D803B6A1B78802B02D90123A7
:100B8000FB738FE03B6A1B780D2B0BD197F8243059
:100B90009AB2BB881344BB80BB89FB803B6A01339C
:100BA0003B6230E097F82430102B13D93B6A1B7856
:100BB0003D887C88B988F88897F82820029210220E
:100BC000019200932B462246FFF7AEFCFB880833C8
:100BD000FB8018E03B6A1B783D887C88B988F888E0
:100BE00097F82820029297F82420019200932B4630
:100BF0002246FFF799FC97F824305B08DBB29AB2E3
:100C0000FB881344FB803B6A01333B624AE0FA886D
:100C10002A4B1B88194697F82430CB1A9A4249DC94
:100C2000BA88264B5B88194697F82430CB1A9A422B
:100C300040DC0023FB7397F82430202B0CD13C8838
:100C40007A88B988F88897F8283001933B6A00932E
:100C50002346FFF7ADFE1CE097F82430182B0CD18B
:100C60003C887A88B988F88897F8283001933B6ADD
:100C700000932346FFF7EAFD0BE03C887A88B988A9
:100C8000F88897F8283001933B6A00932346FFF7D2
:100C900027FD3B6A02333B6297F824309AB2FB8807
:100CA0001344FB803B6A1B78002B7FF44BAF02E0C0
:100CB00000BF00E000BF1037BD46B0BD9400002467
:100CC00090B589B004AF0446084611461A4623463B
:100CD000FB800346BB800B467B8013463B80386A13
:100CE000FFF7FEFA0346FB810E4B1B881A46FB8971
:100CF000DB00D31A002B00DA01335B10BB813C8888
:100D00007A88B988B88997F82830029397F8243000
:100D100001933B6A00932346FFF700FF00BF14379F
:100D2000BD4690BD9400002480B582B000AF03465C
:100D3000FB7100224FF400610B4801F0F5FA00222C
:100D40004FF48061084801F0EFFAFB79184600F093
:100D5000BDFD01224FF40061034801F0E5FA00BF38
:100D60000837BD4680BD00BF0010025880B582B074
:100D700000AF0346FB7100224FF400610B4801F005
:100D8000D3FA01224FF48061084801F0CDFAFB79D3
:100D9000184600F09BFD01224FF40061034801F06A
:100DA000C3FA00BF0837BD4680BD00BF001002581F
:100DB00080B582B000AF03460A46FB711346BB8084
:100DC000FB791846FFF7B0FFBB88DBB21846FFF788
:100DD000CDFF00BF0837BD4680BD000080B500AF25
:100DE000034B1B89DBB21846FFF79EFF00BF80BD97
:100DF0009400002480B582B000AF0346FB8000223F
:100E00004FF400610F4801F08FFA01224FF4806126
:100E10000C4801F089FAFB881B0A9BB2DBB218462A
:100E200000F054FDFB88DBB2184600F04FFD0122B4
:100E30004FF40061034801F077FA00BF0837BD4660
:100E400080BD00BF0010025880B582B000AF0346DD
:100E50000A46FB801346BB80BA88FB8811461846B9
:100E600000F010FA044B1B881846FFF7C3FF00BFC1
:100E70000837BD4680BD00BFA200002480B584B005
:100E800000AF0346FB80234B1B88013B9AB2214BEA
:100E90005B88013B9BB20021002000F09FF90022FB
:100EA0004FF400611C4801F03FFA01224FF48061C9
:100EB000194801F039FA0023FB601AE00023BB60F7
:100EC0000EE0FB881B0A9BB2DBB2184600F0FEFC6A
:100ED000FB88DBB2184600F0F9FCBB680133BB604D
:100EE0000C4B1B881A46BB689342EAD3FB6801335C
:100EF000FB60084B5B881A46FB689342DED30122F5
:100F00004FF40061044801F00FFA00BF1037BD46EE
:100F100080BD00BF940000240010025880B586B048
:100F200000AF1D4BD3F8E0301B4A43F01003C2F86A
:100F3000E030194BD3F8E03003F010033B603B681E
:100F40004FF430537B600123BB600123FB6003231C
:100F50003B613B1D1946114801F01EF801224FF478
:100F600030510F4801F0E0F94FF4A0437B600123BA
:100F7000BB600123FB6003233B613B1D194608480E
:100F800001F00AF801224FF4A041054801F0CCF924
:100F900000BF1837BD4680BD00440258000C0258FF
:100FA0000010025880B500AF00224FF400510848ED
:100FB00001F0BAF96420FFF729FA01224FF4005139
:100FC000034801F0B1F93220FFF720FA00BF80BDDD
:100FD0000010025880B500AFFFF7A0FFFFF7E2FF57
:100FE000F020FFF7A1FEC320FFF7C0FEF020FFF7BF
:100FF0009BFE9620FFF7BAFE3620FFF795FE68208D
:10100000FFF7B4FE3A20FFF78FFE0520FFF7AEFE94
:10101000B020FFF789FE8020FFF7A8FEB620FFF77B
:1010200083FE0020FFF7A2FE0220FFF79FFEB520FF
:10103000FFF77AFE0220FFF799FE0320FFF796FEE6
:101040000020FFF793FE0420FFF790FEB120FFF78A
:101050006BFE8020FFF78AFE1020FFF787FEB4208A
:10106000FFF762FE0020FFF781FEB720FFF75CFE6E
:10107000C620FFF77BFEC520FFF756FE2420FFF7B2
:1010800075FEE420FFF750FE3120FFF76FFEE820E9
:10109000FFF74AFE4020FFF769FE8A20FFF766FE51
:1010A0000020FFF763FE0020FFF760FE2920FFF716
:1010B0005DFE1920FFF75AFEA520FFF757FE3320EB
:1010C000FFF754FEC220FFF72FFEA720FFF72CFEEC
:1010D000E020FFF729FEF020FFF748FE0920FFF788
:1010E00045FE1320FFF742FE1220FFF73FFE1220BD
:1010F000FFF73CFE2B20FFF739FE3C20FFF736FEC2
:101100004420FFF733FE4B20FFF730FE1B20FFF794
:101110002DFE1820FFF72AFE1720FFF727FE1D20BF
:10112000FFF724FE2120FFF721FEE120FFF7FCFD61
:10113000F020FFF71BFE0920FFF718FE1320FFF732
:1011400015FE0C20FFF712FE0D20FFF70FFE2720E3
:10115000FFF70CFE3B20FFF709FE4420FFF706FED9
:101160004D20FFF703FE0B20FFF700FE1720FFF7CF
:10117000FDFD1720FFF7FAFD1D20FFF7F7FD2120E9
:10118000FFF7F4FD3620FFF7CFFDEC20FFF7EEFD73
:10119000F020FFF7C9FDC320FFF7E8FDF020FFF7BF
:1011A000C3FD6920FFF7E2FD1320FFF7BDFD11200D
:1011B000FFF7BAFD2920FFF7B7FD002000F074F813
:1011C00001224021044801F0AFF84FF6FF70FFF70D
:1011D00055FE00BF80BD00BF000C025890B583B023
:1011E00000AF0446084611461A462346FB800346D4
:1011F000BB800B467B8013463B80214B5B89DBB277
:101200001846FFF791FDFB881B0A9BB2DBB218461C
:10121000FFF7ACFDFB88DBB21846FFF7A7FD7B8824
:101220001B0A9BB2DBB21846FFF7A0FD7B88DBB23E
:101230001846FFF79BFD124B9B89DBB21846FFF760
:1012400073FDBB881B0A9BB2DBB21846FFF78EFD0D
:10125000BB88DBB21846FFF789FD3B881B0A9BB2AF
:10126000DBB21846FFF782FD3B88DBB21846FFF77A
:101270007DFDFFF7B3FD00BF0C37BD4690BD00BF3D
:101280009400002480B582B000AF03460A46FB807C
:101290001346BB80BB88FA88B988F888FFF79EFFA1
:1012A00000BF0837BD4680BD80B582B000AF0346A1
:1012B000FB71284B2A225A81264B2B229A81254BDF
:1012C0002C221A81FB79032B3ED801A252F823F07D
:1012D000E1120008FB120008151300082F13000884
:1012E0001C4B4FF4A0721A801A4B4FF4F0725A80C4
:1012F00048213620FFF75CFD27E0164B4FF4F072D3
:101300001A80144B4FF4A0725A8028213620FFF720
:101310004FFD1AE00F4B4FF4A0721A800D4B4FF4A3
:10132000F0725A8088213620FFF742FD0DE0094B0C
:101330004FF4F0721A80074B4FF4A0725A80E821E4
:101340003620FFF735FD00E000BF00BF0837BD467F
:1013500080BD00BF9400002480B483B000AF03467A
:10136000FB80094B1B6800225A6200BF064B1B68BA
:101370005A6AFB889A42F9D300BF00BF0C37BD46BA
:101380005DF8047B704700BF4C01002480B500AFBE
:1013900000221021024800F0C7FF00BF80BD00BF3F
:1013A0000000025880B483B000AF0346FB71FB79A4
:1013B0003F2B03D80A4B02221A700AE097F9073034
:1013C000002B03DB064B03221A7002E0044B0122C0
:1013D0001A7000BF0C37BD465DF8047B704700BF34
:1013E000BC00002480B500AF8020FFF7DBFFFFF7D3
:1013F000CDFF00BF80BD000080B586B000AF0023E8
:101400007B610023FB7321E001221021294800F0B9
:101410008BFF0120FFF7A0FF0821264800F06CFF9A
:101420000346FB707B695B007B61FB78002B02D07D
:101430007B6901337B61002210211E4800F074FF9C
:101440000120FFF789FFFB7B0133FB73FB7B172B2D
:10145000DAD90023BB6012E001221021154800F008
:1014600063FF0120FFF778FF00221021114800F0F0
:101470005BFF0120FFF770FFBB680133BB600E4BC1
:101480001B781A46BB689342E6DB7B6903F40003D2
:10149000002B03D04FF07F433B6101E000233B6111
:1014A0003A697B6913447B607B6818461837BD46F0
:1014B00080BD00BF00000258BC00002480B500AF12
:1014C0000821054800F018FF0346002B0CBF01233C
:1014D0000023DBB2184680BD0000025880B588B0FA
:1014E00004AF504B5B6903F40033002B1BD1BFF3F7
:1014F0004F8F00BFBFF36F8F00BF4A4B0022C3F86E
:101500005022BFF34F8F00BFBFF36F8F00BF454B1B
:101510005B69444A43F400335361BFF34F8F00BF0C
:10152000BFF36F8F00E000BF3E4B5B6903F4803375
:10153000002B38D13B4B0022C3F88420BFF34F8FE0
:1015400000BF384BD3F88030FB60FB685B0BC3F304
:101550000E03BB60FB68DB08C3F309037B60BB6859
:101560005A0143F6E07313407A6892072D491343FA
:10157000C1F860327B685A1E7A60002BEFD1BB68DD
:101580005A1EBA60002BE5D1BFF34F8F00BF254B29
:101590005B69244A43F480335361BFF34F8F00BF2C
:1015A000BFF36F8F00E000BF00F074FB00F046F85F
:1015B000FEF744FF00F0CEFA00F0C6F8FFF712FF86
:1015C000FFF708FDFFF77AFF0346002B14D0FFF763
:1015D00013FF0346144A1360134B1B68134A82FB24
:1015E00003129211DB17D31A03F207131A4610499C
:1015F000104807F061FA03E00F490E4807F05CFA63
:1016000001230293102301930A4B009300234FF40C
:10161000784232210020FFF753FB0A20FEF7B8FE84
:10162000D0E700BF00ED00E0B8000024D34D621009
:10163000AC930008A4000024C093000880B59CB0BF
:1016400000AF07F124034C220021184607F02CFAC2
:101650003B1D20220021184607F026FA022001F047
:10166000FFFE00233B60334BDB6A324A23F0010369
:10167000D362304BDB6A03F001033B602E4B9B6966
:1016800023F440432C4A43F4004393612A4B9B6963
:1016900003F440433B603B6800BF274B9B6903F466
:1016A0000053B3F5005FF8D103237B624FF480331E
:1016B000BB6201233B6340237B630223BB640223A1
:1016C000FB6405233B6560237B650223BB65022326
:1016D000FB6502233B6608237B660023BB66002371
:1016E000FB6607F12403184601F0F4FE0346002BC5
:1016F00001D000F023F83F237B600323BB6000236D
:10170000FB6008233B6100237B610023BB61002356
:10171000FB6100233B623B1D0221184602F034FBB3
:101720000346002B01D000F009F800BF7037BD461A
:1017300080BD00BF000400580048025880B400AFCC
:1017400072B600BFFEE7000080B500AF284B294A03
:101750001A60274B4FF480025A60254B4FF4C02289
:101760009A60234B0722DA60214B00221A61204B3A
:1017700000225A611E4B4FF080629A611C4B4FF061
:101780000052DA611A4B00221A62194B00225A6287
:10179000174B00229A62164B0022DA62144B4FF06C
:1017A00080425A63124B00229A63114B0022DA6383
:1017B0000F4B00221A640E4B00225A640C4B00227D
:1017C0009A640B4B0022DA64094B00221A65084B1D
:1017D00000225A65064B00229A65054804F0A2F9DA
:1017E0000346002B01D0FFF7A9FF00BF80BD00BF5B
:1017F000C00000240034014080B5BAB000AF78606A
:1018000007F1D40300221A605A609A60DA601A6104
:1018100007F11003C0220021184607F045F97B6844
:101820001B68274A934246D14FF400524FF0000301
:10183000C7E904234FF440337B6707F110031846D0
:1018400002F002FE0346002B01D0FFF777FF1D4B8D
:10185000D3F8F0301B4A43F40053C2F8F030194B70
:10186000D3F8F03003F40053FB60FB68154BD3F85A
:10187000E030144A43F01003C2F8E030114BD3F8C3
:10188000E03003F01003BB60BB684FF4A043C7F81F
:10189000D4300223C7F8D8300123C7F8DC30032343
:1018A000C7F8E0300523C7F8E43007F1D403194640
:1018B000054800F071FB00BFE837BD4680BD00BFA2
:1018C00000340140004402580010025880B584B032
:1018D00000AF0346FB710023FB730823FB7322E078
:1018E00097F90730002B06DA01224FF480411248A5
:1018F00000F01AFD05E000224FF480410E4800F090
:1019000013FD00224FF480510B4800F00DFD012221
:101910004FF48051084800F007FDFB795B00FB7134
:10192000FB7B013BFB73FB7B002BD9D100BF00BFCE
:101930001037BD4680BD00BF0010025880B483B090
:1019400000AF0A4BD3F8F430084A43F00203C2F860
:10195000F430064BD3F8F43003F002037B607B686D
:1019600000BF0C37BD465DF8047B70470044025849
:1019700080B400AFFEE780B400AFFEE780B400AFF4
:10198000FEE780B400AFFEE780B400AFFEE780B4AE
:1019900000AF00BFBD465DF8047B704780B400AF68
:1019A00000BFBD465DF8047B704780B400AF00BF48
:1019B000BD465DF8047B704780B500AF00F0DCF9F0
:1019C00000BF80BD80B500AF024800F0C6FC00BF7C
:1019D00080BD00BFA001002480B586B000AF786054
:1019E000144A154BD31A7B617B693B61134B1B680F
:1019F000002B02D1114B124A1A60104B1A687B68F7
:101A000013443A699A4207D207F024F803460C229D
:101A10001A604FF0FF3309E0084B1B68FB60074B6F
:101A20001A687B681344054A1360FB681846183728
:101A3000BD4680BD000008240004000048010024C9
:101A4000C006002480B400AF374BD3F88830364A44
:101A500043F47003C2F88830344B1B6803F00F0363
:101A6000062B07D8314B1B6823F00F032F4A43F096
:101A7000070313602E4B1B682D4A43F001031360CC
:101A80002B4B00221A612A4B1A682949294B134013
:101A90000B60264B1B6803F00803002B07D0234B79
:101AA0001B6823F00F03214A43F007031360204B08
:101AB00000229A611E4B0022DA611D4B00221A623D
:101AC0001B4B1D4A9A621A4B1C4ADA62184B1C4A7D
:101AD0001A63174B00225A63154B194A9A63144B29
:101AE0000022DA63124B164A1A64114B00225A6420
:101AF0000F4B1B680E4A23F4802313600C4B00220B
:101B00001A66104B1A68104B1340B3F1005F02D2F3
:101B10000E4B01221A600E4B43F2D2021A6000BF34
:101B2000BD465DF8047B704700ED00E000200052E8
:101B3000004402587FEDF6EA000202020000FF01B5
:101B4000800201010010005C0000FFFF08810051CD
:101B50000040005280B588B000AF07F110030022AA
:101B60001A605A609A60DA603B1D00221A605A605F
:101B70009A60204B204A1A601E4B00225A601D4B6F
:101B800000229A601B4B4FF6FF72DA60194B00225D
:101B90001A61184B00225A61164B00229A611548AF
:101BA00004F0FFF80346002B01D0FFF7C7FD4FF408
:101BB00080533B6107F1100319460E4804F048F9C1
:101BC0000346002B01D0FFF7B9FD00237B60002303
:101BD000BB600023FB603B1D1946064804F068FB10
:101BE0000346002B01D0FFF7A9FD00BF2037BD46FB
:101BF00080BD00BF4C0100240000014080B485B0CE
:101C000000AF78607B681B680B4A93420ED10B4B88
:101C1000D3F8F030094A43F00103C2F8F030074B23
:101C2000D3F8F03003F00103FB60FB6800BF14370A
:101C3000BD465DF8047B7047000001400044025837
:101C4000DFF834D0FFF7FEFE0C480D490D4A0023A3
:101C500002E0D458C4500433C4188C42F9D30A4A61
:101C60000A4C002301E013600432A242FBD306F0C9
:101C7000F7FEFFF733FC7047000008240000002443
:101C80007400002410AB000874000024BC0600247B
:101C9000FEE7000080B582B000AF032000F04AF9F3
:101CA00002F028FA0246154B9B691B0A03F00F034A
:101CB0001349CB5C03F01F0322FA03F37B600F4B45
:101CC0009B6903F00F030E4AD35C03F01F037A688D
:101CD00022FA03F30B4A13600B4A7B6813600F2050
:101CE00000F014F80346002B01D0012302E0FFF7B7
:101CF00025FE002318460837BD4680BD0044025823
:101D0000C4AA0008040000240000002480B582B0AA
:101D100000AF7860154B1B78002B01D1012321E027
:101D2000134B1A68114B1B7819464FF47A73B3FBA7
:101D3000F1F3B2FBF3F3184600F021F90346002B50
:101D400001D001230EE07B680F2B0AD800227968AE
:101D50004FF0FF3000F0F9F8064A7B68136000236B
:101D600000E0012318460837BD4680BD0C00002462
:101D7000000000240800002480B400AF064B1B784C
:101D80001A46064B1B681344044A136000BFBD4645
:101D90005DF8047B704700BF0C000024980100240C
:101DA00080B400AF034B1B681846BD465DF8047B4A
:101DB000704700BF9801002480B400AF034B1B683C
:101DC0001B0C1846BD465DF8047B70470010005C94
:101DD00080B485B000AF78607B6803F00703FB60D8
:101DE0000B4BDB68BB60BA684FF6FF031340BB6068
:101DF000FB681A02BB681A43064B1343BB60044AD4
:101E0000BB68D36000BF1437BD465DF8047B7047E4
:101E100000ED00E00000FA0580B400AF044BDB6881
:101E20001B0A03F007031846BD465DF8047B7047A4
:101E300000ED00E080B483B000AF03463960FB8062
:101E4000B7F90630002B0ADB3B68DAB20C49B7F968
:101E500006301201D2B20B4483F800230AE03B683B
:101E6000DAB20849FB8803F00F03043B1201D2B237
:101E70000B441A7600BF0C37BD465DF8047B7047F3
:101E800000E100E000ED00E080B489B000AFF86050
:101E9000B9607A60FB6803F00703FB61FB69C3F17B
:101EA0000703042B28BF0423BB61FB690433062B03
:101EB00002D9FB69033B00E000237B614FF0FF3256
:101EC000BB6902FA03F3DA43BB681A407B699A40A4
:101ED0004FF0FF317B6901FA03F3D9437B680B4074
:101EE000134318462437BD465DF8047B7047000055
:101EF00080B582B000AF78607B68013BB3F1807F32
:101F000001D301230FE00A4A7B68013B53600F2194
:101F10004FF0FF30FFF78EFF054B00229A60044B15
:101F200007221A60002318460837BD4680BD00BF4F
:101F300010E000E080B582B000AF78607868FFF70D
:101F400047FF00BF0837BD4680BD80B586B000AFF3
:101F50000346B9607A60FB81FFF75EFF78617A68BB
:101F6000B9687869FFF790FF0246B7F90E3011465D
:101F70001846FFF75FFF00BF1837BD4680BD80B52C
:101F800082B000AF78607868FFF7B2FF034618466A
:101F90000837BD4680BD000080B489B000AF7860CE
:101FA00039600023FB61894B7B6194E13B681A68CF
:101FB0000121FB6901FA03F313403B613B69002BEC
:101FC00000F086813B685B6803F00303012B05D0BA
:101FD0003B685B6803F00303022B30D17B689B688E
:101FE000BB61FB695B00032202FA03F3DB43BA69BE
:101FF0001340BB613B68DA68FB695B0002FA03F3DC
:10200000BA691343BB617B68BA699A607B685B6895
:10201000BB610122FB6902FA03F3DB43BA69134097
:10202000BB613B685B681B0903F00102FB6902FAB4
:1020300003F3BA691343BB617B68BA695A603B68B2
:102040005B6803F00303032B17D07B68DB68BB617D
:10205000FB695B00032202FA03F3DB43BA69134016
:10206000BB613B689A68FB695B0002FA03F3BA69DB
:102070001343BB617B68BA69DA603B685B6803F055
:102080000303022B23D1FB69DA087B68083253F87B
:102090002230BB61FB6903F007039B000F2202FAA9
:1020A00003F3DB43BA691340BB613B681A69FB6900
:1020B00003F007039B0002FA03F3BA691343BB6101
:1020C000FB69DA087B680832B96943F822107B683B
:1020D0001B68BB61FB695B00032202FA03F3DB436D
:1020E000BA691340BB613B685B6803F00302FB699C
:1020F0005B0002FA03F3BA691343BB617B68BA69F8
:102100001A603B685B6803F44033002B00F0E0800A
:102110002F4BD3F8F4302E4A43F00203C2F8F430C8
:102120002B4BD3F8F43003F00203FB60FB68294A21
:10213000FB699B08023352F82330BB61FB6903F053
:1021400003039B000F2202FA03F3DB43BA69134037
:10215000BB617B68204A934252D07B681F4A9342FE
:1021600031D07B681E4A93422BD07B681D4A934234
:1021700025D07B681C4A93421FD07B681B4A934240
:1021800019D07B681A4A934213D07B68194A93424C
:102190000DD07B68184A934207D07B68174A934258
:1021A00001D109232DE00A232BE0082329E007238E
:1021B00027E0062325E0052323E0042321E0032371
:1021C0001FE002231DE001231BE000BF8000005838
:1021D000004402580004005800000258000402584D
:1021E00000080258000C025800100258001402584F
:1021F00000180258001C02580020025800240258FF
:102200000023FA6902F0030292009340BA69134373
:10221000BB613849FB699B080233BA6941F8232046
:102220004FF0B0431B68BB613B69DB43BA691340A5
:10223000BB613B685B6803F48013002B03D0BA6971
:102240003B691343BB614FF0B042BB6913604FF071
:10225000B0435B68BB613B69DB43BA691340BB6158
:102260003B685B6803F40013002B03D0BA693B6939
:102270001343BB614FF0B042BB6953607B695B683D
:10228000BB613B69DB43BA691340BB613B685B6878
:1022900003F40033002B03D0BA693B691343BB61DD
:1022A0007B69BA695A607B691B68BB613B69DB4328
:1022B000BA691340BB613B685B6803F48033002B51
:1022C00003D0BA693B691343BB617B69BA691A6081
:1022D000FB690133FB613B681A68FB6922FA03F36F
:1022E000002B7FF463AE00BF00BF2437BD465DF80E
:1022F000047B70470004005880B485B000AF78605C
:102300000B467B807B681A697B881340002B02D0C8
:102310000123FB7301E00023FB73FB7B184614379A
:10232000BD465DF8047B704780B483B000AF786031
:102330000B467B8013467B707B78002B03D07A881A
:102340007B689A6103E07B881A047B689A6100BF0E
:102350000C37BD465DF8047B704790B58DB000AF7B
:1023600078607B681B683B623B6AFB617B681B682B
:10237000184604F01CFF0346002B40F0B7847B682E
:102380001B68184604F080FE0346002B00F0AD8465
:10239000FB6903F500639B681B0AC3F30D027B68AE
:1023A000C3F8FC247B681B68184604F06DFE0346E6
:1023B00003F00203022B07D17B681B685A697B6814
:1023C0001B6802F002025A617B681B68184604F021
:1023D0005BFE034603F01003102B61D17B681B6882
:1023E0009A697B681B6822F010029A613B6A1B6A3B
:1023F000BB61BB6903F00F021346DB0013449B0073
:1024000003F51E737A68134404337B61BB695B0C6C
:1024100003F00F03022B24D1BA6947F6F07313407F
:10242000002B35D07B69D968BB691B099BB2C3F30C
:102430000A039BB21A46386A04F0D4FC7B69DA6856
:10244000BB691B09C3F30A031A447B69DA607B6921
:102450005A69BB691B09C3F30A031A447B695A61B1
:1024600016E0BB695B0C03F00F03062B10D17B68F1
:1024700003F2C44308221946386A04F0B3FC7B69AE
:102480005A69BB691B09C3F30A031A447B695A6181
:102490007B681B689A697B681B6842F010029A612E
:1024A0007B681B68184604F0EFFD034603F4002325
:1024B000B3F5002F40F0A78000237B627B681B6888
:1024C000184604F0F4FDB86299E0BB6A03F001031A
:1024D000002B00F08E807B681B687A6AD2B21146AE
:1024E000184604F018FE38613B6903F00103002B25
:1024F0000CD07B6A5A01FB69134403F530631A461A
:1025000001239360796A786800F070FE3B6903F0FC
:102510000803002B0CD07B6A5A01FB69134403F5B6
:1025200030631A4608239360796A786800F046FFA2
:102530003B6903F01003002B08D07B6A5A01FB694A
:10254000134403F530631A46102393603B6903F08C
:102550000203002B30D03B6A5B6903F08003802BC1
:1025600009D1FB6903F500635B68FA6902F5006253
:1025700043F4806353607A6A1346DB0013449B0084
:1025800003F51E737A68134404337B617B69DB783F
:10259000012B08D17B690022DA707B6ADBB2194615
:1025A000786806F0F9F87B6A5A01FB69134403F571
:1025B00030631A46022393603B6903F02003002B2B
:1025C00008D07B6A5A01FB69134403F530631A464D
:1025D000202393603B6903F40053002B09D07B6AEE
:1025E0005A01FB69134403F530631A464FF4005354
:1025F00093607B6A01337B62BB6A5B08BB62BB6A28
:10260000002B7FF462AF7B681B68184604F03CFD2A
:10261000034603F48023B3F5802F40F0DB807B6812
:102620001B68184604F05DFDB86200237B62CDE0B4
:10263000BB6A03F00103002B00F0C2807B681B68BB
:102640007A6AD2B21146184604F083FD38613B69BC
:1026500003F00103002B57D07B6A03F00F03012224
:1026600002FA03F3FB60FB6903F500635A6BFB6836
:10267000DB43F96901F5006113404B637B6A5A0142
:10268000FB69134403F510631A46012393607B68CA
:10269000DB68012B32D179687A6A1346DB00134478
:1026A0009B000B444833196878687A6A1346DB004C
:1026B00013449B00034444331B68194478687A6AC6
:1026C0001346DB0013449B000344483319607B6AC4
:1026D000002B13D179687A6A1346DB0013449B0000
:1026E0000B444C331B68002B08D17B6818687B684F
:1026F00003F2C4431A46012104F08CFD7B6ADBB26D
:102700001946786805F0C4FF3B6903F00803002B05
:1027100008D07B6A5A01FB69134403F510631A461B
:10272000082393603B6903F01003002B08D07B6AF9
:102730005A01FB69134403F510631A461023936092
:102740003B6903F04003002B08D07B6A5A01FB6908
:10275000134403F510631A46402393603B6903F06A
:102760000203002B23D0796A386A03F0D1FE7A6A1B
:102770001346DB0013449B0038337A681344043358
:102780007B617B69DB78012B08D17B690022DA70E1
:102790007B6ADBB21946786806F010F87B6A5A014A
:1027A000FB69134403F510631A46022393603B69E7
:1027B00003F08003002B03D0796A786800F088FC6E
:1027C0007B6A01337B62BB6A5B08BB62BB6A002B1E
:1027D0007FF42EAF7B681B68184604F055FC034657
:1027E00003F00043B3F1004F22D1FB6903F500630E
:1027F0005B68FA6902F5006223F0010353607B68AD
:1028000093F8F434012B08D17B68002283F8F42478
:102810000021786800F018FE02E0786805F0AEFF4D
:102820007B681B685A697B681B6802F000425A612A
:102830007B681B68184604F027FC034603F400631A
:10284000B3F5006F12D1FB6903F500639B6803F0D9
:102850000103012B02D1786805F06AFF7B681B68D1
:102860005A697B681B6802F400625A617B681B68C6
:10287000184604F009FC034603F00063B3F1006F4F
:1028800021D17B681B685A697B681B6802F0006273
:102890005A617B6893F8F434002B11D17B680122D4
:1028A00083F8F4247B681B685B6D9B0803F00F02C0
:1028B0007B68C3F8F8240121786800F0C5FD02E0C8
:1028C000786805F035FF7B681B68184604F0DCFB70
:1028D000034603F48053B3F5805F40F0B780FB6993
:1028E00003F500635B68FA6902F5006223F00103F7
:1028F00053607B681B681021184603F009FE002313
:10290000FB6246E0FB6A5A01FB69134403F510635E
:102910001A464FF67F339360FB6A5A01FB691344F2
:1029200003F510631B68FA6A5101FA690A4402F55B
:10293000106223F400131360FB6A5A01FB6913440D
:1029400003F530631A464FF67F339360FB6A5A01F2
:10295000FB69134403F530631B68FA6A5101FA6995
:102960000A4402F5306223F400131360FB6A5A0133
:10297000FB69134403F530631B68FA6A5101FA6975
:102980000A4402F5306243F000631360FB6A0133CE
:10299000FB627B685B68FA6A9A42B3D3FB6903F512
:1029A0000063DB69FA6902F5006243F00113D36149
:1029B0007B681B6B002B16D0FB6903F50063D3F813
:1029C0008430FA6902F5006243F00B03C2F88430E8
:1029D000FB6903F500635B6CFA6902F5006243F082
:1029E0000B03536415E0FB6903F500635A69FB6947
:1029F00003F50063194642F22B0313434B61FB6955
:102A000003F500631B69FA6902F5006243F00B03EA
:102A10001361FB6903F500631B68FA6902F5006244
:102A200023F4FE6313607B6818687B68DB68D9B2A7
:102A30007B6803F2C4431A4604F0ECFB7B681B6816
:102A40005A697B681B6802F480525A617B681B6874
:102A5000184604F019FB034603F40053B3F5005F76
:102A600024D17B681B68184604F0B0FB7B681B68A8
:102A7000184603F081FD03461A467B681A617B689D
:102A80001C6801F0B1FC01467B681B69DBB21A4689
:102A9000204603F09BFC786805F022FE7B681B68EB
:102AA0005A697B681B6802F400525A617B681B6894
:102AB000184604F0E9FA034603F00803082B0AD18C
:102AC000786805F0FFFD7B681B685A697B681B68A6
:102AD00002F008025A617B681B68184604F0D4FAB9
:102AE000034603F08003802B22D13B6A9B6923F0CD
:102AF00080023B6A9A6101237B6214E079687A6AFA
:102B00001346DB0013449B000B4403F27F231B7826
:102B1000012B05D17B6ADBB21946786800F0A7FA71
:102B20007B6A01337B627B685B687A6A9A42E5D391
:102B30007B681B68184604F0A7FA034603F4801369
:102B4000B3F5801F3BD101237B622BE07B6A5A01E6
:102B5000FB69134403F510631B68BB6179687A6AEB
:102B60001346DB0013449B000B4440331B78012BBE
:102B700015D1BB69002B12DA79687A6A1346DB003B
:102B800013449B000B443F3301221A707B6ADBB273
:102B900063F07F03DBB21946786800F068FA7B6A5D
:102BA00001337B627B685B687A6A9A42CED37B682A
:102BB0001B685A697B681B6802F480125A617B6843
:102BC0001B68184604F060FA034603F40013B3F5DB
:102BD000001F55D101237B6245E07B6A5A01FB69E6
:102BE000134403F530631B68BB6179687A6A134646
:102BF000DB0013449B000B4403F520731B78012B6F
:102C00002ED1BB69002B2BDABB6903F480327B68C1
:102C1000D3F8FC3403F001039A4221D179687A6A2F
:102C20001346DB0013449B000B4403F27F23012275
:102C30001A703B6A9B6943F080023B6A9A613B6A67
:102C40005B6903F08003002B0AD1FB6903F5006385
:102C50005B68FA6902F5006243F40073536007E0B1
:102C60007B6A01337B627B685B687A6A9A42B4D381
:102C70007B681B685A697B681B6802F400125A6102
:102C80007B681B68184604F0FFF9034603F0804395
:102C9000B3F1804F0AD1786805F0A2FD7B681B680C
:102CA0005A697B681B6802F080425A617B681B6826
:102CB000184604F0E9F9034603F00403042B15D188
:102CC0007B681B685B68BB61BB6903F00403002B76
:102CD00002D0786805F092FD7B681B6859687B68B4
:102CE0001B68BA690A435A6000E000BF3437BD462A
:102CF00090BD80B582B000AF78600B46FB707B68FA
:102D000093F8BC34012B01D1022313E07B6801222C
:102D100083F8BC247B68FA7883F838207B681B68CA
:102D2000FA781146184604F089F97B68002283F886
:102D3000BC24002318460837BD4680BD80B584B04A
:102D400000AF7860084611461A460346FB700B46F2
:102D50003B801346BB700023FB7297F90330002BB6
:102D60000FDAFB7803F00F021346DB0013449B00DD
:102D700038337A6813440433FB60FB6801225A70CD
:102D80000FE0FB7803F00F021346DB0013449B00B7
:102D900003F51E737A6813440433FB60FB6800225A
:102DA0005A70FB7803F00F03DAB2FB681A703A88A6
:102DB000FB689A60FB68BA781A71FB685B78002B35
:102DC00004D0FB681B789AB2FB685A83BB78022B4D
:102DD00002D1FB6800225A717B6893F8BC34012B46
:102DE00001D102230EE07B68012283F8BC247B68BA
:102DF0001B68F968184603F0E5FB7B68002283F83E
:102E0000BC24FB7A18461037BD4680BD80B586B01D
:102E100000AFF8607A603B600B46FB72FB7A03F010
:102E20000F021346DB0013449B0003F51E73FA6880
:102E3000134404337B617B697A68DA607B693A68A2
:102E40001A617B6900225A617B6900225A70FB7A01
:102E500003F00F03DAB27B691A70FB68DB68012BA1
:102E600002D17A687B69DA61FB681868FB68DB6805
:102E7000DBB21A46796903F02DFC00231846183797
:102E8000BD4680BD80B586B000AFF8607A603B601B
:102E90000B46FB72FB7A03F00F021346DB00134470
:102EA0009B003833FA68134404337B617B697A688A
:102EB000DA607B693A681A617B6900225A617B6932
:102EC00001225A70FB7A03F00F03DAB27B691A70A1
:102ED000FB68DB68012B02D17A687B69DA61FB68E9
:102EE0001868FB68DB68DBB21A46796903F0F2FB0D
:102EF000002318461837BD4680BD80B584B000AFAA
:102F000078600B46FB70FB7803F00F027B685B6810
:102F10009A4201D9012350E097F90330002B0FDAD0
:102F2000FB7803F00F021346DB0013449B00383399
:102F30007A6813440433FB60FB6801225A700DE089
:102F4000FA781346DB0013449B0003F51E737A687E
:102F500013440433FB60FB6800225A70FB680122B3
:102F60009A70FB7803F00F03DAB2FB681A707B6883
:102F700093F8BC34012B01D102231EE07B680122AF
:102F800083F8BC247B681B68F968184603F082FF4D
:102F9000FB7803F00F03002B0AD17B6818687B686D
:102FA000DB68D9B27B6803F2C4431A4604F032F9F5
:102FB0007B68002283F8BC24002318461037BD46E6
:102FC00080BD80B584B000AF78600B46FB70FB78A5
:102FD00003F00F027B685B689A4201D9012342E04B
:102FE00097F90330002B0FDAFB7803F00F0213463A
:102FF000DB0013449B0038337A6813440433FB60CE
:10300000FB6801225A700FE0FB7803F00F021346B1
:10301000DB0013449B0003F51E737A6813440433EA
:10302000FB60FB6800225A70FB6800229A70FB78F4
:1030300003F00F03DAB2FB681A707B6893F8BC34B4
:10304000012B01D102230EE07B68012283F8BC240E
:103050007B681B68F968184603F08AFF7B680022CA
:1030600083F8BC24002318461037BD4680BD80B5C8
:1030700084B000AF78600B46FB7097F90330002BEB
:103080000CDAFB7803F00F021346DB0013449B00BD
:1030900038337A6813440433FB600CE0FB7803F0A8
:1030A0000F021346DB0013449B0003F51E737A687E
:1030B00013440433FB607B681B68F968184603F00F
:1030C000A9FD0346FB72FB7A18461037BD4680BD4A
:1030D00080B58AB002AF786039607B681B687B611D
:1030E0007B693B613A681346DB0013449B0038332D
:1030F0007A6813440433FB60FB685A69FB681B69F8
:103100009A4201D901236CE0FB681A69FB685B698C
:10311000D31AFB61FB689B68FA699A4202D9FB6883
:103120009B68FB61FB6903339B08BB612BE0FB6879
:103130001A69FB685B69D31AFB61FB689B68FA69D3
:103140009A4202D9FB689B68FB61FB6903339B08C9
:10315000BB61FB68D9683B68DAB2FB6998B27B68EF
:10316000DB68DBB200930346786903F0FDFDFB6882
:10317000DA68FB691A44FB68DA60FB685A69FB6924
:103180001A44FB685A613B685A013B69134403F5D2
:1031900010639B699BB2BA699A4209D8FB685A6965
:1031A000FB681B699A4203D2FB681B69002BBED1E6
:1031B000FB681A69FB685B699A4211D83B6803F0A7
:1031C0000F03012202FA03F3BB603B6903F50063BE
:1031D0005A6BBB68DB43396901F5006113404B63EF
:1031E000002318462037BD4680BD000080B588B05A
:1031F00000AF786039607B681B68FB61FB69BB616D
:10320000FB693C3304331B687B613B685A01BB6933
:10321000134403F530639B683B617B68DB68012BDB
:103220007BD13B6903F00803002B15D07B69614A11
:10323000934240F2B9803B6903F40043002B00F055
:10324000B3803B685A01BB69134403F530631A46E7
:103250004FF400439360A7E03B6903F02003002B89
:1032600009D03B685A01BB69134403F530631A4621
:103270002023936098E03B6903F02803002B40F083
:1032800093807B694B4A93420FD93B6903F4004317
:10329000002B0AD03B685A01BB69134403F5306325
:1032A0001A464FF4004393607EE03A681346DB0011
:1032B00013449B0003F51E737A6813440433FB60C8
:1032C000FB681A6A3B685901BB690B4403F530631C
:1032D0001B69C3F31203D21AFB685A613B68002BC7
:1032E00014D1FB681B69002B09D17B6818687B68C7
:1032F00003F2C4431A46012103F08CFF06E0FB6889
:10330000DA68FB685B691A44FB68DA603B68DBB229
:103310001946786805F0A1F946E07B69264A934290
:1033200024D13B6903F40043002B0AD03B685A01C7
:10333000BB69134403F530631A464FF400439360AE
:1033400032E03B6903F02003002B08D03B685A01B0
:10335000BB69134403F530631A46202393603B682E
:10336000DBB21946786805F078F91DE03B68002B60
:1033700014D179683A681346DB0013449B000B4470
:1033800003F523731B68002B08D17B6818687B68E2
:1033900003F2C4431A46002103F03CFF3B68DBB252
:1033A0001946786805F059F9002318462037BD46BC
:1033B00080BD00BF0A30544F0A31544F80B586B0EB
:1033C00000AF786039607B681B687B617B693B611B
:1033D0007B693C3304331B68FB603B685A013B69E3
:1033E000134403F530639B68BB60FB68154A934246
:1033F0000ED9BB6803F40043002B09D03B685A0187
:103400003B69134403F530631A464FF4004393605D
:10341000786805F010F9FB680A4A93420CD97B687A
:10342000DB68012B08D17B6818687B6803F2C44312
:103430001A46012103F0EEFE002318461837BD4658
:1034400080BD00BF0A30544F80B483B000AF7860B5
:103450000B46FB7000BF0C37BD465DF8047B704720
:1034600080B584B000AF7860194BDB6803F00403CB
:10347000042B0AD0164BDB6803F007037A689A42E4
:1034800001D001231FE000231DE0114BDB6823F076
:1034900007020F497B681343CB60FEF781FCF8609D
:1034A00009E0FEF77DFC0246FB68D31AB3F57A7F8C
:1034B00001D9012307E0064B5B6803F40053B3F521
:1034C000005FEED1002318461037BD4680BD00BF17
:1034D0000048025880B58CB000AF78607B68002B44
:1034E00002D1012300F048BC7B681B6803F0010394
:1034F000002B00F08880994B1B6903F03803FB62B6
:10350000964B9B6ABB62FB6A102B07D0FB6A182B99
:1035100011D1BB6A03F00303022B0CD18F4B1B6844
:1035200003F40033002B6DD07B685B68002B69D1FE
:10353000012300F021BC7B685B68B3F5803F06D1B6
:10354000864B1B68854A43F4803313602EE07B680A
:103550005B68002B0CD1814B1B68804A23F48033BD
:1035600013607E4B1B687D4A23F4802313601DE0AB
:103570007B685B68B3F5A02F0CD1784B1B68774A4A
:1035800043F480231360754B1B68744A43F4803303
:1035900013600BE0714B1B68704A23F48033136097
:1035A0006E4B1B686D4A23F4802313607B685B6855
:1035B000002B13D0FEF7F4FB786208E0FEF7F0FB77
:1035C00002467B6AD31A642B01D90323D4E3634BED
:1035D0001B6803F40033002BF0D014E0FEF7E0FB8F
:1035E000786208E0FEF7DCFB02467B6AD31A642BA4
:1035F00001D90323C0E3594B1B6803F40033002BAC
:10360000F0D100E000BF7B681B6803F00203002BD1
:1036100000F0CA80514B1B6903F038033B624F4BEB
:103620009B6AFB613B6A002B07D03B6A182B56D183
:10363000FB6903F00303002B51D1484B1B6803F0D7
:103640000403002B05D07B68DB68002B01D101232C
:1036500092E3424B1B6823F019027B68DB683F4909
:1036600013430B60FEF79CFB786208E0FEF798FBC3
:1036700002467B6AD31A022B01D903237CE3374B22
:103680001B6803F00403002BF0D0FEF795FB034604
:1036900041F20302934217D87B681B69402B08D183
:1036A0002E4B5B6823F47C332C4A43F40033536085
:1036B0007AE02A4B5B6823F47C327B681B691B032E
:1036C000264913434B606FE0244B5B6823F0FE42B6
:1036D0007B681B691B06214913434B6064E07B68D0
:1036E000DB68002B47D01D4B1B6823F019027B6859
:1036F000DB681A4913430B60FEF752FB786208E05F
:10370000FEF74EFB02467B6AD31A022B01D9032334
:1037100032E3124B1B6803F00403002BF0D0FEF7DA
:103720004BFB034641F20302934219D87B681B69A5
:10373000402B08D1094B5B6823F47C33074A43F4E0
:103740000033536030E0054B5B6823F47C327B68C8
:103750001B691B03014913434B6025E000440258D9
:103760009A4B5B6823F0FE427B681B691B069749F6
:1037700013434B6018E0954B1B68944A23F00103F8
:103780001360FEF70DFB786208E0FEF709FB0246C6
:103790007B6AD31A022B01D90323EDE28B4B1B6802
:1037A00003F00403002BF0D17B681B6803F01003C7
:1037B000002B00F0A980854B1B6903F03803BB6127
:1037C000824B9B6A7B61BB69082B07D0BB69182BB6
:1037D0003AD17B6903F00303012B35D17B4B1B6886
:1037E00003F48073002B05D07B68DB69802B01D04C
:1037F0000123C1E2FEF7E0FA034641F203029342DD
:1038000017D87B681B6A202B08D1704B5B6823F0AC
:10381000F8436E4A43F08043536075E06B4B5B683E
:1038200023F0F8427B681B6A9B06684913434B6090
:103830006AE0664BDB6823F07C527B681B6A1B06E0
:1038400062491343CB605FE07B68DB69002B42D0A9
:103850005E4B1B685D4A43F080031360FEF7A0FADD
:10386000786208E0FEF79CFA02467B6AD31A022BC4
:1038700001D9032380E2554B1B6803F48073002BAE
:10388000F0D0FEF799FA034641F20302934217D8AB
:103890007B681B6A202B08D14C4B5B6823F0F843F4
:1038A0004A4A43F0804353602EE0484B5B6823F064
:1038B000F8427B681B6A9B06444913434B6023E034
:1038C000424BDB6823F07C527B681B6A1B063F4936
:1038D0001343CB6018E03D4B1B683C4A23F0800348
:1038E0001360FEF75DFA786208E0FEF759FA0246C7
:1038F0007B6AD31A022B01D903233DE2334B1B68A9
:1039000003F48073002BF0D17B681B6803F008037D
:10391000002B36D07B685B69002B19D02B4B5B6F7B
:103920002A4A43F001035367FEF73AFA786208E047
:10393000FEF736FA02467B6AD31A022B01D903231B
:103940001AE2224B5B6F03F00203002BF0D018E069
:103950001E4B5B6F1D4A23F001035367FEF720FAED
:10396000786208E0FEF71CFA02467B6AD31A022B43
:1039700001D9032300E2154B5B6F03F00203002B18
:10398000F0D17B681B6803F02003002B39D07B68E3
:103990009B69002B1CD00D4B1B680C4A43F48053D1
:1039A0001360FEF7FDF9786208E0FEF7F9F90246C8
:1039B0007B6AD31A022B01D90323DDE1034B1B6879
:1039C00003F40053002BF0D01BE000BF004402586A
:1039D0009B4B1B689A4A23F480531360FEF7E0F96F
:1039E000786208E0FEF7DCF902467B6AD31A022B04
:1039F00001D90323C0E1924B1B6803F40053002B51
:103A0000F0D17B681B6803F00403002B00F0818079
:103A10008C4B1B688B4A43F480731360FEF7C0F92C
:103A2000786208E0FEF7BCF902467B6AD31A642B81
:103A300001D90323A0E1834B1B6803F48073002B9F
:103A4000F0D07B689B68012B06D17D4B1B6F7C4AB5
:103A500043F0010313672DE07B689B68002B0CD1BA
:103A6000774B1B6F764A23F001031367744B1B6F70
:103A7000734A23F0040313671CE07B689B68052BE3
:103A80000CD16F4B1B6F6E4A43F0040313676C4BF2
:103A90001B6F6B4A43F0010313670BE0684B1B6F0E
:103AA000674A23F001031367654B1B6F644A23F0D9
:103AB000040313677B689B68002B15D0FEF770F931
:103AC00078620AE0FEF76CF902467B6AD31A41F28B
:103AD0008832934201D903234EE1594B1B6F03F007
:103AE0000203002BEED014E0FEF75AF978620AE0E8
:103AF000FEF756F902467B6AD31A41F288329342A6
:103B000001D9032338E14E4B1B6F03F00203002B56
:103B1000EED17B685B6A002B00F02D81484B1B695E
:103B200003F03803182B00F0BD807B685B6A022B22
:103B300040F09E80424B1B68414A23F08073136023
:103B4000FEF72EF9786208E0FEF72AF902467B6A52
:103B5000D31A022B01D903230EE1394B1B6803F062
:103B60000073002BF0D1364B9A6A374B13407A68BA
:103B7000916A7A68D26A12010A43314913438B620F
:103B80007B681B6B013BC3F308027B685B6B013BEB
:103B90005B029BB21A437B689B6B013B1B0403F4E3
:103BA000FE031A437B68DB6B013B1B0603F0FE43FD
:103BB000234913430B63224BDB6A214A23F00103A1
:103BC000D3621F4B5A6B214B13407A68926CD20020
:103BD0001B4913434B631A4BDB6A23F00C027B68CF
:103BE0001B6C17491343CB62154BDB6A23F00202AF
:103BF0007B685B6C12491343CB62114BDB6A104A42
:103C000043F48033D3620E4BDB6A0D4A43F4003336
:103C1000D3620B4BDB6A0A4A43F48023D362084B1E
:103C2000DB6A074A43F00103D362054B1B68044A71
:103C300043F080731360FEF7B3F8786211E000BFC1
:103C400000440258004802580CFCFFFF0700FFFF29
:103C5000FEF7A6F802467B6AD31A022B01D903238A
:103C60008AE0474B1B6803F00073002BF0D082E022
:103C7000434B1B68424A23F080731360FEF790F8B1
:103C8000786208E0FEF78CF802467B6AD31A022BB2
:103C900001D9032370E03A4B1B6803F00073002B3B
:103CA000F0D168E0364B9B6A3B61354B1B6BFB6088
:103CB0007B685B6A012B31D03B6903F003027B68B0
:103CC0009B6A9A422AD13B691B0903F03F027B6839
:103CD000DB6A9A4222D1FB68C3F308027B681B6B44
:103CE000013B9A421AD1FB685B0A03F07F027B68B2
:103CF0005B6B013B9A4211D1FB681B0C03F07F0206
:103D00007B689B6B013B9A4208D1FB681B0E03F05A
:103D10007F027B68DB6B013B9A4201D001232BE0E1
:103D2000174B5B6BDB08C3F30C033B617B689B6C3D
:103D30003A699A421FD0124BDB6A114A23F0010301
:103D4000D362FEF72DF8786200BFFEF729F802462D
:103D50007B6A9342F9D00A4B5A6B0A4B13407A683C
:103D6000926CD200064913434B63054BDB6A044A4D
:103D700043F00103D362002318463037BD4680BDAF
:103D8000004402580700FFFF80B586B000AF78609E
:103D900039607B68002B01D101239CE18A4B1B68B1
:103DA00003F00F033A689A4210D9874B1B6823F03F
:103DB0000F0285493B6813430B60834B1B6803F07C
:103DC0000F033A689A4201D0012384E17B681B68A3
:103DD00003F00403002B10D07B681A697B4B9B69AE
:103DE00003F070039A4208D9784B9B6923F0700264
:103DF0007B681B69754913438B617B681B6803F003
:103E00000803002B10D07B685A69704BDB6903F004
:103E100070039A4208D96D4BDB6923F070027B680E
:103E20005B696A491343CB617B681B6803F010032D
:103E3000002B10D07B689A69644BDB6903F4E06364
:103E40009A4208D9614BDB6923F4E0627B689B6985
:103E50005E491343CB617B681B6803F02003002B92
:103E600010D07B68DA69594B1B6A03F070039A42E1
:103E700008D9564B1B6A23F070027B68DB695349F3
:103E800013430B627B681B6803F00203002B10D006
:103E90007B68DA684D4B9B6903F00F039A4208D99F
:103EA0004A4B9B6923F00F027B68DB684749134349
:103EB0008B617B681B6803F00103002B55D0434BDB
:103EC0009B6923F470627B689B68404913438B6154
:103ED0007B685B68022B07D13C4B1B6803F4003303
:103EE000002B21D10123F6E07B685B68032B07D10F
:103EF000364B1B6803F00073002B15D10123EAE059
:103F00007B685B68012B07D1304B1B6803F480731F
:103F1000002B09D10123DEE02C4B1B6803F00403C6
:103F2000002B01D10123D6E0284B1B6923F00702A7
:103F30007B685B68254913430B61FDF731FF7861AE
:103F40000AE0FDF72DFF02467B69D31A41F2883261
:103F5000934201D90323BEE01C4B1B6903F03802D6
:103F60007B685B68DB009A42EBD17B681B6803F0DF
:103F70000203002B10D07B68DA68144B9B6903F0B6
:103F80000F039A4208D2114B9B6923F00F027B6802
:103F9000DB680E4913438B610B4B1B6803F00F0367
:103FA0003A689A4214D2084B1B6823F00F02064964
:103FB0003B6813430B60044B1B6803F00F033A6824
:103FC0009A4205D0012386E00020005200440258A6
:103FD0007B681B6803F00403002B10D07B681A6910
:103FE0003F4B9B6903F070039A4208D23C4B9B699C
:103FF00023F070027B681B69394913438B617B682E
:104000001B6803F00803002B10D07B685A69344BFF
:10401000DB6903F070039A4208D2314BDB6923F06D
:1040200070027B685B692E491343CB617B681B6818
:1040300003F01003002B10D07B689A69284BDB69D2
:1040400003F4E0639A4208D2254BDB6923F4E06273
:104050007B689B6922491343CB617B681B6803F033
:104060002003002B10D07B68DA691D4B1B6A03F01C
:1040700070039A4208D21A4B1B6A23F070027B68C5
:10408000DB69174913430B6200F034F80246144B06
:104090009B691B0A03F00F031249CB5C03F01F035B
:1040A00022FA03F33B610E4B9B6903F00F030D4AA9
:1040B000D35C03F01F033A6922FA03F30A4A136040
:1040C0000A4A3B6913600A4B1B681846FDF71EFE3F
:1040D0000346FB73FB7B18461837BD4680BD00BF07
:1040E00000440258C4AA0008040000240000002470
:1040F0000800002480B489B000AFB34B1B6903F003
:104100003803182B00F2558101A252F823F000BFAA
:1041100075410008B3430008B3430008B3430008E7
:10412000B3430008B3430008B3430008B343000897
:104130009B410008B3430008B3430008B3430008A1
:10414000B3430008B3430008B3430008B343000877
:10415000A1410008B3430008B3430008B34300087B
:10416000B3430008B3430008B3430008B343000857
:10417000A7410008944B1B6803F02003002B09D0D3
:10418000914B1B68DB0803F00303904A22FA03F308
:10419000BB6111E18D4BBB610EE18D4BBB610BE14E
:1041A0008C4BBB6108E1884B9B6A03F003037B6186
:1041B000854B9B6A1B0903F03F033B61824BDB6A23
:1041C00003F00103FB60804B5B6BDB08C3F30C0364
:1041D000FA6802FB03F307EE903AF8EE677AC7ED50
:1041E000027A3B69002B00F0E1807B69022B00F032
:1041F00083807B69022B00F2A1807B69002B03D0B6
:104200007B69012B56D099E06F4B1B6803F02003AC
:10421000002B2DD06C4B1B68DB0803F003036B4AAB
:1042200022FA03F37B607B6807EE903AF8EE676A48
:104230003B6907EE903AF8EE677A86EEA77A624B12
:104240001B6BC3F3080307EE903AF8EE676A97ED2D
:10425000026ADFED615AC6EE257A76EEA77AF7EEAE
:10426000006A77EEA67A67EE277AC7ED077A87E0CD
:104270003B6907EE903AF8EE677ADFED586A86EE12
:10428000A77A514B1B6BC3F3080307EE903AF8EE85
:10429000676A97ED026ADFED505AC6EE257A76EE30
:1042A000A77AF7EE006A77EEA67A67EE277AC7ED6F
:1042B000077A65E03B6907EE903AF8EE677ADFED42
:1042C000486A86EEA77A404B1B6BC3F3080307EEE0
:1042D000903AF8EE676A97ED026ADFED3F5AC6EE54
:1042E000257A76EEA77AF7EE006A77EEA67A67EE81
:1042F000277AC7ED077A43E03B6907EE903AF8EE7C
:10430000677ADFED386A86EEA77A2F4B1B6BC3F313
:10431000080307EE903AF8EE676A97ED026ADFED60
:104320002E5AC6EE257A76EEA77AF7EE006A77EE79
:10433000A67A67EE277AC7ED077A21E03B6907EE98
:10434000903AF8EE677ADFED266A86EEA77A1E4B82
:104350001B6BC3F3080307EE903AF8EE676A97ED1C
:10436000026ADFED1D5AC6EE257A76EEA77AF7EEE1
:10437000006A77EEA67A67EE277AC7ED077A00BF64
:10438000114B1B6B5B0A03F07F0301333B603B68FF
:1043900007EE903AB8EE677AD7ED076AC6EE877AED
:1043A000FCEEE77A17EE903ABB6105E00023BB61B3
:1043B00002E0074BBB6100BFBB6918462437BD460E
:1043C0005DF8047B704700BF004402580090D003A2
:1043D00000093D0040787D01000000460024744C37
:1043E0000024744A20BCBE4B80B582B000AFFFF7FA
:1043F00081FE0246104B9B691B0A03F00F030F4915
:10440000CB5C03F01F0322FA03F37B600A4B9B692A
:1044100003F00F03094AD35C03F01F037A6822FA02
:1044200003F3074A1360074A7B681360044B1B6859
:1044300018460837BD4680BD00440258C4AA00088B
:1044400004000024000000242DE9B04FCAB000AFE2
:10445000C7F81401002387F82731002387F8263195
:10446000D7F81431D3E9002302F00064002554EAA0
:10447000050349D0D7F814319B6EB3F5401F2FD0F8
:10448000B3F5401F28D8B3F5001F1AD0B3F5001FAD
:1044900022D8002B03D0B3F5801F07D01CE0B84B07
:1044A000DB6AB74A43F40033D3621AE0D7F8143119
:1044B00008330221184601F0D1F9034687F8273165
:1044C0000FE0D7F8143128330221184601F078FAAA
:1044D000034687F8273104E0012387F8273100E0FD
:1044E00000BF97F82731002B0AD1A54B1B6D23F491
:1044F0004011D7F814319B6EA14A0B43136503E0BA
:1045000097F8273187F82631D7F81431D3E90023FB
:1045100002F480784FF0000958EA090347D0D7F831
:1045200014319B6D042B2AD801A252F823F000BF4E
:1045300045450008534500086945000887450008BF
:10454000874500088E4BDB6A8D4A43F40033D36203
:104550001AE0D7F8143108330021184601F07EF92B
:10456000034687F827310FE0D7F8143128330021AC
:10457000184601F025FA034687F8273104E00123A5
:1045800087F8273100E000BF97F82731002B0AD1C8
:104590007B4B1B6D23F00701D7F814319B6D784AD4
:1045A0000B43136503E097F8273187F82631D7F8D6
:1045B0001431D3E9002302F4007A4FF0000B5AEAD9
:1045C0000B034CD0D7F81431DB6DB3F5807F30D0BE
:1045D000B3F5807F29D8C02B2DD0C02B25D8802BB8
:1045E00018D0802B21D8002B02D0402B07D01CE004
:1045F000634BDB6A624A43F40033D3621CE0D7F8B2
:10460000143108330021184601F028F9034687F8D1
:10461000273111E0D7F8143128330021184601F072
:10462000CFF9034687F8273106E0012387F82731C1
:1046300002E000BF00E000BF97F82731002B0AD14D
:104640004F4B1B6D23F4E071D7F81431DB6D4C4AEE
:104650000B43136503E097F8273187F82631D7F825
:104660001431D3E9002302F48063C7F80831002332
:10467000C7F80C31D7E942120B46134353D0D7F891
:104680001431D3F8A830B3F5000F35D0B3F5000FCF
:104690002ED8B3F5C00F31D0B3F5C00F28D8B3F57D
:1046A000800F1AD0B3F5800F22D8002B03D0B3F5BA
:1046B000001F07D01CE0324BDB6A314A43F4003361
:1046C000D3621CE0D7F8143108330021184601F0FA
:1046D000C5F8034687F8273111E0D7F8143128339D
:1046E0000021184601F06CF9034687F8273106E0EF
:1046F000012387F8273102E000BF00E000BF97F8F0
:104700002731002B0BD11E4B9B6D23F46001D7F892
:104710001431D3F8A8301A4A0B43936503E097F895
:10472000273187F82631D7F81431D3E9002302F472
:104730000063C7F800310023C7F80431D7E94012FD
:104740000B46134356D0D7F81431D3F8AC30B3F13D
:10475000806F38D0B3F1806F31D8B3F1407F34D05F
:10476000B3F1407F2BD8B3F1007F1DD0B3F1007FB0
:1047700025D8002B06D0B3F1807F0AD01FE000BF00
:1047800000440258A24BDB6AA14A43F40033D362CF
:104790001CE0D7F8143108330021184601F05EF808
:1047A000034687F8273111E0D7F814312833002168
:1047B000184601F005F9034687F8273106E0012382
:1047C00087F8273102E000BF00E000BF97F82731EB
:1047D000002B0BD18E4B9B6D23F0E061D7F8143189
:1047E000D3F8AC308A4A0B43936503E097F827313E
:1047F00087F82631D7F81431D3E9002302F000738B
:10480000C7F8F8300023C7F8FC30D7E93E120B4652
:1048100013433AD0D7F81431DB6C302B1FD0302B38
:1048200019D8202B0CD0202B15D8002B19D0102BE9
:1048300011D1774BDB6A764A43F40033D36211E03F
:10484000D7F8143108330221184601F007F803465F
:1048500087F8273106E0012387F8273102E000BFFF
:1048600000E000BF97F82731002B0AD1684BDB6CC2
:1048700023F03001D7F81431DB6C654A0B43D36465
:1048800003E097F8273187F82631D7F81431D3E9B8
:10489000002302F48053C7F8F0300023C7F8F43047
:1048A000D7E93C120B46134351D0D7F814311B6E95
:1048B000B3F5804F35D0B3F5804F2ED8B3F5405FB8
:1048C00031D0B3F5405F28D8B3F5005F1AD0B3F507
:1048D000005F22D8002B03D0B3F5805F07D01CE027
:1048E0004B4BDB6A4A4A43F40033D3621CE0D7F8EF
:1048F000143108330021184600F0B0FF034687F852
:10490000273111E0D7F8143128330021184601F07F
:1049100057F8034687F8273106E0012387F8273147
:1049200002E000BF00E000BF97F82731002B0AD15A
:10493000374B1B6D23F4E041D7F814311B6E344A1A
:104940000B43136503E097F8273187F82631D7F832
:104950001431D3E9002302F40053C7F8E8300023F0
:10496000C7F8EC30D7E93A120B46134356D0D7F8C4
:1049700014315B6EB3F5A02F33D0B3F5A02F2CD834
:10498000B3F5802F2FD0B3F5802F26D8B3F5403F55
:104990002BD0B3F5403F20D8B3F5003F12D0B3F58C
:1049A000003F1AD8002B22D0B3F5803F15D1D7F89D
:1049B000143108330121184600F050FF034687F8F0
:1049C000273115E0D7F8143128330121184600F0BB
:1049D000F7FF034687F827310AE0012387F82731DC
:1049E00006E000BF04E000BF02E000BF00E000BF3F
:1049F00097F82731002B0DD1054B1B6D23F4E021D7
:104A0000D7F814315B6E024A0B43136506E000BF12
:104A10000044025897F8273187F82631D7F8143127
:104A2000D3E9002302F48043C7F8E0300023C7F83D
:104A3000E430D7E938120B46134355D0D7F8143178
:104A4000D3F8B030B3F1A04F33D0B3F1A04F2CD88E
:104A5000B3F1804F2FD0B3F1804F26D8B3F1405F30
:104A60002BD0B3F1405F20D8B3F1005F12D0B3F187
:104A7000005F1AD8002B22D0B3F1805F15D1D7F890
:104A8000143108330121184600F0E8FE034687F888
:104A9000273115E0D7F8143128330121184600F0EA
:104AA0008FFF034687F827310AE0012387F8273173
:104AB00006E000BF04E000BF02E000BF00E000BF6E
:104AC00097F82731002B0BD1A34B9B6D23F0E041CE
:104AD000D7F81431D3F8B0309F4A0B43936503E005
:104AE00097F8273187F82631D7F81431D3E9002316
:104AF00002F40043C7F8D8300023C7F8DC30D7E908
:104B000036120B46134337D0D7F814311B6FB3F16D
:104B1000005F0ED0B3F1005F16D8002B18D0B3F1B0
:104B2000805F11D18C4BDB6A8B4A43F40033D36234
:104B30000FE0D7F8143108330121184600F08EFE3B
:104B4000034687F8273104E0012387F8273100E086
:104B500000BF97F82731002B0AD17F4B1B6D23F044
:104B60004051D7F814311B6F7B4A0B43136503E0A8
:104B700097F8273187F82631D7F81431D3E9002385
:104B800002F08073C7F8D0300023C7F8D430D7E9DB
:104B900034120B46134339D0D7F814319B6C032BD6
:104BA0001CD801A252F823F0E54B0008B94B0008CD
:104BB000C74B0008E54B0008674BDB6A664A43F4C5
:104BC0000033D3620FE0D7F81431083302211846BE
:104BD00000F044FE034687F8273104E0012387F8FC
:104BE000273100E000BF97F82731002B0AD15A4B3C
:104BF000DB6C23F00301D7F814319B6C564A0B434E
:104C0000D36403E097F8273187F82631D7F81431B9
:104C1000D3E9002302F48003C7F8C8300023C7F8A3
:104C2000CC30D7E932120B46134300F09F804B4B38
:104C30001B684A4A43F480731360FDF7B1F8C7F864
:104C400020010BE0FDF7ACF80246D7F82031D31A6B
:104C5000642B03D9032387F8273105E03F4B1B68FA
:104C600003F48073002BEDD097F82731002B79D116
:104C7000394B1A6FD7F81431D3F8B430534003F4DA
:104C80004073002B15D0344B1B6F23F44073C7F8CF
:104C90001C31314B1B6F304A43F4803313672E4B6A
:104CA0001B6F2D4A23F4803313672B4AD7F81C312E
:104CB0001367D7F81431D3F8B430B3F5807F18D127
:104CC000FDF76EF8C7F820010DE0FDF769F8024620
:104CD000D7F82031D21A41F288339A4203D90323FC
:104CE00087F8273105E01C4B1B6F03F00203002BF4
:104CF000EBD097F82731002B29D1D7F81431D3F80E
:104D0000B43003F44073B3F5407F0ED1124B1B69EE
:104D100023F47C51D7F81431D3F8B4301A09104B6E
:104D200013400D4A0B43136105E00B4B1B690A4A04
:104D300023F47C531361084B196FD7F81431D3F85F
:104D4000B430C3F30B03044A0B4313670EE097F828
:104D5000273187F8263109E00044025800480258FC
:104D6000CFFFFF0097F8273187F82631D7F81431A5
:104D7000D3E9002302F00103C7F8C0300023C7F8CD
:104D8000C430D7E930120B46134300F08980D7F8BE
:104D90001431DB6F282B6BD801A252F823F000BF2F
:104DA000794E0008714E0008714E0008714E0008DF
:104DB000714E0008714E0008714E0008714E0008D7
:104DC000454E0008714E0008714E0008714E0008F3
:104DD000714E0008714E0008714E0008714E0008B7
:104DE0005B4E0008714E0008714E0008714E0008BD
:104DF000714E0008714E0008714E0008714E000897
:104E0000794E0008714E0008714E0008714E00087E
:104E1000714E0008714E0008714E0008714E000876
:104E2000794E0008714E0008714E0008714E00085E
:104E3000714E0008714E0008714E0008714E000856
:104E4000794E0008D7F8143108330121184600F0D4
:104E500005FD034687F827310FE0D7F814312833D2
:104E60000121184600F0ACFD034687F8273104E025
:104E7000012387F8273100E000BF97F82731002B86
:104E80000AD1BF4B5B6D23F03801D7F81431DB6FCB
:104E9000BB4A0B43536503E097F8273187F8263167
:104EA000D7F81431D3E9002302F00203C7F8B83071
:104EB0000023C7F8BC30D7E92E120B46134341D06C
:104EC000D7F814319B6F052B24D801A252F823F098
:104ED0001D4F0008E94E0008FF4E00081D4F000856
:104EE0001D4F00081D4F0008D7F814310833012169
:104EF000184600F0B3FC034687F827310FE0D7F8D7
:104F0000143128330121184600F05AFD034687F872
:104F1000273104E0012387F8273100E000BF97F82C
:104F20002731002B0AD1964B5B6D23F00701D7F890
:104F300014319B6F924A0B43536503E097F8273176
:104F400087F82631D7F81431D3E9002302F004039F
:104F5000C7F8B0300023C7F8B430D7E92C120B469D
:104F6000134344D0D7F81431D3F89430052B25D807
:104F700001A252F823F000BFC54F0008914F00086E
:104F8000A74F0008C54F0008C54F0008C54F0008CF
:104F9000D7F8143108330121184600F05FFC0346AE
:104FA00087F827310FE0D7F814312833012118464C
:104FB00000F006FD034687F8273104E0012387F857
:104FC000273100E000BF97F82731002B0BD16C4B45
:104FD0009B6D23F00701D7F81431D3F89430684A59
:104FE0000B43936503E097F8273187F82631D7F80C
:104FF0001431D3E9002302F02003C7F8A8300023BE
:10500000C7F8AC30D7E92A120B46134355D0D7F86E
:105010001431D3F89030B3F1A04F33D0B3F1A04F97
:105020002CD8B3F1804F2FD0B3F1804F26D8B3F1F5
:10503000405F2BD0B3F1405F20D8B3F1005F12D0B6
:10504000B3F1005F1AD8002B22D0B3F1805F15D1E5
:10505000D7F8143108330021184600F0FFFB03464F
:1050600087F8273115E0D7F8143128330221184684
:1050700000F0A6FC034687F827310AE0012387F8F1
:10508000273106E000BF04E000BF02E000BF00E0FF
:1050900000BF97F82731002B0BD1394B5B6D23F004
:1050A000E041D7F81431D3F89030354A0B435365BB
:1050B00003E097F8273187F82631D7F81431D3E980
:1050C000002302F04003C7F8A0300023C7F8A43043
:1050D000D7E928120B46134358D0D7F81431D3F828
:1050E0009C30B3F5A05F33D0B3F5A05F2CD8B3F5F7
:1050F000805F2FD0B3F5805F26D8B3F5406F2BD0FB
:10510000B3F5406F20D8B3F5006F12D0B3F5006F40
:105110001AD8002B22D0B3F5806F15D1D7F81431EF
:1051200008330021184600F099FB034687F8273121
:1051300015E0D7F8143128330221184600F040FC5E
:10514000034687F827310AE0012387F8273106E074
:1051500000BF04E000BF02E000BF00E000BF97F81E
:105160002731002B0ED1064B9B6D23F4E051D7F86D
:105170001431D3F89C30024A0B43936506E000BF1C
:105180000044025897F8273187F82631D7F81431B0
:10519000D3E9002302F08003C7F898300023C7F852
:1051A0009C30D7E926120B46134355D0D7F814315B
:1051B000D3F8A030B3F5204F33D0B3F5204F2CD81F
:1051C000B3F5004F2FD0B3F5004F26D8B3F5C04F3D
:1051D0002BD0B3F5C04F20D8B3F5804F12D0B3F524
:1051E000804F1AD8002B22D0B3F5005F15D1D7F825
:1051F000143108330021184600F030FB034687F8CD
:10520000273115E0D7F8143128330221184600F071
:10521000D7FB034687F827310AE0012387F82731B7
:1052200006E000BF04E000BF02E000BF00E000BFF6
:1052300097F82731002B0BD1A14B9B6D23F46041D4
:10524000D7F81431D3F8A0309D4A0B43936503E09F
:1052500097F8273187F82631D7F81431D3E900239E
:1052600002F00803C7F890300023C7F89430D7E95C
:1052700024120B4613431ED0D7F81431D3F88430D0
:10528000B3F5805F0CD1D7F81431283302211846CA
:1052900000F096FB0346002B02D0012387F826314D
:1052A000874B5B6D23F44051D7F81431D3F8843029
:1052B000834A0B435365D7F81431D3E9002302F036
:1052C0001003C7F888300023C7F88C30D7E92212C2
:1052D0000B4613431ED0D7F81431D3F89830B3F5EA
:1052E000807F0CD1D7F8143128330221184600F002
:1052F00067FB0346002B02D0012387F82631704B51
:105300009B6D23F44071D7F81431D3F898306C4A70
:105310000B439365D7F81431D3E9002302F400233B
:10532000C7F880300023C7F88430D7E920120B4635
:1053300013433ED0D7F81431D3F8A430B3F5003F6F
:1053400022D0B3F5003F1BD8002B03D0B3F5803F2C
:105350000BD015E0D7F8143108330021184600F0BF
:105360007DFA034687F827310FE0D7F81431283348
:105370000221184600F024FB034687F8273104E099
:10538000012387F8273100E000BF97F82731002B71
:105390000BD14B4B9B6D23F44031D7F81431D3F82C
:1053A000A430474A0B43936503E097F8273187F809
:1053B0002631D7F81431D3E9002302F48023BB67E8
:1053C0000023FB67D7E91E120B4613433BD0D7F8E7
:1053D0001431D3F88830B3F5401F1FD0B3F5401F08
:1053E00018D8B3F5801F03D0B3F5001F07D011E024
:1053F000334BDB6A324A43F40033D3620FE0D7F811
:10540000143128330121184600F0DAFA034687F8F0
:10541000273104E0012387F8273100E000BF97F827
:105420002731002B0BD1264B5B6D23F44011D7F8AD
:105430001431D3F88830224A0B43536503E097F8C0
:10544000273187F82631D7F81431D3E9002302F445
:1054500080333B6700237B67D7E91C120B4613435D
:1054600034D0D7F814311B6D002B03D0B3F5803F37
:1054700007D011E0124BDB6A114A43F40033D362C8
:105480000EE0D7F8143108330221184600F0E6F98F
:10549000034687F8273103E0012387F8273100BF4F
:1054A00097F82731002B0DD1054BDB6C23F48031AD
:1054B000D7F814311B6D024A0B43D36406E000BFDA
:1054C0000044025897F8273187F82631D7F814316D
:1054D000D3E9002302F00053BB660023FB66D7E943
:1054E0001A120B4613430CD0D7F81431283302217B
:1054F000184600F065FA0346002B02D0012387F816
:105500002631D7F81431D3E9002302F400333B6687
:1055100000237B66D7E918120B46134338D0D7F81F
:105520001431D3F88030B3F5407F18D0B3F5407F05
:1055300011D8B3F5007F14D0B3F5007F0BD8002B42
:1055400011D0B3F5807F06D1C34BDB6AC24A43F466
:105550000033D36208E0012387F8273104E000BF5D
:1055600002E000BF00E000BF97F82731002B0BD10D
:10557000B94B5B6D23F44071D7F81431D3F8803008
:10558000B54A0B43536503E097F8273187F8263176
:10559000D7F81431D3E9002302F48013BB6500234C
:1055A000FB65D7E916120B46134309D0AA4B1B6DB6
:1055B00023F00041D7F814315B6FA74A0B43136502
:1055C000D7F81431D3E9002302F080533B65002360
:1055D0007B65D7E914120B4613430AD09E4B1B6917
:1055E00023F48041D7F81431D3F8B8309A4A0B43EA
:1055F0001361D7F81431D3E9002302F40013BB641C
:105600000023FB64D7E912120B46134309D0924BD7
:105610001B6D23F08071D7F81431DB6E8E4A0B437B
:105620001365D7F81431D3E9002302F080433B64BB
:1056300000237B64D7E910120B4613430ED0864B30
:105640001B69854A23F400431361834B1969D7F81A
:105650001431D3F8BC30804A0B431361D7F81431AE
:10566000D3E9002302F00043BB630023FB63D7E9C7
:105670000E120B46134309D0774BDB6C23F04051DD
:10568000D7F814315B6D744A0B43D364D7F81431E7
:10569000D3E9002302F400033B6300237B63D7E9D3
:1056A0000C120B4613430AD06B4B5B6D23F4400185
:1056B000D7F81431D3F88C30674A0B435365D7F8C9
:1056C0001431D3E900230021B96203F00103FB6226
:1056D000D7E90A120B46134311D0D7F81431083317
:1056E0000021184600F0BAF8034687F8273197F8EA
:1056F0002731002B03D097F8273187F82631D7F8C8
:105700001431D3E900230021396203F002037B62E4
:10571000D7E908120B46134311D0D7F814310833D8
:105720000121184600F09AF8034687F8273197F8C8
:105730002731002B03D097F8273187F82631D7F887
:105740001431D3E900230021B96103F00403FB61A4
:10575000D7E906120B46134311D0D7F8143108339A
:105760000221184600F07AF8034687F8273197F8A7
:105770002731002B03D097F8273187F82631D7F847
:105780001431D3E900230021396103F008037B6160
:10579000D7E904120B46134311D0D7F8143128333C
:1057A0000021184600F00CF9034687F8273197F8D6
:1057B0002731002B03D097F8273187F82631D7F807
:1057C0001431D3E900230021B96003F01003FB601A
:1057D000D7E902120B46134311D0D7F814312833FE
:1057E0000121184600F0ECF8034687F8273197F8B6
:1057F0002731002B03D097F8273187F82631D7F8C7
:105800001431D3E900230021396003F020037B60C9
:10581000D7E900120B46134311D0D7F814312833BF
:105820000221184600F0CCF8034687F8273197F894
:105830002731002B03D097F8273187F8263197F8C6
:105840002631002B01D1002300E00123184607F583
:105850009477BD46BDE8B08F0044025880B584B04F
:1058600000AF786039600023FB73534B9B6A03F0F1
:105870000303032B01D1012399E04F4B1B684E4AD0
:1058800023F080631360FCF78BFAB86008E0FCF744
:1058900087FA0246BB68D31A022B01D9032386E09C
:1058A000454B1B6803F00063002BF0D1424B9B6A11
:1058B00023F47C327B681B681B033F4913438B62D4
:1058C0007B685B68013BC3F308027B689B68013B14
:1058D0005B029BB21A437B68DB68013B1B0403F449
:1058E000FE031A437B681B69013B1B0603F0FE4362
:1058F000314913438B63304BDB6A23F0C0027B6872
:105900005B692D491343CB622B4BDB6A23F02002EA
:105910007B689B6928491343CB62274BDB6A264A85
:1059200023F01003D362244BDA6B244B13407A68C4
:10593000D269D20020491343CB631F4BDB6A1E4A56
:1059400043F01003D3623B68002B06D11A4BDB6A8D
:10595000194A43F40023D3620FE03B68012B06D1C0
:10596000154BDB6A144A43F48013D36205E0124BF3
:10597000DB6A114A43F40013D3620F4B1B680E4AD3
:1059800043F080631360FCF70BFAB86008E0FCF7A3
:1059900007FA0246BB68D31A022B01D9032306E09B
:1059A000054B1B6803F00063002BF0D0FB7B18460F
:1059B0001037BD4680BD00BF004402580700FFFFFE
:1059C00080B584B000AF786039600023FB73534B1F
:1059D0009B6A03F00303032B01D1012399E04F4B92
:1059E0001B684E4A23F080531360FCF7D9F9B86066
:1059F00008E0FCF7D5F90246BB68D31A022B01D99F
:105A0000032386E0454B1B6803F00053002BF0D1C5
:105A1000424B9B6A23F07C727B681B681B053F49E5
:105A200013438B627B685B68013BC3F308027B68AE
:105A30009B68013B5B029BB21A437B68DB68013BBE
:105A40001B0403F4FE031A437B681B69013B1B061E
:105A500003F0FE43314913430B64304BDB6A23F4FC
:105A600040627B685B692D491343CB622B4BDB6A39
:105A700023F400727B689B6928491343CB62274B50
:105A8000DB6A264A23F48073D362244B5A6C244B7E
:105A900013407A68D269D200204913434B641F4BEC
:105AA000DB6A1E4A43F48073D3623B68002B06D145
:105AB0001A4BDB6A194A43F48003D3620FE03B6858
:105AC000012B06D1154BDB6A144A43F40003D36261
:105AD00005E0124BDB6A114A43F08073D3620F4B2F
